{
  "_format": "hh-sol-artifact-1",
  "contractName": "TestCSALatinHackHelper",
  "sourceName": "contracts/mock/TestCSALatinHackHelper.sol",
  "abi": [
    {
      "inputs": [
        {
          "internalType": "address",
          "name": "initialOwner",
          "type": "address"
        }
      ],
      "stateMutability": "nonpayable",
      "type": "constructor"
    },
    {
      "anonymous": false,
      "inputs": [
        {
          "indexed": true,
          "internalType": "address",
          "name": "_owner",
          "type": "address"
        },
        {
          "indexed": true,
          "internalType": "address",
          "name": "_operator",
          "type": "address"
        },
        {
          "indexed": false,
          "internalType": "bool",
          "name": "_approved",
          "type": "bool"
        }
      ],
      "name": "ApprovalForAll",
      "type": "event"
    },
    {
      "anonymous": false,
      "inputs": [
        {
          "indexed": false,
          "internalType": "uint256",
          "name": "seasonId",
          "type": "uint256"
        },
        {
          "indexed": false,
          "internalType": "address",
          "name": "member",
          "type": "address"
        },
        {
          "indexed": false,
          "internalType": "uint256",
          "name": "weekNumber",
          "type": "uint256"
        }
      ],
      "name": "BoxRedeemed",
      "type": "event"
    },
    {
      "anonymous": false,
      "inputs": [
        {
          "indexed": false,
          "internalType": "uint256",
          "name": "seasonId",
          "type": "uint256"
        },
        {
          "indexed": false,
          "internalType": "address",
          "name": "member",
          "type": "address"
        },
        {
          "indexed": false,
          "internalType": "uint256",
          "name": "amount",
          "type": "uint256"
        }
      ],
      "name": "MembershipPurchased",
      "type": "event"
    },
    {
      "anonymous": false,
      "inputs": [
        {
          "indexed": false,
          "internalType": "uint256",
          "name": "seasonId",
          "type": "uint256"
        },
        {
          "indexed": false,
          "internalType": "string",
          "name": "name",
          "type": "string"
        },
        {
          "indexed": false,
          "internalType": "uint256",
          "name": "price",
          "type": "uint256"
        },
        {
          "indexed": false,
          "internalType": "uint256",
          "name": "capacity",
          "type": "uint256"
        }
      ],
      "name": "SeasonCreated",
      "type": "event"
    },
    {
      "anonymous": false,
      "inputs": [
        {
          "indexed": true,
          "internalType": "address",
          "name": "_operator",
          "type": "address"
        },
        {
          "indexed": true,
          "internalType": "address",
          "name": "_from",
          "type": "address"
        },
        {
          "indexed": true,
          "internalType": "address",
          "name": "_to",
          "type": "address"
        },
        {
          "indexed": false,
          "internalType": "uint256",
          "name": "_id",
          "type": "uint256"
        },
        {
          "indexed": false,
          "internalType": "uint256",
          "name": "_amount",
          "type": "uint256"
        }
      ],
      "name": "TransferSingle",
      "type": "event"
    },
    {
      "inputs": [
        {
          "internalType": "address",
          "name": "account",
          "type": "address"
        },
        {
          "internalType": "uint256",
          "name": "id",
          "type": "uint256"
        }
      ],
      "name": "balanceOf",
      "outputs": [
        {
          "internalType": "uint256",
          "name": "",
          "type": "uint256"
        }
      ],
      "stateMutability": "view",
      "type": "function"
    },
    {
      "inputs": [
        {
          "internalType": "address",
          "name": "from",
          "type": "address"
        },
        {
          "internalType": "uint256",
          "name": "id",
          "type": "uint256"
        },
        {
          "internalType": "uint256",
          "name": "amount",
          "type": "uint256"
        }
      ],
      "name": "burn",
      "outputs": [],
      "stateMutability": "nonpayable",
      "type": "function"
    },
    {
      "inputs": [],
      "name": "buyMembership",
      "outputs": [],
      "stateMutability": "payable",
      "type": "function"
    },
    {
      "inputs": [
        {
          "internalType": "uint256",
          "name": "seasonId",
          "type": "uint256"
        }
      ],
      "name": "closeSeasonSales",
      "outputs": [],
      "stateMutability": "nonpayable",
      "type": "function"
    },
    {
      "inputs": [
        {
          "internalType": "string",
          "name": "seasonName",
          "type": "string"
        },
        {
          "internalType": "uint256",
          "name": "price",
          "type": "uint256"
        },
        {
          "internalType": "uint256",
          "name": "capacity",
          "type": "uint256"
        },
        {
          "internalType": "uint256",
          "name": "durationInWeeks",
          "type": "uint256"
        }
      ],
      "name": "createNewSeason",
      "outputs": [],
      "stateMutability": "nonpayable",
      "type": "function"
    },
    {
      "inputs": [
        {
          "internalType": "address",
          "name": "account",
          "type": "address"
        },
        {
          "internalType": "address",
          "name": "operator",
          "type": "address"
        }
      ],
      "name": "isApprovedForAll",
      "outputs": [
        {
          "internalType": "bool",
          "name": "",
          "type": "bool"
        }
      ],
      "stateMutability": "view",
      "type": "function"
    },
    {
      "inputs": [],
      "name": "owner",
      "outputs": [
        {
          "internalType": "address",
          "name": "",
          "type": "address"
        }
      ],
      "stateMutability": "view",
      "type": "function"
    },
    {
      "inputs": [
        {
          "internalType": "uint256",
          "name": "seasonId",
          "type": "uint256"
        }
      ],
      "name": "redeemWeeklyBox",
      "outputs": [],
      "stateMutability": "nonpayable",
      "type": "function"
    },
    {
      "inputs": [
        {
          "internalType": "address",
          "name": "from",
          "type": "address"
        },
        {
          "internalType": "address",
          "name": "to",
          "type": "address"
        },
        {
          "internalType": "uint256",
          "name": "id",
          "type": "uint256"
        },
        {
          "internalType": "uint256",
          "name": "amount",
          "type": "uint256"
        },
        {
          "internalType": "bytes",
          "name": "data",
          "type": "bytes"
        }
      ],
      "name": "safeTransferFrom",
      "outputs": [],
      "stateMutability": "nonpayable",
      "type": "function"
    },
    {
      "inputs": [
        {
          "internalType": "uint256",
          "name": "",
          "type": "uint256"
        }
      ],
      "name": "seasons",
      "outputs": [
        {
          "internalType": "string",
          "name": "name",
          "type": "string"
        },
        {
          "internalType": "uint256",
          "name": "membershipPrice",
          "type": "uint256"
        },
        {
          "internalType": "uint256",
          "name": "totalMemberships",
          "type": "uint256"
        },
        {
          "internalType": "uint256",
          "name": "soldMemberships",
          "type": "uint256"
        },
        {
          "internalType": "uint256",
          "name": "startTime",
          "type": "uint256"
        },
        {
          "internalType": "uint256",
          "name": "endTime",
          "type": "uint256"
        },
        {
          "internalType": "bool",
          "name": "isOpenForSale",
          "type": "bool"
        }
      ],
      "stateMutability": "view",
      "type": "function"
    },
    {
      "inputs": [
        {
          "internalType": "address",
          "name": "operator",
          "type": "address"
        },
        {
          "internalType": "bool",
          "name": "approved",
          "type": "bool"
        }
      ],
      "name": "setApprovalForAll",
      "outputs": [],
      "stateMutability": "nonpayable",
      "type": "function"
    },
    {
      "inputs": [
        {
          "internalType": "address",
          "name": "to",
          "type": "address"
        },
        {
          "internalType": "uint256",
          "name": "id",
          "type": "uint256"
        },
        {
          "internalType": "uint256",
          "name": "amount",
          "type": "uint256"
        }
      ],
      "name": "testMint",
      "outputs": [],
      "stateMutability": "nonpayable",
      "type": "function"
    },
    {
      "inputs": [
        {
          "internalType": "address",
          "name": "newOwner",
          "type": "address"
        }
      ],
      "name": "transferOwnership",
      "outputs": [],
      "stateMutability": "nonpayable",
      "type": "function"
    },
    {
      "inputs": [
        {
          "internalType": "address",
          "name": "",
          "type": "address"
        },
        {
          "internalType": "uint256",
          "name": "",
          "type": "uint256"
        },
        {
          "internalType": "uint256",
          "name": "",
          "type": "uint256"
        }
      ],
      "name": "weeklyRedemptions",
      "outputs": [
        {
          "internalType": "bool",
          "name": "",
          "type": "bool"
        }
      ],
      "stateMutability": "view",
      "type": "function"
    },
    {
      "inputs": [],
      "name": "withdraw",
      "outputs": [],
      "stateMutability": "nonpayable",
      "type": "function"
    }
  ],
  "bytecode": "608060405234801561001057600080fd5b506040516139fd3803806139fd83398181016040528101906100329190610131565b8061004d67174b8c78185fd87860c01b6100c860201b60201c565b610067679501821f7f87d8a860c01b6100c860201b60201c565b806000806101000a81548173ffffffffffffffffffffffffffffffffffffffff021916908373ffffffffffffffffffffffffffffffffffffffff160217905550506100c267604737e8edafb87860c01b6100cb60201b60201c565b5061015e565b50565b50565b600080fd5b600073ffffffffffffffffffffffffffffffffffffffff82169050919050565b60006100fe826100d3565b9050919050565b61010e816100f3565b811461011957600080fd5b50565b60008151905061012b81610105565b92915050565b600060208284031215610147576101466100ce565b5b60006101558482850161011c565b91505092915050565b6138908061016d6000396000f3fe6080604052600436106100e75760003560e01c8063833727e81161008a578063f242432a11610059578063f242432a146102bc578063f2fde38b146102e5578063f5298aca1461030e578063f5d709a114610337576100e7565b8063833727e8146101ee5780638da5cb5b1461022b578063a22cb46514610256578063e985e9c51461027f576100e7565b80635c581119116100c65780635c581119146101695780636cc07beb1461017357806373afd2001461019c578063793e9f26146101c5576100e7565b8062fdd58e146100ec5780633aef7c80146101295780633ccfd60b14610152575b600080fd5b3480156100f857600080fd5b50610113600480360381019061010e91906123cd565b61037a565b604051610120919061241c565b60405180910390f35b34801561013557600080fd5b50610150600480360381019061014b919061257d565b6104d0565b005b34801561015e57600080fd5b50610167610825565b005b610171610aaf565b005b34801561017f57600080fd5b5061019a60048036038101906101959190612600565b610e82565b005b3480156101a857600080fd5b506101c360048036038101906101be9190612600565b6110b0565b005b3480156101d157600080fd5b506101ec60048036038101906101e7919061262d565b611495565b005b3480156101fa57600080fd5b506102156004803603810190610210919061262d565b6114e1565b604051610222919061269b565b60405180910390f35b34801561023757600080fd5b5061024061151d565b60405161024d91906126c5565b60405180910390f35b34801561026257600080fd5b5061027d6004803603810190610278919061270c565b611541565b005b34801561028b57600080fd5b506102a660048036038101906102a1919061274c565b61168e565b6040516102b3919061269b565b60405180910390f35b3480156102c857600080fd5b506102e360048036038101906102de919061282d565b61175e565b005b3480156102f157600080fd5b5061030c600480360381019061030791906128c4565b611bbe565b005b34801561031a57600080fd5b506103356004803603810190610330919061262d565b611d57565b005b34801561034357600080fd5b5061035e60048036038101906103599190612600565b612033565b6040516103719796959493929190612970565b60405180910390f35b6000610390679279efb8ef981a3060c01b61211a565b6103a4678722baaacce81d6160c01b61211a565b6103b867bdb9596865ed9ad560c01b61211a565b6103cc671a55db0f8cfd4e8060c01b61211a565b600073ffffffffffffffffffffffffffffffffffffffff168373ffffffffffffffffffffffffffffffffffffffff160361043b576040517f08c379a000000000000000000000000000000000000000000000000000000000815260040161043290612a32565b60405180910390fd5b61044f67d2370ec6244ca36c60c01b61211a565b61046367401462332332882260c01b61211a565b61047767bd6fd405258b4d8960c01b61211a565b6001600083815260200190815260200160002060008473ffffffffffffffffffffffffffffffffffffffff1673ffffffffffffffffffffffffffffffffffffffff16815260200190815260200160002054905092915050565b6104e46776a576c5c04cd15160c01b61211a565b6104f867f2ed1b4a44fbf98460c01b61211a565b61050c67a2462d488cee23d760c01b61211a565b61052067557b335ac95ad78a60c01b61211a565b61053467ca8e3dec27ac1f6460c01b61211a565b3373ffffffffffffffffffffffffffffffffffffffff1660008054906101000a900473ffffffffffffffffffffffffffffffffffffffff1673ffffffffffffffffffffffffffffffffffffffff16146105c2576040517f08c379a00000000000000000000000000000000000000000000000000000000081526004016105b990612ac4565b60405180910390fd5b6105d667359d9814bf9feea860c01b61211a565b6105ea67d816f48982bae2d860c01b61211a565b6105fe6726b76f614a5b539560c01b61211a565b610612675729316e7f42628860c01b61211a565b6106266762313e3ca54bddbb60c01b61211a565b61063a67f2b44e8873aa0e4f60c01b61211a565b60004290506106536734d145834245305b60c01b61211a565b61066767cc155cbd77c10a9560c01b61211a565b600062093a80836106789190612b13565b826106839190612b55565b9050610699671c400ee8c770560b60c01b61211a565b6106ad6709f6a8bfbd213d3760c01b61211a565b60036040518060e001604052808881526020018781526020018681526020016000815260200184815260200183815260200160011515815250908060018154018082558091505060019003906000526020600020906007020160009091909190915060008201518160000190816107249190612d95565b506020820151816001015560408201518160020155606082015181600301556080820151816004015560a0820151816005015560c08201518160060160006101000a81548160ff021916908315150217905550505061078d6778d3fcf64671693a60c01b61211a565b6107a167374fc8eedadf2ace60c01b61211a565b600060016003805490506107b59190612e67565b90506107cb6704b7017f82a206db60c01b61211a565b6107df675dc7eb6f3bb759a360c01b61211a565b7fc53cf244672e3e1eed9acdcd22658f6c1cee6d44144f1a17e4a1609b803aa605818888886040516108149493929190612e9b565b60405180910390a150505050505050565b61083967daef46c5b6b927ef60c01b61211a565b61084d67f2ed1b4a44fbf98460c01b61211a565b61086167a2462d488cee23d760c01b61211a565b61087567557b335ac95ad78a60c01b61211a565b61088967ca8e3dec27ac1f6460c01b61211a565b3373ffffffffffffffffffffffffffffffffffffffff1660008054906101000a900473ffffffffffffffffffffffffffffffffffffffff1673ffffffffffffffffffffffffffffffffffffffff1614610917576040517f08c379a000000000000000000000000000000000000000000000000000000000815260040161090e90612ac4565b60405180910390fd5b61092b67359d9814bf9feea860c01b61211a565b61093f67d816f48982bae2d860c01b61211a565b61095367a9560cfaa8729dd860c01b61211a565b61096767acaf3e3bdcd0662360c01b61211a565b61097b6791e3f086d54a48d060c01b61211a565b61098f675be1a7e02590b57b60c01b61211a565b60008060009054906101000a900473ffffffffffffffffffffffffffffffffffffffff1673ffffffffffffffffffffffffffffffffffffffff16476040516109d690612f18565b60006040518083038185875af1925050503d8060008114610a13576040519150601f19603f3d011682016040523d82523d6000602084013e610a18565b606091505b50509050610a306705049a72ebbedbb560c01b61211a565b610a446713d2c004e544eb5860c01b61211a565b610a58673604d23a0915cffb60c01b61211a565b80610a98576040517f08c379a0000000000000000000000000000000000000000000000000000000008152600401610a8f90612f79565b60405180910390fd5b610aac6781535b54d179a39460c01b61211a565b50565b610ac367264554117a9c3f0d60c01b61211a565b610ad76741aefb0ee5b365b860c01b61211a565b610aeb676bf448c4a3f46b0a60c01b61211a565b610aff67682b786d7890867d60c01b61211a565b600060038054905011610b47576040517f08c379a0000000000000000000000000000000000000000000000000000000008152600401610b3e90612fe5565b60405180910390fd5b610b5b677170857319a06f1160c01b61211a565b610b6f677c64f852750960f760c01b61211a565b610b83674db00eeb688bc28260c01b61211a565b60006001600380549050610b979190612e67565b9050610bad6754f7453f6a34ae7160c01b61211a565b610bc16716ca88cf64c0e13460c01b61211a565b600060038281548110610bd757610bd6613005565b5b90600052602060002090600702019050610bfb67ea6ea91bc096c8c860c01b61211a565b610c0f677e0dd8b225ed278e60c01b61211a565b610c23670d79d2f130641ff160c01b61211a565b8060060160009054906101000a900460ff16610c74576040517f08c379a0000000000000000000000000000000000000000000000000000000008152600401610c6b90613080565b60405180910390fd5b610c8867500e7afe5b24773860c01b61211a565b610c9c67c74151f66221f2f460c01b61211a565b610cb0677f79db4f74f1f1b060c01b61211a565b610cc4671f56fba510d6590660c01b61211a565b8060020154816003015410610d0e576040517f08c379a0000000000000000000000000000000000000000000000000000000008152600401610d0590613112565b60405180910390fd5b610d2267955648c63689eaf160c01b61211a565b610d366737f1f469d129652160c01b61211a565b610d4a675e3449a9dd7ec8d560c01b61211a565b610d5e6702395cd3538bd92860c01b61211a565b80600101543414610da4576040517f08c379a0000000000000000000000000000000000000000000000000000000008152600401610d9b9061317e565b60405180910390fd5b610db867332618ad63b4e84760c01b61211a565b610dcc6713bc1a10dda5003d60c01b61211a565b806003016000815480929190610de19061319e565b9190505550610dfa67fcbc02cbffd3ea0160c01b61211a565b610e0e67d2245559a5d1a62460c01b61211a565b610e1a3383600161211d565b610e2e6723b868078f7a53d460c01b61211a565b610e4267ad90fe428c5f2a1960c01b61211a565b7f3040ff01f7e0ef639d0a39654b7be379473b85453c82254b1ab871accbd51edf82336001604051610e7693929190613221565b60405180910390a15050565b610e9667ced86a6dce9236cd60c01b61211a565b610eaa67f2ed1b4a44fbf98460c01b61211a565b610ebe67a2462d488cee23d760c01b61211a565b610ed267557b335ac95ad78a60c01b61211a565b610ee667ca8e3dec27ac1f6460c01b61211a565b3373ffffffffffffffffffffffffffffffffffffffff1660008054906101000a900473ffffffffffffffffffffffffffffffffffffffff1673ffffffffffffffffffffffffffffffffffffffff1614610f74576040517f08c379a0000000000000000000000000000000000000000000000000000000008152600401610f6b90612ac4565b60405180910390fd5b610f8867359d9814bf9feea860c01b61211a565b610f9c67d816f48982bae2d860c01b61211a565b610fb0675766c3ee9f0eecd660c01b61211a565b610fc467b26f6f2d6a64435060c01b61211a565b610fd8676b5f75c77c728b0a60c01b61211a565b610fec67a459bddf34fc32ae60c01b61211a565b61100067e565d47c0551691060c01b61211a565b6003805490508110611047576040517f08c379a000000000000000000000000000000000000000000000000000000000815260040161103e906132a4565b60405180910390fd5b61105b675833822dcc4db80460c01b61211a565b61106f6776802bce523484c660c01b61211a565b60006003828154811061108557611084613005565b5b906000526020600020906007020160060160006101000a81548160ff02191690831515021790555050565b6110c467fd1a9ffcbafd415d60c01b61211a565b6110d8675a5ca89cd578fb2260c01b61211a565b6110ec67960db5458c91609f60c01b61211a565b61110067e4acbf1bbb2a6e7d60c01b61211a565b600161110c338361037a565b101561114d576040517f08c379a000000000000000000000000000000000000000000000000000000000815260040161114490613336565b60405180910390fd5b61116167ef35db9785b67d1960c01b61211a565b611175672bc8cf295564769560c01b61211a565b611189676dc60fde1fbe8c8e60c01b61211a565b60006003828154811061119f5761119e613005565b5b906000526020600020906007020190506111c36778f88b4998204b0c60c01b61211a565b6111d767b7c362c3fdee899a60c01b61211a565b6111eb675c4635ddfe7f20a260c01b61211a565b80600401544210158015611203575080600501544211155b611242576040517f08c379a0000000000000000000000000000000000000000000000000000000008152600401611239906133c8565b60405180910390fd5b61125667162741efa429dbc460c01b61211a565b61126a67687e97e91aca645d60c01b61211a565b61127e673a0733d844abad4d60c01b61211a565b600062093a808260040154426112949190612e67565b61129e9190613417565b90506112b46762f43b2a322a9ac160c01b61211a565b6112c86783e6630d2c91e43960c01b61211a565b6112dc67a23df6837c26eb6e60c01b61211a565b600460003373ffffffffffffffffffffffffffffffffffffffff1673ffffffffffffffffffffffffffffffffffffffff1681526020019081526020016000206000848152602001908152602001600020600082815260200190815260200160002060009054906101000a900460ff161561138b576040517f08c379a0000000000000000000000000000000000000000000000000000000008152600401611382906134ba565b60405180910390fd5b61139f678838f34d2482452560c01b61211a565b6113b3674f72589ecc3e3d2160c01b61211a565b6001600460003373ffffffffffffffffffffffffffffffffffffffff1673ffffffffffffffffffffffffffffffffffffffff1681526020019081526020016000206000858152602001908152602001600020600083815260200190815260200160002060006101000a81548160ff02191690831515021790555061144167aa273ce4fa6f8a2360c01b61211a565b61145567fd7e78fe381d075760c01b61211a565b7ff5cf00eb1f48ddf482622c8808e58960924c23a2a09920f594da63271914d5d1833383604051611488939291906134da565b60405180910390a1505050565b6114a967cfd9cbc9ecabcbbb60c01b612317565b6114bd67d04ca947dcc318bf60c01b612317565b6114d167ece3e9e421ca25ee60c01b612317565b6114dc83838361211d565b505050565b6004602052826000526040600020602052816000526040600020602052806000526040600020600092509250509054906101000a900460ff1681565b60008054906101000a900473ffffffffffffffffffffffffffffffffffffffff1681565b61155567af3298e7370f07e760c01b61211a565b6115696784a76c2b7903943060c01b61211a565b80600260003373ffffffffffffffffffffffffffffffffffffffff1673ffffffffffffffffffffffffffffffffffffffff16815260200190815260200160002060008473ffffffffffffffffffffffffffffffffffffffff1673ffffffffffffffffffffffffffffffffffffffff16815260200190815260200160002060006101000a81548160ff02191690831515021790555061161167272068b4218919c960c01b61211a565b61162567478f91e42f0e000f60c01b61211a565b8173ffffffffffffffffffffffffffffffffffffffff163373ffffffffffffffffffffffffffffffffffffffff167f17307eab39ab6107e8899845ad3d59bd9653f200f220920489ca2b5937696c3183604051611682919061269b565b60405180910390a35050565b60006116a467499c32c3635ce29160c01b61211a565b6116b8679f08b105cd78486c60c01b61211a565b6116cc6716d692b8ddbf6e4e60c01b61211a565b600260008473ffffffffffffffffffffffffffffffffffffffff1673ffffffffffffffffffffffffffffffffffffffff16815260200190815260200160002060008373ffffffffffffffffffffffffffffffffffffffff1673ffffffffffffffffffffffffffffffffffffffff16815260200190815260200160002060009054906101000a900460ff16905092915050565b611772675a63706bc897625960c01b61211a565b61178667704e2858fa8fbe3160c01b61211a565b61179a67f6156027b08c428760c01b61211a565b6117ae67b340599f3932a4b160c01b61211a565b3373ffffffffffffffffffffffffffffffffffffffff168573ffffffffffffffffffffffffffffffffffffffff161480156117f957506117f867a8e4e2e8ea1cb91360c01b61231a565b5b806118265750611809853361168e565b801561182557506118246713799089c2531b1960c01b61231a565b5b5b611865576040517f08c379a000000000000000000000000000000000000000000000000000000000815260040161185c9061355d565b60405180910390fd5b61187967160f5be48809410a60c01b61211a565b61188d6772314ff21f703faa60c01b61211a565b6118a167370d155ddc60153960c01b61211a565b6118b567c5247758c6ac400560c01b61211a565b600073ffffffffffffffffffffffffffffffffffffffff168473ffffffffffffffffffffffffffffffffffffffff1603611924576040517f08c379a000000000000000000000000000000000000000000000000000000000815260040161191b906135ef565b60405180910390fd5b611938678cff14ddf8bcbc1760c01b61211a565b61194c67bacc349864622c6960c01b61211a565b61196067fb9609ff716e021b60c01b61211a565b61197467df1c310a7581acf260c01b61211a565b816001600085815260200190815260200160002060008773ffffffffffffffffffffffffffffffffffffffff1673ffffffffffffffffffffffffffffffffffffffff168152602001908152602001600020541015611a07576040517f08c379a00000000000000000000000000000000000000000000000000000000081526004016119fe9061365b565b60405180910390fd5b611a1b671f85fc972da4411660c01b61211a565b611a2f671971dda855d8379a60c01b61211a565b816001600085815260200190815260200160002060008773ffffffffffffffffffffffffffffffffffffffff1673ffffffffffffffffffffffffffffffffffffffff1681526020019081526020016000206000828254611a8f9190612e67565b92505081905550611aaa6755f57e187281b6b760c01b61211a565b816001600085815260200190815260200160002060008673ffffffffffffffffffffffffffffffffffffffff1673ffffffffffffffffffffffffffffffffffffffff1681526020019081526020016000206000828254611b0a9190612b55565b92505081905550611b25676c7bee72cb827dd560c01b61211a565b611b3967f68e99404a3a4e4f60c01b61211a565b8373ffffffffffffffffffffffffffffffffffffffff168573ffffffffffffffffffffffffffffffffffffffff163373ffffffffffffffffffffffffffffffffffffffff167fc3d58168c5ae7397731d063d5bbf3d657854427343f4c083240f7aacaa2d0f628686604051611baf92919061367b565b60405180910390a45050505050565b611bd2676c6af688e0e0bb2660c01b61211a565b611be667f2ed1b4a44fbf98460c01b61211a565b611bfa67a2462d488cee23d760c01b61211a565b611c0e67557b335ac95ad78a60c01b61211a565b611c2267ca8e3dec27ac1f6460c01b61211a565b3373ffffffffffffffffffffffffffffffffffffffff1660008054906101000a900473ffffffffffffffffffffffffffffffffffffffff1673ffffffffffffffffffffffffffffffffffffffff1614611cb0576040517f08c379a0000000000000000000000000000000000000000000000000000000008152600401611ca790612ac4565b60405180910390fd5b611cc467359d9814bf9feea860c01b61211a565b611cd867d816f48982bae2d860c01b61211a565b611cec67cf3bc652e734df7760c01b61211a565b611d0067d072d3b00c99cad760c01b61211a565b611d14672d85bb237b88611460c01b61211a565b806000806101000a81548173ffffffffffffffffffffffffffffffffffffffff021916908373ffffffffffffffffffffffffffffffffffffffff16021790555050565b611d6b677ddb4cd4deca8c8a60c01b61211a565b611d7f67c7c047f3330f7bb160c01b61211a565b611d9367ff8c21152cd4b42e60c01b61211a565b611da767ab267b289bf7e22360c01b61211a565b3373ffffffffffffffffffffffffffffffffffffffff168373ffffffffffffffffffffffffffffffffffffffff1614611e15576040517f08c379a0000000000000000000000000000000000000000000000000000000008152600401611e0c90613716565b60405180910390fd5b611e2967e6860ec9ad94585e60c01b61211a565b611e3d6752cac397e7fe50f460c01b61211a565b611e5167ba50882c3c8158b760c01b61211a565b611e6567bd79d4c7cf57e00660c01b61211a565b806001600084815260200190815260200160002060008573ffffffffffffffffffffffffffffffffffffffff1673ffffffffffffffffffffffffffffffffffffffff168152602001908152602001600020541015611ef8576040517f08c379a0000000000000000000000000000000000000000000000000000000008152600401611eef906137a8565b60405180910390fd5b611f0c67d3fc60edbb06f55f60c01b61211a565b611f20670a5bb3f85ef70aea60c01b61211a565b806001600084815260200190815260200160002060008573ffffffffffffffffffffffffffffffffffffffff1673ffffffffffffffffffffffffffffffffffffffff1681526020019081526020016000206000828254611f809190612e67565b92505081905550611f9b6722054a042928236d60c01b61211a565b611faf678055e1e0fb8dff6f60c01b61211a565b600073ffffffffffffffffffffffffffffffffffffffff168373ffffffffffffffffffffffffffffffffffffffff163373ffffffffffffffffffffffffffffffffffffffff167fc3d58168c5ae7397731d063d5bbf3d657854427343f4c083240f7aacaa2d0f62858560405161202692919061367b565b60405180910390a4505050565b6003818154811061204357600080fd5b906000526020600020906007020160009150905080600001805461206690612bb8565b80601f016020809104026020016040519081016040528092919081815260200182805461209290612bb8565b80156120df5780601f106120b4576101008083540402835291602001916120df565b820191906000526020600020905b8154815290600101906020018083116120c257829003601f168201915b5050505050908060010154908060020154908060030154908060040154908060050154908060060160009054906101000a900460ff16905087565b50565b61213167e7669dd182a8727c60c01b61211a565b612145678bc11e9f6bb432ee60c01b61211a565b61215967b7923e14459f7c6260c01b61211a565b61216d67300eda3e153dff4760c01b61211a565b600073ffffffffffffffffffffffffffffffffffffffff168373ffffffffffffffffffffffffffffffffffffffff16036121dc576040517f08c379a00000000000000000000000000000000000000000000000000000000081526004016121d39061383a565b60405180910390fd5b6121f067cf5de4b7bcfd57d960c01b61211a565b61220467e73c9195ac77d5bb60c01b61211a565b806001600084815260200190815260200160002060008573ffffffffffffffffffffffffffffffffffffffff1673ffffffffffffffffffffffffffffffffffffffff16815260200190815260200160002060008282546122649190612b55565b9250508190555061227f677db718e892d255ca60c01b61211a565b61229367d50b5df6d8011a9760c01b61211a565b8273ffffffffffffffffffffffffffffffffffffffff16600073ffffffffffffffffffffffffffffffffffffffff163373ffffffffffffffffffffffffffffffffffffffff167fc3d58168c5ae7397731d063d5bbf3d657854427343f4c083240f7aacaa2d0f62858560405161230a92919061367b565b60405180910390a4505050565b50565b600060019050919050565b6000604051905090565b600080fd5b600080fd5b600073ffffffffffffffffffffffffffffffffffffffff82169050919050565b600061236482612339565b9050919050565b61237481612359565b811461237f57600080fd5b50565b6000813590506123918161236b565b92915050565b6000819050919050565b6123aa81612397565b81146123b557600080fd5b50565b6000813590506123c7816123a1565b92915050565b600080604083850312156123e4576123e361232f565b5b60006123f285828601612382565b9250506020612403858286016123b8565b9150509250929050565b61241681612397565b82525050565b6000602082019050612431600083018461240d565b92915050565b600080fd5b600080fd5b6000601f19601f8301169050919050565b7f4e487b7100000000000000000000000000000000000000000000000000000000600052604160045260246000fd5b61248a82612441565b810181811067ffffffffffffffff821117156124a9576124a8612452565b5b80604052505050565b60006124bc612325565b90506124c88282612481565b919050565b600067ffffffffffffffff8211156124e8576124e7612452565b5b6124f182612441565b9050602081019050919050565b82818337600083830152505050565b600061252061251b846124cd565b6124b2565b90508281526020810184848401111561253c5761253b61243c565b5b6125478482856124fe565b509392505050565b600082601f83011261256457612563612437565b5b813561257484826020860161250d565b91505092915050565b600080600080608085870312156125975761259661232f565b5b600085013567ffffffffffffffff8111156125b5576125b4612334565b5b6125c18782880161254f565b94505060206125d2878288016123b8565b93505060406125e3878288016123b8565b92505060606125f4878288016123b8565b91505092959194509250565b6000602082840312156126165761261561232f565b5b6000612624848285016123b8565b91505092915050565b6000806000606084860312156126465761264561232f565b5b600061265486828701612382565b9350506020612665868287016123b8565b9250506040612676868287016123b8565b9150509250925092565b60008115159050919050565b61269581612680565b82525050565b60006020820190506126b0600083018461268c565b92915050565b6126bf81612359565b82525050565b60006020820190506126da60008301846126b6565b92915050565b6126e981612680565b81146126f457600080fd5b50565b600081359050612706816126e0565b92915050565b600080604083850312156127235761272261232f565b5b600061273185828601612382565b9250506020612742858286016126f7565b9150509250929050565b600080604083850312156127635761276261232f565b5b600061277185828601612382565b925050602061278285828601612382565b9150509250929050565b600067ffffffffffffffff8211156127a7576127a6612452565b5b6127b082612441565b9050602081019050919050565b60006127d06127cb8461278c565b6124b2565b9050828152602081018484840111156127ec576127eb61243c565b5b6127f78482856124fe565b509392505050565b600082601f83011261281457612813612437565b5b81356128248482602086016127bd565b91505092915050565b600080600080600060a086880312156128495761284861232f565b5b600061285788828901612382565b955050602061286888828901612382565b9450506040612879888289016123b8565b935050606061288a888289016123b8565b925050608086013567ffffffffffffffff8111156128ab576128aa612334565b5b6128b7888289016127ff565b9150509295509295909350565b6000602082840312156128da576128d961232f565b5b60006128e884828501612382565b91505092915050565b600081519050919050565b600082825260208201905092915050565b60005b8381101561292b578082015181840152602081019050612910565b60008484015250505050565b6000612942826128f1565b61294c81856128fc565b935061295c81856020860161290d565b61296581612441565b840191505092915050565b600060e082019050818103600083015261298a818a612937565b9050612999602083018961240d565b6129a6604083018861240d565b6129b3606083018761240d565b6129c0608083018661240d565b6129cd60a083018561240d565b6129da60c083018461268c565b98975050505050505050565b7f455243313135353a20646972656363696f6e20696e76616c6964610000000000600082015250565b6000612a1c601b836128fc565b9150612a27826129e6565b602082019050919050565b60006020820190508181036000830152612a4b81612a0f565b9050919050565b7f4353413a20517569656e206c6c616d61206e6f20657320656c2070726f70696560008201527f746172696f000000000000000000000000000000000000000000000000000000602082015250565b6000612aae6025836128fc565b9150612ab982612a52565b604082019050919050565b60006020820190508181036000830152612add81612aa1565b9050919050565b7f4e487b7100000000000000000000000000000000000000000000000000000000600052601160045260246000fd5b6000612b1e82612397565b9150612b2983612397565b9250828202612b3781612397565b91508282048414831517612b4e57612b4d612ae4565b5b5092915050565b6000612b6082612397565b9150612b6b83612397565b9250828201905080821115612b8357612b82612ae4565b5b92915050565b7f4e487b7100000000000000000000000000000000000000000000000000000000600052602260045260246000fd5b60006002820490506001821680612bd057607f821691505b602082108103612be357612be2612b89565b5b50919050565b60008190508160005260206000209050919050565b60006020601f8301049050919050565b600082821b905092915050565b600060088302612c4b7fffffffffffffffffffffffffffffffffffffffffffffffffffffffffffffffff82612c0e565b612c558683612c0e565b95508019841693508086168417925050509392505050565b6000819050919050565b6000612c92612c8d612c8884612397565b612c6d565b612397565b9050919050565b6000819050919050565b612cac83612c77565b612cc0612cb882612c99565b848454612c1b565b825550505050565b600090565b612cd5612cc8565b612ce0818484612ca3565b505050565b5b81811015612d0457612cf9600082612ccd565b600181019050612ce6565b5050565b601f821115612d4957612d1a81612be9565b612d2384612bfe565b81016020851015612d32578190505b612d46612d3e85612bfe565b830182612ce5565b50505b505050565b600082821c905092915050565b6000612d6c60001984600802612d4e565b1980831691505092915050565b6000612d858383612d5b565b9150826002028217905092915050565b612d9e826128f1565b67ffffffffffffffff811115612db757612db6612452565b5b612dc18254612bb8565b612dcc828285612d08565b600060209050601f831160018114612dff5760008415612ded578287015190505b612df78582612d79565b865550612e5f565b601f198416612e0d86612be9565b60005b82811015612e3557848901518255600182019150602085019450602081019050612e10565b86831015612e525784890151612e4e601f891682612d5b565b8355505b6001600288020188555050505b505050505050565b6000612e7282612397565b9150612e7d83612397565b9250828203905081811115612e9557612e94612ae4565b5b92915050565b6000608082019050612eb0600083018761240d565b8181036020830152612ec28186612937565b9050612ed1604083018561240d565b612ede606083018461240d565b95945050505050565b600081905092915050565b50565b6000612f02600083612ee7565b9150612f0d82612ef2565b600082019050919050565b6000612f2382612ef5565b9150819050919050565b7f4353413a20456c2072657469726f2066616c6c6f000000000000000000000000600082015250565b6000612f636014836128fc565b9150612f6e82612f2d565b602082019050919050565b60006020820190508181036000830152612f9281612f56565b9050919050565b7f4353413a204e6f206861792074656d706f726164617320637265616461730000600082015250565b6000612fcf601e836128fc565b9150612fda82612f99565b602082019050919050565b60006020820190508181036000830152612ffe81612fc2565b9050919050565b7f4e487b7100000000000000000000000000000000000000000000000000000000600052603260045260246000fd5b7f4353413a204c61732076656e74617320657374616e2063657272616461730000600082015250565b600061306a601e836128fc565b915061307582613034565b602082019050919050565b600060208201905081810360008301526130998161305d565b9050919050565b7f4353413a20546f646173206c61732070617274696369706163696f6e6573207660008201527f656e646964617300000000000000000000000000000000000000000000000000602082015250565b60006130fc6027836128fc565b9150613107826130a0565b604082019050919050565b6000602082019050818103600083015261312b816130ef565b9050919050565b7f4353413a204d6f6e746f20656e766961646f20696e636f72726563746f000000600082015250565b6000613168601d836128fc565b915061317382613132565b602082019050919050565b600060208201905081810360008301526131978161315b565b9050919050565b60006131a982612397565b91507fffffffffffffffffffffffffffffffffffffffffffffffffffffffffffffffff82036131db576131da612ae4565b5b600182019050919050565b6000819050919050565b600061320b613206613201846131e6565b612c6d565b612397565b9050919050565b61321b816131f0565b82525050565b6000606082019050613236600083018661240d565b61324360208301856126b6565b6132506040830184613212565b949350505050565b7f4353413a2049442064652074656d706f7261646120696e76616c69646f000000600082015250565b600061328e601d836128fc565b915061329982613258565b602082019050919050565b600060208201905081810360008301526132bd81613281565b9050919050565b7f4353413a204e6f2065726573206d69656d62726f20646520657374612074656d60008201527f706f726164610000000000000000000000000000000000000000000000000000602082015250565b60006133206026836128fc565b915061332b826132c4565b604082019050919050565b6000602082019050818103600083015261334f81613313565b9050919050565b7f4353413a2046756572612064656c20706572696f646f206465206c612074656d60008201527f706f726164610000000000000000000000000000000000000000000000000000602082015250565b60006133b26026836128fc565b91506133bd82613356565b604082019050919050565b600060208201905081810360008301526133e1816133a5565b9050919050565b7f4e487b7100000000000000000000000000000000000000000000000000000000600052601260045260246000fd5b600061342282612397565b915061342d83612397565b92508261343d5761343c6133e8565b5b828204905092915050565b7f4353413a204c612063616a6120646520657374612073656d616e61207961206660008201527f75652063616e6a65616461000000000000000000000000000000000000000000602082015250565b60006134a4602b836128fc565b91506134af82613448565b604082019050919050565b600060208201905081810360008301526134d381613497565b9050919050565b60006060820190506134ef600083018661240d565b6134fc60208301856126b6565b613509604083018461240d565b949350505050565b7f455243313135353a206e6f206175746f72697a61646f00000000000000000000600082015250565b60006135476016836128fc565b915061355282613511565b602082019050919050565b600060208201905081810360008301526135768161353a565b9050919050565b7f455243313135353a206e6f207365207075656465207472616e7366657269722060008201527f61206c6120646972656363696f6e206365726f00000000000000000000000000602082015250565b60006135d96033836128fc565b91506135e48261357d565b604082019050919050565b60006020820190508181036000830152613608816135cc565b9050919050565b7f455243313135353a2062616c616e636520696e737566696369656e7465000000600082015250565b6000613645601d836128fc565b91506136508261360f565b602082019050919050565b6000602082019050818103600083015261367481613638565b9050919050565b6000604082019050613690600083018561240d565b61369d602083018461240d565b9392505050565b7f455243313135353a20736f6c6f20656c2070726f706965746172696f2070756560008201527f6465207175656d61720000000000000000000000000000000000000000000000602082015250565b60006137006029836128fc565b915061370b826136a4565b604082019050919050565b6000602082019050818103600083015261372f816136f3565b9050919050565b7f455243313135353a2062616c616e636520696e737566696369656e746520706160008201527f7261207175656d61720000000000000000000000000000000000000000000000602082015250565b60006137926029836128fc565b915061379d82613736565b604082019050919050565b600060208201905081810360008301526137c181613785565b9050919050565b7f455243313135353a206e6f207365207075656465206163756e61722061206c6160008201527f20646972656363696f6e206365726f0000000000000000000000000000000000602082015250565b6000613824602f836128fc565b915061382f826137c8565b604082019050919050565b6000602082019050818103600083015261385381613817565b905091905056fea2646970667358221220673fa658301b30aa48d8d606867e63dbb4dbae244450e71fbfe15d2fd1538d0164736f6c634300081c0033",
  "linkReferences": {},
  "deployedLinkReferences": {}
}