{
  "_format": "hh-sol-artifact-1",
  "contractName": "CSA_LatinHack",
  "sourceName": "contracts/CSA_LatinHack.sol",
  "abi": [
    {
      "inputs": [
        {
          "internalType": "address",
          "name": "initialOwner",
          "type": "address"
        }
      ],
      "stateMutability": "nonpayable",
      "type": "constructor"
    },
    {
      "anonymous": false,
      "inputs": [
        {
          "indexed": true,
          "internalType": "address",
          "name": "_owner",
          "type": "address"
        },
        {
          "indexed": true,
          "internalType": "address",
          "name": "_operator",
          "type": "address"
        },
        {
          "indexed": false,
          "internalType": "bool",
          "name": "_approved",
          "type": "bool"
        }
      ],
      "name": "ApprovalForAll",
      "type": "event"
    },
    {
      "anonymous": false,
      "inputs": [
        {
          "indexed": false,
          "internalType": "uint256",
          "name": "seasonId",
          "type": "uint256"
        },
        {
          "indexed": false,
          "internalType": "address",
          "name": "member",
          "type": "address"
        },
        {
          "indexed": false,
          "internalType": "uint256",
          "name": "weekNumber",
          "type": "uint256"
        }
      ],
      "name": "BoxRedeemed",
      "type": "event"
    },
    {
      "anonymous": false,
      "inputs": [
        {
          "indexed": false,
          "internalType": "uint256",
          "name": "seasonId",
          "type": "uint256"
        },
        {
          "indexed": false,
          "internalType": "address",
          "name": "member",
          "type": "address"
        },
        {
          "indexed": false,
          "internalType": "uint256",
          "name": "amount",
          "type": "uint256"
        }
      ],
      "name": "MembershipPurchased",
      "type": "event"
    },
    {
      "anonymous": false,
      "inputs": [
        {
          "indexed": false,
          "internalType": "uint256",
          "name": "seasonId",
          "type": "uint256"
        },
        {
          "indexed": false,
          "internalType": "string",
          "name": "name",
          "type": "string"
        },
        {
          "indexed": false,
          "internalType": "uint256",
          "name": "price",
          "type": "uint256"
        },
        {
          "indexed": false,
          "internalType": "uint256",
          "name": "capacity",
          "type": "uint256"
        }
      ],
      "name": "SeasonCreated",
      "type": "event"
    },
    {
      "anonymous": false,
      "inputs": [
        {
          "indexed": true,
          "internalType": "address",
          "name": "_operator",
          "type": "address"
        },
        {
          "indexed": true,
          "internalType": "address",
          "name": "_from",
          "type": "address"
        },
        {
          "indexed": true,
          "internalType": "address",
          "name": "_to",
          "type": "address"
        },
        {
          "indexed": false,
          "internalType": "uint256",
          "name": "_id",
          "type": "uint256"
        },
        {
          "indexed": false,
          "internalType": "uint256",
          "name": "_amount",
          "type": "uint256"
        }
      ],
      "name": "TransferSingle",
      "type": "event"
    },
    {
      "inputs": [
        {
          "internalType": "address",
          "name": "account",
          "type": "address"
        },
        {
          "internalType": "uint256",
          "name": "id",
          "type": "uint256"
        }
      ],
      "name": "balanceOf",
      "outputs": [
        {
          "internalType": "uint256",
          "name": "",
          "type": "uint256"
        }
      ],
      "stateMutability": "view",
      "type": "function"
    },
    {
      "inputs": [
        {
          "internalType": "address",
          "name": "from",
          "type": "address"
        },
        {
          "internalType": "uint256",
          "name": "id",
          "type": "uint256"
        },
        {
          "internalType": "uint256",
          "name": "amount",
          "type": "uint256"
        }
      ],
      "name": "burn",
      "outputs": [],
      "stateMutability": "nonpayable",
      "type": "function"
    },
    {
      "inputs": [],
      "name": "buyMembership",
      "outputs": [],
      "stateMutability": "payable",
      "type": "function"
    },
    {
      "inputs": [
        {
          "internalType": "uint256",
          "name": "seasonId",
          "type": "uint256"
        }
      ],
      "name": "closeSeasonSales",
      "outputs": [],
      "stateMutability": "nonpayable",
      "type": "function"
    },
    {
      "inputs": [
        {
          "internalType": "string",
          "name": "seasonName",
          "type": "string"
        },
        {
          "internalType": "uint256",
          "name": "price",
          "type": "uint256"
        },
        {
          "internalType": "uint256",
          "name": "capacity",
          "type": "uint256"
        },
        {
          "internalType": "uint256",
          "name": "durationInWeeks",
          "type": "uint256"
        }
      ],
      "name": "createNewSeason",
      "outputs": [],
      "stateMutability": "nonpayable",
      "type": "function"
    },
    {
      "inputs": [
        {
          "internalType": "address",
          "name": "account",
          "type": "address"
        },
        {
          "internalType": "address",
          "name": "operator",
          "type": "address"
        }
      ],
      "name": "isApprovedForAll",
      "outputs": [
        {
          "internalType": "bool",
          "name": "",
          "type": "bool"
        }
      ],
      "stateMutability": "view",
      "type": "function"
    },
    {
      "inputs": [],
      "name": "owner",
      "outputs": [
        {
          "internalType": "address",
          "name": "",
          "type": "address"
        }
      ],
      "stateMutability": "view",
      "type": "function"
    },
    {
      "inputs": [
        {
          "internalType": "uint256",
          "name": "seasonId",
          "type": "uint256"
        }
      ],
      "name": "redeemWeeklyBox",
      "outputs": [],
      "stateMutability": "nonpayable",
      "type": "function"
    },
    {
      "inputs": [
        {
          "internalType": "address",
          "name": "from",
          "type": "address"
        },
        {
          "internalType": "address",
          "name": "to",
          "type": "address"
        },
        {
          "internalType": "uint256",
          "name": "id",
          "type": "uint256"
        },
        {
          "internalType": "uint256",
          "name": "amount",
          "type": "uint256"
        },
        {
          "internalType": "bytes",
          "name": "data",
          "type": "bytes"
        }
      ],
      "name": "safeTransferFrom",
      "outputs": [],
      "stateMutability": "nonpayable",
      "type": "function"
    },
    {
      "inputs": [
        {
          "internalType": "uint256",
          "name": "",
          "type": "uint256"
        }
      ],
      "name": "seasons",
      "outputs": [
        {
          "internalType": "string",
          "name": "name",
          "type": "string"
        },
        {
          "internalType": "uint256",
          "name": "membershipPrice",
          "type": "uint256"
        },
        {
          "internalType": "uint256",
          "name": "totalMemberships",
          "type": "uint256"
        },
        {
          "internalType": "uint256",
          "name": "soldMemberships",
          "type": "uint256"
        },
        {
          "internalType": "uint256",
          "name": "startTime",
          "type": "uint256"
        },
        {
          "internalType": "uint256",
          "name": "endTime",
          "type": "uint256"
        },
        {
          "internalType": "bool",
          "name": "isOpenForSale",
          "type": "bool"
        }
      ],
      "stateMutability": "view",
      "type": "function"
    },
    {
      "inputs": [
        {
          "internalType": "address",
          "name": "operator",
          "type": "address"
        },
        {
          "internalType": "bool",
          "name": "approved",
          "type": "bool"
        }
      ],
      "name": "setApprovalForAll",
      "outputs": [],
      "stateMutability": "nonpayable",
      "type": "function"
    },
    {
      "inputs": [
        {
          "internalType": "address",
          "name": "newOwner",
          "type": "address"
        }
      ],
      "name": "transferOwnership",
      "outputs": [],
      "stateMutability": "nonpayable",
      "type": "function"
    },
    {
      "inputs": [
        {
          "internalType": "address",
          "name": "",
          "type": "address"
        },
        {
          "internalType": "uint256",
          "name": "",
          "type": "uint256"
        },
        {
          "internalType": "uint256",
          "name": "",
          "type": "uint256"
        }
      ],
      "name": "weeklyRedemptions",
      "outputs": [
        {
          "internalType": "bool",
          "name": "",
          "type": "bool"
        }
      ],
      "stateMutability": "view",
      "type": "function"
    },
    {
      "inputs": [],
      "name": "withdraw",
      "outputs": [],
      "stateMutability": "nonpayable",
      "type": "function"
    }
  ],
  "bytecode": "608060405234801561001057600080fd5b5060405161395b38038061395b83398181016040528101906100329190610112565b61004c67174b8c78185fd87860c01b6100ac60201b60201c565b610066679501821f7f87d8a860c01b6100ac60201b60201c565b806000806101000a81548173ffffffffffffffffffffffffffffffffffffffff021916908373ffffffffffffffffffffffffffffffffffffffff1602179055505061013f565b50565b600080fd5b600073ffffffffffffffffffffffffffffffffffffffff82169050919050565b60006100df826100b4565b9050919050565b6100ef816100d4565b81146100fa57600080fd5b50565b60008151905061010c816100e6565b92915050565b600060208284031215610128576101276100af565b5b6000610136848285016100fd565b91505092915050565b61380d8061014e6000396000f3fe6080604052600436106100dc5760003560e01c80638da5cb5b1161007f578063f242432a11610059578063f242432a14610288578063f2fde38b146102b1578063f5298aca146102da578063f5d709a114610303576100dc565b80638da5cb5b146101f7578063a22cb46514610222578063e985e9c51461024b576100dc565b80635c581119116100bb5780635c5811191461015e5780636cc07beb1461016857806373afd20014610191578063833727e8146101ba576100dc565b8062fdd58e146100e15780633aef7c801461011e5780633ccfd60b14610147575b600080fd5b3480156100ed57600080fd5b506101086004803603810190610103919061234a565b610346565b6040516101159190612399565b60405180910390f35b34801561012a57600080fd5b50610145600480360381019061014091906124fa565b61049c565b005b34801561015357600080fd5b5061015c6107f1565b005b610166610a7b565b005b34801561017457600080fd5b5061018f600480360381019061018a919061257d565b610e4e565b005b34801561019d57600080fd5b506101b860048036038101906101b3919061257d565b61107c565b005b3480156101c657600080fd5b506101e160048036038101906101dc91906125aa565b611461565b6040516101ee9190612618565b60405180910390f35b34801561020357600080fd5b5061020c61149d565b6040516102199190612642565b60405180910390f35b34801561022e57600080fd5b5061024960048036038101906102449190612689565b6114c1565b005b34801561025757600080fd5b50610272600480360381019061026d91906126c9565b61160e565b60405161027f9190612618565b60405180910390f35b34801561029457600080fd5b506102af60048036038101906102aa91906127aa565b6116de565b005b3480156102bd57600080fd5b506102d860048036038101906102d39190612841565b611b3e565b005b3480156102e657600080fd5b5061030160048036038101906102fc91906125aa565b611cd7565b005b34801561030f57600080fd5b5061032a6004803603810190610325919061257d565b611fb3565b60405161033d97969594939291906128ed565b60405180910390f35b600061035c679279efb8ef981a3060c01b61209a565b610370678722baaacce81d6160c01b61209a565b61038467bdb9596865ed9ad560c01b61209a565b610398671a55db0f8cfd4e8060c01b61209a565b600073ffffffffffffffffffffffffffffffffffffffff168373ffffffffffffffffffffffffffffffffffffffff1603610407576040517f08c379a00000000000000000000000000000000000000000000000000000000081526004016103fe906129af565b60405180910390fd5b61041b67d2370ec6244ca36c60c01b61209a565b61042f67401462332332882260c01b61209a565b61044367bd6fd405258b4d8960c01b61209a565b6001600083815260200190815260200160002060008473ffffffffffffffffffffffffffffffffffffffff1673ffffffffffffffffffffffffffffffffffffffff16815260200190815260200160002054905092915050565b6104b06776a576c5c04cd15160c01b61209a565b6104c467f2ed1b4a44fbf98460c01b61209a565b6104d867a2462d488cee23d760c01b61209a565b6104ec67557b335ac95ad78a60c01b61209a565b61050067ca8e3dec27ac1f6460c01b61209a565b3373ffffffffffffffffffffffffffffffffffffffff1660008054906101000a900473ffffffffffffffffffffffffffffffffffffffff1673ffffffffffffffffffffffffffffffffffffffff161461058e576040517f08c379a000000000000000000000000000000000000000000000000000000000815260040161058590612a41565b60405180910390fd5b6105a267359d9814bf9feea860c01b61209a565b6105b667d816f48982bae2d860c01b61209a565b6105ca6726b76f614a5b539560c01b61209a565b6105de675729316e7f42628860c01b61209a565b6105f26762313e3ca54bddbb60c01b61209a565b61060667f2b44e8873aa0e4f60c01b61209a565b600042905061061f6734d145834245305b60c01b61209a565b61063367cc155cbd77c10a9560c01b61209a565b600062093a80836106449190612a90565b8261064f9190612ad2565b9050610665671c400ee8c770560b60c01b61209a565b6106796709f6a8bfbd213d3760c01b61209a565b60036040518060e001604052808881526020018781526020018681526020016000815260200184815260200183815260200160011515815250908060018154018082558091505060019003906000526020600020906007020160009091909190915060008201518160000190816106f09190612d12565b506020820151816001015560408201518160020155606082015181600301556080820151816004015560a0820151816005015560c08201518160060160006101000a81548160ff02191690831515021790555050506107596778d3fcf64671693a60c01b61209a565b61076d67374fc8eedadf2ace60c01b61209a565b600060016003805490506107819190612de4565b90506107976704b7017f82a206db60c01b61209a565b6107ab675dc7eb6f3bb759a360c01b61209a565b7fc53cf244672e3e1eed9acdcd22658f6c1cee6d44144f1a17e4a1609b803aa605818888886040516107e09493929190612e18565b60405180910390a150505050505050565b61080567daef46c5b6b927ef60c01b61209a565b61081967f2ed1b4a44fbf98460c01b61209a565b61082d67a2462d488cee23d760c01b61209a565b61084167557b335ac95ad78a60c01b61209a565b61085567ca8e3dec27ac1f6460c01b61209a565b3373ffffffffffffffffffffffffffffffffffffffff1660008054906101000a900473ffffffffffffffffffffffffffffffffffffffff1673ffffffffffffffffffffffffffffffffffffffff16146108e3576040517f08c379a00000000000000000000000000000000000000000000000000000000081526004016108da90612a41565b60405180910390fd5b6108f767359d9814bf9feea860c01b61209a565b61090b67d816f48982bae2d860c01b61209a565b61091f67a9560cfaa8729dd860c01b61209a565b61093367acaf3e3bdcd0662360c01b61209a565b6109476791e3f086d54a48d060c01b61209a565b61095b675be1a7e02590b57b60c01b61209a565b60008060009054906101000a900473ffffffffffffffffffffffffffffffffffffffff1673ffffffffffffffffffffffffffffffffffffffff16476040516109a290612e95565b60006040518083038185875af1925050503d80600081146109df576040519150601f19603f3d011682016040523d82523d6000602084013e6109e4565b606091505b505090506109fc6705049a72ebbedbb560c01b61209a565b610a106713d2c004e544eb5860c01b61209a565b610a24673604d23a0915cffb60c01b61209a565b80610a64576040517f08c379a0000000000000000000000000000000000000000000000000000000008152600401610a5b90612ef6565b60405180910390fd5b610a786781535b54d179a39460c01b61209a565b50565b610a8f67264554117a9c3f0d60c01b61209a565b610aa36741aefb0ee5b365b860c01b61209a565b610ab7676bf448c4a3f46b0a60c01b61209a565b610acb67682b786d7890867d60c01b61209a565b600060038054905011610b13576040517f08c379a0000000000000000000000000000000000000000000000000000000008152600401610b0a90612f62565b60405180910390fd5b610b27677170857319a06f1160c01b61209a565b610b3b677c64f852750960f760c01b61209a565b610b4f674db00eeb688bc28260c01b61209a565b60006001600380549050610b639190612de4565b9050610b796754f7453f6a34ae7160c01b61209a565b610b8d6716ca88cf64c0e13460c01b61209a565b600060038281548110610ba357610ba2612f82565b5b90600052602060002090600702019050610bc767ea6ea91bc096c8c860c01b61209a565b610bdb677e0dd8b225ed278e60c01b61209a565b610bef670d79d2f130641ff160c01b61209a565b8060060160009054906101000a900460ff16610c40576040517f08c379a0000000000000000000000000000000000000000000000000000000008152600401610c3790612ffd565b60405180910390fd5b610c5467500e7afe5b24773860c01b61209a565b610c6867c74151f66221f2f460c01b61209a565b610c7c677f79db4f74f1f1b060c01b61209a565b610c90671f56fba510d6590660c01b61209a565b8060020154816003015410610cda576040517f08c379a0000000000000000000000000000000000000000000000000000000008152600401610cd19061308f565b60405180910390fd5b610cee67955648c63689eaf160c01b61209a565b610d026737f1f469d129652160c01b61209a565b610d16675e3449a9dd7ec8d560c01b61209a565b610d2a6702395cd3538bd92860c01b61209a565b80600101543414610d70576040517f08c379a0000000000000000000000000000000000000000000000000000000008152600401610d67906130fb565b60405180910390fd5b610d8467332618ad63b4e84760c01b61209a565b610d986713bc1a10dda5003d60c01b61209a565b806003016000815480929190610dad9061311b565b9190505550610dc667fcbc02cbffd3ea0160c01b61209a565b610dda67d2245559a5d1a62460c01b61209a565b610de63383600161209d565b610dfa6723b868078f7a53d460c01b61209a565b610e0e67ad90fe428c5f2a1960c01b61209a565b7f3040ff01f7e0ef639d0a39654b7be379473b85453c82254b1ab871accbd51edf82336001604051610e429392919061319e565b60405180910390a15050565b610e6267ced86a6dce9236cd60c01b61209a565b610e7667f2ed1b4a44fbf98460c01b61209a565b610e8a67a2462d488cee23d760c01b61209a565b610e9e67557b335ac95ad78a60c01b61209a565b610eb267ca8e3dec27ac1f6460c01b61209a565b3373ffffffffffffffffffffffffffffffffffffffff1660008054906101000a900473ffffffffffffffffffffffffffffffffffffffff1673ffffffffffffffffffffffffffffffffffffffff1614610f40576040517f08c379a0000000000000000000000000000000000000000000000000000000008152600401610f3790612a41565b60405180910390fd5b610f5467359d9814bf9feea860c01b61209a565b610f6867d816f48982bae2d860c01b61209a565b610f7c675766c3ee9f0eecd660c01b61209a565b610f9067b26f6f2d6a64435060c01b61209a565b610fa4676b5f75c77c728b0a60c01b61209a565b610fb867a459bddf34fc32ae60c01b61209a565b610fcc67e565d47c0551691060c01b61209a565b6003805490508110611013576040517f08c379a000000000000000000000000000000000000000000000000000000000815260040161100a90613221565b60405180910390fd5b611027675833822dcc4db80460c01b61209a565b61103b6776802bce523484c660c01b61209a565b60006003828154811061105157611050612f82565b5b906000526020600020906007020160060160006101000a81548160ff02191690831515021790555050565b61109067fd1a9ffcbafd415d60c01b61209a565b6110a4675a5ca89cd578fb2260c01b61209a565b6110b867960db5458c91609f60c01b61209a565b6110cc67e4acbf1bbb2a6e7d60c01b61209a565b60016110d83383610346565b1015611119576040517f08c379a0000000000000000000000000000000000000000000000000000000008152600401611110906132b3565b60405180910390fd5b61112d67ef35db9785b67d1960c01b61209a565b611141672bc8cf295564769560c01b61209a565b611155676dc60fde1fbe8c8e60c01b61209a565b60006003828154811061116b5761116a612f82565b5b9060005260206000209060070201905061118f6778f88b4998204b0c60c01b61209a565b6111a367b7c362c3fdee899a60c01b61209a565b6111b7675c4635ddfe7f20a260c01b61209a565b806004015442101580156111cf575080600501544211155b61120e576040517f08c379a000000000000000000000000000000000000000000000000000000000815260040161120590613345565b60405180910390fd5b61122267162741efa429dbc460c01b61209a565b61123667687e97e91aca645d60c01b61209a565b61124a673a0733d844abad4d60c01b61209a565b600062093a808260040154426112609190612de4565b61126a9190613394565b90506112806762f43b2a322a9ac160c01b61209a565b6112946783e6630d2c91e43960c01b61209a565b6112a867a23df6837c26eb6e60c01b61209a565b600460003373ffffffffffffffffffffffffffffffffffffffff1673ffffffffffffffffffffffffffffffffffffffff1681526020019081526020016000206000848152602001908152602001600020600082815260200190815260200160002060009054906101000a900460ff1615611357576040517f08c379a000000000000000000000000000000000000000000000000000000000815260040161134e90613437565b60405180910390fd5b61136b678838f34d2482452560c01b61209a565b61137f674f72589ecc3e3d2160c01b61209a565b6001600460003373ffffffffffffffffffffffffffffffffffffffff1673ffffffffffffffffffffffffffffffffffffffff1681526020019081526020016000206000858152602001908152602001600020600083815260200190815260200160002060006101000a81548160ff02191690831515021790555061140d67aa273ce4fa6f8a2360c01b61209a565b61142167fd7e78fe381d075760c01b61209a565b7ff5cf00eb1f48ddf482622c8808e58960924c23a2a09920f594da63271914d5d183338360405161145493929190613457565b60405180910390a1505050565b6004602052826000526040600020602052816000526040600020602052806000526040600020600092509250509054906101000a900460ff1681565b60008054906101000a900473ffffffffffffffffffffffffffffffffffffffff1681565b6114d567af3298e7370f07e760c01b61209a565b6114e96784a76c2b7903943060c01b61209a565b80600260003373ffffffffffffffffffffffffffffffffffffffff1673ffffffffffffffffffffffffffffffffffffffff16815260200190815260200160002060008473ffffffffffffffffffffffffffffffffffffffff1673ffffffffffffffffffffffffffffffffffffffff16815260200190815260200160002060006101000a81548160ff02191690831515021790555061159167272068b4218919c960c01b61209a565b6115a567478f91e42f0e000f60c01b61209a565b8173ffffffffffffffffffffffffffffffffffffffff163373ffffffffffffffffffffffffffffffffffffffff167f17307eab39ab6107e8899845ad3d59bd9653f200f220920489ca2b5937696c31836040516116029190612618565b60405180910390a35050565b600061162467499c32c3635ce29160c01b61209a565b611638679f08b105cd78486c60c01b61209a565b61164c6716d692b8ddbf6e4e60c01b61209a565b600260008473ffffffffffffffffffffffffffffffffffffffff1673ffffffffffffffffffffffffffffffffffffffff16815260200190815260200160002060008373ffffffffffffffffffffffffffffffffffffffff1673ffffffffffffffffffffffffffffffffffffffff16815260200190815260200160002060009054906101000a900460ff16905092915050565b6116f2675a63706bc897625960c01b61209a565b61170667704e2858fa8fbe3160c01b61209a565b61171a67f6156027b08c428760c01b61209a565b61172e67b340599f3932a4b160c01b61209a565b3373ffffffffffffffffffffffffffffffffffffffff168573ffffffffffffffffffffffffffffffffffffffff16148015611779575061177867a8e4e2e8ea1cb91360c01b612297565b5b806117a65750611789853361160e565b80156117a557506117a46713799089c2531b1960c01b612297565b5b5b6117e5576040517f08c379a00000000000000000000000000000000000000000000000000000000081526004016117dc906134da565b60405180910390fd5b6117f967160f5be48809410a60c01b61209a565b61180d6772314ff21f703faa60c01b61209a565b61182167370d155ddc60153960c01b61209a565b61183567c5247758c6ac400560c01b61209a565b600073ffffffffffffffffffffffffffffffffffffffff168473ffffffffffffffffffffffffffffffffffffffff16036118a4576040517f08c379a000000000000000000000000000000000000000000000000000000000815260040161189b9061356c565b60405180910390fd5b6118b8678cff14ddf8bcbc1760c01b61209a565b6118cc67bacc349864622c6960c01b61209a565b6118e067fb9609ff716e021b60c01b61209a565b6118f467df1c310a7581acf260c01b61209a565b816001600085815260200190815260200160002060008773ffffffffffffffffffffffffffffffffffffffff1673ffffffffffffffffffffffffffffffffffffffff168152602001908152602001600020541015611987576040517f08c379a000000000000000000000000000000000000000000000000000000000815260040161197e906135d8565b60405180910390fd5b61199b671f85fc972da4411660c01b61209a565b6119af671971dda855d8379a60c01b61209a565b816001600085815260200190815260200160002060008773ffffffffffffffffffffffffffffffffffffffff1673ffffffffffffffffffffffffffffffffffffffff1681526020019081526020016000206000828254611a0f9190612de4565b92505081905550611a2a6755f57e187281b6b760c01b61209a565b816001600085815260200190815260200160002060008673ffffffffffffffffffffffffffffffffffffffff1673ffffffffffffffffffffffffffffffffffffffff1681526020019081526020016000206000828254611a8a9190612ad2565b92505081905550611aa5676c7bee72cb827dd560c01b61209a565b611ab967f68e99404a3a4e4f60c01b61209a565b8373ffffffffffffffffffffffffffffffffffffffff168573ffffffffffffffffffffffffffffffffffffffff163373ffffffffffffffffffffffffffffffffffffffff167fc3d58168c5ae7397731d063d5bbf3d657854427343f4c083240f7aacaa2d0f628686604051611b2f9291906135f8565b60405180910390a45050505050565b611b52676c6af688e0e0bb2660c01b61209a565b611b6667f2ed1b4a44fbf98460c01b61209a565b611b7a67a2462d488cee23d760c01b61209a565b611b8e67557b335ac95ad78a60c01b61209a565b611ba267ca8e3dec27ac1f6460c01b61209a565b3373ffffffffffffffffffffffffffffffffffffffff1660008054906101000a900473ffffffffffffffffffffffffffffffffffffffff1673ffffffffffffffffffffffffffffffffffffffff1614611c30576040517f08c379a0000000000000000000000000000000000000000000000000000000008152600401611c2790612a41565b60405180910390fd5b611c4467359d9814bf9feea860c01b61209a565b611c5867d816f48982bae2d860c01b61209a565b611c6c67cf3bc652e734df7760c01b61209a565b611c8067d072d3b00c99cad760c01b61209a565b611c94672d85bb237b88611460c01b61209a565b806000806101000a81548173ffffffffffffffffffffffffffffffffffffffff021916908373ffffffffffffffffffffffffffffffffffffffff16021790555050565b611ceb677ddb4cd4deca8c8a60c01b61209a565b611cff67c7c047f3330f7bb160c01b61209a565b611d1367ff8c21152cd4b42e60c01b61209a565b611d2767ab267b289bf7e22360c01b61209a565b3373ffffffffffffffffffffffffffffffffffffffff168373ffffffffffffffffffffffffffffffffffffffff1614611d95576040517f08c379a0000000000000000000000000000000000000000000000000000000008152600401611d8c90613693565b60405180910390fd5b611da967e6860ec9ad94585e60c01b61209a565b611dbd6752cac397e7fe50f460c01b61209a565b611dd167ba50882c3c8158b760c01b61209a565b611de567bd79d4c7cf57e00660c01b61209a565b806001600084815260200190815260200160002060008573ffffffffffffffffffffffffffffffffffffffff1673ffffffffffffffffffffffffffffffffffffffff168152602001908152602001600020541015611e78576040517f08c379a0000000000000000000000000000000000000000000000000000000008152600401611e6f90613725565b60405180910390fd5b611e8c67d3fc60edbb06f55f60c01b61209a565b611ea0670a5bb3f85ef70aea60c01b61209a565b806001600084815260200190815260200160002060008573ffffffffffffffffffffffffffffffffffffffff1673ffffffffffffffffffffffffffffffffffffffff1681526020019081526020016000206000828254611f009190612de4565b92505081905550611f1b6722054a042928236d60c01b61209a565b611f2f678055e1e0fb8dff6f60c01b61209a565b600073ffffffffffffffffffffffffffffffffffffffff168373ffffffffffffffffffffffffffffffffffffffff163373ffffffffffffffffffffffffffffffffffffffff167fc3d58168c5ae7397731d063d5bbf3d657854427343f4c083240f7aacaa2d0f628585604051611fa69291906135f8565b60405180910390a4505050565b60038181548110611fc357600080fd5b9060005260206000209060070201600091509050806000018054611fe690612b35565b80601f016020809104026020016040519081016040528092919081815260200182805461201290612b35565b801561205f5780601f106120345761010080835404028352916020019161205f565b820191906000526020600020905b81548152906001019060200180831161204257829003601f168201915b5050505050908060010154908060020154908060030154908060040154908060050154908060060160009054906101000a900460ff16905087565b50565b6120b167e7669dd182a8727c60c01b61209a565b6120c5678bc11e9f6bb432ee60c01b61209a565b6120d967b7923e14459f7c6260c01b61209a565b6120ed67300eda3e153dff4760c01b61209a565b600073ffffffffffffffffffffffffffffffffffffffff168373ffffffffffffffffffffffffffffffffffffffff160361215c576040517f08c379a0000000000000000000000000000000000000000000000000000000008152600401612153906137b7565b60405180910390fd5b61217067cf5de4b7bcfd57d960c01b61209a565b61218467e73c9195ac77d5bb60c01b61209a565b806001600084815260200190815260200160002060008573ffffffffffffffffffffffffffffffffffffffff1673ffffffffffffffffffffffffffffffffffffffff16815260200190815260200160002060008282546121e49190612ad2565b925050819055506121ff677db718e892d255ca60c01b61209a565b61221367d50b5df6d8011a9760c01b61209a565b8273ffffffffffffffffffffffffffffffffffffffff16600073ffffffffffffffffffffffffffffffffffffffff163373ffffffffffffffffffffffffffffffffffffffff167fc3d58168c5ae7397731d063d5bbf3d657854427343f4c083240f7aacaa2d0f62858560405161228a9291906135f8565b60405180910390a4505050565b600060019050919050565b6000604051905090565b600080fd5b600080fd5b600073ffffffffffffffffffffffffffffffffffffffff82169050919050565b60006122e1826122b6565b9050919050565b6122f1816122d6565b81146122fc57600080fd5b50565b60008135905061230e816122e8565b92915050565b6000819050919050565b61232781612314565b811461233257600080fd5b50565b6000813590506123448161231e565b92915050565b60008060408385031215612361576123606122ac565b5b600061236f858286016122ff565b925050602061238085828601612335565b9150509250929050565b61239381612314565b82525050565b60006020820190506123ae600083018461238a565b92915050565b600080fd5b600080fd5b6000601f19601f8301169050919050565b7f4e487b7100000000000000000000000000000000000000000000000000000000600052604160045260246000fd5b612407826123be565b810181811067ffffffffffffffff82111715612426576124256123cf565b5b80604052505050565b60006124396122a2565b905061244582826123fe565b919050565b600067ffffffffffffffff821115612465576124646123cf565b5b61246e826123be565b9050602081019050919050565b82818337600083830152505050565b600061249d6124988461244a565b61242f565b9050828152602081018484840111156124b9576124b86123b9565b5b6124c484828561247b565b509392505050565b600082601f8301126124e1576124e06123b4565b5b81356124f184826020860161248a565b91505092915050565b60008060008060808587031215612514576125136122ac565b5b600085013567ffffffffffffffff811115612532576125316122b1565b5b61253e878288016124cc565b945050602061254f87828801612335565b935050604061256087828801612335565b925050606061257187828801612335565b91505092959194509250565b600060208284031215612593576125926122ac565b5b60006125a184828501612335565b91505092915050565b6000806000606084860312156125c3576125c26122ac565b5b60006125d1868287016122ff565b93505060206125e286828701612335565b92505060406125f386828701612335565b9150509250925092565b60008115159050919050565b612612816125fd565b82525050565b600060208201905061262d6000830184612609565b92915050565b61263c816122d6565b82525050565b60006020820190506126576000830184612633565b92915050565b612666816125fd565b811461267157600080fd5b50565b6000813590506126838161265d565b92915050565b600080604083850312156126a05761269f6122ac565b5b60006126ae858286016122ff565b92505060206126bf85828601612674565b9150509250929050565b600080604083850312156126e0576126df6122ac565b5b60006126ee858286016122ff565b92505060206126ff858286016122ff565b9150509250929050565b600067ffffffffffffffff821115612724576127236123cf565b5b61272d826123be565b9050602081019050919050565b600061274d61274884612709565b61242f565b905082815260208101848484011115612769576127686123b9565b5b61277484828561247b565b509392505050565b600082601f830112612791576127906123b4565b5b81356127a184826020860161273a565b91505092915050565b600080600080600060a086880312156127c6576127c56122ac565b5b60006127d4888289016122ff565b95505060206127e5888289016122ff565b94505060406127f688828901612335565b935050606061280788828901612335565b925050608086013567ffffffffffffffff811115612828576128276122b1565b5b6128348882890161277c565b9150509295509295909350565b600060208284031215612857576128566122ac565b5b6000612865848285016122ff565b91505092915050565b600081519050919050565b600082825260208201905092915050565b60005b838110156128a857808201518184015260208101905061288d565b60008484015250505050565b60006128bf8261286e565b6128c98185612879565b93506128d981856020860161288a565b6128e2816123be565b840191505092915050565b600060e0820190508181036000830152612907818a6128b4565b9050612916602083018961238a565b612923604083018861238a565b612930606083018761238a565b61293d608083018661238a565b61294a60a083018561238a565b61295760c0830184612609565b98975050505050505050565b7f455243313135353a20646972656363696f6e20696e76616c6964610000000000600082015250565b6000612999601b83612879565b91506129a482612963565b602082019050919050565b600060208201905081810360008301526129c88161298c565b9050919050565b7f4353413a20517569656e206c6c616d61206e6f20657320656c2070726f70696560008201527f746172696f000000000000000000000000000000000000000000000000000000602082015250565b6000612a2b602583612879565b9150612a36826129cf565b604082019050919050565b60006020820190508181036000830152612a5a81612a1e565b9050919050565b7f4e487b7100000000000000000000000000000000000000000000000000000000600052601160045260246000fd5b6000612a9b82612314565b9150612aa683612314565b9250828202612ab481612314565b91508282048414831517612acb57612aca612a61565b5b5092915050565b6000612add82612314565b9150612ae883612314565b9250828201905080821115612b0057612aff612a61565b5b92915050565b7f4e487b7100000000000000000000000000000000000000000000000000000000600052602260045260246000fd5b60006002820490506001821680612b4d57607f821691505b602082108103612b6057612b5f612b06565b5b50919050565b60008190508160005260206000209050919050565b60006020601f8301049050919050565b600082821b905092915050565b600060088302612bc87fffffffffffffffffffffffffffffffffffffffffffffffffffffffffffffffff82612b8b565b612bd28683612b8b565b95508019841693508086168417925050509392505050565b6000819050919050565b6000612c0f612c0a612c0584612314565b612bea565b612314565b9050919050565b6000819050919050565b612c2983612bf4565b612c3d612c3582612c16565b848454612b98565b825550505050565b600090565b612c52612c45565b612c5d818484612c20565b505050565b5b81811015612c8157612c76600082612c4a565b600181019050612c63565b5050565b601f821115612cc657612c9781612b66565b612ca084612b7b565b81016020851015612caf578190505b612cc3612cbb85612b7b565b830182612c62565b50505b505050565b600082821c905092915050565b6000612ce960001984600802612ccb565b1980831691505092915050565b6000612d028383612cd8565b9150826002028217905092915050565b612d1b8261286e565b67ffffffffffffffff811115612d3457612d336123cf565b5b612d3e8254612b35565b612d49828285612c85565b600060209050601f831160018114612d7c5760008415612d6a578287015190505b612d748582612cf6565b865550612ddc565b601f198416612d8a86612b66565b60005b82811015612db257848901518255600182019150602085019450602081019050612d8d565b86831015612dcf5784890151612dcb601f891682612cd8565b8355505b6001600288020188555050505b505050505050565b6000612def82612314565b9150612dfa83612314565b9250828203905081811115612e1257612e11612a61565b5b92915050565b6000608082019050612e2d600083018761238a565b8181036020830152612e3f81866128b4565b9050612e4e604083018561238a565b612e5b606083018461238a565b95945050505050565b600081905092915050565b50565b6000612e7f600083612e64565b9150612e8a82612e6f565b600082019050919050565b6000612ea082612e72565b9150819050919050565b7f4353413a20456c2072657469726f2066616c6c6f000000000000000000000000600082015250565b6000612ee0601483612879565b9150612eeb82612eaa565b602082019050919050565b60006020820190508181036000830152612f0f81612ed3565b9050919050565b7f4353413a204e6f206861792074656d706f726164617320637265616461730000600082015250565b6000612f4c601e83612879565b9150612f5782612f16565b602082019050919050565b60006020820190508181036000830152612f7b81612f3f565b9050919050565b7f4e487b7100000000000000000000000000000000000000000000000000000000600052603260045260246000fd5b7f4353413a204c61732076656e74617320657374616e2063657272616461730000600082015250565b6000612fe7601e83612879565b9150612ff282612fb1565b602082019050919050565b6000602082019050818103600083015261301681612fda565b9050919050565b7f4353413a20546f646173206c61732070617274696369706163696f6e6573207660008201527f656e646964617300000000000000000000000000000000000000000000000000602082015250565b6000613079602783612879565b91506130848261301d565b604082019050919050565b600060208201905081810360008301526130a88161306c565b9050919050565b7f4353413a204d6f6e746f20656e766961646f20696e636f72726563746f000000600082015250565b60006130e5601d83612879565b91506130f0826130af565b602082019050919050565b60006020820190508181036000830152613114816130d8565b9050919050565b600061312682612314565b91507fffffffffffffffffffffffffffffffffffffffffffffffffffffffffffffffff820361315857613157612a61565b5b600182019050919050565b6000819050919050565b600061318861318361317e84613163565b612bea565b612314565b9050919050565b6131988161316d565b82525050565b60006060820190506131b3600083018661238a565b6131c06020830185612633565b6131cd604083018461318f565b949350505050565b7f4353413a2049442064652074656d706f7261646120696e76616c69646f000000600082015250565b600061320b601d83612879565b9150613216826131d5565b602082019050919050565b6000602082019050818103600083015261323a816131fe565b9050919050565b7f4353413a204e6f2065726573206d69656d62726f20646520657374612074656d60008201527f706f726164610000000000000000000000000000000000000000000000000000602082015250565b600061329d602683612879565b91506132a882613241565b604082019050919050565b600060208201905081810360008301526132cc81613290565b9050919050565b7f4353413a2046756572612064656c20706572696f646f206465206c612074656d60008201527f706f726164610000000000000000000000000000000000000000000000000000602082015250565b600061332f602683612879565b915061333a826132d3565b604082019050919050565b6000602082019050818103600083015261335e81613322565b9050919050565b7f4e487b7100000000000000000000000000000000000000000000000000000000600052601260045260246000fd5b600061339f82612314565b91506133aa83612314565b9250826133ba576133b9613365565b5b828204905092915050565b7f4353413a204c612063616a6120646520657374612073656d616e61207961206660008201527f75652063616e6a65616461000000000000000000000000000000000000000000602082015250565b6000613421602b83612879565b915061342c826133c5565b604082019050919050565b6000602082019050818103600083015261345081613414565b9050919050565b600060608201905061346c600083018661238a565b6134796020830185612633565b613486604083018461238a565b949350505050565b7f455243313135353a206e6f206175746f72697a61646f00000000000000000000600082015250565b60006134c4601683612879565b91506134cf8261348e565b602082019050919050565b600060208201905081810360008301526134f3816134b7565b9050919050565b7f455243313135353a206e6f207365207075656465207472616e7366657269722060008201527f61206c6120646972656363696f6e206365726f00000000000000000000000000602082015250565b6000613556603383612879565b9150613561826134fa565b604082019050919050565b6000602082019050818103600083015261358581613549565b9050919050565b7f455243313135353a2062616c616e636520696e737566696369656e7465000000600082015250565b60006135c2601d83612879565b91506135cd8261358c565b602082019050919050565b600060208201905081810360008301526135f1816135b5565b9050919050565b600060408201905061360d600083018561238a565b61361a602083018461238a565b9392505050565b7f455243313135353a20736f6c6f20656c2070726f706965746172696f2070756560008201527f6465207175656d61720000000000000000000000000000000000000000000000602082015250565b600061367d602983612879565b915061368882613621565b604082019050919050565b600060208201905081810360008301526136ac81613670565b9050919050565b7f455243313135353a2062616c616e636520696e737566696369656e746520706160008201527f7261207175656d61720000000000000000000000000000000000000000000000602082015250565b600061370f602983612879565b915061371a826136b3565b604082019050919050565b6000602082019050818103600083015261373e81613702565b9050919050565b7f455243313135353a206e6f207365207075656465206163756e61722061206c6160008201527f20646972656363696f6e206365726f0000000000000000000000000000000000602082015250565b60006137a1602f83612879565b91506137ac82613745565b604082019050919050565b600060208201905081810360008301526137d081613794565b905091905056fea264697066735822122061ebe667b2f070c99acf2a96967f28449b6dc4b018a970eb4f317064924c1a1d64736f6c634300081c0033",
  "linkReferences": {},
  "deployedLinkReferences": {}
}