{
  "_format": "hh-sol-artifact-1",
  "contractName": "TestWithdrawalFailTester",
  "sourceName": "contracts/mock/TestWithdrawalFailTester.sol",
  "abi": [
    {
      "inputs": [
        {
          "internalType": "address",
          "name": "target",
          "type": "address"
        },
        {
          "internalType": "string",
          "name": "name",
          "type": "string"
        },
        {
          "internalType": "uint256",
          "name": "price",
          "type": "uint256"
        },
        {
          "internalType": "uint256",
          "name": "cap",
          "type": "uint256"
        },
        {
          "internalType": "uint256",
          "name": "dur",
          "type": "uint256"
        }
      ],
      "name": "executeCreateSeason",
      "outputs": [],
      "stateMutability": "nonpayable",
      "type": "function"
    },
    {
      "inputs": [
        {
          "internalType": "address",
          "name": "target",
          "type": "address"
        }
      ],
      "name": "executeWithdraw",
      "outputs": [],
      "stateMutability": "nonpayable",
      "type": "function"
    },
    {
      "stateMutability": "payable",
      "type": "receive"
    }
  ],
  "bytecode": "6080604052348015600f57600080fd5b506108ef8061001f6000396000f3fe60806040526004361061002d5760003560e01c8063431387891461007257806399ca687d1461009b5761006d565b3661006d576040517f08c379a0000000000000000000000000000000000000000000000000000000008152600401610064906103c2565b60405180910390fd5b600080fd5b34801561007e57600080fd5b5061009960048036038101906100949190610454565b6100c4565b005b3480156100a757600080fd5b506100c260048036038101906100bd91906105fd565b6101f7565b005b60008173ffffffffffffffffffffffffffffffffffffffff166040516024016040516020818303038152906040527f3ccfd60b000000000000000000000000000000000000000000000000000000007bffffffffffffffffffffffffffffffffffffffffffffffffffffffff19166020820180517bffffffffffffffffffffffffffffffffffffffffffffffffffffffff838183161783525050505060405161016d9190610705565b6000604051808303816000865af19150503d80600081146101aa576040519150601f19603f3d011682016040523d82523d6000602084013e6101af565b606091505b50509050806101f3576040517f08c379a00000000000000000000000000000000000000000000000000000000081526004016101ea90610768565b60405180910390fd5b5050565b60008573ffffffffffffffffffffffffffffffffffffffff168585858560405160240161022794939291906107db565b6040516020818303038152906040527f3aef7c80000000000000000000000000000000000000000000000000000000007bffffffffffffffffffffffffffffffffffffffffffffffffffffffff19166020820180517bffffffffffffffffffffffffffffffffffffffffffffffffffffffff83818316178352505050506040516102b19190610705565b6000604051808303816000865af19150503d80600081146102ee576040519150601f19603f3d011682016040523d82523d6000602084013e6102f3565b606091505b5050905080610337576040517f08c379a000000000000000000000000000000000000000000000000000000000815260040161032e90610899565b60405180910390fd5b505050505050565b600082825260208201905092915050565b7f52656368617a6f20726563696269722045544820706172612070726f6261722060008201527f656c2066616c6c6f000000000000000000000000000000000000000000000000602082015250565b60006103ac60288361033f565b91506103b782610350565b604082019050919050565b600060208201905081810360008301526103db8161039f565b9050919050565b6000604051905090565b600080fd5b600080fd5b600073ffffffffffffffffffffffffffffffffffffffff82169050919050565b6000610421826103f6565b9050919050565b61043181610416565b811461043c57600080fd5b50565b60008135905061044e81610428565b92915050565b60006020828403121561046a576104696103ec565b5b60006104788482850161043f565b91505092915050565b600080fd5b600080fd5b6000601f19601f8301169050919050565b7f4e487b7100000000000000000000000000000000000000000000000000000000600052604160045260246000fd5b6104d48261048b565b810181811067ffffffffffffffff821117156104f3576104f261049c565b5b80604052505050565b60006105066103e2565b905061051282826104cb565b919050565b600067ffffffffffffffff8211156105325761053161049c565b5b61053b8261048b565b9050602081019050919050565b82818337600083830152505050565b600061056a61056584610517565b6104fc565b90508281526020810184848401111561058657610585610486565b5b610591848285610548565b509392505050565b600082601f8301126105ae576105ad610481565b5b81356105be848260208601610557565b91505092915050565b6000819050919050565b6105da816105c7565b81146105e557600080fd5b50565b6000813590506105f7816105d1565b92915050565b600080600080600060a08688031215610619576106186103ec565b5b60006106278882890161043f565b955050602086013567ffffffffffffffff811115610648576106476103f1565b5b61065488828901610599565b9450506040610665888289016105e8565b9350506060610676888289016105e8565b9250506080610687888289016105e8565b9150509295509295909350565b600081519050919050565b600081905092915050565b60005b838110156106c85780820151818401526020810190506106ad565b60008484015250505050565b60006106df82610694565b6106e9818561069f565b93506106f98185602086016106aa565b80840191505092915050565b600061071182846106d4565b915081905092915050565b7f4c6c616d6164612065787465726e6120612077697468647261772066616c6c6f600082015250565b600061075260208361033f565b915061075d8261071c565b602082019050919050565b6000602082019050818103600083015261078181610745565b9050919050565b600081519050919050565b600061079e82610788565b6107a8818561033f565b93506107b88185602086016106aa565b6107c18161048b565b840191505092915050565b6107d5816105c7565b82525050565b600060808201905081810360008301526107f58187610793565b905061080460208301866107cc565b61081160408301856107cc565b61081e60608301846107cc565b95945050505050565b7f4c6c616d6164612065787465726e612061206372656174654e6577536561736f60008201527f6e2066616c6c6f00000000000000000000000000000000000000000000000000602082015250565b600061088360278361033f565b915061088e82610827565b604082019050919050565b600060208201905081810360008301526108b281610876565b905091905056fea26469706673582212203554998677a21924f7f196475369ac790b0c056407556e418fbc6b28ff1a44b664736f6c634300081c0033",
  "linkReferences": {},
  "deployedLinkReferences": {}
}