{
  "_format": "hh-sol-artifact-1",
  "contractName": "BiodiversityCredits_LatinHack",
  "sourceName": "contracts/BiodiversityCredits_LatinHack.sol",
  "abi": [
    {
      "inputs": [
        {
          "internalType": "address",
          "name": "_initialAdmin",
          "type": "address"
        }
      ],
      "stateMutability": "nonpayable",
      "type": "constructor"
    },
    {
      "anonymous": false,
      "inputs": [
        {
          "indexed": true,
          "internalType": "address",
          "name": "owner",
          "type": "address"
        },
        {
          "indexed": true,
          "internalType": "address",
          "name": "operator",
          "type": "address"
        },
        {
          "indexed": false,
          "internalType": "bool",
          "name": "approved",
          "type": "bool"
        }
      ],
      "name": "ApprovalForAll",
      "type": "event"
    },
    {
      "anonymous": false,
      "inputs": [
        {
          "indexed": true,
          "internalType": "uint256",
          "name": "creditId",
          "type": "uint256"
        },
        {
          "indexed": true,
          "internalType": "uint256",
          "name": "projectId",
          "type": "uint256"
        },
        {
          "indexed": true,
          "internalType": "address",
          "name": "verifier",
          "type": "address"
        },
        {
          "indexed": false,
          "internalType": "address",
          "name": "creditOwner",
          "type": "address"
        },
        {
          "indexed": false,
          "internalType": "uint256",
          "name": "amount",
          "type": "uint256"
        }
      ],
      "name": "CreditBatchCertified",
      "type": "event"
    },
    {
      "anonymous": false,
      "inputs": [
        {
          "indexed": true,
          "internalType": "uint256",
          "name": "creditId",
          "type": "uint256"
        },
        {
          "indexed": true,
          "internalType": "address",
          "name": "retiredBy",
          "type": "address"
        },
        {
          "indexed": false,
          "internalType": "uint256",
          "name": "amount",
          "type": "uint256"
        }
      ],
      "name": "CreditsRetired",
      "type": "event"
    },
    {
      "anonymous": false,
      "inputs": [
        {
          "indexed": true,
          "internalType": "uint256",
          "name": "projectId",
          "type": "uint256"
        },
        {
          "indexed": true,
          "internalType": "address",
          "name": "developer",
          "type": "address"
        },
        {
          "indexed": true,
          "internalType": "address",
          "name": "verifier",
          "type": "address"
        }
      ],
      "name": "ProjectRegistered",
      "type": "event"
    },
    {
      "anonymous": false,
      "inputs": [
        {
          "indexed": true,
          "internalType": "uint256",
          "name": "projectId",
          "type": "uint256"
        },
        {
          "indexed": false,
          "internalType": "enum BiodiversityCredits_LatinHack.Status",
          "name": "newStatus",
          "type": "uint8"
        }
      ],
      "name": "ProjectStatusUpdated",
      "type": "event"
    },
    {
      "anonymous": false,
      "inputs": [
        {
          "indexed": true,
          "internalType": "address",
          "name": "operator",
          "type": "address"
        },
        {
          "indexed": true,
          "internalType": "address",
          "name": "from",
          "type": "address"
        },
        {
          "indexed": true,
          "internalType": "address",
          "name": "to",
          "type": "address"
        },
        {
          "indexed": false,
          "internalType": "uint256",
          "name": "id",
          "type": "uint256"
        },
        {
          "indexed": false,
          "internalType": "uint256",
          "name": "amount",
          "type": "uint256"
        }
      ],
      "name": "TransferSingle",
      "type": "event"
    },
    {
      "inputs": [],
      "name": "admin",
      "outputs": [
        {
          "internalType": "address",
          "name": "",
          "type": "address"
        }
      ],
      "stateMutability": "view",
      "type": "function"
    },
    {
      "inputs": [
        {
          "internalType": "address",
          "name": "_account",
          "type": "address"
        },
        {
          "internalType": "uint256",
          "name": "_id",
          "type": "uint256"
        }
      ],
      "name": "balanceOf",
      "outputs": [
        {
          "internalType": "uint256",
          "name": "",
          "type": "uint256"
        }
      ],
      "stateMutability": "view",
      "type": "function"
    },
    {
      "inputs": [
        {
          "internalType": "address",
          "name": "from",
          "type": "address"
        },
        {
          "internalType": "uint256",
          "name": "id",
          "type": "uint256"
        },
        {
          "internalType": "uint256",
          "name": "amount",
          "type": "uint256"
        }
      ],
      "name": "burn",
      "outputs": [],
      "stateMutability": "nonpayable",
      "type": "function"
    },
    {
      "inputs": [
        {
          "internalType": "uint256",
          "name": "_projectId",
          "type": "uint256"
        },
        {
          "internalType": "address",
          "name": "_creditOwner",
          "type": "address"
        },
        {
          "internalType": "uint256",
          "name": "_amount",
          "type": "uint256"
        }
      ],
      "name": "certifyAndMintBatch",
      "outputs": [],
      "stateMutability": "nonpayable",
      "type": "function"
    },
    {
      "inputs": [
        {
          "internalType": "uint256",
          "name": "",
          "type": "uint256"
        }
      ],
      "name": "creditBatchDetails",
      "outputs": [
        {
          "internalType": "uint256",
          "name": "projectId",
          "type": "uint256"
        },
        {
          "internalType": "uint256",
          "name": "timestamp",
          "type": "uint256"
        },
        {
          "internalType": "uint256",
          "name": "totalMinted",
          "type": "uint256"
        }
      ],
      "stateMutability": "view",
      "type": "function"
    },
    {
      "inputs": [
        {
          "internalType": "address",
          "name": "_account",
          "type": "address"
        },
        {
          "internalType": "address",
          "name": "_operator",
          "type": "address"
        }
      ],
      "name": "isApprovedForAll",
      "outputs": [
        {
          "internalType": "bool",
          "name": "",
          "type": "bool"
        }
      ],
      "stateMutability": "view",
      "type": "function"
    },
    {
      "inputs": [
        {
          "internalType": "uint256",
          "name": "",
          "type": "uint256"
        }
      ],
      "name": "projects",
      "outputs": [
        {
          "internalType": "address",
          "name": "developer",
          "type": "address"
        },
        {
          "internalType": "address",
          "name": "verifier",
          "type": "address"
        },
        {
          "internalType": "string",
          "name": "projectURI",
          "type": "string"
        },
        {
          "internalType": "bytes32",
          "name": "methodologyHash",
          "type": "bytes32"
        },
        {
          "internalType": "enum BiodiversityCredits_LatinHack.Status",
          "name": "status",
          "type": "uint8"
        }
      ],
      "stateMutability": "view",
      "type": "function"
    },
    {
      "inputs": [
        {
          "internalType": "address",
          "name": "_verifier",
          "type": "address"
        },
        {
          "internalType": "string",
          "name": "_projectURI",
          "type": "string"
        },
        {
          "internalType": "bytes32",
          "name": "_methodologyHash",
          "type": "bytes32"
        }
      ],
      "name": "registerProject",
      "outputs": [
        {
          "internalType": "uint256",
          "name": "",
          "type": "uint256"
        }
      ],
      "stateMutability": "nonpayable",
      "type": "function"
    },
    {
      "inputs": [
        {
          "internalType": "uint256",
          "name": "creditId",
          "type": "uint256"
        },
        {
          "internalType": "uint256",
          "name": "amount",
          "type": "uint256"
        }
      ],
      "name": "retireCredits",
      "outputs": [],
      "stateMutability": "nonpayable",
      "type": "function"
    },
    {
      "inputs": [
        {
          "internalType": "address",
          "name": "_from",
          "type": "address"
        },
        {
          "internalType": "address",
          "name": "_to",
          "type": "address"
        },
        {
          "internalType": "uint256",
          "name": "_id",
          "type": "uint256"
        },
        {
          "internalType": "uint256",
          "name": "_amount",
          "type": "uint256"
        },
        {
          "internalType": "bytes",
          "name": "_data",
          "type": "bytes"
        }
      ],
      "name": "safeTransferFrom",
      "outputs": [],
      "stateMutability": "nonpayable",
      "type": "function"
    },
    {
      "inputs": [
        {
          "internalType": "address",
          "name": "_operator",
          "type": "address"
        },
        {
          "internalType": "bool",
          "name": "_approved",
          "type": "bool"
        }
      ],
      "name": "setApprovalForAll",
      "outputs": [],
      "stateMutability": "nonpayable",
      "type": "function"
    },
    {
      "inputs": [
        {
          "internalType": "uint256",
          "name": "_projectId",
          "type": "uint256"
        },
        {
          "internalType": "enum BiodiversityCredits_LatinHack.Status",
          "name": "_newStatus",
          "type": "uint8"
        }
      ],
      "name": "updateProjectStatus",
      "outputs": [],
      "stateMutability": "nonpayable",
      "type": "function"
    }
  ],
  "bytecode": "608060405234801561001057600080fd5b50604051612ffb380380612ffb83398181016040528101906100329190610112565b61004c679c03aa4373b3985760c01b6100ac60201b60201c565b6100666730e54017a0ec601560c01b6100ac60201b60201c565b806000806101000a81548173ffffffffffffffffffffffffffffffffffffffff021916908373ffffffffffffffffffffffffffffffffffffffff1602179055505061013f565b50565b600080fd5b600073ffffffffffffffffffffffffffffffffffffffff82169050919050565b60006100df826100b4565b9050919050565b6100ef816100d4565b81146100fa57600080fd5b50565b60008151905061010c816100e6565b92915050565b600060208284031215610128576101276100af565b5b6000610136848285016100fd565b91505092915050565b612ead8061014e6000396000f3fe608060405234801561001057600080fd5b50600436106100b35760003560e01c8063bb0e12e711610071578063bb0e12e7146101a0578063d11d498b146101d2578063e985e9c5146101ee578063f242432a1461021e578063f5298aca1461023a578063f851a44014610256576100b3565b8062fdd58e146100b8578063107046bd146100e85780632579c24d1461011c5780633ea0fb131461014c57806382d26b1714610168578063a22cb46514610184575b600080fd5b6100d260048036038101906100cd9190611cf8565b610274565b6040516100df9190611d47565b60405180910390f35b61010260048036038101906100fd9190611d62565b61030b565b604051610113959493929190611ebe565b60405180910390f35b61013660048036038101906101319190612079565b610416565b6040516101439190611d47565b60405180910390f35b610166600480360381019061016191906120e8565b610752565b005b610182600480360381019061017d9190612128565b610a14565b005b61019e600480360381019061019991906121b3565b610d6b565b005b6101ba60048036038101906101b59190611d62565b610eb8565b6040516101c9939291906121f3565b60405180910390f35b6101ec60048036038101906101e7919061224f565b610ee2565b005b6102086004803603810190610203919061228f565b6111cf565b60405161021591906122de565b60405180910390f35b6102386004803603810190610233919061239a565b61129f565b005b610254600480360381019061024f9190612431565b6116ff565b005b61025e611a24565b60405161026b9190612484565b60405180910390f35b600061028a67a99c0be114234c9560c01b611a48565b61029e679286876e35a62a6e60c01b611a48565b6102b267c91aab288ed1001360c01b611a48565b6005600083815260200190815260200160002060008473ffffffffffffffffffffffffffffffffffffffff1673ffffffffffffffffffffffffffffffffffffffff16815260200190815260200160002054905092915050565b60016020528060005260406000206000915090508060000160009054906101000a900473ffffffffffffffffffffffffffffffffffffffff16908060010160009054906101000a900473ffffffffffffffffffffffffffffffffffffffff169080600201805461037a906124ce565b80601f01602080910402602001604051908101604052809291908181526020018280546103a6906124ce565b80156103f35780601f106103c8576101008083540402835291602001916103f3565b820191906000526020600020905b8154815290600101906020018083116103d657829003601f168201915b5050505050908060030154908060040160009054906101000a900460ff16905085565b600061042c674fd83297b3b0965960c01b611a48565b61044067be90b1faf4c37dca60c01b611a48565b61045467ba97bc0a06c4ef8a60c01b611a48565b6104686781c92b17d222d62f60c01b611a48565b600073ffffffffffffffffffffffffffffffffffffffff168473ffffffffffffffffffffffffffffffffffffffff16036104d7576040517f08c379a00000000000000000000000000000000000000000000000000000000081526004016104ce90612571565b60405180910390fd5b6104eb674cc56bed49cc37c260c01b611a48565b6104ff676a1bce96499b6de460c01b611a48565b61051367b48efe055784cc5660c01b611a48565b600060026000815480929190610528906125c0565b919050559050610542672fbbc4c75d8b73b160c01b611a48565b6040518060a001604052803373ffffffffffffffffffffffffffffffffffffffff1681526020018673ffffffffffffffffffffffffffffffffffffffff168152602001858152602001848152602001600060028111156105a5576105a4611e47565b5b8152506001600083815260200190815260200160002060008201518160000160006101000a81548173ffffffffffffffffffffffffffffffffffffffff021916908373ffffffffffffffffffffffffffffffffffffffff16021790555060208201518160010160006101000a81548173ffffffffffffffffffffffffffffffffffffffff021916908373ffffffffffffffffffffffffffffffffffffffff160217905550604082015181600201908161065e91906127b4565b506060820151816003015560808201518160040160006101000a81548160ff0219169083600281111561069457610693611e47565b5b02179055509050506106b067615368ed59400d8c60c01b611a48565b6106c467baa905add9ce013060c01b611a48565b8473ffffffffffffffffffffffffffffffffffffffff163373ffffffffffffffffffffffffffffffffffffffff16827f7024d444707bcd36a8b0a076e120d984b0f8431dc1aa0513f728193d34a630dd60405160405180910390a461073367a0cc6b16bb790b8560c01b611a48565b61074767c667dd8b1fcb26ff60c01b611a48565b809150509392505050565b61076667f959deb4f42b1aa960c01b611a48565b61077a676e9d1e3a7ff8c39560c01b611a48565b61078e676a723e419daafe0360c01b611a48565b60003390506107a767283706107c7a53a460c01b611a48565b6107bb67b53c90162624d04e60c01b611a48565b6107cf67fb7b67fd6d17133a60c01b611a48565b816005600085815260200190815260200160002060008373ffffffffffffffffffffffffffffffffffffffff1673ffffffffffffffffffffffffffffffffffffffff168152602001908152602001600020541015610862576040517f08c379a0000000000000000000000000000000000000000000000000000000008152600401610859906128f8565b60405180910390fd5b610876670ea4c80fd87f4cbd60c01b611a48565b61088a67225e6791cc706fdc60c01b611a48565b816005600085815260200190815260200160002060008373ffffffffffffffffffffffffffffffffffffffff1673ffffffffffffffffffffffffffffffffffffffff16815260200190815260200160002060008282546108ea9190612918565b92505081905550610905674b5dcd5536a4e7df60c01b611a48565b610919674d4c01d12133200760c01b611a48565b600073ffffffffffffffffffffffffffffffffffffffff168173ffffffffffffffffffffffffffffffffffffffff168273ffffffffffffffffffffffffffffffffffffffff167fc3d58168c5ae7397731d063d5bbf3d657854427343f4c083240f7aacaa2d0f62868660405161099092919061294c565b60405180910390a46109ac67227b9787c2fa973060c01b611a48565b6109c06725596b2b421c07b460c01b611a48565b8073ffffffffffffffffffffffffffffffffffffffff16837f31995d78296d80ec997704a03d4e6295c44e8755e8117523fb44bf086c306dcb84604051610a079190611d47565b60405180910390a3505050565b610a2867d49d25d2d400f8e060c01b611a48565b610a3c6772e0acdd3131f51d60c01b611a48565b610a50673f7ab279e8dea6bf60c01b611a48565b6000600160008581526020019081526020016000209050610a7b676a725b443588fea260c01b611a48565b610a8f6745d462a8105adebd60c01b611a48565b610aa3678f45e0805f3f699c60c01b611a48565b60016002811115610ab757610ab6611e47565b5b8160040160009054906101000a900460ff166002811115610adb57610ada611e47565b5b14610b1b576040517f08c379a0000000000000000000000000000000000000000000000000000000008152600401610b12906129c1565b60405180910390fd5b610b2f67dfe4cdb7720c43bc60c01b611a48565b610b436742466db1828fc53e60c01b611a48565b610b5767557ac2b3f07e5ebb60c01b611a48565b610b6b678b46d801cfd29eef60c01b611a48565b8060010160009054906101000a900473ffffffffffffffffffffffffffffffffffffffff1673ffffffffffffffffffffffffffffffffffffffff163373ffffffffffffffffffffffffffffffffffffffff1614610bfd576040517f08c379a0000000000000000000000000000000000000000000000000000000008152600401610bf490612a53565b60405180910390fd5b610c1167568c4498d2bf70e960c01b611a48565b610c2567d071cba8341520cd60c01b611a48565b610c3967414d089cb6c3f51960c01b611a48565b600060046000815480929190610c4e906125c0565b919050559050610c686726e067e1869f863c60c01b611a48565b60405180606001604052808681526020014281526020018481525060036000838152602001908152602001600020600082015181600001556020820151816001015560408201518160020155905050610ccb673aaeba0a5be273b660c01b611a48565b610cdf6704e7c6422fa814ba60c01b611a48565b610cea848285611a4b565b610cfe677e0a1842ee4bb55360c01b611a48565b610d1267b0641e6082f1225e60c01b611a48565b3373ffffffffffffffffffffffffffffffffffffffff1685827f1dc2eff6065ae138f646dfc86e678c27bdcd906b084e71aa63faf4bcb0efe2118787604051610d5c929190612a73565b60405180910390a45050505050565b610d7f678b1849df87fa1d1660c01b611a48565b610d93678eb24d76fe938df860c01b611a48565b80600660003373ffffffffffffffffffffffffffffffffffffffff1673ffffffffffffffffffffffffffffffffffffffff16815260200190815260200160002060008473ffffffffffffffffffffffffffffffffffffffff1673ffffffffffffffffffffffffffffffffffffffff16815260200190815260200160002060006101000a81548160ff021916908315150217905550610e3b67aab570626d4b797e60c01b611a48565b610e4f678a4ced68fbf598c760c01b611a48565b8173ffffffffffffffffffffffffffffffffffffffff163373ffffffffffffffffffffffffffffffffffffffff167f17307eab39ab6107e8899845ad3d59bd9653f200f220920489ca2b5937696c3183604051610eac91906122de565b60405180910390a35050565b60036020528060005260406000206000915090508060000154908060010154908060020154905083565b610ef667069e620e547de38a60c01b611a48565b610f0a67161eeca96641cba560c01b611a48565b610f1e67785adedd996125d860c01b611a48565b610f326727b4c37022324e6060c01b611a48565b610f466772552d1606c33ed160c01b611a48565b60008054906101000a900473ffffffffffffffffffffffffffffffffffffffff1673ffffffffffffffffffffffffffffffffffffffff163373ffffffffffffffffffffffffffffffffffffffff1614610fd4576040517f08c379a0000000000000000000000000000000000000000000000000000000008152600401610fcb90612ae8565b60405180910390fd5b610fe867f7dc2399d5c8afc160c01b611a48565b610ffc672cc2c4ae475483db60c01b611a48565b61101067e19101374d8a772c60c01b611a48565b6110246713fcdb119e3316b460c01b611a48565b6110386741cf9d19884ae47560c01b611a48565b61104c67fd63e34e51d104d860c01b611a48565b6110606715f996ef3e08043960c01b611a48565b600073ffffffffffffffffffffffffffffffffffffffff166001600084815260200190815260200160002060000160009054906101000a900473ffffffffffffffffffffffffffffffffffffffff1673ffffffffffffffffffffffffffffffffffffffff1603611105576040517f08c379a00000000000000000000000000000000000000000000000000000000081526004016110fc90612b54565b60405180910390fd5b61111967d7684f404758665a60c01b611a48565b61112d675478333fe6d4bc8660c01b611a48565b806001600084815260200190815260200160002060040160006101000a81548160ff0219169083600281111561116657611165611e47565b5b021790555061117f6722fe788843eda21660c01b611a48565b61119367551926090427be7e60c01b611a48565b817f8fb6fda973f304b2834c4147004045448416c05b253872373ac5b19f4a5b7a5d826040516111c39190612b74565b60405180910390a25050565b60006111e56773020daaa275062f60c01b611a48565b6111f9679e28b43bc70bb91c60c01b611a48565b61120d672cf7eac54adc128b60c01b611a48565b600660008473ffffffffffffffffffffffffffffffffffffffff1673ffffffffffffffffffffffffffffffffffffffff16815260200190815260200160002060008373ffffffffffffffffffffffffffffffffffffffff1673ffffffffffffffffffffffffffffffffffffffff16815260200190815260200160002060009054906101000a900460ff16905092915050565b6112b3670338d57b0a646bea60c01b611a48565b6112c767c179e86d7696e42260c01b611a48565b6112db671b272548067809d660c01b611a48565b6112ef67e31a9d3fa91e5d4c60c01b611a48565b3373ffffffffffffffffffffffffffffffffffffffff168573ffffffffffffffffffffffffffffffffffffffff1614801561133a575061133967f11ffa9b983fc88360c01b611c45565b5b80611367575061134a85336111cf565b80156113665750611365674fbd30a111ffb69660c01b611c45565b5b5b6113a6576040517f08c379a000000000000000000000000000000000000000000000000000000000815260040161139d90612c01565b60405180910390fd5b6113ba6725e6c372de0139d960c01b611a48565b6113ce678a711cb7770948e260c01b611a48565b6113e26796103c31a581d13b60c01b611a48565b6113f667ad95061ba8c805da60c01b611a48565b600073ffffffffffffffffffffffffffffffffffffffff168473ffffffffffffffffffffffffffffffffffffffff1603611465576040517f08c379a000000000000000000000000000000000000000000000000000000000815260040161145c90612c93565b60405180910390fd5b611479671cfb20ac82931f0160c01b611a48565b61148d67a3ee19a9843530df60c01b611a48565b6114a167452b7df9eb67592d60c01b611a48565b6114b567b721b58a6dead79660c01b611a48565b816005600085815260200190815260200160002060008773ffffffffffffffffffffffffffffffffffffffff1673ffffffffffffffffffffffffffffffffffffffff168152602001908152602001600020541015611548576040517f08c379a000000000000000000000000000000000000000000000000000000000815260040161153f90612cff565b60405180910390fd5b61155c67a8f958b20447935360c01b611a48565b611570679525a5040919894d60c01b611a48565b816005600085815260200190815260200160002060008773ffffffffffffffffffffffffffffffffffffffff1673ffffffffffffffffffffffffffffffffffffffff16815260200190815260200160002060008282546115d09190612918565b925050819055506115eb67a8c75ad1044db54160c01b611a48565b816005600085815260200190815260200160002060008673ffffffffffffffffffffffffffffffffffffffff1673ffffffffffffffffffffffffffffffffffffffff168152602001908152602001600020600082825461164b9190612d1f565b9250508190555061166667a65a9175995584c560c01b611a48565b61167a67d08aed63be9bdfeb60c01b611a48565b8373ffffffffffffffffffffffffffffffffffffffff168573ffffffffffffffffffffffffffffffffffffffff163373ffffffffffffffffffffffffffffffffffffffff167fc3d58168c5ae7397731d063d5bbf3d657854427343f4c083240f7aacaa2d0f6286866040516116f092919061294c565b60405180910390a45050505050565b611713676fbde5bb7ebc01a160c01b611a48565b6117276791edbfa96a96e6b060c01b611a48565b61173b67c09cb4ff405d399060c01b611a48565b61174f67282521b7d6683aa160c01b611a48565b3373ffffffffffffffffffffffffffffffffffffffff168373ffffffffffffffffffffffffffffffffffffffff1614801561179a575061179967b79752ab4ee316a460c01b611c45565b5b806117c757506117aa83336111cf565b80156117c657506117c5677540615319fa7d3a60c01b611c45565b5b5b611806576040517f08c379a00000000000000000000000000000000000000000000000000000000081526004016117fd90612dc5565b60405180910390fd5b61181a67cca7ae4bb8dfe24960c01b611a48565b61182e6707dd9eeb2e94cf9460c01b611a48565b611842673e6c4d8ad16b59b460c01b611a48565b61185667ae231a14df328a0a60c01b611a48565b806005600084815260200190815260200160002060008573ffffffffffffffffffffffffffffffffffffffff1673ffffffffffffffffffffffffffffffffffffffff1681526020019081526020016000205410156118e9576040517f08c379a00000000000000000000000000000000000000000000000000000000081526004016118e0906128f8565b60405180910390fd5b6118fd67ca575b407498157960c01b611a48565b6119116702eb0e128fea533760c01b611a48565b806005600084815260200190815260200160002060008573ffffffffffffffffffffffffffffffffffffffff1673ffffffffffffffffffffffffffffffffffffffff16815260200190815260200160002060008282546119719190612918565b9250508190555061198c6731ac47d0d870189160c01b611a48565b6119a067148c5ad279ba27b460c01b611a48565b600073ffffffffffffffffffffffffffffffffffffffff168373ffffffffffffffffffffffffffffffffffffffff163373ffffffffffffffffffffffffffffffffffffffff167fc3d58168c5ae7397731d063d5bbf3d657854427343f4c083240f7aacaa2d0f628585604051611a1792919061294c565b60405180910390a4505050565b60008054906101000a900473ffffffffffffffffffffffffffffffffffffffff1681565b50565b611a5f67ecc11c92f62b56d560c01b611a48565b611a73679e22f400b3ca3ab260c01b611a48565b611a8767fce1bc320f1f79de60c01b611a48565b611a9b67f3588572b866f52b60c01b611a48565b600073ffffffffffffffffffffffffffffffffffffffff168373ffffffffffffffffffffffffffffffffffffffff1603611b0a576040517f08c379a0000000000000000000000000000000000000000000000000000000008152600401611b0190612e57565b60405180910390fd5b611b1e676f5925032c6872cb60c01b611a48565b611b326775f17ec6572154f960c01b611a48565b806005600084815260200190815260200160002060008573ffffffffffffffffffffffffffffffffffffffff1673ffffffffffffffffffffffffffffffffffffffff1681526020019081526020016000206000828254611b929190612d1f565b92505081905550611bad67d765f00bb019525c60c01b611a48565b611bc167edb3e55c43e0db7c60c01b611a48565b8273ffffffffffffffffffffffffffffffffffffffff16600073ffffffffffffffffffffffffffffffffffffffff163373ffffffffffffffffffffffffffffffffffffffff167fc3d58168c5ae7397731d063d5bbf3d657854427343f4c083240f7aacaa2d0f628585604051611c3892919061294c565b60405180910390a4505050565b600060019050919050565b6000604051905090565b600080fd5b600080fd5b600073ffffffffffffffffffffffffffffffffffffffff82169050919050565b6000611c8f82611c64565b9050919050565b611c9f81611c84565b8114611caa57600080fd5b50565b600081359050611cbc81611c96565b92915050565b6000819050919050565b611cd581611cc2565b8114611ce057600080fd5b50565b600081359050611cf281611ccc565b92915050565b60008060408385031215611d0f57611d0e611c5a565b5b6000611d1d85828601611cad565b9250506020611d2e85828601611ce3565b9150509250929050565b611d4181611cc2565b82525050565b6000602082019050611d5c6000830184611d38565b92915050565b600060208284031215611d7857611d77611c5a565b5b6000611d8684828501611ce3565b91505092915050565b611d9881611c84565b82525050565b600081519050919050565b600082825260208201905092915050565b60005b83811015611dd8578082015181840152602081019050611dbd565b60008484015250505050565b6000601f19601f8301169050919050565b6000611e0082611d9e565b611e0a8185611da9565b9350611e1a818560208601611dba565b611e2381611de4565b840191505092915050565b6000819050919050565b611e4181611e2e565b82525050565b7f4e487b7100000000000000000000000000000000000000000000000000000000600052602160045260246000fd5b60038110611e8757611e86611e47565b5b50565b6000819050611e9882611e76565b919050565b6000611ea882611e8a565b9050919050565b611eb881611e9d565b82525050565b600060a082019050611ed36000830188611d8f565b611ee06020830187611d8f565b8181036040830152611ef28186611df5565b9050611f016060830185611e38565b611f0e6080830184611eaf565b9695505050505050565b600080fd5b600080fd5b7f4e487b7100000000000000000000000000000000000000000000000000000000600052604160045260246000fd5b611f5a82611de4565b810181811067ffffffffffffffff82111715611f7957611f78611f22565b5b80604052505050565b6000611f8c611c50565b9050611f988282611f51565b919050565b600067ffffffffffffffff821115611fb857611fb7611f22565b5b611fc182611de4565b9050602081019050919050565b82818337600083830152505050565b6000611ff0611feb84611f9d565b611f82565b90508281526020810184848401111561200c5761200b611f1d565b5b612017848285611fce565b509392505050565b600082601f83011261203457612033611f18565b5b8135612044848260208601611fdd565b91505092915050565b61205681611e2e565b811461206157600080fd5b50565b6000813590506120738161204d565b92915050565b60008060006060848603121561209257612091611c5a565b5b60006120a086828701611cad565b935050602084013567ffffffffffffffff8111156120c1576120c0611c5f565b5b6120cd8682870161201f565b92505060406120de86828701612064565b9150509250925092565b600080604083850312156120ff576120fe611c5a565b5b600061210d85828601611ce3565b925050602061211e85828601611ce3565b9150509250929050565b60008060006060848603121561214157612140611c5a565b5b600061214f86828701611ce3565b935050602061216086828701611cad565b925050604061217186828701611ce3565b9150509250925092565b60008115159050919050565b6121908161217b565b811461219b57600080fd5b50565b6000813590506121ad81612187565b92915050565b600080604083850312156121ca576121c9611c5a565b5b60006121d885828601611cad565b92505060206121e98582860161219e565b9150509250929050565b60006060820190506122086000830186611d38565b6122156020830185611d38565b6122226040830184611d38565b949350505050565b6003811061223757600080fd5b50565b6000813590506122498161222a565b92915050565b6000806040838503121561226657612265611c5a565b5b600061227485828601611ce3565b92505060206122858582860161223a565b9150509250929050565b600080604083850312156122a6576122a5611c5a565b5b60006122b485828601611cad565b92505060206122c585828601611cad565b9150509250929050565b6122d88161217b565b82525050565b60006020820190506122f360008301846122cf565b92915050565b600067ffffffffffffffff82111561231457612313611f22565b5b61231d82611de4565b9050602081019050919050565b600061233d612338846122f9565b611f82565b90508281526020810184848401111561235957612358611f1d565b5b612364848285611fce565b509392505050565b600082601f83011261238157612380611f18565b5b813561239184826020860161232a565b91505092915050565b600080600080600060a086880312156123b6576123b5611c5a565b5b60006123c488828901611cad565b95505060206123d588828901611cad565b94505060406123e688828901611ce3565b93505060606123f788828901611ce3565b925050608086013567ffffffffffffffff81111561241857612417611c5f565b5b6124248882890161236c565b9150509295509295909350565b60008060006060848603121561244a57612449611c5a565b5b600061245886828701611cad565b935050602061246986828701611ce3565b925050604061247a86828701611ce3565b9150509250925092565b60006020820190506124996000830184611d8f565b92915050565b7f4e487b7100000000000000000000000000000000000000000000000000000000600052602260045260246000fd5b600060028204905060018216806124e657607f821691505b6020821081036124f9576124f861249f565b5b50919050565b7f456c207665726966696361646f72206e6f20707565646520736572206c61206460008201527f6972656363696f6e206365726f00000000000000000000000000000000000000602082015250565b600061255b602d83611da9565b9150612566826124ff565b604082019050919050565b6000602082019050818103600083015261258a8161254e565b9050919050565b7f4e487b7100000000000000000000000000000000000000000000000000000000600052601160045260246000fd5b60006125cb82611cc2565b91507fffffffffffffffffffffffffffffffffffffffffffffffffffffffffffffffff82036125fd576125fc612591565b5b600182019050919050565b60008190508160005260206000209050919050565b60006020601f8301049050919050565b600082821b905092915050565b60006008830261266a7fffffffffffffffffffffffffffffffffffffffffffffffffffffffffffffffff8261262d565b612674868361262d565b95508019841693508086168417925050509392505050565b6000819050919050565b60006126b16126ac6126a784611cc2565b61268c565b611cc2565b9050919050565b6000819050919050565b6126cb83612696565b6126df6126d7826126b8565b84845461263a565b825550505050565b600090565b6126f46126e7565b6126ff8184846126c2565b505050565b5b81811015612723576127186000826126ec565b600181019050612705565b5050565b601f8211156127685761273981612608565b6127428461261d565b81016020851015612751578190505b61276561275d8561261d565b830182612704565b50505b505050565b600082821c905092915050565b600061278b6000198460080261276d565b1980831691505092915050565b60006127a4838361277a565b9150826002028217905092915050565b6127bd82611d9e565b67ffffffffffffffff8111156127d6576127d5611f22565b5b6127e082546124ce565b6127eb828285612727565b600060209050601f83116001811461281e576000841561280c578287015190505b6128168582612798565b86555061287e565b601f19841661282c86612608565b60005b828110156128545784890151825560018201915060208501945060208101905061282f565b86831015612871578489015161286d601f89168261277a565b8355505b6001600288020188555050505b505050505050565b7f455243313135353a2062616c616e636520696e737566696369656e746520706160008201527f7261207175656d61720000000000000000000000000000000000000000000000602082015250565b60006128e2602983611da9565b91506128ed82612886565b604082019050919050565b60006020820190508181036000830152612911816128d5565b9050919050565b600061292382611cc2565b915061292e83611cc2565b925082820390508181111561294657612945612591565b5b92915050565b60006040820190506129616000830185611d38565b61296e6020830184611d38565b9392505050565b7f456c2070726f796563746f206e6f2065737461206170726f6261646f00000000600082015250565b60006129ab601c83611da9565b91506129b682612975565b602082019050919050565b600060208201905081810360008301526129da8161299e565b9050919050565b7f4c6c616d61646f72206e6f20657320656c207665726966696361646f7220646560008201527f20657374652070726f796563746f000000000000000000000000000000000000602082015250565b6000612a3d602e83611da9565b9150612a48826129e1565b604082019050919050565b60006020820190508181036000830152612a6c81612a30565b9050919050565b6000604082019050612a886000830185611d8f565b612a956020830184611d38565b9392505050565b7f4c6c616d61646f72206e6f20657320656c2061646d696e000000000000000000600082015250565b6000612ad2601783611da9565b9150612add82612a9c565b602082019050919050565b60006020820190508181036000830152612b0181612ac5565b9050919050565b7f456c2070726f796563746f206e6f206578697374650000000000000000000000600082015250565b6000612b3e601583611da9565b9150612b4982612b08565b602082019050919050565b60006020820190508181036000830152612b6d81612b31565b9050919050565b6000602082019050612b896000830184611eaf565b92915050565b7f455243313135353a206e6f206175746f72697a61646f2070617261207472616e60008201527f7366657269720000000000000000000000000000000000000000000000000000602082015250565b6000612beb602683611da9565b9150612bf682612b8f565b604082019050919050565b60006020820190508181036000830152612c1a81612bde565b9050919050565b7f455243313135353a206e6f207365207075656465207472616e7366657269722060008201527f61206c6120646972656363696f6e206365726f00000000000000000000000000602082015250565b6000612c7d603383611da9565b9150612c8882612c21565b604082019050919050565b60006020820190508181036000830152612cac81612c70565b9050919050565b7f455243313135353a2062616c616e636520696e737566696369656e7465000000600082015250565b6000612ce9601d83611da9565b9150612cf482612cb3565b602082019050919050565b60006020820190508181036000830152612d1881612cdc565b9050919050565b6000612d2a82611cc2565b9150612d3583611cc2565b9250828201905080821115612d4d57612d4c612591565b5b92915050565b7f455243313135353a206e6f206175746f72697a61646f2070617261207175656d60008201527f6172000000000000000000000000000000000000000000000000000000000000602082015250565b6000612daf602283611da9565b9150612dba82612d53565b604082019050919050565b60006020820190508181036000830152612dde81612da2565b9050919050565b7f455243313135353a206e6f207365207075656465206163756e61722061206c6160008201527f20646972656363696f6e206365726f0000000000000000000000000000000000602082015250565b6000612e41602f83611da9565b9150612e4c82612de5565b604082019050919050565b60006020820190508181036000830152612e7081612e34565b905091905056fea26469706673582212207faf370d3bca462c06faaba45b7e3c7e4ecd78c324c20f75ca28c4636ffa7d7d64736f6c634300081c0033",
  "linkReferences": {},
  "deployedLinkReferences": {}
}