{"contracts/mock/TestCSALatinHackHelper.sol":{"TestCSALatinHackHelper":{"abi":[{"inputs":[{"internalType":"address","name":"initialOwner","type":"address"}],"stateMutability":"nonpayable","type":"constructor"},{"anonymous":false,"inputs":[{"indexed":true,"internalType":"address","name":"_owner","type":"address"},{"indexed":true,"internalType":"address","name":"_operator","type":"address"},{"indexed":false,"internalType":"bool","name":"_approved","type":"bool"}],"name":"ApprovalForAll","type":"event"},{"anonymous":false,"inputs":[{"indexed":false,"internalType":"uint256","name":"seasonId","type":"uint256"},{"indexed":false,"internalType":"address","name":"member","type":"address"},{"indexed":false,"internalType":"uint256","name":"weekNumber","type":"uint256"}],"name":"BoxRedeemed","type":"event"},{"anonymous":false,"inputs":[{"indexed":false,"internalType":"uint256","name":"seasonId","type":"uint256"},{"indexed":false,"internalType":"address","name":"member","type":"address"},{"indexed":false,"internalType":"uint256","name":"amount","type":"uint256"}],"name":"MembershipPurchased","type":"event"},{"anonymous":false,"inputs":[{"indexed":false,"internalType":"uint256","name":"seasonId","type":"uint256"},{"indexed":false,"internalType":"string","name":"name","type":"string"},{"indexed":false,"internalType":"uint256","name":"price","type":"uint256"},{"indexed":false,"internalType":"uint256","name":"capacity","type":"uint256"}],"name":"SeasonCreated","type":"event"},{"anonymous":false,"inputs":[{"indexed":true,"internalType":"address","name":"_operator","type":"address"},{"indexed":true,"internalType":"address","name":"_from","type":"address"},{"indexed":true,"internalType":"address","name":"_to","type":"address"},{"indexed":false,"internalType":"uint256","name":"_id","type":"uint256"},{"indexed":false,"internalType":"uint256","name":"_amount","type":"uint256"}],"name":"TransferSingle","type":"event"},{"inputs":[{"internalType":"address","name":"account","type":"address"},{"internalType":"uint256","name":"id","type":"uint256"}],"name":"balanceOf","outputs":[{"internalType":"uint256","name":"","type":"uint256"}],"stateMutability":"view","type":"function"},{"inputs":[{"internalType":"address","name":"from","type":"address"},{"internalType":"uint256","name":"id","type":"uint256"},{"internalType":"uint256","name":"amount","type":"uint256"}],"name":"burn","outputs":[],"stateMutability":"nonpayable","type":"function"},{"inputs":[],"name":"buyMembership","outputs":[],"stateMutability":"payable","type":"function"},{"inputs":[{"internalType":"uint256","name":"seasonId","type":"uint256"}],"name":"closeSeasonSales","outputs":[],"stateMutability":"nonpayable","type":"function"},{"inputs":[{"internalType":"string","name":"seasonName","type":"string"},{"internalType":"uint256","name":"price","type":"uint256"},{"internalType":"uint256","name":"capacity","type":"uint256"},{"internalType":"uint256","name":"durationInWeeks","type":"uint256"}],"name":"createNewSeason","outputs":[],"stateMutability":"nonpayable","type":"function"},{"inputs":[{"internalType":"address","name":"account","type":"address"},{"internalType":"address","name":"operator","type":"address"}],"name":"isApprovedForAll","outputs":[{"internalType":"bool","name":"","type":"bool"}],"stateMutability":"view","type":"function"},{"inputs":[],"name":"owner","outputs":[{"internalType":"address","name":"","type":"address"}],"stateMutability":"view","type":"function"},{"inputs":[{"internalType":"uint256","name":"seasonId","type":"uint256"}],"name":"redeemWeeklyBox","outputs":[],"stateMutability":"nonpayable","type":"function"},{"inputs":[{"internalType":"address","name":"from","type":"address"},{"internalType":"address","name":"to","type":"address"},{"internalType":"uint256","name":"id","type":"uint256"},{"internalType":"uint256","name":"amount","type":"uint256"},{"internalType":"bytes","name":"data","type":"bytes"}],"name":"safeTransferFrom","outputs":[],"stateMutability":"nonpayable","type":"function"},{"inputs":[{"internalType":"uint256","name":"","type":"uint256"}],"name":"seasons","outputs":[{"internalType":"string","name":"name","type":"string"},{"internalType":"uint256","name":"membershipPrice","type":"uint256"},{"internalType":"uint256","name":"totalMemberships","type":"uint256"},{"internalType":"uint256","name":"soldMemberships","type":"uint256"},{"internalType":"uint256","name":"startTime","type":"uint256"},{"internalType":"uint256","name":"endTime","type":"uint256"},{"internalType":"bool","name":"isOpenForSale","type":"bool"}],"stateMutability":"view","type":"function"},{"inputs":[{"internalType":"address","name":"operator","type":"address"},{"internalType":"bool","name":"approved","type":"bool"}],"name":"setApprovalForAll","outputs":[],"stateMutability":"nonpayable","type":"function"},{"inputs":[{"internalType":"address","name":"to","type":"address"},{"internalType":"uint256","name":"id","type":"uint256"},{"internalType":"uint256","name":"amount","type":"uint256"}],"name":"testMint","outputs":[],"stateMutability":"nonpayable","type":"function"},{"inputs":[{"internalType":"address","name":"newOwner","type":"address"}],"name":"transferOwnership","outputs":[],"stateMutability":"nonpayable","type":"function"},{"inputs":[{"internalType":"address","name":"","type":"address"},{"internalType":"uint256","name":"","type":"uint256"},{"internalType":"uint256","name":"","type":"uint256"}],"name":"weeklyRedemptions","outputs":[{"internalType":"bool","name":"","type":"bool"}],"stateMutability":"view","type":"function"},{"inputs":[],"name":"withdraw","outputs":[],"stateMutability":"nonpayable","type":"function"}],"evm":{"bytecode":{"linkReferences":{},"object":"608060405234801561001057600080fd5b506040516139fb3803806139fb83398181016040528101906100329190610131565b8061004d670a5bb3f85ef70aea60c01b6100c860201b60201c565b6100676722054a042928236d60c01b6100c860201b60201c565b806000806101000a81548173ffffffffffffffffffffffffffffffffffffffff021916908373ffffffffffffffffffffffffffffffffffffffff160217905550506100c267f5956abf062c82e160c01b6100cb60201b60201c565b5061015e565b50565b50565b600080fd5b600073ffffffffffffffffffffffffffffffffffffffff82169050919050565b60006100fe826100d3565b9050919050565b61010e816100f3565b811461011957600080fd5b50565b60008151905061012b81610105565b92915050565b600060208284031215610147576101466100ce565b5b60006101558482850161011c565b91505092915050565b61388e8061016d6000396000f3fe6080604052600436106100e75760003560e01c8063833727e81161008a578063f242432a11610059578063f242432a146102bc578063f2fde38b146102e5578063f5298aca1461030e578063f5d709a114610337576100e7565b8063833727e8146101ee5780638da5cb5b1461022b578063a22cb46514610256578063e985e9c51461027f576100e7565b80635c581119116100c65780635c581119146101695780636cc07beb1461017357806373afd2001461019c578063793e9f26146101c5576100e7565b8062fdd58e146100ec5780633aef7c80146101295780633ccfd60b14610152575b600080fd5b3480156100f857600080fd5b50610113600480360381019061010e91906123cb565b61037a565b604051610120919061241a565b60405180910390f35b34801561013557600080fd5b50610150600480360381019061014b919061257b565b6104d0565b005b34801561015e57600080fd5b50610167610825565b005b610171610aaf565b005b34801561017f57600080fd5b5061019a600480360381019061019591906125fe565b610e82565b005b3480156101a857600080fd5b506101c360048036038101906101be91906125fe565b6110b0565b005b3480156101d157600080fd5b506101ec60048036038101906101e7919061262b565b611495565b005b3480156101fa57600080fd5b506102156004803603810190610210919061262b565b6114e1565b6040516102229190612699565b60405180910390f35b34801561023757600080fd5b5061024061151d565b60405161024d91906126c3565b60405180910390f35b34801561026257600080fd5b5061027d6004803603810190610278919061270a565b611541565b005b34801561028b57600080fd5b506102a660048036038101906102a1919061274a565b61168e565b6040516102b39190612699565b60405180910390f35b3480156102c857600080fd5b506102e360048036038101906102de919061282b565b61175e565b005b3480156102f157600080fd5b5061030c600480360381019061030791906128c2565b611bbe565b005b34801561031a57600080fd5b506103356004803603810190610330919061262b565b611d57565b005b34801561034357600080fd5b5061035e600480360381019061035991906125fe565b612033565b604051610371979695949392919061296e565b60405180910390f35b6000610390677032bcd1b6a2536360c01b61211a565b6103a467562f944bc5b4ced560c01b61211a565b6103b86713b905d2718e711060c01b61211a565b6103cc671777e9bf173c42c760c01b61211a565b600073ffffffffffffffffffffffffffffffffffffffff168373ffffffffffffffffffffffffffffffffffffffff160361043b576040517f08c379a000000000000000000000000000000000000000000000000000000000815260040161043290612a30565b60405180910390fd5b61044f6795bb74f77b3c2eca60c01b61211a565b61046367cb19289e390e267660c01b61211a565b610477676be2a60e72af3a3960c01b61211a565b6001600083815260200190815260200160002060008473ffffffffffffffffffffffffffffffffffffffff1673ffffffffffffffffffffffffffffffffffffffff16815260200190815260200160002054905092915050565b6104e467e1ccf58379d0f0f260c01b61211a565b6104f867ab267b289bf7e22360c01b61211a565b61050c67e6860ec9ad94585e60c01b61211a565b6105206752cac397e7fe50f460c01b61211a565b61053467ba50882c3c8158b760c01b61211a565b3373ffffffffffffffffffffffffffffffffffffffff1660008054906101000a900473ffffffffffffffffffffffffffffffffffffffff1673ffffffffffffffffffffffffffffffffffffffff16146105c2576040517f08c379a00000000000000000000000000000000000000000000000000000000081526004016105b990612ac2565b60405180910390fd5b6105d667bd79d4c7cf57e00660c01b61211a565b6105ea67d3fc60edbb06f55f60c01b61211a565b6105fe679f5ee2e453a8ba0060c01b61211a565b610612678bc11e9f6bb432ee60c01b61211a565b61062667b7923e14459f7c6260c01b61211a565b61063a67300eda3e153dff4760c01b61211a565b600042905061065367cf5de4b7bcfd57d960c01b61211a565b61066767e73c9195ac77d5bb60c01b61211a565b600062093a80836106789190612b11565b826106839190612b53565b9050610699677db718e892d255ca60c01b61211a565b6106ad67d50b5df6d8011a9760c01b61211a565b60036040518060e001604052808881526020018781526020018681526020016000815260200184815260200183815260200160011515815250908060018154018082558091505060019003906000526020600020906007020160009091909190915060008201518160000190816107249190612d93565b506020820151816001015560408201518160020155606082015181600301556080820151816004015560a0820151816005015560c08201518160060160006101000a81548160ff021916908315150217905550505061078d67dc355aaca3cc9ed460c01b61211a565b6107a1671ffc40927b73616760c01b61211a565b600060016003805490506107b59190612e65565b90506107cb67d072d3b00c99cad760c01b61211a565b6107df672d85bb237b88611460c01b61211a565b7fc53cf244672e3e1eed9acdcd22658f6c1cee6d44144f1a17e4a1609b803aa605818888886040516108149493929190612e99565b60405180910390a150505050505050565b6108396773e132a8b13ca6e460c01b61211a565b61084d67ab267b289bf7e22360c01b61211a565b61086167e6860ec9ad94585e60c01b61211a565b6108756752cac397e7fe50f460c01b61211a565b61088967ba50882c3c8158b760c01b61211a565b3373ffffffffffffffffffffffffffffffffffffffff1660008054906101000a900473ffffffffffffffffffffffffffffffffffffffff1673ffffffffffffffffffffffffffffffffffffffff1614610917576040517f08c379a000000000000000000000000000000000000000000000000000000000815260040161090e90612ac2565b60405180910390fd5b61092b67bd79d4c7cf57e00660c01b61211a565b61093f67d3fc60edbb06f55f60c01b61211a565b6109536750241f5905fe505160c01b61211a565b61096767cd5fd3d0349edd9660c01b61211a565b61097b67cecbc986cfc699e060c01b61211a565b61098f6743431683a219f70d60c01b61211a565b60008060009054906101000a900473ffffffffffffffffffffffffffffffffffffffff1673ffffffffffffffffffffffffffffffffffffffff16476040516109d690612f16565b60006040518083038185875af1925050503d8060008114610a13576040519150601f19603f3d011682016040523d82523d6000602084013e610a18565b606091505b50509050610a3067b0f6ed96acf208af60c01b61211a565b610a446736dc078c6b95381460c01b61211a565b610a5867c2a073e5b0ece19260c01b61211a565b80610a98576040517f08c379a0000000000000000000000000000000000000000000000000000000008152600401610a8f90612f77565b60405180910390fd5b610aac6737e43cade87dbfa160c01b61211a565b50565b610ac367136c85c6e7cbc13560c01b61211a565b610ad7676ccb7bd9379603a960c01b61211a565b610aeb67c584fe5683bbba8960c01b61211a565b610aff673551a01919155f7160c01b61211a565b600060038054905011610b47576040517f08c379a0000000000000000000000000000000000000000000000000000000008152600401610b3e90612fe3565b60405180910390fd5b610b5b675beb71a21907326360c01b61211a565b610b6f678bf24671f9d7efef60c01b61211a565b610b83677348f5fd37e85c5860c01b61211a565b60006001600380549050610b979190612e65565b9050610bad670ac9152989d951eb60c01b61211a565b610bc16720224698593515f060c01b61211a565b600060038281548110610bd757610bd6613003565b5b90600052602060002090600702019050610bfb6770ef3df40370b51760c01b61211a565b610c0f672d96ca2639bd286860c01b61211a565b610c23671496e3b6429e72c460c01b61211a565b8060060160009054906101000a900460ff16610c74576040517f08c379a0000000000000000000000000000000000000000000000000000000008152600401610c6b9061307e565b60405180910390fd5b610c886789153acb8bee8b0660c01b61211a565b610c9c67729b32e2c0a6d83160c01b61211a565b610cb0670803649ffd7d630960c01b61211a565b610cc467154445fe386ce48f60c01b61211a565b8060020154816003015410610d0e576040517f08c379a0000000000000000000000000000000000000000000000000000000008152600401610d0590613110565b60405180910390fd5b610d2267c0477a40dbd8aa9760c01b61211a565b610d3667760cc7cc9c66072860c01b61211a565b610d4a67660ca11124e1efac60c01b61211a565b610d5e671f476728132c0f1c60c01b61211a565b80600101543414610da4576040517f08c379a0000000000000000000000000000000000000000000000000000000008152600401610d9b9061317c565b60405180910390fd5b610db86753af712148116fb460c01b61211a565b610dcc670f6473c7d91dc1be60c01b61211a565b806003016000815480929190610de19061319c565b9190505550610dfa67821fb852954a69da60c01b61211a565b610e0e6734ecd3c184e7c34560c01b61211a565b610e1a3383600161211d565b610e2e67412937ceffaab5c960c01b61211a565b610e42679fe12df342363d0d60c01b61211a565b7f3040ff01f7e0ef639d0a39654b7be379473b85453c82254b1ab871accbd51edf82336001604051610e769392919061321f565b60405180910390a15050565b610e966729bab031ca7b0d6060c01b61211a565b610eaa67ab267b289bf7e22360c01b61211a565b610ebe67e6860ec9ad94585e60c01b61211a565b610ed26752cac397e7fe50f460c01b61211a565b610ee667ba50882c3c8158b760c01b61211a565b3373ffffffffffffffffffffffffffffffffffffffff1660008054906101000a900473ffffffffffffffffffffffffffffffffffffffff1673ffffffffffffffffffffffffffffffffffffffff1614610f74576040517f08c379a0000000000000000000000000000000000000000000000000000000008152600401610f6b90612ac2565b60405180910390fd5b610f8867bd79d4c7cf57e00660c01b61211a565b610f9c67d3fc60edbb06f55f60c01b61211a565b610fb067387d1c2aad1a412e60c01b61211a565b610fc467df2d47c2f832699b60c01b61211a565b610fd867f3336e1c97feede660c01b61211a565b610fec673b8bc1486034d8ee60c01b61211a565b61100067b862470492eaacbc60c01b61211a565b6003805490508110611047576040517f08c379a000000000000000000000000000000000000000000000000000000000815260040161103e906132a2565b60405180910390fd5b61105b67562b07407058355460c01b61211a565b61106f673c8ef113a18bff3160c01b61211a565b60006003828154811061108557611084613003565b5b906000526020600020906007020160060160006101000a81548160ff02191690831515021790555050565b6110c4679aff07b76f36928d60c01b61211a565b6110d86775769d12742a394360c01b61211a565b6110ec67ee4d02d19a7efa0160c01b61211a565b61110067ccfe6629fac6355060c01b61211a565b600161110c338361037a565b101561114d576040517f08c379a000000000000000000000000000000000000000000000000000000000815260040161114490613334565b60405180910390fd5b61116167ae7cee424cd8f23860c01b61211a565b611175671042cfd47fc27d5160c01b61211a565b61118967577f7af7bd0984e160c01b61211a565b60006003828154811061119f5761119e613003565b5b906000526020600020906007020190506111c3677465373941d37a4d60c01b61211a565b6111d767421c9907327ee29960c01b61211a565b6111eb67a558b2779861df7f60c01b61211a565b80600401544210158015611203575080600501544211155b611242576040517f08c379a0000000000000000000000000000000000000000000000000000000008152600401611239906133c6565b60405180910390fd5b61125667a98a80427f513ed160c01b61211a565b61126a67d4b8b7a1c43d2ff960c01b61211a565b61127e67bfbd480e6c59b12c60c01b61211a565b600062093a808260040154426112949190612e65565b61129e9190613415565b90506112b46788393905ae67bf5a60c01b61211a565b6112c86772c2ccdb55a0b19160c01b61211a565b6112dc67a72f4e30f67e0fb060c01b61211a565b600460003373ffffffffffffffffffffffffffffffffffffffff1673ffffffffffffffffffffffffffffffffffffffff1681526020019081526020016000206000848152602001908152602001600020600082815260200190815260200160002060009054906101000a900460ff161561138b576040517f08c379a0000000000000000000000000000000000000000000000000000000008152600401611382906134b8565b60405180910390fd5b61139f670a11681ab953725260c01b61211a565b6113b367c7849c4e6e0775fb60c01b61211a565b6001600460003373ffffffffffffffffffffffffffffffffffffffff1673ffffffffffffffffffffffffffffffffffffffff1681526020019081526020016000206000858152602001908152602001600020600083815260200190815260200160002060006101000a81548160ff0219169083151502179055506114416754227fdd4f9f147960c01b61211a565b61145567092d9dc97c828bdb60c01b61211a565b7ff5cf00eb1f48ddf482622c8808e58960924c23a2a09920f594da63271914d5d1833383604051611488939291906134d8565b60405180910390a1505050565b6114a9671dfefd1aaeac3dff60c01b612315565b6114bd670ce643ba156db63e60c01b612315565b6114d167e841b21e3a41bfd660c01b612315565b6114dc83838361211d565b505050565b6004602052826000526040600020602052816000526040600020602052806000526040600020600092509250509054906101000a900460ff1681565b60008054906101000a900473ffffffffffffffffffffffffffffffffffffffff1681565b61155567d8c72db29a2c4e0360c01b61211a565b611569671fd0c01f72f130fb60c01b61211a565b80600260003373ffffffffffffffffffffffffffffffffffffffff1673ffffffffffffffffffffffffffffffffffffffff16815260200190815260200160002060008473ffffffffffffffffffffffffffffffffffffffff1673ffffffffffffffffffffffffffffffffffffffff16815260200190815260200160002060006101000a81548160ff02191690831515021790555061161167d5e81a0c6af3310e60c01b61211a565b611625670c05a1ee3c62888960c01b61211a565b8173ffffffffffffffffffffffffffffffffffffffff163373ffffffffffffffffffffffffffffffffffffffff167f17307eab39ab6107e8899845ad3d59bd9653f200f220920489ca2b5937696c31836040516116829190612699565b60405180910390a35050565b60006116a467b25693f188ec983d60c01b61211a565b6116b86774e8cb6015e1457f60c01b61211a565b6116cc6719dbdca1b828ffba60c01b61211a565b600260008473ffffffffffffffffffffffffffffffffffffffff1673ffffffffffffffffffffffffffffffffffffffff16815260200190815260200160002060008373ffffffffffffffffffffffffffffffffffffffff1673ffffffffffffffffffffffffffffffffffffffff16815260200190815260200160002060009054906101000a900460ff16905092915050565b6117726743c6aa694e6c13a660c01b61211a565b61178667f871d2fd78e5ebef60c01b61211a565b61179a67707c5cdfd005e24a60c01b61211a565b6117ae675f0a49d310139b1e60c01b61211a565b3373ffffffffffffffffffffffffffffffffffffffff168573ffffffffffffffffffffffffffffffffffffffff161480156117f957506117f867dfd844ac62e9060c60c01b612318565b5b806118265750611809853361168e565b801561182557506118246792664af19bbb272f60c01b612318565b5b5b611865576040517f08c379a000000000000000000000000000000000000000000000000000000000815260040161185c9061355b565b60405180910390fd5b61187967651335ed250cb88e60c01b61211a565b61188d67be71efabfc145a9560c01b61211a565b6118a167a10ee1f11466d3d760c01b61211a565b6118b567be070531236ca76d60c01b61211a565b600073ffffffffffffffffffffffffffffffffffffffff168473ffffffffffffffffffffffffffffffffffffffff1603611924576040517f08c379a000000000000000000000000000000000000000000000000000000000815260040161191b906135ed565b60405180910390fd5b6119386753f77f958de44ee460c01b61211a565b61194c678180a9f9cc72b6bd60c01b61211a565b611960674f75c9cbac59b8ef60c01b61211a565b611974675dc98aaeae36d99460c01b61211a565b816001600085815260200190815260200160002060008773ffffffffffffffffffffffffffffffffffffffff1673ffffffffffffffffffffffffffffffffffffffff168152602001908152602001600020541015611a07576040517f08c379a00000000000000000000000000000000000000000000000000000000081526004016119fe90613659565b60405180910390fd5b611a1b6763dc6c73f8d10e3360c01b61211a565b611a2f6750d5c91cd9443a0460c01b61211a565b816001600085815260200190815260200160002060008773ffffffffffffffffffffffffffffffffffffffff1673ffffffffffffffffffffffffffffffffffffffff1681526020019081526020016000206000828254611a8f9190612e65565b92505081905550611aaa67cf773594090b6e7460c01b61211a565b816001600085815260200190815260200160002060008673ffffffffffffffffffffffffffffffffffffffff1673ffffffffffffffffffffffffffffffffffffffff1681526020019081526020016000206000828254611b0a9190612b53565b92505081905550611b25670b73e5ec5d1b87e360c01b61211a565b611b3967194a0cb1c360202e60c01b61211a565b8373ffffffffffffffffffffffffffffffffffffffff168573ffffffffffffffffffffffffffffffffffffffff163373ffffffffffffffffffffffffffffffffffffffff167fc3d58168c5ae7397731d063d5bbf3d657854427343f4c083240f7aacaa2d0f628686604051611baf929190613679565b60405180910390a45050505050565b611bd267241026e1e1922ef060c01b61211a565b611be667ab267b289bf7e22360c01b61211a565b611bfa67e6860ec9ad94585e60c01b61211a565b611c0e6752cac397e7fe50f460c01b61211a565b611c2267ba50882c3c8158b760c01b61211a565b3373ffffffffffffffffffffffffffffffffffffffff1660008054906101000a900473ffffffffffffffffffffffffffffffffffffffff1673ffffffffffffffffffffffffffffffffffffffff1614611cb0576040517f08c379a0000000000000000000000000000000000000000000000000000000008152600401611ca790612ac2565b60405180910390fd5b611cc467bd79d4c7cf57e00660c01b61211a565b611cd867d3fc60edbb06f55f60c01b61211a565b611cec6734e194357eb5acb660c01b61211a565b611d0067f47c70128b6932cb60c01b61211a565b611d14672c3f127b5206d24760c01b61211a565b806000806101000a81548173ffffffffffffffffffffffffffffffffffffffff021916908373ffffffffffffffffffffffffffffffffffffffff16021790555050565b611d6b672aafeedf1531208860c01b61211a565b611d7f678ed57867a3322e7060c01b61211a565b611d93678bf445c2d67478e560c01b61211a565b611da76705f12096d794623960c01b61211a565b3373ffffffffffffffffffffffffffffffffffffffff168373ffffffffffffffffffffffffffffffffffffffff1614611e15576040517f08c379a0000000000000000000000000000000000000000000000000000000008152600401611e0c90613714565b60405180910390fd5b611e29670a41548a036f54cb60c01b61211a565b611e3d676760e447286cb99d60c01b61211a565b611e51672287ebc2b252488c60c01b61211a565b611e6567cca0a7959bc31f8560c01b61211a565b806001600084815260200190815260200160002060008573ffffffffffffffffffffffffffffffffffffffff1673ffffffffffffffffffffffffffffffffffffffff168152602001908152602001600020541015611ef8576040517f08c379a0000000000000000000000000000000000000000000000000000000008152600401611eef906137a6565b60405180910390fd5b611f0c67a16cc72822f2f1e860c01b61211a565b611f2067288b769683755e0f60c01b61211a565b806001600084815260200190815260200160002060008573ffffffffffffffffffffffffffffffffffffffff1673ffffffffffffffffffffffffffffffffffffffff1681526020019081526020016000206000828254611f809190612e65565b92505081905550611f9b6791385bdc1745c7d160c01b61211a565b611faf67763d09d849ccb61d60c01b61211a565b600073ffffffffffffffffffffffffffffffffffffffff168373ffffffffffffffffffffffffffffffffffffffff163373ffffffffffffffffffffffffffffffffffffffff167fc3d58168c5ae7397731d063d5bbf3d657854427343f4c083240f7aacaa2d0f628585604051612026929190613679565b60405180910390a4505050565b6003818154811061204357600080fd5b906000526020600020906007020160009150905080600001805461206690612bb6565b80601f016020809104026020016040519081016040528092919081815260200182805461209290612bb6565b80156120df5780601f106120b4576101008083540402835291602001916120df565b820191906000526020600020905b8154815290600101906020018083116120c257829003601f168201915b5050505050908060010154908060020154908060030154908060040154908060050154908060060160009054906101000a900460ff16905087565b50565b61213167890e4f6a19419a8960c01b61211a565b61214567e41b8a81c5d3bd5360c01b61211a565b6121596790f9ed0caee092a760c01b61211a565b61216d67a51a9f8732647adb60c01b61211a565b600073ffffffffffffffffffffffffffffffffffffffff168373ffffffffffffffffffffffffffffffffffffffff16036121dc576040517f08c379a00000000000000000000000000000000000000000000000000000000081526004016121d390613838565b60405180910390fd5b6121ee65b2101d89f3be60c01b61211a565b61220267047a5fdaed736c8260c01b61211a565b806001600084815260200190815260200160002060008573ffffffffffffffffffffffffffffffffffffffff1673ffffffffffffffffffffffffffffffffffffffff16815260200190815260200160002060008282546122629190612b53565b9250508190555061227d67ebdabf23b3c9a20260c01b61211a565b612291671ad9ebbac030843560c01b61211a565b8273ffffffffffffffffffffffffffffffffffffffff16600073ffffffffffffffffffffffffffffffffffffffff163373ffffffffffffffffffffffffffffffffffffffff167fc3d58168c5ae7397731d063d5bbf3d657854427343f4c083240f7aacaa2d0f628585604051612308929190613679565b60405180910390a4505050565b50565b600060019050919050565b6000604051905090565b600080fd5b600080fd5b600073ffffffffffffffffffffffffffffffffffffffff82169050919050565b600061236282612337565b9050919050565b61237281612357565b811461237d57600080fd5b50565b60008135905061238f81612369565b92915050565b6000819050919050565b6123a881612395565b81146123b357600080fd5b50565b6000813590506123c58161239f565b92915050565b600080604083850312156123e2576123e161232d565b5b60006123f085828601612380565b9250506020612401858286016123b6565b9150509250929050565b61241481612395565b82525050565b600060208201905061242f600083018461240b565b92915050565b600080fd5b600080fd5b6000601f19601f8301169050919050565b7f4e487b7100000000000000000000000000000000000000000000000000000000600052604160045260246000fd5b6124888261243f565b810181811067ffffffffffffffff821117156124a7576124a6612450565b5b80604052505050565b60006124ba612323565b90506124c6828261247f565b919050565b600067ffffffffffffffff8211156124e6576124e5612450565b5b6124ef8261243f565b9050602081019050919050565b82818337600083830152505050565b600061251e612519846124cb565b6124b0565b90508281526020810184848401111561253a5761253961243a565b5b6125458482856124fc565b509392505050565b600082601f83011261256257612561612435565b5b813561257284826020860161250b565b91505092915050565b600080600080608085870312156125955761259461232d565b5b600085013567ffffffffffffffff8111156125b3576125b2612332565b5b6125bf8782880161254d565b94505060206125d0878288016123b6565b93505060406125e1878288016123b6565b92505060606125f2878288016123b6565b91505092959194509250565b6000602082840312156126145761261361232d565b5b6000612622848285016123b6565b91505092915050565b6000806000606084860312156126445761264361232d565b5b600061265286828701612380565b9350506020612663868287016123b6565b9250506040612674868287016123b6565b9150509250925092565b60008115159050919050565b6126938161267e565b82525050565b60006020820190506126ae600083018461268a565b92915050565b6126bd81612357565b82525050565b60006020820190506126d860008301846126b4565b92915050565b6126e78161267e565b81146126f257600080fd5b50565b600081359050612704816126de565b92915050565b600080604083850312156127215761272061232d565b5b600061272f85828601612380565b9250506020612740858286016126f5565b9150509250929050565b600080604083850312156127615761276061232d565b5b600061276f85828601612380565b925050602061278085828601612380565b9150509250929050565b600067ffffffffffffffff8211156127a5576127a4612450565b5b6127ae8261243f565b9050602081019050919050565b60006127ce6127c98461278a565b6124b0565b9050828152602081018484840111156127ea576127e961243a565b5b6127f58482856124fc565b509392505050565b600082601f83011261281257612811612435565b5b81356128228482602086016127bb565b91505092915050565b600080600080600060a086880312156128475761284661232d565b5b600061285588828901612380565b955050602061286688828901612380565b9450506040612877888289016123b6565b9350506060612888888289016123b6565b925050608086013567ffffffffffffffff8111156128a9576128a8612332565b5b6128b5888289016127fd565b9150509295509295909350565b6000602082840312156128d8576128d761232d565b5b60006128e684828501612380565b91505092915050565b600081519050919050565b600082825260208201905092915050565b60005b8381101561292957808201518184015260208101905061290e565b60008484015250505050565b6000612940826128ef565b61294a81856128fa565b935061295a81856020860161290b565b6129638161243f565b840191505092915050565b600060e0820190508181036000830152612988818a612935565b9050612997602083018961240b565b6129a4604083018861240b565b6129b1606083018761240b565b6129be608083018661240b565b6129cb60a083018561240b565b6129d860c083018461268a565b98975050505050505050565b7f455243313135353a20646972656363696f6e20696e76616c6964610000000000600082015250565b6000612a1a601b836128fa565b9150612a25826129e4565b602082019050919050565b60006020820190508181036000830152612a4981612a0d565b9050919050565b7f4353413a20517569656e206c6c616d61206e6f20657320656c2070726f70696560008201527f746172696f000000000000000000000000000000000000000000000000000000602082015250565b6000612aac6025836128fa565b9150612ab782612a50565b604082019050919050565b60006020820190508181036000830152612adb81612a9f565b9050919050565b7f4e487b7100000000000000000000000000000000000000000000000000000000600052601160045260246000fd5b6000612b1c82612395565b9150612b2783612395565b9250828202612b3581612395565b91508282048414831517612b4c57612b4b612ae2565b5b5092915050565b6000612b5e82612395565b9150612b6983612395565b9250828201905080821115612b8157612b80612ae2565b5b92915050565b7f4e487b7100000000000000000000000000000000000000000000000000000000600052602260045260246000fd5b60006002820490506001821680612bce57607f821691505b602082108103612be157612be0612b87565b5b50919050565b60008190508160005260206000209050919050565b60006020601f8301049050919050565b600082821b905092915050565b600060088302612c497fffffffffffffffffffffffffffffffffffffffffffffffffffffffffffffffff82612c0c565b612c538683612c0c565b95508019841693508086168417925050509392505050565b6000819050919050565b6000612c90612c8b612c8684612395565b612c6b565b612395565b9050919050565b6000819050919050565b612caa83612c75565b612cbe612cb682612c97565b848454612c19565b825550505050565b600090565b612cd3612cc6565b612cde818484612ca1565b505050565b5b81811015612d0257612cf7600082612ccb565b600181019050612ce4565b5050565b601f821115612d4757612d1881612be7565b612d2184612bfc565b81016020851015612d30578190505b612d44612d3c85612bfc565b830182612ce3565b50505b505050565b600082821c905092915050565b6000612d6a60001984600802612d4c565b1980831691505092915050565b6000612d838383612d59565b9150826002028217905092915050565b612d9c826128ef565b67ffffffffffffffff811115612db557612db4612450565b5b612dbf8254612bb6565b612dca828285612d06565b600060209050601f831160018114612dfd5760008415612deb578287015190505b612df58582612d77565b865550612e5d565b601f198416612e0b86612be7565b60005b82811015612e3357848901518255600182019150602085019450602081019050612e0e565b86831015612e505784890151612e4c601f891682612d59565b8355505b6001600288020188555050505b505050505050565b6000612e7082612395565b9150612e7b83612395565b9250828203905081811115612e9357612e92612ae2565b5b92915050565b6000608082019050612eae600083018761240b565b8181036020830152612ec08186612935565b9050612ecf604083018561240b565b612edc606083018461240b565b95945050505050565b600081905092915050565b50565b6000612f00600083612ee5565b9150612f0b82612ef0565b600082019050919050565b6000612f2182612ef3565b9150819050919050565b7f4353413a20456c2072657469726f2066616c6c6f000000000000000000000000600082015250565b6000612f616014836128fa565b9150612f6c82612f2b565b602082019050919050565b60006020820190508181036000830152612f9081612f54565b9050919050565b7f4353413a204e6f206861792074656d706f726164617320637265616461730000600082015250565b6000612fcd601e836128fa565b9150612fd882612f97565b602082019050919050565b60006020820190508181036000830152612ffc81612fc0565b9050919050565b7f4e487b7100000000000000000000000000000000000000000000000000000000600052603260045260246000fd5b7f4353413a204c61732076656e74617320657374616e2063657272616461730000600082015250565b6000613068601e836128fa565b915061307382613032565b602082019050919050565b600060208201905081810360008301526130978161305b565b9050919050565b7f4353413a20546f646173206c61732070617274696369706163696f6e6573207660008201527f656e646964617300000000000000000000000000000000000000000000000000602082015250565b60006130fa6027836128fa565b91506131058261309e565b604082019050919050565b60006020820190508181036000830152613129816130ed565b9050919050565b7f4353413a204d6f6e746f20656e766961646f20696e636f72726563746f000000600082015250565b6000613166601d836128fa565b915061317182613130565b602082019050919050565b6000602082019050818103600083015261319581613159565b9050919050565b60006131a782612395565b91507fffffffffffffffffffffffffffffffffffffffffffffffffffffffffffffffff82036131d9576131d8612ae2565b5b600182019050919050565b6000819050919050565b60006132096132046131ff846131e4565b612c6b565b612395565b9050919050565b613219816131ee565b82525050565b6000606082019050613234600083018661240b565b61324160208301856126b4565b61324e6040830184613210565b949350505050565b7f4353413a2049442064652074656d706f7261646120696e76616c69646f000000600082015250565b600061328c601d836128fa565b915061329782613256565b602082019050919050565b600060208201905081810360008301526132bb8161327f565b9050919050565b7f4353413a204e6f2065726573206d69656d62726f20646520657374612074656d60008201527f706f726164610000000000000000000000000000000000000000000000000000602082015250565b600061331e6026836128fa565b9150613329826132c2565b604082019050919050565b6000602082019050818103600083015261334d81613311565b9050919050565b7f4353413a2046756572612064656c20706572696f646f206465206c612074656d60008201527f706f726164610000000000000000000000000000000000000000000000000000602082015250565b60006133b06026836128fa565b91506133bb82613354565b604082019050919050565b600060208201905081810360008301526133df816133a3565b9050919050565b7f4e487b7100000000000000000000000000000000000000000000000000000000600052601260045260246000fd5b600061342082612395565b915061342b83612395565b92508261343b5761343a6133e6565b5b828204905092915050565b7f4353413a204c612063616a6120646520657374612073656d616e61207961206660008201527f75652063616e6a65616461000000000000000000000000000000000000000000602082015250565b60006134a2602b836128fa565b91506134ad82613446565b604082019050919050565b600060208201905081810360008301526134d181613495565b9050919050565b60006060820190506134ed600083018661240b565b6134fa60208301856126b4565b613507604083018461240b565b949350505050565b7f455243313135353a206e6f206175746f72697a61646f00000000000000000000600082015250565b60006135456016836128fa565b91506135508261350f565b602082019050919050565b6000602082019050818103600083015261357481613538565b9050919050565b7f455243313135353a206e6f207365207075656465207472616e7366657269722060008201527f61206c6120646972656363696f6e206365726f00000000000000000000000000602082015250565b60006135d76033836128fa565b91506135e28261357b565b604082019050919050565b60006020820190508181036000830152613606816135ca565b9050919050565b7f455243313135353a2062616c616e636520696e737566696369656e7465000000600082015250565b6000613643601d836128fa565b915061364e8261360d565b602082019050919050565b6000602082019050818103600083015261367281613636565b9050919050565b600060408201905061368e600083018561240b565b61369b602083018461240b565b9392505050565b7f455243313135353a20736f6c6f20656c2070726f706965746172696f2070756560008201527f6465207175656d61720000000000000000000000000000000000000000000000602082015250565b60006136fe6029836128fa565b9150613709826136a2565b604082019050919050565b6000602082019050818103600083015261372d816136f1565b9050919050565b7f455243313135353a2062616c616e636520696e737566696369656e746520706160008201527f7261207175656d61720000000000000000000000000000000000000000000000602082015250565b60006137906029836128fa565b915061379b82613734565b604082019050919050565b600060208201905081810360008301526137bf81613783565b9050919050565b7f455243313135353a206e6f207365207075656465206163756e61722061206c6160008201527f20646972656363696f6e206365726f0000000000000000000000000000000000602082015250565b6000613822602f836128fa565b915061382d826137c6565b604082019050919050565b6000602082019050818103600083015261385181613815565b905091905056fea264697066735822122073fe1bf23ad6bfcdd17518d002ec694293f42018fb409e91a5bedb527c2893c064736f6c634300081c0033","opcodes":"PUSH1 0x80 PUSH1 0x40 MSTORE CALLVALUE DUP1 ISZERO PUSH2 0x10 JUMPI PUSH1 0x0 DUP1 REVERT JUMPDEST POP PUSH1 0x40 MLOAD PUSH2 0x39FB CODESIZE SUB DUP1 PUSH2 0x39FB DUP4 CODECOPY DUP2 DUP2 ADD PUSH1 0x40 MSTORE DUP2 ADD SWAP1 PUSH2 0x32 SWAP2 SWAP1 PUSH2 0x131 JUMP JUMPDEST DUP1 PUSH2 0x4D PUSH8 0xA5BB3F85EF70AEA PUSH1 0xC0 SHL PUSH2 0xC8 PUSH1 0x20 SHL PUSH1 0x20 SHR JUMP JUMPDEST PUSH2 0x67 PUSH8 0x22054A042928236D PUSH1 0xC0 SHL PUSH2 0xC8 PUSH1 0x20 SHL PUSH1 0x20 SHR JUMP JUMPDEST DUP1 PUSH1 0x0 DUP1 PUSH2 0x100 EXP DUP2 SLOAD DUP2 PUSH20 0xFFFFFFFFFFFFFFFFFFFFFFFFFFFFFFFFFFFFFFFF MUL NOT AND SWAP1 DUP4 PUSH20 0xFFFFFFFFFFFFFFFFFFFFFFFFFFFFFFFFFFFFFFFF AND MUL OR SWAP1 SSTORE POP POP PUSH2 0xC2 PUSH8 0xF5956ABF062C82E1 PUSH1 0xC0 SHL PUSH2 0xCB PUSH1 0x20 SHL PUSH1 0x20 SHR JUMP JUMPDEST POP PUSH2 0x15E JUMP JUMPDEST POP JUMP JUMPDEST POP JUMP JUMPDEST PUSH1 0x0 DUP1 REVERT JUMPDEST PUSH1 0x0 PUSH20 0xFFFFFFFFFFFFFFFFFFFFFFFFFFFFFFFFFFFFFFFF DUP3 AND SWAP1 POP SWAP2 SWAP1 POP JUMP JUMPDEST PUSH1 0x0 PUSH2 0xFE DUP3 PUSH2 0xD3 JUMP JUMPDEST SWAP1 POP SWAP2 SWAP1 POP JUMP JUMPDEST PUSH2 0x10E DUP2 PUSH2 0xF3 JUMP JUMPDEST DUP2 EQ PUSH2 0x119 JUMPI PUSH1 0x0 DUP1 REVERT JUMPDEST POP JUMP JUMPDEST PUSH1 0x0 DUP2 MLOAD SWAP1 POP PUSH2 0x12B DUP2 PUSH2 0x105 JUMP JUMPDEST SWAP3 SWAP2 POP POP JUMP JUMPDEST PUSH1 0x0 PUSH1 0x20 DUP3 DUP5 SUB SLT ISZERO PUSH2 0x147 JUMPI PUSH2 0x146 PUSH2 0xCE JUMP JUMPDEST JUMPDEST PUSH1 0x0 PUSH2 0x155 DUP5 DUP3 DUP6 ADD PUSH2 0x11C JUMP JUMPDEST SWAP2 POP POP SWAP3 SWAP2 POP POP JUMP JUMPDEST PUSH2 0x388E DUP1 PUSH2 0x16D PUSH1 0x0 CODECOPY PUSH1 0x0 RETURN INVALID PUSH1 0x80 PUSH1 0x40 MSTORE PUSH1 0x4 CALLDATASIZE LT PUSH2 0xE7 JUMPI PUSH1 0x0 CALLDATALOAD PUSH1 0xE0 SHR DUP1 PUSH4 0x833727E8 GT PUSH2 0x8A JUMPI DUP1 PUSH4 0xF242432A GT PUSH2 0x59 JUMPI DUP1 PUSH4 0xF242432A EQ PUSH2 0x2BC JUMPI DUP1 PUSH4 0xF2FDE38B EQ PUSH2 0x2E5 JUMPI DUP1 PUSH4 0xF5298ACA EQ PUSH2 0x30E JUMPI DUP1 PUSH4 0xF5D709A1 EQ PUSH2 0x337 JUMPI PUSH2 0xE7 JUMP JUMPDEST DUP1 PUSH4 0x833727E8 EQ PUSH2 0x1EE JUMPI DUP1 PUSH4 0x8DA5CB5B EQ PUSH2 0x22B JUMPI DUP1 PUSH4 0xA22CB465 EQ PUSH2 0x256 JUMPI DUP1 PUSH4 0xE985E9C5 EQ PUSH2 0x27F JUMPI PUSH2 0xE7 JUMP JUMPDEST DUP1 PUSH4 0x5C581119 GT PUSH2 0xC6 JUMPI DUP1 PUSH4 0x5C581119 EQ PUSH2 0x169 JUMPI DUP1 PUSH4 0x6CC07BEB EQ PUSH2 0x173 JUMPI DUP1 PUSH4 0x73AFD200 EQ PUSH2 0x19C JUMPI DUP1 PUSH4 0x793E9F26 EQ PUSH2 0x1C5 JUMPI PUSH2 0xE7 JUMP JUMPDEST DUP1 PUSH3 0xFDD58E EQ PUSH2 0xEC JUMPI DUP1 PUSH4 0x3AEF7C80 EQ PUSH2 0x129 JUMPI DUP1 PUSH4 0x3CCFD60B EQ PUSH2 0x152 JUMPI JUMPDEST PUSH1 0x0 DUP1 REVERT JUMPDEST CALLVALUE DUP1 ISZERO PUSH2 0xF8 JUMPI PUSH1 0x0 DUP1 REVERT JUMPDEST POP PUSH2 0x113 PUSH1 0x4 DUP1 CALLDATASIZE SUB DUP2 ADD SWAP1 PUSH2 0x10E SWAP2 SWAP1 PUSH2 0x23CB JUMP JUMPDEST PUSH2 0x37A JUMP JUMPDEST PUSH1 0x40 MLOAD PUSH2 0x120 SWAP2 SWAP1 PUSH2 0x241A JUMP JUMPDEST PUSH1 0x40 MLOAD DUP1 SWAP2 SUB SWAP1 RETURN JUMPDEST CALLVALUE DUP1 ISZERO PUSH2 0x135 JUMPI PUSH1 0x0 DUP1 REVERT JUMPDEST POP PUSH2 0x150 PUSH1 0x4 DUP1 CALLDATASIZE SUB DUP2 ADD SWAP1 PUSH2 0x14B SWAP2 SWAP1 PUSH2 0x257B JUMP JUMPDEST PUSH2 0x4D0 JUMP JUMPDEST STOP JUMPDEST CALLVALUE DUP1 ISZERO PUSH2 0x15E JUMPI PUSH1 0x0 DUP1 REVERT JUMPDEST POP PUSH2 0x167 PUSH2 0x825 JUMP JUMPDEST STOP JUMPDEST PUSH2 0x171 PUSH2 0xAAF JUMP JUMPDEST STOP JUMPDEST CALLVALUE DUP1 ISZERO PUSH2 0x17F JUMPI PUSH1 0x0 DUP1 REVERT JUMPDEST POP PUSH2 0x19A PUSH1 0x4 DUP1 CALLDATASIZE SUB DUP2 ADD SWAP1 PUSH2 0x195 SWAP2 SWAP1 PUSH2 0x25FE JUMP JUMPDEST PUSH2 0xE82 JUMP JUMPDEST STOP JUMPDEST CALLVALUE DUP1 ISZERO PUSH2 0x1A8 JUMPI PUSH1 0x0 DUP1 REVERT JUMPDEST POP PUSH2 0x1C3 PUSH1 0x4 DUP1 CALLDATASIZE SUB DUP2 ADD SWAP1 PUSH2 0x1BE SWAP2 SWAP1 PUSH2 0x25FE JUMP JUMPDEST PUSH2 0x10B0 JUMP JUMPDEST STOP JUMPDEST CALLVALUE DUP1 ISZERO PUSH2 0x1D1 JUMPI PUSH1 0x0 DUP1 REVERT JUMPDEST POP PUSH2 0x1EC PUSH1 0x4 DUP1 CALLDATASIZE SUB DUP2 ADD SWAP1 PUSH2 0x1E7 SWAP2 SWAP1 PUSH2 0x262B JUMP JUMPDEST PUSH2 0x1495 JUMP JUMPDEST STOP JUMPDEST CALLVALUE DUP1 ISZERO PUSH2 0x1FA JUMPI PUSH1 0x0 DUP1 REVERT JUMPDEST POP PUSH2 0x215 PUSH1 0x4 DUP1 CALLDATASIZE SUB DUP2 ADD SWAP1 PUSH2 0x210 SWAP2 SWAP1 PUSH2 0x262B JUMP JUMPDEST PUSH2 0x14E1 JUMP JUMPDEST PUSH1 0x40 MLOAD PUSH2 0x222 SWAP2 SWAP1 PUSH2 0x2699 JUMP JUMPDEST PUSH1 0x40 MLOAD DUP1 SWAP2 SUB SWAP1 RETURN JUMPDEST CALLVALUE DUP1 ISZERO PUSH2 0x237 JUMPI PUSH1 0x0 DUP1 REVERT JUMPDEST POP PUSH2 0x240 PUSH2 0x151D JUMP JUMPDEST PUSH1 0x40 MLOAD PUSH2 0x24D SWAP2 SWAP1 PUSH2 0x26C3 JUMP JUMPDEST PUSH1 0x40 MLOAD DUP1 SWAP2 SUB SWAP1 RETURN JUMPDEST CALLVALUE DUP1 ISZERO PUSH2 0x262 JUMPI PUSH1 0x0 DUP1 REVERT JUMPDEST POP PUSH2 0x27D PUSH1 0x4 DUP1 CALLDATASIZE SUB DUP2 ADD SWAP1 PUSH2 0x278 SWAP2 SWAP1 PUSH2 0x270A JUMP JUMPDEST PUSH2 0x1541 JUMP JUMPDEST STOP JUMPDEST CALLVALUE DUP1 ISZERO PUSH2 0x28B JUMPI PUSH1 0x0 DUP1 REVERT JUMPDEST POP PUSH2 0x2A6 PUSH1 0x4 DUP1 CALLDATASIZE SUB DUP2 ADD SWAP1 PUSH2 0x2A1 SWAP2 SWAP1 PUSH2 0x274A JUMP JUMPDEST PUSH2 0x168E JUMP JUMPDEST PUSH1 0x40 MLOAD PUSH2 0x2B3 SWAP2 SWAP1 PUSH2 0x2699 JUMP JUMPDEST PUSH1 0x40 MLOAD DUP1 SWAP2 SUB SWAP1 RETURN JUMPDEST CALLVALUE DUP1 ISZERO PUSH2 0x2C8 JUMPI PUSH1 0x0 DUP1 REVERT JUMPDEST POP PUSH2 0x2E3 PUSH1 0x4 DUP1 CALLDATASIZE SUB DUP2 ADD SWAP1 PUSH2 0x2DE SWAP2 SWAP1 PUSH2 0x282B JUMP JUMPDEST PUSH2 0x175E JUMP JUMPDEST STOP JUMPDEST CALLVALUE DUP1 ISZERO PUSH2 0x2F1 JUMPI PUSH1 0x0 DUP1 REVERT JUMPDEST POP PUSH2 0x30C PUSH1 0x4 DUP1 CALLDATASIZE SUB DUP2 ADD SWAP1 PUSH2 0x307 SWAP2 SWAP1 PUSH2 0x28C2 JUMP JUMPDEST PUSH2 0x1BBE JUMP JUMPDEST STOP JUMPDEST CALLVALUE DUP1 ISZERO PUSH2 0x31A JUMPI PUSH1 0x0 DUP1 REVERT JUMPDEST POP PUSH2 0x335 PUSH1 0x4 DUP1 CALLDATASIZE SUB DUP2 ADD SWAP1 PUSH2 0x330 SWAP2 SWAP1 PUSH2 0x262B JUMP JUMPDEST PUSH2 0x1D57 JUMP JUMPDEST STOP JUMPDEST CALLVALUE DUP1 ISZERO PUSH2 0x343 JUMPI PUSH1 0x0 DUP1 REVERT JUMPDEST POP PUSH2 0x35E PUSH1 0x4 DUP1 CALLDATASIZE SUB DUP2 ADD SWAP1 PUSH2 0x359 SWAP2 SWAP1 PUSH2 0x25FE JUMP JUMPDEST PUSH2 0x2033 JUMP JUMPDEST PUSH1 0x40 MLOAD PUSH2 0x371 SWAP8 SWAP7 SWAP6 SWAP5 SWAP4 SWAP3 SWAP2 SWAP1 PUSH2 0x296E JUMP JUMPDEST PUSH1 0x40 MLOAD DUP1 SWAP2 SUB SWAP1 RETURN JUMPDEST PUSH1 0x0 PUSH2 0x390 PUSH8 0x7032BCD1B6A25363 PUSH1 0xC0 SHL PUSH2 0x211A JUMP JUMPDEST PUSH2 0x3A4 PUSH8 0x562F944BC5B4CED5 PUSH1 0xC0 SHL PUSH2 0x211A JUMP JUMPDEST PUSH2 0x3B8 PUSH8 0x13B905D2718E7110 PUSH1 0xC0 SHL PUSH2 0x211A JUMP JUMPDEST PUSH2 0x3CC PUSH8 0x1777E9BF173C42C7 PUSH1 0xC0 SHL PUSH2 0x211A JUMP JUMPDEST PUSH1 0x0 PUSH20 0xFFFFFFFFFFFFFFFFFFFFFFFFFFFFFFFFFFFFFFFF AND DUP4 PUSH20 0xFFFFFFFFFFFFFFFFFFFFFFFFFFFFFFFFFFFFFFFF AND SUB PUSH2 0x43B JUMPI PUSH1 0x40 MLOAD PUSH32 0x8C379A000000000000000000000000000000000000000000000000000000000 DUP2 MSTORE PUSH1 0x4 ADD PUSH2 0x432 SWAP1 PUSH2 0x2A30 JUMP JUMPDEST PUSH1 0x40 MLOAD DUP1 SWAP2 SUB SWAP1 REVERT JUMPDEST PUSH2 0x44F PUSH8 0x95BB74F77B3C2ECA PUSH1 0xC0 SHL PUSH2 0x211A JUMP JUMPDEST PUSH2 0x463 PUSH8 0xCB19289E390E2676 PUSH1 0xC0 SHL PUSH2 0x211A JUMP JUMPDEST PUSH2 0x477 PUSH8 0x6BE2A60E72AF3A39 PUSH1 0xC0 SHL PUSH2 0x211A JUMP JUMPDEST PUSH1 0x1 PUSH1 0x0 DUP4 DUP2 MSTORE PUSH1 0x20 ADD SWAP1 DUP2 MSTORE PUSH1 0x20 ADD PUSH1 0x0 KECCAK256 PUSH1 0x0 DUP5 PUSH20 0xFFFFFFFFFFFFFFFFFFFFFFFFFFFFFFFFFFFFFFFF AND PUSH20 0xFFFFFFFFFFFFFFFFFFFFFFFFFFFFFFFFFFFFFFFF AND DUP2 MSTORE PUSH1 0x20 ADD SWAP1 DUP2 MSTORE PUSH1 0x20 ADD PUSH1 0x0 KECCAK256 SLOAD SWAP1 POP SWAP3 SWAP2 POP POP JUMP JUMPDEST PUSH2 0x4E4 PUSH8 0xE1CCF58379D0F0F2 PUSH1 0xC0 SHL PUSH2 0x211A JUMP JUMPDEST PUSH2 0x4F8 PUSH8 0xAB267B289BF7E223 PUSH1 0xC0 SHL PUSH2 0x211A JUMP JUMPDEST PUSH2 0x50C PUSH8 0xE6860EC9AD94585E PUSH1 0xC0 SHL PUSH2 0x211A JUMP JUMPDEST PUSH2 0x520 PUSH8 0x52CAC397E7FE50F4 PUSH1 0xC0 SHL PUSH2 0x211A JUMP JUMPDEST PUSH2 0x534 PUSH8 0xBA50882C3C8158B7 PUSH1 0xC0 SHL PUSH2 0x211A JUMP JUMPDEST CALLER PUSH20 0xFFFFFFFFFFFFFFFFFFFFFFFFFFFFFFFFFFFFFFFF AND PUSH1 0x0 DUP1 SLOAD SWAP1 PUSH2 0x100 EXP SWAP1 DIV PUSH20 0xFFFFFFFFFFFFFFFFFFFFFFFFFFFFFFFFFFFFFFFF AND PUSH20 0xFFFFFFFFFFFFFFFFFFFFFFFFFFFFFFFFFFFFFFFF AND EQ PUSH2 0x5C2 JUMPI PUSH1 0x40 MLOAD PUSH32 0x8C379A000000000000000000000000000000000000000000000000000000000 DUP2 MSTORE PUSH1 0x4 ADD PUSH2 0x5B9 SWAP1 PUSH2 0x2AC2 JUMP JUMPDEST PUSH1 0x40 MLOAD DUP1 SWAP2 SUB SWAP1 REVERT JUMPDEST PUSH2 0x5D6 PUSH8 0xBD79D4C7CF57E006 PUSH1 0xC0 SHL PUSH2 0x211A JUMP JUMPDEST PUSH2 0x5EA PUSH8 0xD3FC60EDBB06F55F PUSH1 0xC0 SHL PUSH2 0x211A JUMP JUMPDEST PUSH2 0x5FE PUSH8 0x9F5EE2E453A8BA00 PUSH1 0xC0 SHL PUSH2 0x211A JUMP JUMPDEST PUSH2 0x612 PUSH8 0x8BC11E9F6BB432EE PUSH1 0xC0 SHL PUSH2 0x211A JUMP JUMPDEST PUSH2 0x626 PUSH8 0xB7923E14459F7C62 PUSH1 0xC0 SHL PUSH2 0x211A JUMP JUMPDEST PUSH2 0x63A PUSH8 0x300EDA3E153DFF47 PUSH1 0xC0 SHL PUSH2 0x211A JUMP JUMPDEST PUSH1 0x0 TIMESTAMP SWAP1 POP PUSH2 0x653 PUSH8 0xCF5DE4B7BCFD57D9 PUSH1 0xC0 SHL PUSH2 0x211A JUMP JUMPDEST PUSH2 0x667 PUSH8 0xE73C9195AC77D5BB PUSH1 0xC0 SHL PUSH2 0x211A JUMP JUMPDEST PUSH1 0x0 PUSH3 0x93A80 DUP4 PUSH2 0x678 SWAP2 SWAP1 PUSH2 0x2B11 JUMP JUMPDEST DUP3 PUSH2 0x683 SWAP2 SWAP1 PUSH2 0x2B53 JUMP JUMPDEST SWAP1 POP PUSH2 0x699 PUSH8 0x7DB718E892D255CA PUSH1 0xC0 SHL PUSH2 0x211A JUMP JUMPDEST PUSH2 0x6AD PUSH8 0xD50B5DF6D8011A97 PUSH1 0xC0 SHL PUSH2 0x211A JUMP JUMPDEST PUSH1 0x3 PUSH1 0x40 MLOAD DUP1 PUSH1 0xE0 ADD PUSH1 0x40 MSTORE DUP1 DUP9 DUP2 MSTORE PUSH1 0x20 ADD DUP8 DUP2 MSTORE PUSH1 0x20 ADD DUP7 DUP2 MSTORE PUSH1 0x20 ADD PUSH1 0x0 DUP2 MSTORE PUSH1 0x20 ADD DUP5 DUP2 MSTORE PUSH1 0x20 ADD DUP4 DUP2 MSTORE PUSH1 0x20 ADD PUSH1 0x1 ISZERO ISZERO DUP2 MSTORE POP SWAP1 DUP1 PUSH1 0x1 DUP2 SLOAD ADD DUP1 DUP3 SSTORE DUP1 SWAP2 POP POP PUSH1 0x1 SWAP1 SUB SWAP1 PUSH1 0x0 MSTORE PUSH1 0x20 PUSH1 0x0 KECCAK256 SWAP1 PUSH1 0x7 MUL ADD PUSH1 0x0 SWAP1 SWAP2 SWAP1 SWAP2 SWAP1 SWAP2 POP PUSH1 0x0 DUP3 ADD MLOAD DUP2 PUSH1 0x0 ADD SWAP1 DUP2 PUSH2 0x724 SWAP2 SWAP1 PUSH2 0x2D93 JUMP JUMPDEST POP PUSH1 0x20 DUP3 ADD MLOAD DUP2 PUSH1 0x1 ADD SSTORE PUSH1 0x40 DUP3 ADD MLOAD DUP2 PUSH1 0x2 ADD SSTORE PUSH1 0x60 DUP3 ADD MLOAD DUP2 PUSH1 0x3 ADD SSTORE PUSH1 0x80 DUP3 ADD MLOAD DUP2 PUSH1 0x4 ADD SSTORE PUSH1 0xA0 DUP3 ADD MLOAD DUP2 PUSH1 0x5 ADD SSTORE PUSH1 0xC0 DUP3 ADD MLOAD DUP2 PUSH1 0x6 ADD PUSH1 0x0 PUSH2 0x100 EXP DUP2 SLOAD DUP2 PUSH1 0xFF MUL NOT AND SWAP1 DUP4 ISZERO ISZERO MUL OR SWAP1 SSTORE POP POP POP PUSH2 0x78D PUSH8 0xDC355AACA3CC9ED4 PUSH1 0xC0 SHL PUSH2 0x211A JUMP JUMPDEST PUSH2 0x7A1 PUSH8 0x1FFC40927B736167 PUSH1 0xC0 SHL PUSH2 0x211A JUMP JUMPDEST PUSH1 0x0 PUSH1 0x1 PUSH1 0x3 DUP1 SLOAD SWAP1 POP PUSH2 0x7B5 SWAP2 SWAP1 PUSH2 0x2E65 JUMP JUMPDEST SWAP1 POP PUSH2 0x7CB PUSH8 0xD072D3B00C99CAD7 PUSH1 0xC0 SHL PUSH2 0x211A JUMP JUMPDEST PUSH2 0x7DF PUSH8 0x2D85BB237B886114 PUSH1 0xC0 SHL PUSH2 0x211A JUMP JUMPDEST PUSH32 0xC53CF244672E3E1EED9ACDCD22658F6C1CEE6D44144F1A17E4A1609B803AA605 DUP2 DUP9 DUP9 DUP9 PUSH1 0x40 MLOAD PUSH2 0x814 SWAP5 SWAP4 SWAP3 SWAP2 SWAP1 PUSH2 0x2E99 JUMP JUMPDEST PUSH1 0x40 MLOAD DUP1 SWAP2 SUB SWAP1 LOG1 POP POP POP POP POP POP POP JUMP JUMPDEST PUSH2 0x839 PUSH8 0x73E132A8B13CA6E4 PUSH1 0xC0 SHL PUSH2 0x211A JUMP JUMPDEST PUSH2 0x84D PUSH8 0xAB267B289BF7E223 PUSH1 0xC0 SHL PUSH2 0x211A JUMP JUMPDEST PUSH2 0x861 PUSH8 0xE6860EC9AD94585E PUSH1 0xC0 SHL PUSH2 0x211A JUMP JUMPDEST PUSH2 0x875 PUSH8 0x52CAC397E7FE50F4 PUSH1 0xC0 SHL PUSH2 0x211A JUMP JUMPDEST PUSH2 0x889 PUSH8 0xBA50882C3C8158B7 PUSH1 0xC0 SHL PUSH2 0x211A JUMP JUMPDEST CALLER PUSH20 0xFFFFFFFFFFFFFFFFFFFFFFFFFFFFFFFFFFFFFFFF AND PUSH1 0x0 DUP1 SLOAD SWAP1 PUSH2 0x100 EXP SWAP1 DIV PUSH20 0xFFFFFFFFFFFFFFFFFFFFFFFFFFFFFFFFFFFFFFFF AND PUSH20 0xFFFFFFFFFFFFFFFFFFFFFFFFFFFFFFFFFFFFFFFF AND EQ PUSH2 0x917 JUMPI PUSH1 0x40 MLOAD PUSH32 0x8C379A000000000000000000000000000000000000000000000000000000000 DUP2 MSTORE PUSH1 0x4 ADD PUSH2 0x90E SWAP1 PUSH2 0x2AC2 JUMP JUMPDEST PUSH1 0x40 MLOAD DUP1 SWAP2 SUB SWAP1 REVERT JUMPDEST PUSH2 0x92B PUSH8 0xBD79D4C7CF57E006 PUSH1 0xC0 SHL PUSH2 0x211A JUMP JUMPDEST PUSH2 0x93F PUSH8 0xD3FC60EDBB06F55F PUSH1 0xC0 SHL PUSH2 0x211A JUMP JUMPDEST PUSH2 0x953 PUSH8 0x50241F5905FE5051 PUSH1 0xC0 SHL PUSH2 0x211A JUMP JUMPDEST PUSH2 0x967 PUSH8 0xCD5FD3D0349EDD96 PUSH1 0xC0 SHL PUSH2 0x211A JUMP JUMPDEST PUSH2 0x97B PUSH8 0xCECBC986CFC699E0 PUSH1 0xC0 SHL PUSH2 0x211A JUMP JUMPDEST PUSH2 0x98F PUSH8 0x43431683A219F70D PUSH1 0xC0 SHL PUSH2 0x211A JUMP JUMPDEST PUSH1 0x0 DUP1 PUSH1 0x0 SWAP1 SLOAD SWAP1 PUSH2 0x100 EXP SWAP1 DIV PUSH20 0xFFFFFFFFFFFFFFFFFFFFFFFFFFFFFFFFFFFFFFFF AND PUSH20 0xFFFFFFFFFFFFFFFFFFFFFFFFFFFFFFFFFFFFFFFF AND SELFBALANCE PUSH1 0x40 MLOAD PUSH2 0x9D6 SWAP1 PUSH2 0x2F16 JUMP JUMPDEST PUSH1 0x0 PUSH1 0x40 MLOAD DUP1 DUP4 SUB DUP2 DUP6 DUP8 GAS CALL SWAP3 POP POP POP RETURNDATASIZE DUP1 PUSH1 0x0 DUP2 EQ PUSH2 0xA13 JUMPI PUSH1 0x40 MLOAD SWAP2 POP PUSH1 0x1F NOT PUSH1 0x3F RETURNDATASIZE ADD AND DUP3 ADD PUSH1 0x40 MSTORE RETURNDATASIZE DUP3 MSTORE RETURNDATASIZE PUSH1 0x0 PUSH1 0x20 DUP5 ADD RETURNDATACOPY PUSH2 0xA18 JUMP JUMPDEST PUSH1 0x60 SWAP2 POP JUMPDEST POP POP SWAP1 POP PUSH2 0xA30 PUSH8 0xB0F6ED96ACF208AF PUSH1 0xC0 SHL PUSH2 0x211A JUMP JUMPDEST PUSH2 0xA44 PUSH8 0x36DC078C6B953814 PUSH1 0xC0 SHL PUSH2 0x211A JUMP JUMPDEST PUSH2 0xA58 PUSH8 0xC2A073E5B0ECE192 PUSH1 0xC0 SHL PUSH2 0x211A JUMP JUMPDEST DUP1 PUSH2 0xA98 JUMPI PUSH1 0x40 MLOAD PUSH32 0x8C379A000000000000000000000000000000000000000000000000000000000 DUP2 MSTORE PUSH1 0x4 ADD PUSH2 0xA8F SWAP1 PUSH2 0x2F77 JUMP JUMPDEST PUSH1 0x40 MLOAD DUP1 SWAP2 SUB SWAP1 REVERT JUMPDEST PUSH2 0xAAC PUSH8 0x37E43CADE87DBFA1 PUSH1 0xC0 SHL PUSH2 0x211A JUMP JUMPDEST POP JUMP JUMPDEST PUSH2 0xAC3 PUSH8 0x136C85C6E7CBC135 PUSH1 0xC0 SHL PUSH2 0x211A JUMP JUMPDEST PUSH2 0xAD7 PUSH8 0x6CCB7BD9379603A9 PUSH1 0xC0 SHL PUSH2 0x211A JUMP JUMPDEST PUSH2 0xAEB PUSH8 0xC584FE5683BBBA89 PUSH1 0xC0 SHL PUSH2 0x211A JUMP JUMPDEST PUSH2 0xAFF PUSH8 0x3551A01919155F71 PUSH1 0xC0 SHL PUSH2 0x211A JUMP JUMPDEST PUSH1 0x0 PUSH1 0x3 DUP1 SLOAD SWAP1 POP GT PUSH2 0xB47 JUMPI PUSH1 0x40 MLOAD PUSH32 0x8C379A000000000000000000000000000000000000000000000000000000000 DUP2 MSTORE PUSH1 0x4 ADD PUSH2 0xB3E SWAP1 PUSH2 0x2FE3 JUMP JUMPDEST PUSH1 0x40 MLOAD DUP1 SWAP2 SUB SWAP1 REVERT JUMPDEST PUSH2 0xB5B PUSH8 0x5BEB71A219073263 PUSH1 0xC0 SHL PUSH2 0x211A JUMP JUMPDEST PUSH2 0xB6F PUSH8 0x8BF24671F9D7EFEF PUSH1 0xC0 SHL PUSH2 0x211A JUMP JUMPDEST PUSH2 0xB83 PUSH8 0x7348F5FD37E85C58 PUSH1 0xC0 SHL PUSH2 0x211A JUMP JUMPDEST PUSH1 0x0 PUSH1 0x1 PUSH1 0x3 DUP1 SLOAD SWAP1 POP PUSH2 0xB97 SWAP2 SWAP1 PUSH2 0x2E65 JUMP JUMPDEST SWAP1 POP PUSH2 0xBAD PUSH8 0xAC9152989D951EB PUSH1 0xC0 SHL PUSH2 0x211A JUMP JUMPDEST PUSH2 0xBC1 PUSH8 0x20224698593515F0 PUSH1 0xC0 SHL PUSH2 0x211A JUMP JUMPDEST PUSH1 0x0 PUSH1 0x3 DUP3 DUP2 SLOAD DUP2 LT PUSH2 0xBD7 JUMPI PUSH2 0xBD6 PUSH2 0x3003 JUMP JUMPDEST JUMPDEST SWAP1 PUSH1 0x0 MSTORE PUSH1 0x20 PUSH1 0x0 KECCAK256 SWAP1 PUSH1 0x7 MUL ADD SWAP1 POP PUSH2 0xBFB PUSH8 0x70EF3DF40370B517 PUSH1 0xC0 SHL PUSH2 0x211A JUMP JUMPDEST PUSH2 0xC0F PUSH8 0x2D96CA2639BD2868 PUSH1 0xC0 SHL PUSH2 0x211A JUMP JUMPDEST PUSH2 0xC23 PUSH8 0x1496E3B6429E72C4 PUSH1 0xC0 SHL PUSH2 0x211A JUMP JUMPDEST DUP1 PUSH1 0x6 ADD PUSH1 0x0 SWAP1 SLOAD SWAP1 PUSH2 0x100 EXP SWAP1 DIV PUSH1 0xFF AND PUSH2 0xC74 JUMPI PUSH1 0x40 MLOAD PUSH32 0x8C379A000000000000000000000000000000000000000000000000000000000 DUP2 MSTORE PUSH1 0x4 ADD PUSH2 0xC6B SWAP1 PUSH2 0x307E JUMP JUMPDEST PUSH1 0x40 MLOAD DUP1 SWAP2 SUB SWAP1 REVERT JUMPDEST PUSH2 0xC88 PUSH8 0x89153ACB8BEE8B06 PUSH1 0xC0 SHL PUSH2 0x211A JUMP JUMPDEST PUSH2 0xC9C PUSH8 0x729B32E2C0A6D831 PUSH1 0xC0 SHL PUSH2 0x211A JUMP JUMPDEST PUSH2 0xCB0 PUSH8 0x803649FFD7D6309 PUSH1 0xC0 SHL PUSH2 0x211A JUMP JUMPDEST PUSH2 0xCC4 PUSH8 0x154445FE386CE48F PUSH1 0xC0 SHL PUSH2 0x211A JUMP JUMPDEST DUP1 PUSH1 0x2 ADD SLOAD DUP2 PUSH1 0x3 ADD SLOAD LT PUSH2 0xD0E JUMPI PUSH1 0x40 MLOAD PUSH32 0x8C379A000000000000000000000000000000000000000000000000000000000 DUP2 MSTORE PUSH1 0x4 ADD PUSH2 0xD05 SWAP1 PUSH2 0x3110 JUMP JUMPDEST PUSH1 0x40 MLOAD DUP1 SWAP2 SUB SWAP1 REVERT JUMPDEST PUSH2 0xD22 PUSH8 0xC0477A40DBD8AA97 PUSH1 0xC0 SHL PUSH2 0x211A JUMP JUMPDEST PUSH2 0xD36 PUSH8 0x760CC7CC9C660728 PUSH1 0xC0 SHL PUSH2 0x211A JUMP JUMPDEST PUSH2 0xD4A PUSH8 0x660CA11124E1EFAC PUSH1 0xC0 SHL PUSH2 0x211A JUMP JUMPDEST PUSH2 0xD5E PUSH8 0x1F476728132C0F1C PUSH1 0xC0 SHL PUSH2 0x211A JUMP JUMPDEST DUP1 PUSH1 0x1 ADD SLOAD CALLVALUE EQ PUSH2 0xDA4 JUMPI PUSH1 0x40 MLOAD PUSH32 0x8C379A000000000000000000000000000000000000000000000000000000000 DUP2 MSTORE PUSH1 0x4 ADD PUSH2 0xD9B SWAP1 PUSH2 0x317C JUMP JUMPDEST PUSH1 0x40 MLOAD DUP1 SWAP2 SUB SWAP1 REVERT JUMPDEST PUSH2 0xDB8 PUSH8 0x53AF712148116FB4 PUSH1 0xC0 SHL PUSH2 0x211A JUMP JUMPDEST PUSH2 0xDCC PUSH8 0xF6473C7D91DC1BE PUSH1 0xC0 SHL PUSH2 0x211A JUMP JUMPDEST DUP1 PUSH1 0x3 ADD PUSH1 0x0 DUP2 SLOAD DUP1 SWAP3 SWAP2 SWAP1 PUSH2 0xDE1 SWAP1 PUSH2 0x319C JUMP JUMPDEST SWAP2 SWAP1 POP SSTORE POP PUSH2 0xDFA PUSH8 0x821FB852954A69DA PUSH1 0xC0 SHL PUSH2 0x211A JUMP JUMPDEST PUSH2 0xE0E PUSH8 0x34ECD3C184E7C345 PUSH1 0xC0 SHL PUSH2 0x211A JUMP JUMPDEST PUSH2 0xE1A CALLER DUP4 PUSH1 0x1 PUSH2 0x211D JUMP JUMPDEST PUSH2 0xE2E PUSH8 0x412937CEFFAAB5C9 PUSH1 0xC0 SHL PUSH2 0x211A JUMP JUMPDEST PUSH2 0xE42 PUSH8 0x9FE12DF342363D0D PUSH1 0xC0 SHL PUSH2 0x211A JUMP JUMPDEST PUSH32 0x3040FF01F7E0EF639D0A39654B7BE379473B85453C82254B1AB871ACCBD51EDF DUP3 CALLER PUSH1 0x1 PUSH1 0x40 MLOAD PUSH2 0xE76 SWAP4 SWAP3 SWAP2 SWAP1 PUSH2 0x321F JUMP JUMPDEST PUSH1 0x40 MLOAD DUP1 SWAP2 SUB SWAP1 LOG1 POP POP JUMP JUMPDEST PUSH2 0xE96 PUSH8 0x29BAB031CA7B0D60 PUSH1 0xC0 SHL PUSH2 0x211A JUMP JUMPDEST PUSH2 0xEAA PUSH8 0xAB267B289BF7E223 PUSH1 0xC0 SHL PUSH2 0x211A JUMP JUMPDEST PUSH2 0xEBE PUSH8 0xE6860EC9AD94585E PUSH1 0xC0 SHL PUSH2 0x211A JUMP JUMPDEST PUSH2 0xED2 PUSH8 0x52CAC397E7FE50F4 PUSH1 0xC0 SHL PUSH2 0x211A JUMP JUMPDEST PUSH2 0xEE6 PUSH8 0xBA50882C3C8158B7 PUSH1 0xC0 SHL PUSH2 0x211A JUMP JUMPDEST CALLER PUSH20 0xFFFFFFFFFFFFFFFFFFFFFFFFFFFFFFFFFFFFFFFF AND PUSH1 0x0 DUP1 SLOAD SWAP1 PUSH2 0x100 EXP SWAP1 DIV PUSH20 0xFFFFFFFFFFFFFFFFFFFFFFFFFFFFFFFFFFFFFFFF AND PUSH20 0xFFFFFFFFFFFFFFFFFFFFFFFFFFFFFFFFFFFFFFFF AND EQ PUSH2 0xF74 JUMPI PUSH1 0x40 MLOAD PUSH32 0x8C379A000000000000000000000000000000000000000000000000000000000 DUP2 MSTORE PUSH1 0x4 ADD PUSH2 0xF6B SWAP1 PUSH2 0x2AC2 JUMP JUMPDEST PUSH1 0x40 MLOAD DUP1 SWAP2 SUB SWAP1 REVERT JUMPDEST PUSH2 0xF88 PUSH8 0xBD79D4C7CF57E006 PUSH1 0xC0 SHL PUSH2 0x211A JUMP JUMPDEST PUSH2 0xF9C PUSH8 0xD3FC60EDBB06F55F PUSH1 0xC0 SHL PUSH2 0x211A JUMP JUMPDEST PUSH2 0xFB0 PUSH8 0x387D1C2AAD1A412E PUSH1 0xC0 SHL PUSH2 0x211A JUMP JUMPDEST PUSH2 0xFC4 PUSH8 0xDF2D47C2F832699B PUSH1 0xC0 SHL PUSH2 0x211A JUMP JUMPDEST PUSH2 0xFD8 PUSH8 0xF3336E1C97FEEDE6 PUSH1 0xC0 SHL PUSH2 0x211A JUMP JUMPDEST PUSH2 0xFEC PUSH8 0x3B8BC1486034D8EE PUSH1 0xC0 SHL PUSH2 0x211A JUMP JUMPDEST PUSH2 0x1000 PUSH8 0xB862470492EAACBC PUSH1 0xC0 SHL PUSH2 0x211A JUMP JUMPDEST PUSH1 0x3 DUP1 SLOAD SWAP1 POP DUP2 LT PUSH2 0x1047 JUMPI PUSH1 0x40 MLOAD PUSH32 0x8C379A000000000000000000000000000000000000000000000000000000000 DUP2 MSTORE PUSH1 0x4 ADD PUSH2 0x103E SWAP1 PUSH2 0x32A2 JUMP JUMPDEST PUSH1 0x40 MLOAD DUP1 SWAP2 SUB SWAP1 REVERT JUMPDEST PUSH2 0x105B PUSH8 0x562B074070583554 PUSH1 0xC0 SHL PUSH2 0x211A JUMP JUMPDEST PUSH2 0x106F PUSH8 0x3C8EF113A18BFF31 PUSH1 0xC0 SHL PUSH2 0x211A JUMP JUMPDEST PUSH1 0x0 PUSH1 0x3 DUP3 DUP2 SLOAD DUP2 LT PUSH2 0x1085 JUMPI PUSH2 0x1084 PUSH2 0x3003 JUMP JUMPDEST JUMPDEST SWAP1 PUSH1 0x0 MSTORE PUSH1 0x20 PUSH1 0x0 KECCAK256 SWAP1 PUSH1 0x7 MUL ADD PUSH1 0x6 ADD PUSH1 0x0 PUSH2 0x100 EXP DUP2 SLOAD DUP2 PUSH1 0xFF MUL NOT AND SWAP1 DUP4 ISZERO ISZERO MUL OR SWAP1 SSTORE POP POP JUMP JUMPDEST PUSH2 0x10C4 PUSH8 0x9AFF07B76F36928D PUSH1 0xC0 SHL PUSH2 0x211A JUMP JUMPDEST PUSH2 0x10D8 PUSH8 0x75769D12742A3943 PUSH1 0xC0 SHL PUSH2 0x211A JUMP JUMPDEST PUSH2 0x10EC PUSH8 0xEE4D02D19A7EFA01 PUSH1 0xC0 SHL PUSH2 0x211A JUMP JUMPDEST PUSH2 0x1100 PUSH8 0xCCFE6629FAC63550 PUSH1 0xC0 SHL PUSH2 0x211A JUMP JUMPDEST PUSH1 0x1 PUSH2 0x110C CALLER DUP4 PUSH2 0x37A JUMP JUMPDEST LT ISZERO PUSH2 0x114D JUMPI PUSH1 0x40 MLOAD PUSH32 0x8C379A000000000000000000000000000000000000000000000000000000000 DUP2 MSTORE PUSH1 0x4 ADD PUSH2 0x1144 SWAP1 PUSH2 0x3334 JUMP JUMPDEST PUSH1 0x40 MLOAD DUP1 SWAP2 SUB SWAP1 REVERT JUMPDEST PUSH2 0x1161 PUSH8 0xAE7CEE424CD8F238 PUSH1 0xC0 SHL PUSH2 0x211A JUMP JUMPDEST PUSH2 0x1175 PUSH8 0x1042CFD47FC27D51 PUSH1 0xC0 SHL PUSH2 0x211A JUMP JUMPDEST PUSH2 0x1189 PUSH8 0x577F7AF7BD0984E1 PUSH1 0xC0 SHL PUSH2 0x211A JUMP JUMPDEST PUSH1 0x0 PUSH1 0x3 DUP3 DUP2 SLOAD DUP2 LT PUSH2 0x119F JUMPI PUSH2 0x119E PUSH2 0x3003 JUMP JUMPDEST JUMPDEST SWAP1 PUSH1 0x0 MSTORE PUSH1 0x20 PUSH1 0x0 KECCAK256 SWAP1 PUSH1 0x7 MUL ADD SWAP1 POP PUSH2 0x11C3 PUSH8 0x7465373941D37A4D PUSH1 0xC0 SHL PUSH2 0x211A JUMP JUMPDEST PUSH2 0x11D7 PUSH8 0x421C9907327EE299 PUSH1 0xC0 SHL PUSH2 0x211A JUMP JUMPDEST PUSH2 0x11EB PUSH8 0xA558B2779861DF7F PUSH1 0xC0 SHL PUSH2 0x211A JUMP JUMPDEST DUP1 PUSH1 0x4 ADD SLOAD TIMESTAMP LT ISZERO DUP1 ISZERO PUSH2 0x1203 JUMPI POP DUP1 PUSH1 0x5 ADD SLOAD TIMESTAMP GT ISZERO JUMPDEST PUSH2 0x1242 JUMPI PUSH1 0x40 MLOAD PUSH32 0x8C379A000000000000000000000000000000000000000000000000000000000 DUP2 MSTORE PUSH1 0x4 ADD PUSH2 0x1239 SWAP1 PUSH2 0x33C6 JUMP JUMPDEST PUSH1 0x40 MLOAD DUP1 SWAP2 SUB SWAP1 REVERT JUMPDEST PUSH2 0x1256 PUSH8 0xA98A80427F513ED1 PUSH1 0xC0 SHL PUSH2 0x211A JUMP JUMPDEST PUSH2 0x126A PUSH8 0xD4B8B7A1C43D2FF9 PUSH1 0xC0 SHL PUSH2 0x211A JUMP JUMPDEST PUSH2 0x127E PUSH8 0xBFBD480E6C59B12C PUSH1 0xC0 SHL PUSH2 0x211A JUMP JUMPDEST PUSH1 0x0 PUSH3 0x93A80 DUP3 PUSH1 0x4 ADD SLOAD TIMESTAMP PUSH2 0x1294 SWAP2 SWAP1 PUSH2 0x2E65 JUMP JUMPDEST PUSH2 0x129E SWAP2 SWAP1 PUSH2 0x3415 JUMP JUMPDEST SWAP1 POP PUSH2 0x12B4 PUSH8 0x88393905AE67BF5A PUSH1 0xC0 SHL PUSH2 0x211A JUMP JUMPDEST PUSH2 0x12C8 PUSH8 0x72C2CCDB55A0B191 PUSH1 0xC0 SHL PUSH2 0x211A JUMP JUMPDEST PUSH2 0x12DC PUSH8 0xA72F4E30F67E0FB0 PUSH1 0xC0 SHL PUSH2 0x211A JUMP JUMPDEST PUSH1 0x4 PUSH1 0x0 CALLER PUSH20 0xFFFFFFFFFFFFFFFFFFFFFFFFFFFFFFFFFFFFFFFF AND PUSH20 0xFFFFFFFFFFFFFFFFFFFFFFFFFFFFFFFFFFFFFFFF AND DUP2 MSTORE PUSH1 0x20 ADD SWAP1 DUP2 MSTORE PUSH1 0x20 ADD PUSH1 0x0 KECCAK256 PUSH1 0x0 DUP5 DUP2 MSTORE PUSH1 0x20 ADD SWAP1 DUP2 MSTORE PUSH1 0x20 ADD PUSH1 0x0 KECCAK256 PUSH1 0x0 DUP3 DUP2 MSTORE PUSH1 0x20 ADD SWAP1 DUP2 MSTORE PUSH1 0x20 ADD PUSH1 0x0 KECCAK256 PUSH1 0x0 SWAP1 SLOAD SWAP1 PUSH2 0x100 EXP SWAP1 DIV PUSH1 0xFF AND ISZERO PUSH2 0x138B JUMPI PUSH1 0x40 MLOAD PUSH32 0x8C379A000000000000000000000000000000000000000000000000000000000 DUP2 MSTORE PUSH1 0x4 ADD PUSH2 0x1382 SWAP1 PUSH2 0x34B8 JUMP JUMPDEST PUSH1 0x40 MLOAD DUP1 SWAP2 SUB SWAP1 REVERT JUMPDEST PUSH2 0x139F PUSH8 0xA11681AB9537252 PUSH1 0xC0 SHL PUSH2 0x211A JUMP JUMPDEST PUSH2 0x13B3 PUSH8 0xC7849C4E6E0775FB PUSH1 0xC0 SHL PUSH2 0x211A JUMP JUMPDEST PUSH1 0x1 PUSH1 0x4 PUSH1 0x0 CALLER PUSH20 0xFFFFFFFFFFFFFFFFFFFFFFFFFFFFFFFFFFFFFFFF AND PUSH20 0xFFFFFFFFFFFFFFFFFFFFFFFFFFFFFFFFFFFFFFFF AND DUP2 MSTORE PUSH1 0x20 ADD SWAP1 DUP2 MSTORE PUSH1 0x20 ADD PUSH1 0x0 KECCAK256 PUSH1 0x0 DUP6 DUP2 MSTORE PUSH1 0x20 ADD SWAP1 DUP2 MSTORE PUSH1 0x20 ADD PUSH1 0x0 KECCAK256 PUSH1 0x0 DUP4 DUP2 MSTORE PUSH1 0x20 ADD SWAP1 DUP2 MSTORE PUSH1 0x20 ADD PUSH1 0x0 KECCAK256 PUSH1 0x0 PUSH2 0x100 EXP DUP2 SLOAD DUP2 PUSH1 0xFF MUL NOT AND SWAP1 DUP4 ISZERO ISZERO MUL OR SWAP1 SSTORE POP PUSH2 0x1441 PUSH8 0x54227FDD4F9F1479 PUSH1 0xC0 SHL PUSH2 0x211A JUMP JUMPDEST PUSH2 0x1455 PUSH8 0x92D9DC97C828BDB PUSH1 0xC0 SHL PUSH2 0x211A JUMP JUMPDEST PUSH32 0xF5CF00EB1F48DDF482622C8808E58960924C23A2A09920F594DA63271914D5D1 DUP4 CALLER DUP4 PUSH1 0x40 MLOAD PUSH2 0x1488 SWAP4 SWAP3 SWAP2 SWAP1 PUSH2 0x34D8 JUMP JUMPDEST PUSH1 0x40 MLOAD DUP1 SWAP2 SUB SWAP1 LOG1 POP POP POP JUMP JUMPDEST PUSH2 0x14A9 PUSH8 0x1DFEFD1AAEAC3DFF PUSH1 0xC0 SHL PUSH2 0x2315 JUMP JUMPDEST PUSH2 0x14BD PUSH8 0xCE643BA156DB63E PUSH1 0xC0 SHL PUSH2 0x2315 JUMP JUMPDEST PUSH2 0x14D1 PUSH8 0xE841B21E3A41BFD6 PUSH1 0xC0 SHL PUSH2 0x2315 JUMP JUMPDEST PUSH2 0x14DC DUP4 DUP4 DUP4 PUSH2 0x211D JUMP JUMPDEST POP POP POP JUMP JUMPDEST PUSH1 0x4 PUSH1 0x20 MSTORE DUP3 PUSH1 0x0 MSTORE PUSH1 0x40 PUSH1 0x0 KECCAK256 PUSH1 0x20 MSTORE DUP2 PUSH1 0x0 MSTORE PUSH1 0x40 PUSH1 0x0 KECCAK256 PUSH1 0x20 MSTORE DUP1 PUSH1 0x0 MSTORE PUSH1 0x40 PUSH1 0x0 KECCAK256 PUSH1 0x0 SWAP3 POP SWAP3 POP POP SWAP1 SLOAD SWAP1 PUSH2 0x100 EXP SWAP1 DIV PUSH1 0xFF AND DUP2 JUMP JUMPDEST PUSH1 0x0 DUP1 SLOAD SWAP1 PUSH2 0x100 EXP SWAP1 DIV PUSH20 0xFFFFFFFFFFFFFFFFFFFFFFFFFFFFFFFFFFFFFFFF AND DUP2 JUMP JUMPDEST PUSH2 0x1555 PUSH8 0xD8C72DB29A2C4E03 PUSH1 0xC0 SHL PUSH2 0x211A JUMP JUMPDEST PUSH2 0x1569 PUSH8 0x1FD0C01F72F130FB PUSH1 0xC0 SHL PUSH2 0x211A JUMP JUMPDEST DUP1 PUSH1 0x2 PUSH1 0x0 CALLER PUSH20 0xFFFFFFFFFFFFFFFFFFFFFFFFFFFFFFFFFFFFFFFF AND PUSH20 0xFFFFFFFFFFFFFFFFFFFFFFFFFFFFFFFFFFFFFFFF AND DUP2 MSTORE PUSH1 0x20 ADD SWAP1 DUP2 MSTORE PUSH1 0x20 ADD PUSH1 0x0 KECCAK256 PUSH1 0x0 DUP5 PUSH20 0xFFFFFFFFFFFFFFFFFFFFFFFFFFFFFFFFFFFFFFFF AND PUSH20 0xFFFFFFFFFFFFFFFFFFFFFFFFFFFFFFFFFFFFFFFF AND DUP2 MSTORE PUSH1 0x20 ADD SWAP1 DUP2 MSTORE PUSH1 0x20 ADD PUSH1 0x0 KECCAK256 PUSH1 0x0 PUSH2 0x100 EXP DUP2 SLOAD DUP2 PUSH1 0xFF MUL NOT AND SWAP1 DUP4 ISZERO ISZERO MUL OR SWAP1 SSTORE POP PUSH2 0x1611 PUSH8 0xD5E81A0C6AF3310E PUSH1 0xC0 SHL PUSH2 0x211A JUMP JUMPDEST PUSH2 0x1625 PUSH8 0xC05A1EE3C628889 PUSH1 0xC0 SHL PUSH2 0x211A JUMP JUMPDEST DUP2 PUSH20 0xFFFFFFFFFFFFFFFFFFFFFFFFFFFFFFFFFFFFFFFF AND CALLER PUSH20 0xFFFFFFFFFFFFFFFFFFFFFFFFFFFFFFFFFFFFFFFF AND PUSH32 0x17307EAB39AB6107E8899845AD3D59BD9653F200F220920489CA2B5937696C31 DUP4 PUSH1 0x40 MLOAD PUSH2 0x1682 SWAP2 SWAP1 PUSH2 0x2699 JUMP JUMPDEST PUSH1 0x40 MLOAD DUP1 SWAP2 SUB SWAP1 LOG3 POP POP JUMP JUMPDEST PUSH1 0x0 PUSH2 0x16A4 PUSH8 0xB25693F188EC983D PUSH1 0xC0 SHL PUSH2 0x211A JUMP JUMPDEST PUSH2 0x16B8 PUSH8 0x74E8CB6015E1457F PUSH1 0xC0 SHL PUSH2 0x211A JUMP JUMPDEST PUSH2 0x16CC PUSH8 0x19DBDCA1B828FFBA PUSH1 0xC0 SHL PUSH2 0x211A JUMP JUMPDEST PUSH1 0x2 PUSH1 0x0 DUP5 PUSH20 0xFFFFFFFFFFFFFFFFFFFFFFFFFFFFFFFFFFFFFFFF AND PUSH20 0xFFFFFFFFFFFFFFFFFFFFFFFFFFFFFFFFFFFFFFFF AND DUP2 MSTORE PUSH1 0x20 ADD SWAP1 DUP2 MSTORE PUSH1 0x20 ADD PUSH1 0x0 KECCAK256 PUSH1 0x0 DUP4 PUSH20 0xFFFFFFFFFFFFFFFFFFFFFFFFFFFFFFFFFFFFFFFF AND PUSH20 0xFFFFFFFFFFFFFFFFFFFFFFFFFFFFFFFFFFFFFFFF AND DUP2 MSTORE PUSH1 0x20 ADD SWAP1 DUP2 MSTORE PUSH1 0x20 ADD PUSH1 0x0 KECCAK256 PUSH1 0x0 SWAP1 SLOAD SWAP1 PUSH2 0x100 EXP SWAP1 DIV PUSH1 0xFF AND SWAP1 POP SWAP3 SWAP2 POP POP JUMP JUMPDEST PUSH2 0x1772 PUSH8 0x43C6AA694E6C13A6 PUSH1 0xC0 SHL PUSH2 0x211A JUMP JUMPDEST PUSH2 0x1786 PUSH8 0xF871D2FD78E5EBEF PUSH1 0xC0 SHL PUSH2 0x211A JUMP JUMPDEST PUSH2 0x179A PUSH8 0x707C5CDFD005E24A PUSH1 0xC0 SHL PUSH2 0x211A JUMP JUMPDEST PUSH2 0x17AE PUSH8 0x5F0A49D310139B1E PUSH1 0xC0 SHL PUSH2 0x211A JUMP JUMPDEST CALLER PUSH20 0xFFFFFFFFFFFFFFFFFFFFFFFFFFFFFFFFFFFFFFFF AND DUP6 PUSH20 0xFFFFFFFFFFFFFFFFFFFFFFFFFFFFFFFFFFFFFFFF AND EQ DUP1 ISZERO PUSH2 0x17F9 JUMPI POP PUSH2 0x17F8 PUSH8 0xDFD844AC62E9060C PUSH1 0xC0 SHL PUSH2 0x2318 JUMP JUMPDEST JUMPDEST DUP1 PUSH2 0x1826 JUMPI POP PUSH2 0x1809 DUP6 CALLER PUSH2 0x168E JUMP JUMPDEST DUP1 ISZERO PUSH2 0x1825 JUMPI POP PUSH2 0x1824 PUSH8 0x92664AF19BBB272F PUSH1 0xC0 SHL PUSH2 0x2318 JUMP JUMPDEST JUMPDEST JUMPDEST PUSH2 0x1865 JUMPI PUSH1 0x40 MLOAD PUSH32 0x8C379A000000000000000000000000000000000000000000000000000000000 DUP2 MSTORE PUSH1 0x4 ADD PUSH2 0x185C SWAP1 PUSH2 0x355B JUMP JUMPDEST PUSH1 0x40 MLOAD DUP1 SWAP2 SUB SWAP1 REVERT JUMPDEST PUSH2 0x1879 PUSH8 0x651335ED250CB88E PUSH1 0xC0 SHL PUSH2 0x211A JUMP JUMPDEST PUSH2 0x188D PUSH8 0xBE71EFABFC145A95 PUSH1 0xC0 SHL PUSH2 0x211A JUMP JUMPDEST PUSH2 0x18A1 PUSH8 0xA10EE1F11466D3D7 PUSH1 0xC0 SHL PUSH2 0x211A JUMP JUMPDEST PUSH2 0x18B5 PUSH8 0xBE070531236CA76D PUSH1 0xC0 SHL PUSH2 0x211A JUMP JUMPDEST PUSH1 0x0 PUSH20 0xFFFFFFFFFFFFFFFFFFFFFFFFFFFFFFFFFFFFFFFF AND DUP5 PUSH20 0xFFFFFFFFFFFFFFFFFFFFFFFFFFFFFFFFFFFFFFFF AND SUB PUSH2 0x1924 JUMPI PUSH1 0x40 MLOAD PUSH32 0x8C379A000000000000000000000000000000000000000000000000000000000 DUP2 MSTORE PUSH1 0x4 ADD PUSH2 0x191B SWAP1 PUSH2 0x35ED JUMP JUMPDEST PUSH1 0x40 MLOAD DUP1 SWAP2 SUB SWAP1 REVERT JUMPDEST PUSH2 0x1938 PUSH8 0x53F77F958DE44EE4 PUSH1 0xC0 SHL PUSH2 0x211A JUMP JUMPDEST PUSH2 0x194C PUSH8 0x8180A9F9CC72B6BD PUSH1 0xC0 SHL PUSH2 0x211A JUMP JUMPDEST PUSH2 0x1960 PUSH8 0x4F75C9CBAC59B8EF PUSH1 0xC0 SHL PUSH2 0x211A JUMP JUMPDEST PUSH2 0x1974 PUSH8 0x5DC98AAEAE36D994 PUSH1 0xC0 SHL PUSH2 0x211A JUMP JUMPDEST DUP2 PUSH1 0x1 PUSH1 0x0 DUP6 DUP2 MSTORE PUSH1 0x20 ADD SWAP1 DUP2 MSTORE PUSH1 0x20 ADD PUSH1 0x0 KECCAK256 PUSH1 0x0 DUP8 PUSH20 0xFFFFFFFFFFFFFFFFFFFFFFFFFFFFFFFFFFFFFFFF AND PUSH20 0xFFFFFFFFFFFFFFFFFFFFFFFFFFFFFFFFFFFFFFFF AND DUP2 MSTORE PUSH1 0x20 ADD SWAP1 DUP2 MSTORE PUSH1 0x20 ADD PUSH1 0x0 KECCAK256 SLOAD LT ISZERO PUSH2 0x1A07 JUMPI PUSH1 0x40 MLOAD PUSH32 0x8C379A000000000000000000000000000000000000000000000000000000000 DUP2 MSTORE PUSH1 0x4 ADD PUSH2 0x19FE SWAP1 PUSH2 0x3659 JUMP JUMPDEST PUSH1 0x40 MLOAD DUP1 SWAP2 SUB SWAP1 REVERT JUMPDEST PUSH2 0x1A1B PUSH8 0x63DC6C73F8D10E33 PUSH1 0xC0 SHL PUSH2 0x211A JUMP JUMPDEST PUSH2 0x1A2F PUSH8 0x50D5C91CD9443A04 PUSH1 0xC0 SHL PUSH2 0x211A JUMP JUMPDEST DUP2 PUSH1 0x1 PUSH1 0x0 DUP6 DUP2 MSTORE PUSH1 0x20 ADD SWAP1 DUP2 MSTORE PUSH1 0x20 ADD PUSH1 0x0 KECCAK256 PUSH1 0x0 DUP8 PUSH20 0xFFFFFFFFFFFFFFFFFFFFFFFFFFFFFFFFFFFFFFFF AND PUSH20 0xFFFFFFFFFFFFFFFFFFFFFFFFFFFFFFFFFFFFFFFF AND DUP2 MSTORE PUSH1 0x20 ADD SWAP1 DUP2 MSTORE PUSH1 0x20 ADD PUSH1 0x0 KECCAK256 PUSH1 0x0 DUP3 DUP3 SLOAD PUSH2 0x1A8F SWAP2 SWAP1 PUSH2 0x2E65 JUMP JUMPDEST SWAP3 POP POP DUP2 SWAP1 SSTORE POP PUSH2 0x1AAA PUSH8 0xCF773594090B6E74 PUSH1 0xC0 SHL PUSH2 0x211A JUMP JUMPDEST DUP2 PUSH1 0x1 PUSH1 0x0 DUP6 DUP2 MSTORE PUSH1 0x20 ADD SWAP1 DUP2 MSTORE PUSH1 0x20 ADD PUSH1 0x0 KECCAK256 PUSH1 0x0 DUP7 PUSH20 0xFFFFFFFFFFFFFFFFFFFFFFFFFFFFFFFFFFFFFFFF AND PUSH20 0xFFFFFFFFFFFFFFFFFFFFFFFFFFFFFFFFFFFFFFFF AND DUP2 MSTORE PUSH1 0x20 ADD SWAP1 DUP2 MSTORE PUSH1 0x20 ADD PUSH1 0x0 KECCAK256 PUSH1 0x0 DUP3 DUP3 SLOAD PUSH2 0x1B0A SWAP2 SWAP1 PUSH2 0x2B53 JUMP JUMPDEST SWAP3 POP POP DUP2 SWAP1 SSTORE POP PUSH2 0x1B25 PUSH8 0xB73E5EC5D1B87E3 PUSH1 0xC0 SHL PUSH2 0x211A JUMP JUMPDEST PUSH2 0x1B39 PUSH8 0x194A0CB1C360202E PUSH1 0xC0 SHL PUSH2 0x211A JUMP JUMPDEST DUP4 PUSH20 0xFFFFFFFFFFFFFFFFFFFFFFFFFFFFFFFFFFFFFFFF AND DUP6 PUSH20 0xFFFFFFFFFFFFFFFFFFFFFFFFFFFFFFFFFFFFFFFF AND CALLER PUSH20 0xFFFFFFFFFFFFFFFFFFFFFFFFFFFFFFFFFFFFFFFF AND PUSH32 0xC3D58168C5AE7397731D063D5BBF3D657854427343F4C083240F7AACAA2D0F62 DUP7 DUP7 PUSH1 0x40 MLOAD PUSH2 0x1BAF SWAP3 SWAP2 SWAP1 PUSH2 0x3679 JUMP JUMPDEST PUSH1 0x40 MLOAD DUP1 SWAP2 SUB SWAP1 LOG4 POP POP POP POP POP JUMP JUMPDEST PUSH2 0x1BD2 PUSH8 0x241026E1E1922EF0 PUSH1 0xC0 SHL PUSH2 0x211A JUMP JUMPDEST PUSH2 0x1BE6 PUSH8 0xAB267B289BF7E223 PUSH1 0xC0 SHL PUSH2 0x211A JUMP JUMPDEST PUSH2 0x1BFA PUSH8 0xE6860EC9AD94585E PUSH1 0xC0 SHL PUSH2 0x211A JUMP JUMPDEST PUSH2 0x1C0E PUSH8 0x52CAC397E7FE50F4 PUSH1 0xC0 SHL PUSH2 0x211A JUMP JUMPDEST PUSH2 0x1C22 PUSH8 0xBA50882C3C8158B7 PUSH1 0xC0 SHL PUSH2 0x211A JUMP JUMPDEST CALLER PUSH20 0xFFFFFFFFFFFFFFFFFFFFFFFFFFFFFFFFFFFFFFFF AND PUSH1 0x0 DUP1 SLOAD SWAP1 PUSH2 0x100 EXP SWAP1 DIV PUSH20 0xFFFFFFFFFFFFFFFFFFFFFFFFFFFFFFFFFFFFFFFF AND PUSH20 0xFFFFFFFFFFFFFFFFFFFFFFFFFFFFFFFFFFFFFFFF AND EQ PUSH2 0x1CB0 JUMPI PUSH1 0x40 MLOAD PUSH32 0x8C379A000000000000000000000000000000000000000000000000000000000 DUP2 MSTORE PUSH1 0x4 ADD PUSH2 0x1CA7 SWAP1 PUSH2 0x2AC2 JUMP JUMPDEST PUSH1 0x40 MLOAD DUP1 SWAP2 SUB SWAP1 REVERT JUMPDEST PUSH2 0x1CC4 PUSH8 0xBD79D4C7CF57E006 PUSH1 0xC0 SHL PUSH2 0x211A JUMP JUMPDEST PUSH2 0x1CD8 PUSH8 0xD3FC60EDBB06F55F PUSH1 0xC0 SHL PUSH2 0x211A JUMP JUMPDEST PUSH2 0x1CEC PUSH8 0x34E194357EB5ACB6 PUSH1 0xC0 SHL PUSH2 0x211A JUMP JUMPDEST PUSH2 0x1D00 PUSH8 0xF47C70128B6932CB PUSH1 0xC0 SHL PUSH2 0x211A JUMP JUMPDEST PUSH2 0x1D14 PUSH8 0x2C3F127B5206D247 PUSH1 0xC0 SHL PUSH2 0x211A JUMP JUMPDEST DUP1 PUSH1 0x0 DUP1 PUSH2 0x100 EXP DUP2 SLOAD DUP2 PUSH20 0xFFFFFFFFFFFFFFFFFFFFFFFFFFFFFFFFFFFFFFFF MUL NOT AND SWAP1 DUP4 PUSH20 0xFFFFFFFFFFFFFFFFFFFFFFFFFFFFFFFFFFFFFFFF AND MUL OR SWAP1 SSTORE POP POP JUMP JUMPDEST PUSH2 0x1D6B PUSH8 0x2AAFEEDF15312088 PUSH1 0xC0 SHL PUSH2 0x211A JUMP JUMPDEST PUSH2 0x1D7F PUSH8 0x8ED57867A3322E70 PUSH1 0xC0 SHL PUSH2 0x211A JUMP JUMPDEST PUSH2 0x1D93 PUSH8 0x8BF445C2D67478E5 PUSH1 0xC0 SHL PUSH2 0x211A JUMP JUMPDEST PUSH2 0x1DA7 PUSH8 0x5F12096D7946239 PUSH1 0xC0 SHL PUSH2 0x211A JUMP JUMPDEST CALLER PUSH20 0xFFFFFFFFFFFFFFFFFFFFFFFFFFFFFFFFFFFFFFFF AND DUP4 PUSH20 0xFFFFFFFFFFFFFFFFFFFFFFFFFFFFFFFFFFFFFFFF AND EQ PUSH2 0x1E15 JUMPI PUSH1 0x40 MLOAD PUSH32 0x8C379A000000000000000000000000000000000000000000000000000000000 DUP2 MSTORE PUSH1 0x4 ADD PUSH2 0x1E0C SWAP1 PUSH2 0x3714 JUMP JUMPDEST PUSH1 0x40 MLOAD DUP1 SWAP2 SUB SWAP1 REVERT JUMPDEST PUSH2 0x1E29 PUSH8 0xA41548A036F54CB PUSH1 0xC0 SHL PUSH2 0x211A JUMP JUMPDEST PUSH2 0x1E3D PUSH8 0x6760E447286CB99D PUSH1 0xC0 SHL PUSH2 0x211A JUMP JUMPDEST PUSH2 0x1E51 PUSH8 0x2287EBC2B252488C PUSH1 0xC0 SHL PUSH2 0x211A JUMP JUMPDEST PUSH2 0x1E65 PUSH8 0xCCA0A7959BC31F85 PUSH1 0xC0 SHL PUSH2 0x211A JUMP JUMPDEST DUP1 PUSH1 0x1 PUSH1 0x0 DUP5 DUP2 MSTORE PUSH1 0x20 ADD SWAP1 DUP2 MSTORE PUSH1 0x20 ADD PUSH1 0x0 KECCAK256 PUSH1 0x0 DUP6 PUSH20 0xFFFFFFFFFFFFFFFFFFFFFFFFFFFFFFFFFFFFFFFF AND PUSH20 0xFFFFFFFFFFFFFFFFFFFFFFFFFFFFFFFFFFFFFFFF AND DUP2 MSTORE PUSH1 0x20 ADD SWAP1 DUP2 MSTORE PUSH1 0x20 ADD PUSH1 0x0 KECCAK256 SLOAD LT ISZERO PUSH2 0x1EF8 JUMPI PUSH1 0x40 MLOAD PUSH32 0x8C379A000000000000000000000000000000000000000000000000000000000 DUP2 MSTORE PUSH1 0x4 ADD PUSH2 0x1EEF SWAP1 PUSH2 0x37A6 JUMP JUMPDEST PUSH1 0x40 MLOAD DUP1 SWAP2 SUB SWAP1 REVERT JUMPDEST PUSH2 0x1F0C PUSH8 0xA16CC72822F2F1E8 PUSH1 0xC0 SHL PUSH2 0x211A JUMP JUMPDEST PUSH2 0x1F20 PUSH8 0x288B769683755E0F PUSH1 0xC0 SHL PUSH2 0x211A JUMP JUMPDEST DUP1 PUSH1 0x1 PUSH1 0x0 DUP5 DUP2 MSTORE PUSH1 0x20 ADD SWAP1 DUP2 MSTORE PUSH1 0x20 ADD PUSH1 0x0 KECCAK256 PUSH1 0x0 DUP6 PUSH20 0xFFFFFFFFFFFFFFFFFFFFFFFFFFFFFFFFFFFFFFFF AND PUSH20 0xFFFFFFFFFFFFFFFFFFFFFFFFFFFFFFFFFFFFFFFF AND DUP2 MSTORE PUSH1 0x20 ADD SWAP1 DUP2 MSTORE PUSH1 0x20 ADD PUSH1 0x0 KECCAK256 PUSH1 0x0 DUP3 DUP3 SLOAD PUSH2 0x1F80 SWAP2 SWAP1 PUSH2 0x2E65 JUMP JUMPDEST SWAP3 POP POP DUP2 SWAP1 SSTORE POP PUSH2 0x1F9B PUSH8 0x91385BDC1745C7D1 PUSH1 0xC0 SHL PUSH2 0x211A JUMP JUMPDEST PUSH2 0x1FAF PUSH8 0x763D09D849CCB61D PUSH1 0xC0 SHL PUSH2 0x211A JUMP JUMPDEST PUSH1 0x0 PUSH20 0xFFFFFFFFFFFFFFFFFFFFFFFFFFFFFFFFFFFFFFFF AND DUP4 PUSH20 0xFFFFFFFFFFFFFFFFFFFFFFFFFFFFFFFFFFFFFFFF AND CALLER PUSH20 0xFFFFFFFFFFFFFFFFFFFFFFFFFFFFFFFFFFFFFFFF AND PUSH32 0xC3D58168C5AE7397731D063D5BBF3D657854427343F4C083240F7AACAA2D0F62 DUP6 DUP6 PUSH1 0x40 MLOAD PUSH2 0x2026 SWAP3 SWAP2 SWAP1 PUSH2 0x3679 JUMP JUMPDEST PUSH1 0x40 MLOAD DUP1 SWAP2 SUB SWAP1 LOG4 POP POP POP JUMP JUMPDEST PUSH1 0x3 DUP2 DUP2 SLOAD DUP2 LT PUSH2 0x2043 JUMPI PUSH1 0x0 DUP1 REVERT JUMPDEST SWAP1 PUSH1 0x0 MSTORE PUSH1 0x20 PUSH1 0x0 KECCAK256 SWAP1 PUSH1 0x7 MUL ADD PUSH1 0x0 SWAP2 POP SWAP1 POP DUP1 PUSH1 0x0 ADD DUP1 SLOAD PUSH2 0x2066 SWAP1 PUSH2 0x2BB6 JUMP JUMPDEST DUP1 PUSH1 0x1F ADD PUSH1 0x20 DUP1 SWAP2 DIV MUL PUSH1 0x20 ADD PUSH1 0x40 MLOAD SWAP1 DUP2 ADD PUSH1 0x40 MSTORE DUP1 SWAP3 SWAP2 SWAP1 DUP2 DUP2 MSTORE PUSH1 0x20 ADD DUP3 DUP1 SLOAD PUSH2 0x2092 SWAP1 PUSH2 0x2BB6 JUMP JUMPDEST DUP1 ISZERO PUSH2 0x20DF JUMPI DUP1 PUSH1 0x1F LT PUSH2 0x20B4 JUMPI PUSH2 0x100 DUP1 DUP4 SLOAD DIV MUL DUP4 MSTORE SWAP2 PUSH1 0x20 ADD SWAP2 PUSH2 0x20DF JUMP JUMPDEST DUP3 ADD SWAP2 SWAP1 PUSH1 0x0 MSTORE PUSH1 0x20 PUSH1 0x0 KECCAK256 SWAP1 JUMPDEST DUP2 SLOAD DUP2 MSTORE SWAP1 PUSH1 0x1 ADD SWAP1 PUSH1 0x20 ADD DUP1 DUP4 GT PUSH2 0x20C2 JUMPI DUP3 SWAP1 SUB PUSH1 0x1F AND DUP3 ADD SWAP2 JUMPDEST POP POP POP POP POP SWAP1 DUP1 PUSH1 0x1 ADD SLOAD SWAP1 DUP1 PUSH1 0x2 ADD SLOAD SWAP1 DUP1 PUSH1 0x3 ADD SLOAD SWAP1 DUP1 PUSH1 0x4 ADD SLOAD SWAP1 DUP1 PUSH1 0x5 ADD SLOAD SWAP1 DUP1 PUSH1 0x6 ADD PUSH1 0x0 SWAP1 SLOAD SWAP1 PUSH2 0x100 EXP SWAP1 DIV PUSH1 0xFF AND SWAP1 POP DUP8 JUMP JUMPDEST POP JUMP JUMPDEST PUSH2 0x2131 PUSH8 0x890E4F6A19419A89 PUSH1 0xC0 SHL PUSH2 0x211A JUMP JUMPDEST PUSH2 0x2145 PUSH8 0xE41B8A81C5D3BD53 PUSH1 0xC0 SHL PUSH2 0x211A JUMP JUMPDEST PUSH2 0x2159 PUSH8 0x90F9ED0CAEE092A7 PUSH1 0xC0 SHL PUSH2 0x211A JUMP JUMPDEST PUSH2 0x216D PUSH8 0xA51A9F8732647ADB PUSH1 0xC0 SHL PUSH2 0x211A JUMP JUMPDEST PUSH1 0x0 PUSH20 0xFFFFFFFFFFFFFFFFFFFFFFFFFFFFFFFFFFFFFFFF AND DUP4 PUSH20 0xFFFFFFFFFFFFFFFFFFFFFFFFFFFFFFFFFFFFFFFF AND SUB PUSH2 0x21DC JUMPI PUSH1 0x40 MLOAD PUSH32 0x8C379A000000000000000000000000000000000000000000000000000000000 DUP2 MSTORE PUSH1 0x4 ADD PUSH2 0x21D3 SWAP1 PUSH2 0x3838 JUMP JUMPDEST PUSH1 0x40 MLOAD DUP1 SWAP2 SUB SWAP1 REVERT JUMPDEST PUSH2 0x21EE PUSH6 0xB2101D89F3BE PUSH1 0xC0 SHL PUSH2 0x211A JUMP JUMPDEST PUSH2 0x2202 PUSH8 0x47A5FDAED736C82 PUSH1 0xC0 SHL PUSH2 0x211A JUMP JUMPDEST DUP1 PUSH1 0x1 PUSH1 0x0 DUP5 DUP2 MSTORE PUSH1 0x20 ADD SWAP1 DUP2 MSTORE PUSH1 0x20 ADD PUSH1 0x0 KECCAK256 PUSH1 0x0 DUP6 PUSH20 0xFFFFFFFFFFFFFFFFFFFFFFFFFFFFFFFFFFFFFFFF AND PUSH20 0xFFFFFFFFFFFFFFFFFFFFFFFFFFFFFFFFFFFFFFFF AND DUP2 MSTORE PUSH1 0x20 ADD SWAP1 DUP2 MSTORE PUSH1 0x20 ADD PUSH1 0x0 KECCAK256 PUSH1 0x0 DUP3 DUP3 SLOAD PUSH2 0x2262 SWAP2 SWAP1 PUSH2 0x2B53 JUMP JUMPDEST SWAP3 POP POP DUP2 SWAP1 SSTORE POP PUSH2 0x227D PUSH8 0xEBDABF23B3C9A202 PUSH1 0xC0 SHL PUSH2 0x211A JUMP JUMPDEST PUSH2 0x2291 PUSH8 0x1AD9EBBAC0308435 PUSH1 0xC0 SHL PUSH2 0x211A JUMP JUMPDEST DUP3 PUSH20 0xFFFFFFFFFFFFFFFFFFFFFFFFFFFFFFFFFFFFFFFF AND PUSH1 0x0 PUSH20 0xFFFFFFFFFFFFFFFFFFFFFFFFFFFFFFFFFFFFFFFF AND CALLER PUSH20 0xFFFFFFFFFFFFFFFFFFFFFFFFFFFFFFFFFFFFFFFF AND PUSH32 0xC3D58168C5AE7397731D063D5BBF3D657854427343F4C083240F7AACAA2D0F62 DUP6 DUP6 PUSH1 0x40 MLOAD PUSH2 0x2308 SWAP3 SWAP2 SWAP1 PUSH2 0x3679 JUMP JUMPDEST PUSH1 0x40 MLOAD DUP1 SWAP2 SUB SWAP1 LOG4 POP POP POP JUMP JUMPDEST POP JUMP JUMPDEST PUSH1 0x0 PUSH1 0x1 SWAP1 POP SWAP2 SWAP1 POP JUMP JUMPDEST PUSH1 0x0 PUSH1 0x40 MLOAD SWAP1 POP SWAP1 JUMP JUMPDEST PUSH1 0x0 DUP1 REVERT JUMPDEST PUSH1 0x0 DUP1 REVERT JUMPDEST PUSH1 0x0 PUSH20 0xFFFFFFFFFFFFFFFFFFFFFFFFFFFFFFFFFFFFFFFF DUP3 AND SWAP1 POP SWAP2 SWAP1 POP JUMP JUMPDEST PUSH1 0x0 PUSH2 0x2362 DUP3 PUSH2 0x2337 JUMP JUMPDEST SWAP1 POP SWAP2 SWAP1 POP JUMP JUMPDEST PUSH2 0x2372 DUP2 PUSH2 0x2357 JUMP JUMPDEST DUP2 EQ PUSH2 0x237D JUMPI PUSH1 0x0 DUP1 REVERT JUMPDEST POP JUMP JUMPDEST PUSH1 0x0 DUP2 CALLDATALOAD SWAP1 POP PUSH2 0x238F DUP2 PUSH2 0x2369 JUMP JUMPDEST SWAP3 SWAP2 POP POP JUMP JUMPDEST PUSH1 0x0 DUP2 SWAP1 POP SWAP2 SWAP1 POP JUMP JUMPDEST PUSH2 0x23A8 DUP2 PUSH2 0x2395 JUMP JUMPDEST DUP2 EQ PUSH2 0x23B3 JUMPI PUSH1 0x0 DUP1 REVERT JUMPDEST POP JUMP JUMPDEST PUSH1 0x0 DUP2 CALLDATALOAD SWAP1 POP PUSH2 0x23C5 DUP2 PUSH2 0x239F JUMP JUMPDEST SWAP3 SWAP2 POP POP JUMP JUMPDEST PUSH1 0x0 DUP1 PUSH1 0x40 DUP4 DUP6 SUB SLT ISZERO PUSH2 0x23E2 JUMPI PUSH2 0x23E1 PUSH2 0x232D JUMP JUMPDEST JUMPDEST PUSH1 0x0 PUSH2 0x23F0 DUP6 DUP3 DUP7 ADD PUSH2 0x2380 JUMP JUMPDEST SWAP3 POP POP PUSH1 0x20 PUSH2 0x2401 DUP6 DUP3 DUP7 ADD PUSH2 0x23B6 JUMP JUMPDEST SWAP2 POP POP SWAP3 POP SWAP3 SWAP1 POP JUMP JUMPDEST PUSH2 0x2414 DUP2 PUSH2 0x2395 JUMP JUMPDEST DUP3 MSTORE POP POP JUMP JUMPDEST PUSH1 0x0 PUSH1 0x20 DUP3 ADD SWAP1 POP PUSH2 0x242F PUSH1 0x0 DUP4 ADD DUP5 PUSH2 0x240B JUMP JUMPDEST SWAP3 SWAP2 POP POP JUMP JUMPDEST PUSH1 0x0 DUP1 REVERT JUMPDEST PUSH1 0x0 DUP1 REVERT JUMPDEST PUSH1 0x0 PUSH1 0x1F NOT PUSH1 0x1F DUP4 ADD AND SWAP1 POP SWAP2 SWAP1 POP JUMP JUMPDEST PUSH32 0x4E487B7100000000000000000000000000000000000000000000000000000000 PUSH1 0x0 MSTORE PUSH1 0x41 PUSH1 0x4 MSTORE PUSH1 0x24 PUSH1 0x0 REVERT JUMPDEST PUSH2 0x2488 DUP3 PUSH2 0x243F JUMP JUMPDEST DUP2 ADD DUP2 DUP2 LT PUSH8 0xFFFFFFFFFFFFFFFF DUP3 GT OR ISZERO PUSH2 0x24A7 JUMPI PUSH2 0x24A6 PUSH2 0x2450 JUMP JUMPDEST JUMPDEST DUP1 PUSH1 0x40 MSTORE POP POP POP JUMP JUMPDEST PUSH1 0x0 PUSH2 0x24BA PUSH2 0x2323 JUMP JUMPDEST SWAP1 POP PUSH2 0x24C6 DUP3 DUP3 PUSH2 0x247F JUMP JUMPDEST SWAP2 SWAP1 POP JUMP JUMPDEST PUSH1 0x0 PUSH8 0xFFFFFFFFFFFFFFFF DUP3 GT ISZERO PUSH2 0x24E6 JUMPI PUSH2 0x24E5 PUSH2 0x2450 JUMP JUMPDEST JUMPDEST PUSH2 0x24EF DUP3 PUSH2 0x243F JUMP JUMPDEST SWAP1 POP PUSH1 0x20 DUP2 ADD SWAP1 POP SWAP2 SWAP1 POP JUMP JUMPDEST DUP3 DUP2 DUP4 CALLDATACOPY PUSH1 0x0 DUP4 DUP4 ADD MSTORE POP POP POP JUMP JUMPDEST PUSH1 0x0 PUSH2 0x251E PUSH2 0x2519 DUP5 PUSH2 0x24CB JUMP JUMPDEST PUSH2 0x24B0 JUMP JUMPDEST SWAP1 POP DUP3 DUP2 MSTORE PUSH1 0x20 DUP2 ADD DUP5 DUP5 DUP5 ADD GT ISZERO PUSH2 0x253A JUMPI PUSH2 0x2539 PUSH2 0x243A JUMP JUMPDEST JUMPDEST PUSH2 0x2545 DUP5 DUP3 DUP6 PUSH2 0x24FC JUMP JUMPDEST POP SWAP4 SWAP3 POP POP POP JUMP JUMPDEST PUSH1 0x0 DUP3 PUSH1 0x1F DUP4 ADD SLT PUSH2 0x2562 JUMPI PUSH2 0x2561 PUSH2 0x2435 JUMP JUMPDEST JUMPDEST DUP2 CALLDATALOAD PUSH2 0x2572 DUP5 DUP3 PUSH1 0x20 DUP7 ADD PUSH2 0x250B JUMP JUMPDEST SWAP2 POP POP SWAP3 SWAP2 POP POP JUMP JUMPDEST PUSH1 0x0 DUP1 PUSH1 0x0 DUP1 PUSH1 0x80 DUP6 DUP8 SUB SLT ISZERO PUSH2 0x2595 JUMPI PUSH2 0x2594 PUSH2 0x232D JUMP JUMPDEST JUMPDEST PUSH1 0x0 DUP6 ADD CALLDATALOAD PUSH8 0xFFFFFFFFFFFFFFFF DUP2 GT ISZERO PUSH2 0x25B3 JUMPI PUSH2 0x25B2 PUSH2 0x2332 JUMP JUMPDEST JUMPDEST PUSH2 0x25BF DUP8 DUP3 DUP9 ADD PUSH2 0x254D JUMP JUMPDEST SWAP5 POP POP PUSH1 0x20 PUSH2 0x25D0 DUP8 DUP3 DUP9 ADD PUSH2 0x23B6 JUMP JUMPDEST SWAP4 POP POP PUSH1 0x40 PUSH2 0x25E1 DUP8 DUP3 DUP9 ADD PUSH2 0x23B6 JUMP JUMPDEST SWAP3 POP POP PUSH1 0x60 PUSH2 0x25F2 DUP8 DUP3 DUP9 ADD PUSH2 0x23B6 JUMP JUMPDEST SWAP2 POP POP SWAP3 SWAP6 SWAP2 SWAP5 POP SWAP3 POP JUMP JUMPDEST PUSH1 0x0 PUSH1 0x20 DUP3 DUP5 SUB SLT ISZERO PUSH2 0x2614 JUMPI PUSH2 0x2613 PUSH2 0x232D JUMP JUMPDEST JUMPDEST PUSH1 0x0 PUSH2 0x2622 DUP5 DUP3 DUP6 ADD PUSH2 0x23B6 JUMP JUMPDEST SWAP2 POP POP SWAP3 SWAP2 POP POP JUMP JUMPDEST PUSH1 0x0 DUP1 PUSH1 0x0 PUSH1 0x60 DUP5 DUP7 SUB SLT ISZERO PUSH2 0x2644 JUMPI PUSH2 0x2643 PUSH2 0x232D JUMP JUMPDEST JUMPDEST PUSH1 0x0 PUSH2 0x2652 DUP7 DUP3 DUP8 ADD PUSH2 0x2380 JUMP JUMPDEST SWAP4 POP POP PUSH1 0x20 PUSH2 0x2663 DUP7 DUP3 DUP8 ADD PUSH2 0x23B6 JUMP JUMPDEST SWAP3 POP POP PUSH1 0x40 PUSH2 0x2674 DUP7 DUP3 DUP8 ADD PUSH2 0x23B6 JUMP JUMPDEST SWAP2 POP POP SWAP3 POP SWAP3 POP SWAP3 JUMP JUMPDEST PUSH1 0x0 DUP2 ISZERO ISZERO SWAP1 POP SWAP2 SWAP1 POP JUMP JUMPDEST PUSH2 0x2693 DUP2 PUSH2 0x267E JUMP JUMPDEST DUP3 MSTORE POP POP JUMP JUMPDEST PUSH1 0x0 PUSH1 0x20 DUP3 ADD SWAP1 POP PUSH2 0x26AE PUSH1 0x0 DUP4 ADD DUP5 PUSH2 0x268A JUMP JUMPDEST SWAP3 SWAP2 POP POP JUMP JUMPDEST PUSH2 0x26BD DUP2 PUSH2 0x2357 JUMP JUMPDEST DUP3 MSTORE POP POP JUMP JUMPDEST PUSH1 0x0 PUSH1 0x20 DUP3 ADD SWAP1 POP PUSH2 0x26D8 PUSH1 0x0 DUP4 ADD DUP5 PUSH2 0x26B4 JUMP JUMPDEST SWAP3 SWAP2 POP POP JUMP JUMPDEST PUSH2 0x26E7 DUP2 PUSH2 0x267E JUMP JUMPDEST DUP2 EQ PUSH2 0x26F2 JUMPI PUSH1 0x0 DUP1 REVERT JUMPDEST POP JUMP JUMPDEST PUSH1 0x0 DUP2 CALLDATALOAD SWAP1 POP PUSH2 0x2704 DUP2 PUSH2 0x26DE JUMP JUMPDEST SWAP3 SWAP2 POP POP JUMP JUMPDEST PUSH1 0x0 DUP1 PUSH1 0x40 DUP4 DUP6 SUB SLT ISZERO PUSH2 0x2721 JUMPI PUSH2 0x2720 PUSH2 0x232D JUMP JUMPDEST JUMPDEST PUSH1 0x0 PUSH2 0x272F DUP6 DUP3 DUP7 ADD PUSH2 0x2380 JUMP JUMPDEST SWAP3 POP POP PUSH1 0x20 PUSH2 0x2740 DUP6 DUP3 DUP7 ADD PUSH2 0x26F5 JUMP JUMPDEST SWAP2 POP POP SWAP3 POP SWAP3 SWAP1 POP JUMP JUMPDEST PUSH1 0x0 DUP1 PUSH1 0x40 DUP4 DUP6 SUB SLT ISZERO PUSH2 0x2761 JUMPI PUSH2 0x2760 PUSH2 0x232D JUMP JUMPDEST JUMPDEST PUSH1 0x0 PUSH2 0x276F DUP6 DUP3 DUP7 ADD PUSH2 0x2380 JUMP JUMPDEST SWAP3 POP POP PUSH1 0x20 PUSH2 0x2780 DUP6 DUP3 DUP7 ADD PUSH2 0x2380 JUMP JUMPDEST SWAP2 POP POP SWAP3 POP SWAP3 SWAP1 POP JUMP JUMPDEST PUSH1 0x0 PUSH8 0xFFFFFFFFFFFFFFFF DUP3 GT ISZERO PUSH2 0x27A5 JUMPI PUSH2 0x27A4 PUSH2 0x2450 JUMP JUMPDEST JUMPDEST PUSH2 0x27AE DUP3 PUSH2 0x243F JUMP JUMPDEST SWAP1 POP PUSH1 0x20 DUP2 ADD SWAP1 POP SWAP2 SWAP1 POP JUMP JUMPDEST PUSH1 0x0 PUSH2 0x27CE PUSH2 0x27C9 DUP5 PUSH2 0x278A JUMP JUMPDEST PUSH2 0x24B0 JUMP JUMPDEST SWAP1 POP DUP3 DUP2 MSTORE PUSH1 0x20 DUP2 ADD DUP5 DUP5 DUP5 ADD GT ISZERO PUSH2 0x27EA JUMPI PUSH2 0x27E9 PUSH2 0x243A JUMP JUMPDEST JUMPDEST PUSH2 0x27F5 DUP5 DUP3 DUP6 PUSH2 0x24FC JUMP JUMPDEST POP SWAP4 SWAP3 POP POP POP JUMP JUMPDEST PUSH1 0x0 DUP3 PUSH1 0x1F DUP4 ADD SLT PUSH2 0x2812 JUMPI PUSH2 0x2811 PUSH2 0x2435 JUMP JUMPDEST JUMPDEST DUP2 CALLDATALOAD PUSH2 0x2822 DUP5 DUP3 PUSH1 0x20 DUP7 ADD PUSH2 0x27BB JUMP JUMPDEST SWAP2 POP POP SWAP3 SWAP2 POP POP JUMP JUMPDEST PUSH1 0x0 DUP1 PUSH1 0x0 DUP1 PUSH1 0x0 PUSH1 0xA0 DUP7 DUP9 SUB SLT ISZERO PUSH2 0x2847 JUMPI PUSH2 0x2846 PUSH2 0x232D JUMP JUMPDEST JUMPDEST PUSH1 0x0 PUSH2 0x2855 DUP9 DUP3 DUP10 ADD PUSH2 0x2380 JUMP JUMPDEST SWAP6 POP POP PUSH1 0x20 PUSH2 0x2866 DUP9 DUP3 DUP10 ADD PUSH2 0x2380 JUMP JUMPDEST SWAP5 POP POP PUSH1 0x40 PUSH2 0x2877 DUP9 DUP3 DUP10 ADD PUSH2 0x23B6 JUMP JUMPDEST SWAP4 POP POP PUSH1 0x60 PUSH2 0x2888 DUP9 DUP3 DUP10 ADD PUSH2 0x23B6 JUMP JUMPDEST SWAP3 POP POP PUSH1 0x80 DUP7 ADD CALLDATALOAD PUSH8 0xFFFFFFFFFFFFFFFF DUP2 GT ISZERO PUSH2 0x28A9 JUMPI PUSH2 0x28A8 PUSH2 0x2332 JUMP JUMPDEST JUMPDEST PUSH2 0x28B5 DUP9 DUP3 DUP10 ADD PUSH2 0x27FD JUMP JUMPDEST SWAP2 POP POP SWAP3 SWAP6 POP SWAP3 SWAP6 SWAP1 SWAP4 POP JUMP JUMPDEST PUSH1 0x0 PUSH1 0x20 DUP3 DUP5 SUB SLT ISZERO PUSH2 0x28D8 JUMPI PUSH2 0x28D7 PUSH2 0x232D JUMP JUMPDEST JUMPDEST PUSH1 0x0 PUSH2 0x28E6 DUP5 DUP3 DUP6 ADD PUSH2 0x2380 JUMP JUMPDEST SWAP2 POP POP SWAP3 SWAP2 POP POP JUMP JUMPDEST PUSH1 0x0 DUP2 MLOAD SWAP1 POP SWAP2 SWAP1 POP JUMP JUMPDEST PUSH1 0x0 DUP3 DUP3 MSTORE PUSH1 0x20 DUP3 ADD SWAP1 POP SWAP3 SWAP2 POP POP JUMP JUMPDEST PUSH1 0x0 JUMPDEST DUP4 DUP2 LT ISZERO PUSH2 0x2929 JUMPI DUP1 DUP3 ADD MLOAD DUP2 DUP5 ADD MSTORE PUSH1 0x20 DUP2 ADD SWAP1 POP PUSH2 0x290E JUMP JUMPDEST PUSH1 0x0 DUP5 DUP5 ADD MSTORE POP POP POP POP JUMP JUMPDEST PUSH1 0x0 PUSH2 0x2940 DUP3 PUSH2 0x28EF JUMP JUMPDEST PUSH2 0x294A DUP2 DUP6 PUSH2 0x28FA JUMP JUMPDEST SWAP4 POP PUSH2 0x295A DUP2 DUP6 PUSH1 0x20 DUP7 ADD PUSH2 0x290B JUMP JUMPDEST PUSH2 0x2963 DUP2 PUSH2 0x243F JUMP JUMPDEST DUP5 ADD SWAP2 POP POP SWAP3 SWAP2 POP POP JUMP JUMPDEST PUSH1 0x0 PUSH1 0xE0 DUP3 ADD SWAP1 POP DUP2 DUP2 SUB PUSH1 0x0 DUP4 ADD MSTORE PUSH2 0x2988 DUP2 DUP11 PUSH2 0x2935 JUMP JUMPDEST SWAP1 POP PUSH2 0x2997 PUSH1 0x20 DUP4 ADD DUP10 PUSH2 0x240B JUMP JUMPDEST PUSH2 0x29A4 PUSH1 0x40 DUP4 ADD DUP9 PUSH2 0x240B JUMP JUMPDEST PUSH2 0x29B1 PUSH1 0x60 DUP4 ADD DUP8 PUSH2 0x240B JUMP JUMPDEST PUSH2 0x29BE PUSH1 0x80 DUP4 ADD DUP7 PUSH2 0x240B JUMP JUMPDEST PUSH2 0x29CB PUSH1 0xA0 DUP4 ADD DUP6 PUSH2 0x240B JUMP JUMPDEST PUSH2 0x29D8 PUSH1 0xC0 DUP4 ADD DUP5 PUSH2 0x268A JUMP JUMPDEST SWAP9 SWAP8 POP POP POP POP POP POP POP POP JUMP JUMPDEST PUSH32 0x455243313135353A20646972656363696F6E20696E76616C6964610000000000 PUSH1 0x0 DUP3 ADD MSTORE POP JUMP JUMPDEST PUSH1 0x0 PUSH2 0x2A1A PUSH1 0x1B DUP4 PUSH2 0x28FA JUMP JUMPDEST SWAP2 POP PUSH2 0x2A25 DUP3 PUSH2 0x29E4 JUMP JUMPDEST PUSH1 0x20 DUP3 ADD SWAP1 POP SWAP2 SWAP1 POP JUMP JUMPDEST PUSH1 0x0 PUSH1 0x20 DUP3 ADD SWAP1 POP DUP2 DUP2 SUB PUSH1 0x0 DUP4 ADD MSTORE PUSH2 0x2A49 DUP2 PUSH2 0x2A0D JUMP JUMPDEST SWAP1 POP SWAP2 SWAP1 POP JUMP JUMPDEST PUSH32 0x4353413A20517569656E206C6C616D61206E6F20657320656C2070726F706965 PUSH1 0x0 DUP3 ADD MSTORE PUSH32 0x746172696F000000000000000000000000000000000000000000000000000000 PUSH1 0x20 DUP3 ADD MSTORE POP JUMP JUMPDEST PUSH1 0x0 PUSH2 0x2AAC PUSH1 0x25 DUP4 PUSH2 0x28FA JUMP JUMPDEST SWAP2 POP PUSH2 0x2AB7 DUP3 PUSH2 0x2A50 JUMP JUMPDEST PUSH1 0x40 DUP3 ADD SWAP1 POP SWAP2 SWAP1 POP JUMP JUMPDEST PUSH1 0x0 PUSH1 0x20 DUP3 ADD SWAP1 POP DUP2 DUP2 SUB PUSH1 0x0 DUP4 ADD MSTORE PUSH2 0x2ADB DUP2 PUSH2 0x2A9F JUMP JUMPDEST SWAP1 POP SWAP2 SWAP1 POP JUMP JUMPDEST PUSH32 0x4E487B7100000000000000000000000000000000000000000000000000000000 PUSH1 0x0 MSTORE PUSH1 0x11 PUSH1 0x4 MSTORE PUSH1 0x24 PUSH1 0x0 REVERT JUMPDEST PUSH1 0x0 PUSH2 0x2B1C DUP3 PUSH2 0x2395 JUMP JUMPDEST SWAP2 POP PUSH2 0x2B27 DUP4 PUSH2 0x2395 JUMP JUMPDEST SWAP3 POP DUP3 DUP3 MUL PUSH2 0x2B35 DUP2 PUSH2 0x2395 JUMP JUMPDEST SWAP2 POP DUP3 DUP3 DIV DUP5 EQ DUP4 ISZERO OR PUSH2 0x2B4C JUMPI PUSH2 0x2B4B PUSH2 0x2AE2 JUMP JUMPDEST JUMPDEST POP SWAP3 SWAP2 POP POP JUMP JUMPDEST PUSH1 0x0 PUSH2 0x2B5E DUP3 PUSH2 0x2395 JUMP JUMPDEST SWAP2 POP PUSH2 0x2B69 DUP4 PUSH2 0x2395 JUMP JUMPDEST SWAP3 POP DUP3 DUP3 ADD SWAP1 POP DUP1 DUP3 GT ISZERO PUSH2 0x2B81 JUMPI PUSH2 0x2B80 PUSH2 0x2AE2 JUMP JUMPDEST JUMPDEST SWAP3 SWAP2 POP POP JUMP JUMPDEST PUSH32 0x4E487B7100000000000000000000000000000000000000000000000000000000 PUSH1 0x0 MSTORE PUSH1 0x22 PUSH1 0x4 MSTORE PUSH1 0x24 PUSH1 0x0 REVERT JUMPDEST PUSH1 0x0 PUSH1 0x2 DUP3 DIV SWAP1 POP PUSH1 0x1 DUP3 AND DUP1 PUSH2 0x2BCE JUMPI PUSH1 0x7F DUP3 AND SWAP2 POP JUMPDEST PUSH1 0x20 DUP3 LT DUP2 SUB PUSH2 0x2BE1 JUMPI PUSH2 0x2BE0 PUSH2 0x2B87 JUMP JUMPDEST JUMPDEST POP SWAP2 SWAP1 POP JUMP JUMPDEST PUSH1 0x0 DUP2 SWAP1 POP DUP2 PUSH1 0x0 MSTORE PUSH1 0x20 PUSH1 0x0 KECCAK256 SWAP1 POP SWAP2 SWAP1 POP JUMP JUMPDEST PUSH1 0x0 PUSH1 0x20 PUSH1 0x1F DUP4 ADD DIV SWAP1 POP SWAP2 SWAP1 POP JUMP JUMPDEST PUSH1 0x0 DUP3 DUP3 SHL SWAP1 POP SWAP3 SWAP2 POP POP JUMP JUMPDEST PUSH1 0x0 PUSH1 0x8 DUP4 MUL PUSH2 0x2C49 PUSH32 0xFFFFFFFFFFFFFFFFFFFFFFFFFFFFFFFFFFFFFFFFFFFFFFFFFFFFFFFFFFFFFFFF DUP3 PUSH2 0x2C0C JUMP JUMPDEST PUSH2 0x2C53 DUP7 DUP4 PUSH2 0x2C0C JUMP JUMPDEST SWAP6 POP DUP1 NOT DUP5 AND SWAP4 POP DUP1 DUP7 AND DUP5 OR SWAP3 POP POP POP SWAP4 SWAP3 POP POP POP JUMP JUMPDEST PUSH1 0x0 DUP2 SWAP1 POP SWAP2 SWAP1 POP JUMP JUMPDEST PUSH1 0x0 PUSH2 0x2C90 PUSH2 0x2C8B PUSH2 0x2C86 DUP5 PUSH2 0x2395 JUMP JUMPDEST PUSH2 0x2C6B JUMP JUMPDEST PUSH2 0x2395 JUMP JUMPDEST SWAP1 POP SWAP2 SWAP1 POP JUMP JUMPDEST PUSH1 0x0 DUP2 SWAP1 POP SWAP2 SWAP1 POP JUMP JUMPDEST PUSH2 0x2CAA DUP4 PUSH2 0x2C75 JUMP JUMPDEST PUSH2 0x2CBE PUSH2 0x2CB6 DUP3 PUSH2 0x2C97 JUMP JUMPDEST DUP5 DUP5 SLOAD PUSH2 0x2C19 JUMP JUMPDEST DUP3 SSTORE POP POP POP POP JUMP JUMPDEST PUSH1 0x0 SWAP1 JUMP JUMPDEST PUSH2 0x2CD3 PUSH2 0x2CC6 JUMP JUMPDEST PUSH2 0x2CDE DUP2 DUP5 DUP5 PUSH2 0x2CA1 JUMP JUMPDEST POP POP POP JUMP JUMPDEST JUMPDEST DUP2 DUP2 LT ISZERO PUSH2 0x2D02 JUMPI PUSH2 0x2CF7 PUSH1 0x0 DUP3 PUSH2 0x2CCB JUMP JUMPDEST PUSH1 0x1 DUP2 ADD SWAP1 POP PUSH2 0x2CE4 JUMP JUMPDEST POP POP JUMP JUMPDEST PUSH1 0x1F DUP3 GT ISZERO PUSH2 0x2D47 JUMPI PUSH2 0x2D18 DUP2 PUSH2 0x2BE7 JUMP JUMPDEST PUSH2 0x2D21 DUP5 PUSH2 0x2BFC JUMP JUMPDEST DUP2 ADD PUSH1 0x20 DUP6 LT ISZERO PUSH2 0x2D30 JUMPI DUP2 SWAP1 POP JUMPDEST PUSH2 0x2D44 PUSH2 0x2D3C DUP6 PUSH2 0x2BFC JUMP JUMPDEST DUP4 ADD DUP3 PUSH2 0x2CE3 JUMP JUMPDEST POP POP JUMPDEST POP POP POP JUMP JUMPDEST PUSH1 0x0 DUP3 DUP3 SHR SWAP1 POP SWAP3 SWAP2 POP POP JUMP JUMPDEST PUSH1 0x0 PUSH2 0x2D6A PUSH1 0x0 NOT DUP5 PUSH1 0x8 MUL PUSH2 0x2D4C JUMP JUMPDEST NOT DUP1 DUP4 AND SWAP2 POP POP SWAP3 SWAP2 POP POP JUMP JUMPDEST PUSH1 0x0 PUSH2 0x2D83 DUP4 DUP4 PUSH2 0x2D59 JUMP JUMPDEST SWAP2 POP DUP3 PUSH1 0x2 MUL DUP3 OR SWAP1 POP SWAP3 SWAP2 POP POP JUMP JUMPDEST PUSH2 0x2D9C DUP3 PUSH2 0x28EF JUMP JUMPDEST PUSH8 0xFFFFFFFFFFFFFFFF DUP2 GT ISZERO PUSH2 0x2DB5 JUMPI PUSH2 0x2DB4 PUSH2 0x2450 JUMP JUMPDEST JUMPDEST PUSH2 0x2DBF DUP3 SLOAD PUSH2 0x2BB6 JUMP JUMPDEST PUSH2 0x2DCA DUP3 DUP3 DUP6 PUSH2 0x2D06 JUMP JUMPDEST PUSH1 0x0 PUSH1 0x20 SWAP1 POP PUSH1 0x1F DUP4 GT PUSH1 0x1 DUP2 EQ PUSH2 0x2DFD JUMPI PUSH1 0x0 DUP5 ISZERO PUSH2 0x2DEB JUMPI DUP3 DUP8 ADD MLOAD SWAP1 POP JUMPDEST PUSH2 0x2DF5 DUP6 DUP3 PUSH2 0x2D77 JUMP JUMPDEST DUP7 SSTORE POP PUSH2 0x2E5D JUMP JUMPDEST PUSH1 0x1F NOT DUP5 AND PUSH2 0x2E0B DUP7 PUSH2 0x2BE7 JUMP JUMPDEST PUSH1 0x0 JUMPDEST DUP3 DUP2 LT ISZERO PUSH2 0x2E33 JUMPI DUP5 DUP10 ADD MLOAD DUP3 SSTORE PUSH1 0x1 DUP3 ADD SWAP2 POP PUSH1 0x20 DUP6 ADD SWAP5 POP PUSH1 0x20 DUP2 ADD SWAP1 POP PUSH2 0x2E0E JUMP JUMPDEST DUP7 DUP4 LT ISZERO PUSH2 0x2E50 JUMPI DUP5 DUP10 ADD MLOAD PUSH2 0x2E4C PUSH1 0x1F DUP10 AND DUP3 PUSH2 0x2D59 JUMP JUMPDEST DUP4 SSTORE POP JUMPDEST PUSH1 0x1 PUSH1 0x2 DUP9 MUL ADD DUP9 SSTORE POP POP POP JUMPDEST POP POP POP POP POP POP JUMP JUMPDEST PUSH1 0x0 PUSH2 0x2E70 DUP3 PUSH2 0x2395 JUMP JUMPDEST SWAP2 POP PUSH2 0x2E7B DUP4 PUSH2 0x2395 JUMP JUMPDEST SWAP3 POP DUP3 DUP3 SUB SWAP1 POP DUP2 DUP2 GT ISZERO PUSH2 0x2E93 JUMPI PUSH2 0x2E92 PUSH2 0x2AE2 JUMP JUMPDEST JUMPDEST SWAP3 SWAP2 POP POP JUMP JUMPDEST PUSH1 0x0 PUSH1 0x80 DUP3 ADD SWAP1 POP PUSH2 0x2EAE PUSH1 0x0 DUP4 ADD DUP8 PUSH2 0x240B JUMP JUMPDEST DUP2 DUP2 SUB PUSH1 0x20 DUP4 ADD MSTORE PUSH2 0x2EC0 DUP2 DUP7 PUSH2 0x2935 JUMP JUMPDEST SWAP1 POP PUSH2 0x2ECF PUSH1 0x40 DUP4 ADD DUP6 PUSH2 0x240B JUMP JUMPDEST PUSH2 0x2EDC PUSH1 0x60 DUP4 ADD DUP5 PUSH2 0x240B JUMP JUMPDEST SWAP6 SWAP5 POP POP POP POP POP JUMP JUMPDEST PUSH1 0x0 DUP2 SWAP1 POP SWAP3 SWAP2 POP POP JUMP JUMPDEST POP JUMP JUMPDEST PUSH1 0x0 PUSH2 0x2F00 PUSH1 0x0 DUP4 PUSH2 0x2EE5 JUMP JUMPDEST SWAP2 POP PUSH2 0x2F0B DUP3 PUSH2 0x2EF0 JUMP JUMPDEST PUSH1 0x0 DUP3 ADD SWAP1 POP SWAP2 SWAP1 POP JUMP JUMPDEST PUSH1 0x0 PUSH2 0x2F21 DUP3 PUSH2 0x2EF3 JUMP JUMPDEST SWAP2 POP DUP2 SWAP1 POP SWAP2 SWAP1 POP JUMP JUMPDEST PUSH32 0x4353413A20456C2072657469726F2066616C6C6F000000000000000000000000 PUSH1 0x0 DUP3 ADD MSTORE POP JUMP JUMPDEST PUSH1 0x0 PUSH2 0x2F61 PUSH1 0x14 DUP4 PUSH2 0x28FA JUMP JUMPDEST SWAP2 POP PUSH2 0x2F6C DUP3 PUSH2 0x2F2B JUMP JUMPDEST PUSH1 0x20 DUP3 ADD SWAP1 POP SWAP2 SWAP1 POP JUMP JUMPDEST PUSH1 0x0 PUSH1 0x20 DUP3 ADD SWAP1 POP DUP2 DUP2 SUB PUSH1 0x0 DUP4 ADD MSTORE PUSH2 0x2F90 DUP2 PUSH2 0x2F54 JUMP JUMPDEST SWAP1 POP SWAP2 SWAP1 POP JUMP JUMPDEST PUSH32 0x4353413A204E6F206861792074656D706F726164617320637265616461730000 PUSH1 0x0 DUP3 ADD MSTORE POP JUMP JUMPDEST PUSH1 0x0 PUSH2 0x2FCD PUSH1 0x1E DUP4 PUSH2 0x28FA JUMP JUMPDEST SWAP2 POP PUSH2 0x2FD8 DUP3 PUSH2 0x2F97 JUMP JUMPDEST PUSH1 0x20 DUP3 ADD SWAP1 POP SWAP2 SWAP1 POP JUMP JUMPDEST PUSH1 0x0 PUSH1 0x20 DUP3 ADD SWAP1 POP DUP2 DUP2 SUB PUSH1 0x0 DUP4 ADD MSTORE PUSH2 0x2FFC DUP2 PUSH2 0x2FC0 JUMP JUMPDEST SWAP1 POP SWAP2 SWAP1 POP JUMP JUMPDEST PUSH32 0x4E487B7100000000000000000000000000000000000000000000000000000000 PUSH1 0x0 MSTORE PUSH1 0x32 PUSH1 0x4 MSTORE PUSH1 0x24 PUSH1 0x0 REVERT JUMPDEST PUSH32 0x4353413A204C61732076656E74617320657374616E2063657272616461730000 PUSH1 0x0 DUP3 ADD MSTORE POP JUMP JUMPDEST PUSH1 0x0 PUSH2 0x3068 PUSH1 0x1E DUP4 PUSH2 0x28FA JUMP JUMPDEST SWAP2 POP PUSH2 0x3073 DUP3 PUSH2 0x3032 JUMP JUMPDEST PUSH1 0x20 DUP3 ADD SWAP1 POP SWAP2 SWAP1 POP JUMP JUMPDEST PUSH1 0x0 PUSH1 0x20 DUP3 ADD SWAP1 POP DUP2 DUP2 SUB PUSH1 0x0 DUP4 ADD MSTORE PUSH2 0x3097 DUP2 PUSH2 0x305B JUMP JUMPDEST SWAP1 POP SWAP2 SWAP1 POP JUMP JUMPDEST PUSH32 0x4353413A20546F646173206C61732070617274696369706163696F6E65732076 PUSH1 0x0 DUP3 ADD MSTORE PUSH32 0x656E646964617300000000000000000000000000000000000000000000000000 PUSH1 0x20 DUP3 ADD MSTORE POP JUMP JUMPDEST PUSH1 0x0 PUSH2 0x30FA PUSH1 0x27 DUP4 PUSH2 0x28FA JUMP JUMPDEST SWAP2 POP PUSH2 0x3105 DUP3 PUSH2 0x309E JUMP JUMPDEST PUSH1 0x40 DUP3 ADD SWAP1 POP SWAP2 SWAP1 POP JUMP JUMPDEST PUSH1 0x0 PUSH1 0x20 DUP3 ADD SWAP1 POP DUP2 DUP2 SUB PUSH1 0x0 DUP4 ADD MSTORE PUSH2 0x3129 DUP2 PUSH2 0x30ED JUMP JUMPDEST SWAP1 POP SWAP2 SWAP1 POP JUMP JUMPDEST PUSH32 0x4353413A204D6F6E746F20656E766961646F20696E636F72726563746F000000 PUSH1 0x0 DUP3 ADD MSTORE POP JUMP JUMPDEST PUSH1 0x0 PUSH2 0x3166 PUSH1 0x1D DUP4 PUSH2 0x28FA JUMP JUMPDEST SWAP2 POP PUSH2 0x3171 DUP3 PUSH2 0x3130 JUMP JUMPDEST PUSH1 0x20 DUP3 ADD SWAP1 POP SWAP2 SWAP1 POP JUMP JUMPDEST PUSH1 0x0 PUSH1 0x20 DUP3 ADD SWAP1 POP DUP2 DUP2 SUB PUSH1 0x0 DUP4 ADD MSTORE PUSH2 0x3195 DUP2 PUSH2 0x3159 JUMP JUMPDEST SWAP1 POP SWAP2 SWAP1 POP JUMP JUMPDEST PUSH1 0x0 PUSH2 0x31A7 DUP3 PUSH2 0x2395 JUMP JUMPDEST SWAP2 POP PUSH32 0xFFFFFFFFFFFFFFFFFFFFFFFFFFFFFFFFFFFFFFFFFFFFFFFFFFFFFFFFFFFFFFFF DUP3 SUB PUSH2 0x31D9 JUMPI PUSH2 0x31D8 PUSH2 0x2AE2 JUMP JUMPDEST JUMPDEST PUSH1 0x1 DUP3 ADD SWAP1 POP SWAP2 SWAP1 POP JUMP JUMPDEST PUSH1 0x0 DUP2 SWAP1 POP SWAP2 SWAP1 POP JUMP JUMPDEST PUSH1 0x0 PUSH2 0x3209 PUSH2 0x3204 PUSH2 0x31FF DUP5 PUSH2 0x31E4 JUMP JUMPDEST PUSH2 0x2C6B JUMP JUMPDEST PUSH2 0x2395 JUMP JUMPDEST SWAP1 POP SWAP2 SWAP1 POP JUMP JUMPDEST PUSH2 0x3219 DUP2 PUSH2 0x31EE JUMP JUMPDEST DUP3 MSTORE POP POP JUMP JUMPDEST PUSH1 0x0 PUSH1 0x60 DUP3 ADD SWAP1 POP PUSH2 0x3234 PUSH1 0x0 DUP4 ADD DUP7 PUSH2 0x240B JUMP JUMPDEST PUSH2 0x3241 PUSH1 0x20 DUP4 ADD DUP6 PUSH2 0x26B4 JUMP JUMPDEST PUSH2 0x324E PUSH1 0x40 DUP4 ADD DUP5 PUSH2 0x3210 JUMP JUMPDEST SWAP5 SWAP4 POP POP POP POP JUMP JUMPDEST PUSH32 0x4353413A2049442064652074656D706F7261646120696E76616C69646F000000 PUSH1 0x0 DUP3 ADD MSTORE POP JUMP JUMPDEST PUSH1 0x0 PUSH2 0x328C PUSH1 0x1D DUP4 PUSH2 0x28FA JUMP JUMPDEST SWAP2 POP PUSH2 0x3297 DUP3 PUSH2 0x3256 JUMP JUMPDEST PUSH1 0x20 DUP3 ADD SWAP1 POP SWAP2 SWAP1 POP JUMP JUMPDEST PUSH1 0x0 PUSH1 0x20 DUP3 ADD SWAP1 POP DUP2 DUP2 SUB PUSH1 0x0 DUP4 ADD MSTORE PUSH2 0x32BB DUP2 PUSH2 0x327F JUMP JUMPDEST SWAP1 POP SWAP2 SWAP1 POP JUMP JUMPDEST PUSH32 0x4353413A204E6F2065726573206D69656D62726F20646520657374612074656D PUSH1 0x0 DUP3 ADD MSTORE PUSH32 0x706F726164610000000000000000000000000000000000000000000000000000 PUSH1 0x20 DUP3 ADD MSTORE POP JUMP JUMPDEST PUSH1 0x0 PUSH2 0x331E PUSH1 0x26 DUP4 PUSH2 0x28FA JUMP JUMPDEST SWAP2 POP PUSH2 0x3329 DUP3 PUSH2 0x32C2 JUMP JUMPDEST PUSH1 0x40 DUP3 ADD SWAP1 POP SWAP2 SWAP1 POP JUMP JUMPDEST PUSH1 0x0 PUSH1 0x20 DUP3 ADD SWAP1 POP DUP2 DUP2 SUB PUSH1 0x0 DUP4 ADD MSTORE PUSH2 0x334D DUP2 PUSH2 0x3311 JUMP JUMPDEST SWAP1 POP SWAP2 SWAP1 POP JUMP JUMPDEST PUSH32 0x4353413A2046756572612064656C20706572696F646F206465206C612074656D PUSH1 0x0 DUP3 ADD MSTORE PUSH32 0x706F726164610000000000000000000000000000000000000000000000000000 PUSH1 0x20 DUP3 ADD MSTORE POP JUMP JUMPDEST PUSH1 0x0 PUSH2 0x33B0 PUSH1 0x26 DUP4 PUSH2 0x28FA JUMP JUMPDEST SWAP2 POP PUSH2 0x33BB DUP3 PUSH2 0x3354 JUMP JUMPDEST PUSH1 0x40 DUP3 ADD SWAP1 POP SWAP2 SWAP1 POP JUMP JUMPDEST PUSH1 0x0 PUSH1 0x20 DUP3 ADD SWAP1 POP DUP2 DUP2 SUB PUSH1 0x0 DUP4 ADD MSTORE PUSH2 0x33DF DUP2 PUSH2 0x33A3 JUMP JUMPDEST SWAP1 POP SWAP2 SWAP1 POP JUMP JUMPDEST PUSH32 0x4E487B7100000000000000000000000000000000000000000000000000000000 PUSH1 0x0 MSTORE PUSH1 0x12 PUSH1 0x4 MSTORE PUSH1 0x24 PUSH1 0x0 REVERT JUMPDEST PUSH1 0x0 PUSH2 0x3420 DUP3 PUSH2 0x2395 JUMP JUMPDEST SWAP2 POP PUSH2 0x342B DUP4 PUSH2 0x2395 JUMP JUMPDEST SWAP3 POP DUP3 PUSH2 0x343B JUMPI PUSH2 0x343A PUSH2 0x33E6 JUMP JUMPDEST JUMPDEST DUP3 DUP3 DIV SWAP1 POP SWAP3 SWAP2 POP POP JUMP JUMPDEST PUSH32 0x4353413A204C612063616A6120646520657374612073656D616E612079612066 PUSH1 0x0 DUP3 ADD MSTORE PUSH32 0x75652063616E6A65616461000000000000000000000000000000000000000000 PUSH1 0x20 DUP3 ADD MSTORE POP JUMP JUMPDEST PUSH1 0x0 PUSH2 0x34A2 PUSH1 0x2B DUP4 PUSH2 0x28FA JUMP JUMPDEST SWAP2 POP PUSH2 0x34AD DUP3 PUSH2 0x3446 JUMP JUMPDEST PUSH1 0x40 DUP3 ADD SWAP1 POP SWAP2 SWAP1 POP JUMP JUMPDEST PUSH1 0x0 PUSH1 0x20 DUP3 ADD SWAP1 POP DUP2 DUP2 SUB PUSH1 0x0 DUP4 ADD MSTORE PUSH2 0x34D1 DUP2 PUSH2 0x3495 JUMP JUMPDEST SWAP1 POP SWAP2 SWAP1 POP JUMP JUMPDEST PUSH1 0x0 PUSH1 0x60 DUP3 ADD SWAP1 POP PUSH2 0x34ED PUSH1 0x0 DUP4 ADD DUP7 PUSH2 0x240B JUMP JUMPDEST PUSH2 0x34FA PUSH1 0x20 DUP4 ADD DUP6 PUSH2 0x26B4 JUMP JUMPDEST PUSH2 0x3507 PUSH1 0x40 DUP4 ADD DUP5 PUSH2 0x240B JUMP JUMPDEST SWAP5 SWAP4 POP POP POP POP JUMP JUMPDEST PUSH32 0x455243313135353A206E6F206175746F72697A61646F00000000000000000000 PUSH1 0x0 DUP3 ADD MSTORE POP JUMP JUMPDEST PUSH1 0x0 PUSH2 0x3545 PUSH1 0x16 DUP4 PUSH2 0x28FA JUMP JUMPDEST SWAP2 POP PUSH2 0x3550 DUP3 PUSH2 0x350F JUMP JUMPDEST PUSH1 0x20 DUP3 ADD SWAP1 POP SWAP2 SWAP1 POP JUMP JUMPDEST PUSH1 0x0 PUSH1 0x20 DUP3 ADD SWAP1 POP DUP2 DUP2 SUB PUSH1 0x0 DUP4 ADD MSTORE PUSH2 0x3574 DUP2 PUSH2 0x3538 JUMP JUMPDEST SWAP1 POP SWAP2 SWAP1 POP JUMP JUMPDEST PUSH32 0x455243313135353A206E6F207365207075656465207472616E73666572697220 PUSH1 0x0 DUP3 ADD MSTORE PUSH32 0x61206C6120646972656363696F6E206365726F00000000000000000000000000 PUSH1 0x20 DUP3 ADD MSTORE POP JUMP JUMPDEST PUSH1 0x0 PUSH2 0x35D7 PUSH1 0x33 DUP4 PUSH2 0x28FA JUMP JUMPDEST SWAP2 POP PUSH2 0x35E2 DUP3 PUSH2 0x357B JUMP JUMPDEST PUSH1 0x40 DUP3 ADD SWAP1 POP SWAP2 SWAP1 POP JUMP JUMPDEST PUSH1 0x0 PUSH1 0x20 DUP3 ADD SWAP1 POP DUP2 DUP2 SUB PUSH1 0x0 DUP4 ADD MSTORE PUSH2 0x3606 DUP2 PUSH2 0x35CA JUMP JUMPDEST SWAP1 POP SWAP2 SWAP1 POP JUMP JUMPDEST PUSH32 0x455243313135353A2062616C616E636520696E737566696369656E7465000000 PUSH1 0x0 DUP3 ADD MSTORE POP JUMP JUMPDEST PUSH1 0x0 PUSH2 0x3643 PUSH1 0x1D DUP4 PUSH2 0x28FA JUMP JUMPDEST SWAP2 POP PUSH2 0x364E DUP3 PUSH2 0x360D JUMP JUMPDEST PUSH1 0x20 DUP3 ADD SWAP1 POP SWAP2 SWAP1 POP JUMP JUMPDEST PUSH1 0x0 PUSH1 0x20 DUP3 ADD SWAP1 POP DUP2 DUP2 SUB PUSH1 0x0 DUP4 ADD MSTORE PUSH2 0x3672 DUP2 PUSH2 0x3636 JUMP JUMPDEST SWAP1 POP SWAP2 SWAP1 POP JUMP JUMPDEST PUSH1 0x0 PUSH1 0x40 DUP3 ADD SWAP1 POP PUSH2 0x368E PUSH1 0x0 DUP4 ADD DUP6 PUSH2 0x240B JUMP JUMPDEST PUSH2 0x369B PUSH1 0x20 DUP4 ADD DUP5 PUSH2 0x240B JUMP JUMPDEST SWAP4 SWAP3 POP POP POP JUMP JUMPDEST PUSH32 0x455243313135353A20736F6C6F20656C2070726F706965746172696F20707565 PUSH1 0x0 DUP3 ADD MSTORE PUSH32 0x6465207175656D61720000000000000000000000000000000000000000000000 PUSH1 0x20 DUP3 ADD MSTORE POP JUMP JUMPDEST PUSH1 0x0 PUSH2 0x36FE PUSH1 0x29 DUP4 PUSH2 0x28FA JUMP JUMPDEST SWAP2 POP PUSH2 0x3709 DUP3 PUSH2 0x36A2 JUMP JUMPDEST PUSH1 0x40 DUP3 ADD SWAP1 POP SWAP2 SWAP1 POP JUMP JUMPDEST PUSH1 0x0 PUSH1 0x20 DUP3 ADD SWAP1 POP DUP2 DUP2 SUB PUSH1 0x0 DUP4 ADD MSTORE PUSH2 0x372D DUP2 PUSH2 0x36F1 JUMP JUMPDEST SWAP1 POP SWAP2 SWAP1 POP JUMP JUMPDEST PUSH32 0x455243313135353A2062616C616E636520696E737566696369656E7465207061 PUSH1 0x0 DUP3 ADD MSTORE PUSH32 0x7261207175656D61720000000000000000000000000000000000000000000000 PUSH1 0x20 DUP3 ADD MSTORE POP JUMP JUMPDEST PUSH1 0x0 PUSH2 0x3790 PUSH1 0x29 DUP4 PUSH2 0x28FA JUMP JUMPDEST SWAP2 POP PUSH2 0x379B DUP3 PUSH2 0x3734 JUMP JUMPDEST PUSH1 0x40 DUP3 ADD SWAP1 POP SWAP2 SWAP1 POP JUMP JUMPDEST PUSH1 0x0 PUSH1 0x20 DUP3 ADD SWAP1 POP DUP2 DUP2 SUB PUSH1 0x0 DUP4 ADD MSTORE PUSH2 0x37BF DUP2 PUSH2 0x3783 JUMP JUMPDEST SWAP1 POP SWAP2 SWAP1 POP JUMP JUMPDEST PUSH32 0x455243313135353A206E6F207365207075656465206163756E61722061206C61 PUSH1 0x0 DUP3 ADD MSTORE PUSH32 0x20646972656363696F6E206365726F0000000000000000000000000000000000 PUSH1 0x20 DUP3 ADD MSTORE POP JUMP JUMPDEST PUSH1 0x0 PUSH2 0x3822 PUSH1 0x2F DUP4 PUSH2 0x28FA JUMP JUMPDEST SWAP2 POP PUSH2 0x382D DUP3 PUSH2 0x37C6 JUMP JUMPDEST PUSH1 0x40 DUP3 ADD SWAP1 POP SWAP2 SWAP1 POP JUMP JUMPDEST PUSH1 0x0 PUSH1 0x20 DUP3 ADD SWAP1 POP DUP2 DUP2 SUB PUSH1 0x0 DUP4 ADD MSTORE PUSH2 0x3851 DUP2 PUSH2 0x3815 JUMP JUMPDEST SWAP1 POP SWAP2 SWAP1 POP JUMP INVALID LOG2 PUSH5 0x6970667358 0x22 SLT KECCAK256 PUSH20 0xFE1BF23AD6BFCDD17518D002EC694293F42018FB BLOCKHASH SWAP15 SWAP2 0xA5 0xBE 0xDB MSTORE PUSH29 0x2893C064736F6C634300081C0033000000000000000000000000000000 "},"methodIdentifiers":{"balanceOf(address,uint256)":"00fdd58e","burn(address,uint256,uint256)":"f5298aca","buyMembership()":"5c581119","closeSeasonSales(uint256)":"6cc07beb","createNewSeason(string,uint256,uint256,uint256)":"3aef7c80","isApprovedForAll(address,address)":"e985e9c5","owner()":"8da5cb5b","redeemWeeklyBox(uint256)":"73afd200","safeTransferFrom(address,address,uint256,uint256,bytes)":"f242432a","seasons(uint256)":"f5d709a1","setApprovalForAll(address,bool)":"a22cb465","testMint(address,uint256,uint256)":"793e9f26","transferOwnership(address)":"f2fde38b","weeklyRedemptions(address,uint256,uint256)":"833727e8","withdraw()":"3ccfd60b"}}}}}