{"contracts/RecyclingCredits_LatinHack.sol":{"RecyclingCredits_LatinHack":{"abi":[{"inputs":[{"internalType":"address","name":"initialAdmin","type":"address"}],"stateMutability":"nonpayable","type":"constructor"},{"anonymous":false,"inputs":[{"indexed":true,"internalType":"address","name":"_owner","type":"address"},{"indexed":true,"internalType":"address","name":"_operator","type":"address"},{"indexed":false,"internalType":"bool","name":"_approved","type":"bool"}],"name":"ApprovalForAll","type":"event"},{"anonymous":false,"inputs":[{"indexed":true,"internalType":"address","name":"certifier","type":"address"}],"name":"CertifierRoleGranted","type":"event"},{"anonymous":false,"inputs":[{"indexed":true,"internalType":"address","name":"certifier","type":"address"}],"name":"CertifierRoleRevoked","type":"event"},{"anonymous":false,"inputs":[{"indexed":true,"internalType":"uint256","name":"creditId","type":"uint256"},{"indexed":true,"internalType":"address","name":"initialOwner","type":"address"},{"indexed":false,"internalType":"string","name":"materialType","type":"string"},{"indexed":false,"internalType":"uint256","name":"weightKg","type":"uint256"},{"indexed":false,"internalType":"bytes32","name":"proofHash","type":"bytes32"}],"name":"CreditBatchCertified","type":"event"},{"anonymous":false,"inputs":[{"indexed":true,"internalType":"uint256","name":"creditId","type":"uint256"},{"indexed":true,"internalType":"address","name":"retiredBy","type":"address"},{"indexed":false,"internalType":"uint256","name":"amount","type":"uint256"}],"name":"CreditsRetired","type":"event"},{"anonymous":false,"inputs":[{"indexed":true,"internalType":"address","name":"_operator","type":"address"},{"indexed":true,"internalType":"address","name":"_from","type":"address"},{"indexed":true,"internalType":"address","name":"_to","type":"address"},{"indexed":false,"internalType":"uint256","name":"_id","type":"uint256"},{"indexed":false,"internalType":"uint256","name":"_amount","type":"uint256"}],"name":"TransferSingle","type":"event"},{"inputs":[{"internalType":"address","name":"account","type":"address"},{"internalType":"uint256","name":"id","type":"uint256"}],"name":"balanceOf","outputs":[{"internalType":"uint256","name":"","type":"uint256"}],"stateMutability":"view","type":"function"},{"inputs":[{"internalType":"address","name":"from","type":"address"},{"internalType":"uint256","name":"id","type":"uint256"},{"internalType":"uint256","name":"amount","type":"uint256"}],"name":"burn","outputs":[],"stateMutability":"nonpayable","type":"function"},{"inputs":[{"internalType":"address","name":"creditOwner","type":"address"},{"internalType":"string","name":"materialType","type":"string"},{"internalType":"uint256","name":"weightKg","type":"uint256"},{"internalType":"string","name":"location","type":"string"},{"internalType":"bytes32","name":"proofHash","type":"bytes32"}],"name":"certifyAndMintBatch","outputs":[],"stateMutability":"nonpayable","type":"function"},{"inputs":[{"internalType":"uint256","name":"","type":"uint256"}],"name":"creditDetails","outputs":[{"internalType":"string","name":"materialType","type":"string"},{"internalType":"uint256","name":"totalWeightKg","type":"uint256"},{"internalType":"uint256","name":"timestamp","type":"uint256"},{"internalType":"string","name":"location","type":"string"},{"internalType":"bytes32","name":"proofHash","type":"bytes32"}],"stateMutability":"view","type":"function"},{"inputs":[{"internalType":"address","name":"certifier","type":"address"}],"name":"grantCertifierRole","outputs":[],"stateMutability":"nonpayable","type":"function"},{"inputs":[{"internalType":"address","name":"account","type":"address"},{"internalType":"address","name":"operator","type":"address"}],"name":"isApprovedForAll","outputs":[{"internalType":"bool","name":"","type":"bool"}],"stateMutability":"view","type":"function"},{"inputs":[{"internalType":"address","name":"","type":"address"}],"name":"isCertifier","outputs":[{"internalType":"bool","name":"","type":"bool"}],"stateMutability":"view","type":"function"},{"inputs":[],"name":"owner","outputs":[{"internalType":"address","name":"","type":"address"}],"stateMutability":"view","type":"function"},{"inputs":[{"internalType":"uint256","name":"creditId","type":"uint256"},{"internalType":"uint256","name":"amount","type":"uint256"}],"name":"retireCredits","outputs":[],"stateMutability":"nonpayable","type":"function"},{"inputs":[{"internalType":"address","name":"certifier","type":"address"}],"name":"revokeCertifierRole","outputs":[],"stateMutability":"nonpayable","type":"function"},{"inputs":[{"internalType":"address","name":"from","type":"address"},{"internalType":"address","name":"to","type":"address"},{"internalType":"uint256","name":"id","type":"uint256"},{"internalType":"uint256","name":"amount","type":"uint256"},{"internalType":"bytes","name":"data","type":"bytes"}],"name":"safeTransferFrom","outputs":[],"stateMutability":"nonpayable","type":"function"},{"inputs":[{"internalType":"address","name":"operator","type":"address"},{"internalType":"bool","name":"approved","type":"bool"}],"name":"setApprovalForAll","outputs":[],"stateMutability":"nonpayable","type":"function"}],"evm":{"bytecode":{"linkReferences":{},"object":"608060405234801561001057600080fd5b50604051612ac1380380612ac1833981810160405281019061003291906101fa565b61004c67bca20a6b7b5d9b1b60c01b61019460201b60201c565b61006667ed19080cbbe8795060c01b61019460201b60201c565b806000806101000a81548173ffffffffffffffffffffffffffffffffffffffff021916908373ffffffffffffffffffffffffffffffffffffffff1602179055506100c0677d2e1a41ed2e6a7660c01b61019460201b60201c565b60018060008373ffffffffffffffffffffffffffffffffffffffff1673ffffffffffffffffffffffffffffffffffffffff16815260200190815260200160002060006101000a81548160ff02191690831515021790555061013167db3a3bb84ee6afb560c01b61019460201b60201c565b61014b670d9d185609cb36f360c01b61019460201b60201c565b8073ffffffffffffffffffffffffffffffffffffffff167f563190ad7c15c57c6c8dc435ebb37bc9d0961dc3c723a33fce89a286f7ff6e8560405160405180910390a250610227565b50565b600080fd5b600073ffffffffffffffffffffffffffffffffffffffff82169050919050565b60006101c78261019c565b9050919050565b6101d7816101bc565b81146101e257600080fd5b50565b6000815190506101f4816101ce565b92915050565b6000602082840312156102105761020f610197565b5b600061021e848285016101e5565b91505092915050565b61288b806102366000396000f3fe608060405234801561001057600080fd5b50600436106100b35760003560e01c8063a22cb46511610071578063a22cb465146101a2578063cee28a59146101be578063e985e9c5146101da578063f242432a1461020a578063f5298aca14610226578063fc81028614610242576100b3565b8062fdd58e146100b85780631c2353e1146100e85780633ea0fb131461011857806385775d471461013457806386f10405146101685780638da5cb5b14610184575b600080fd5b6100d260048036038101906100cd9190611914565b61025e565b6040516100df9190611963565b60405180910390f35b61010260048036038101906100fd919061197e565b6103b4565b60405161010f91906119c6565b60405180910390f35b610132600480360381019061012d91906119e1565b6103d4565b005b61014e60048036038101906101499190611a21565b610496565b60405161015f959493929190611af7565b60405180910390f35b610182600480360381019061017d919061197e565b6105dc565b005b61018c6107f7565b6040516101999190611b67565b60405180910390f35b6101bc60048036038101906101b79190611bae565b61081b565b005b6101d860048036038101906101d39190611d4f565b610968565b005b6101f460048036038101906101ef9190611e02565b610c3c565b60405161020191906119c6565b60405180910390f35b610224600480360381019061021f9190611ee3565b610d0c565b005b610240600480360381019061023b9190611f7a565b61116c565b005b61025c6004803603810190610257919061197e565b611448565b005b6000610274677a5ff48ea38640b060c01b611664565b610288671bc31672df81e76060c01b611664565b61029c67934a4c3c98a1fb3e60c01b611664565b6102b067366f348339e9b86460c01b611664565b600073ffffffffffffffffffffffffffffffffffffffff168373ffffffffffffffffffffffffffffffffffffffff160361031f576040517f08c379a000000000000000000000000000000000000000000000000000000000815260040161031690612019565b60405180910390fd5b610333677d792138a81adc8b60c01b611664565b6103476722e3754d7783940a60c01b611664565b61035b6761b08dba3a06aeb960c01b611664565b6002600083815260200190815260200160002060008473ffffffffffffffffffffffffffffffffffffffff1673ffffffffffffffffffffffffffffffffffffffff16815260200190815260200160002054905092915050565b60016020528060005260406000206000915054906101000a900460ff1681565b6103e8675342e96673362d6060c01b611664565b6103fc67d22b672268f1e82b60c01b611664565b61041067383c43d07923fa0560c01b611664565b61041b33838361116c565b61042f67a95d3c3a6e05a53a60c01b611664565b6104436783c8fedd1bb0970f60c01b611664565b3373ffffffffffffffffffffffffffffffffffffffff16827f31995d78296d80ec997704a03d4e6295c44e8755e8117523fb44bf086c306dcb8360405161048a9190611963565b60405180910390a35050565b60046020528060005260406000206000915090508060000180546104b990612068565b80601f01602080910402602001604051908101604052809291908181526020018280546104e590612068565b80156105325780601f1061050757610100808354040283529160200191610532565b820191906000526020600020905b81548152906001019060200180831161051557829003601f168201915b50505050509080600101549080600201549080600301805461055390612068565b80601f016020809104026020016040519081016040528092919081815260200182805461057f90612068565b80156105cc5780601f106105a1576101008083540402835291602001916105cc565b820191906000526020600020905b8154815290600101906020018083116105af57829003601f168201915b5050505050908060040154905085565b6105f067ea642cdee68304b160c01b611664565b6106046717017a0f08ec771760c01b611664565b61061867f475d433e7ae12f360c01b611664565b61062c675d0c6b548ad22f9b60c01b611664565b61064067436b26ac8e904a5c60c01b611664565b3373ffffffffffffffffffffffffffffffffffffffff1660008054906101000a900473ffffffffffffffffffffffffffffffffffffffff1673ffffffffffffffffffffffffffffffffffffffff16146106ce576040517f08c379a00000000000000000000000000000000000000000000000000000000081526004016106c5906120e5565b60405180910390fd5b6106e26788579cd8658c869e60c01b611664565b6106f667a2f1be6205ccf07560c01b611664565b61070a67174235ef5045e49160c01b611664565b61071e67b3b6df78f154820060c01b611664565b61073267a7bf949db65369f060c01b611664565b60018060008373ffffffffffffffffffffffffffffffffffffffff1673ffffffffffffffffffffffffffffffffffffffff16815260200190815260200160002060006101000a81548160ff02191690831515021790555061079d67ed2748e56adeeb1b60c01b611664565b6107b167b376ead6974a33d360c01b611664565b8073ffffffffffffffffffffffffffffffffffffffff167f563190ad7c15c57c6c8dc435ebb37bc9d0961dc3c723a33fce89a286f7ff6e8560405160405180910390a250565b60008054906101000a900473ffffffffffffffffffffffffffffffffffffffff1681565b61082f673748591ede70ec9e60c01b611664565b61084367e299210c81f452f560c01b611664565b80600360003373ffffffffffffffffffffffffffffffffffffffff1673ffffffffffffffffffffffffffffffffffffffff16815260200190815260200160002060008473ffffffffffffffffffffffffffffffffffffffff1673ffffffffffffffffffffffffffffffffffffffff16815260200190815260200160002060006101000a81548160ff0219169083151502179055506108eb67d489c4ffea060e4960c01b611664565b6108ff67092579e14b322fa460c01b611664565b8173ffffffffffffffffffffffffffffffffffffffff163373ffffffffffffffffffffffffffffffffffffffff167f17307eab39ab6107e8899845ad3d59bd9653f200f220920489ca2b5937696c318360405161095c91906119c6565b60405180910390a35050565b61097c67222efd690b8c8f6360c01b611664565b6109906765cea7b04444546960c01b611664565b6109a467749696ed8b7bc06860c01b611664565b6109b867ce43e7d101daa83860c01b611664565b6109cc673a9f1fd2148687d160c01b611664565b600160003373ffffffffffffffffffffffffffffffffffffffff1673ffffffffffffffffffffffffffffffffffffffff16815260200190815260200160002060009054906101000a900460ff16610a58576040517f08c379a0000000000000000000000000000000000000000000000000000000008152600401610a4f90612151565b60405180910390fd5b610a6c674a288264aff1251c60c01b611664565b610a806771d379b0a5cc902660c01b611664565b610a9467478d9293087a9e2a60c01b611664565b610aa867b749e0703f3717a060c01b611664565b610abc6779b2cfd434fbac4660c01b611664565b610ad0672037a20397b1a15860c01b611664565b600060056000815480929190610ae5906121a0565b919050559050610aff67273cd9eb7f645d1e60c01b611664565b6040518060a0016040528086815260200185815260200142815260200184815260200183815250600460008381526020019081526020016000206000820151816000019081610b4e9190612394565b5060208201518160010155604082015181600201556060820151816003019081610b789190612394565b5060808201518160040155905050610b9a67123fe5177c9aaf1e60c01b611664565b610bae673af36ebba54cd1ef60c01b611664565b610bb9868286611667565b610bcd678c3e4d00885d602260c01b611664565b610be167755ee489329faf1d60c01b611664565b8573ffffffffffffffffffffffffffffffffffffffff16817f8ec385d563e2165d797a727cd7443d3ccb850407cf1f8b2b5bba3842a0ebc68e878786604051610c2c93929190612466565b60405180910390a3505050505050565b6000610c5267bff712e53f6fb1d760c01b611664565b610c66671a914197e65e998760c01b611664565b610c7a677b9dd265a909dda960c01b611664565b600360008473ffffffffffffffffffffffffffffffffffffffff1673ffffffffffffffffffffffffffffffffffffffff16815260200190815260200160002060008373ffffffffffffffffffffffffffffffffffffffff1673ffffffffffffffffffffffffffffffffffffffff16815260200190815260200160002060009054906101000a900460ff16905092915050565b610d20678a0e5e9ad3199db460c01b611664565b610d3467048732632905cb3860c01b611664565b610d4867a18390537bbcc0d760c01b611664565b610d5c678e934b9baeaa889560c01b611664565b3373ffffffffffffffffffffffffffffffffffffffff168573ffffffffffffffffffffffffffffffffffffffff16148015610da75750610da66707f5e0ae850d007060c01b611861565b5b80610dd45750610db78533610c3c565b8015610dd35750610dd26763022b07a886c82360c01b611861565b5b5b610e13576040517f08c379a0000000000000000000000000000000000000000000000000000000008152600401610e0a906124f0565b60405180910390fd5b610e2767ac1167f4f3933e2760c01b611664565b610e3b67623f5389b24bc9ff60c01b611664565b610e4f6743e861575198d40e60c01b611664565b610e63677c1d5ea3c587510160c01b611664565b600073ffffffffffffffffffffffffffffffffffffffff168473ffffffffffffffffffffffffffffffffffffffff1603610ed2576040517f08c379a0000000000000000000000000000000000000000000000000000000008152600401610ec990612582565b60405180910390fd5b610ee6670f093b0ae7d9c48860c01b611664565b610efa67c4daca50f2f7e94760c01b611664565b610f0e67c3bc7b3ec714c9de60c01b611664565b610f22674aea7ea990ee044960c01b611664565b816002600085815260200190815260200160002060008773ffffffffffffffffffffffffffffffffffffffff1673ffffffffffffffffffffffffffffffffffffffff168152602001908152602001600020541015610fb5576040517f08c379a0000000000000000000000000000000000000000000000000000000008152600401610fac906125ee565b60405180910390fd5b610fc9670f52c9cdf15c500360c01b611664565b610fdd679df5885f899aa6c860c01b611664565b816002600085815260200190815260200160002060008773ffffffffffffffffffffffffffffffffffffffff1673ffffffffffffffffffffffffffffffffffffffff168152602001908152602001600020600082825461103d919061260e565b92505081905550611058674beb4b357461d6dc60c01b611664565b816002600085815260200190815260200160002060008673ffffffffffffffffffffffffffffffffffffffff1673ffffffffffffffffffffffffffffffffffffffff16815260200190815260200160002060008282546110b89190612642565b925050819055506110d367d070a87a0c14b70f60c01b611664565b6110e767b2d0cf3adb0dc4b260c01b611664565b8373ffffffffffffffffffffffffffffffffffffffff168573ffffffffffffffffffffffffffffffffffffffff163373ffffffffffffffffffffffffffffffffffffffff167fc3d58168c5ae7397731d063d5bbf3d657854427343f4c083240f7aacaa2d0f62868660405161115d929190612676565b60405180910390a45050505050565b61118067b0ae284cda60b0dd60c01b611664565b6111946777e37ec9f0e59eae60c01b611664565b6111a867021a51cd108c50b260c01b611664565b6111bc676646c3272b27de9460c01b611664565b3373ffffffffffffffffffffffffffffffffffffffff168373ffffffffffffffffffffffffffffffffffffffff161461122a576040517f08c379a000000000000000000000000000000000000000000000000000000000815260040161122190612711565b60405180910390fd5b61123e675ee215689ef83c4360c01b611664565b61125267e8aa4394dd04676d60c01b611664565b6112666791a6a9f2afa7235960c01b611664565b61127a676fd991e98df68ce660c01b611664565b806002600084815260200190815260200160002060008573ffffffffffffffffffffffffffffffffffffffff1673ffffffffffffffffffffffffffffffffffffffff16815260200190815260200160002054101561130d576040517f08c379a0000000000000000000000000000000000000000000000000000000008152600401611304906127a3565b60405180910390fd5b6113216741d044a72ad758cd60c01b611664565b61133567a6718a1dd2db426360c01b611664565b806002600084815260200190815260200160002060008573ffffffffffffffffffffffffffffffffffffffff1673ffffffffffffffffffffffffffffffffffffffff1681526020019081526020016000206000828254611395919061260e565b925050819055506113b0675b8da145c91a038860c01b611664565b6113c46711c324b11551305560c01b611664565b600073ffffffffffffffffffffffffffffffffffffffff168373ffffffffffffffffffffffffffffffffffffffff163373ffffffffffffffffffffffffffffffffffffffff167fc3d58168c5ae7397731d063d5bbf3d657854427343f4c083240f7aacaa2d0f62858560405161143b929190612676565b60405180910390a4505050565b61145c673ed183bdd1b1514960c01b611664565b6114706717017a0f08ec771760c01b611664565b61148467f475d433e7ae12f360c01b611664565b611498675d0c6b548ad22f9b60c01b611664565b6114ac67436b26ac8e904a5c60c01b611664565b3373ffffffffffffffffffffffffffffffffffffffff1660008054906101000a900473ffffffffffffffffffffffffffffffffffffffff1673ffffffffffffffffffffffffffffffffffffffff161461153a576040517f08c379a0000000000000000000000000000000000000000000000000000000008152600401611531906120e5565b60405180910390fd5b61154e6788579cd8658c869e60c01b611664565b61156267a2f1be6205ccf07560c01b611664565b611576678b988d62de61fc9560c01b611664565b61158a67c30c1269c5a3cb4560c01b611664565b61159e67ec4fe1edd397805160c01b611664565b6000600160008373ffffffffffffffffffffffffffffffffffffffff1673ffffffffffffffffffffffffffffffffffffffff16815260200190815260200160002060006101000a81548160ff02191690831515021790555061160a67b343693bc5db7d4e60c01b611664565b61161e6705b3c4ae8cc402ad60c01b611664565b8073ffffffffffffffffffffffffffffffffffffffff167f33eb6310a00162d25f84366e7eb4ed91841604c766707cad80b3b7ec54b1120f60405160405180910390a250565b50565b61167b6711fb259b4ddc768360c01b611664565b61168f671fb0973bfdb9adff60c01b611664565b6116a367c6864a8b681617bb60c01b611664565b6116b767d4f9c36ae0fad77260c01b611664565b600073ffffffffffffffffffffffffffffffffffffffff168373ffffffffffffffffffffffffffffffffffffffff1603611726576040517f08c379a000000000000000000000000000000000000000000000000000000000815260040161171d90612835565b60405180910390fd5b61173a670fcb6e2f60263b3560c01b611664565b61174e67c36b3af17401775760c01b611664565b806002600084815260200190815260200160002060008573ffffffffffffffffffffffffffffffffffffffff1673ffffffffffffffffffffffffffffffffffffffff16815260200190815260200160002060008282546117ae9190612642565b925050819055506117c967500cb61633b858b460c01b611664565b6117dd679f3d737cc58e81c660c01b611664565b8273ffffffffffffffffffffffffffffffffffffffff16600073ffffffffffffffffffffffffffffffffffffffff163373ffffffffffffffffffffffffffffffffffffffff167fc3d58168c5ae7397731d063d5bbf3d657854427343f4c083240f7aacaa2d0f628585604051611854929190612676565b60405180910390a4505050565b600060019050919050565b6000604051905090565b600080fd5b600080fd5b600073ffffffffffffffffffffffffffffffffffffffff82169050919050565b60006118ab82611880565b9050919050565b6118bb816118a0565b81146118c657600080fd5b50565b6000813590506118d8816118b2565b92915050565b6000819050919050565b6118f1816118de565b81146118fc57600080fd5b50565b60008135905061190e816118e8565b92915050565b6000806040838503121561192b5761192a611876565b5b6000611939858286016118c9565b925050602061194a858286016118ff565b9150509250929050565b61195d816118de565b82525050565b60006020820190506119786000830184611954565b92915050565b60006020828403121561199457611993611876565b5b60006119a2848285016118c9565b91505092915050565b60008115159050919050565b6119c0816119ab565b82525050565b60006020820190506119db60008301846119b7565b92915050565b600080604083850312156119f8576119f7611876565b5b6000611a06858286016118ff565b9250506020611a17858286016118ff565b9150509250929050565b600060208284031215611a3757611a36611876565b5b6000611a45848285016118ff565b91505092915050565b600081519050919050565b600082825260208201905092915050565b60005b83811015611a88578082015181840152602081019050611a6d565b60008484015250505050565b6000601f19601f8301169050919050565b6000611ab082611a4e565b611aba8185611a59565b9350611aca818560208601611a6a565b611ad381611a94565b840191505092915050565b6000819050919050565b611af181611ade565b82525050565b600060a0820190508181036000830152611b118188611aa5565b9050611b206020830187611954565b611b2d6040830186611954565b8181036060830152611b3f8185611aa5565b9050611b4e6080830184611ae8565b9695505050505050565b611b61816118a0565b82525050565b6000602082019050611b7c6000830184611b58565b92915050565b611b8b816119ab565b8114611b9657600080fd5b50565b600081359050611ba881611b82565b92915050565b60008060408385031215611bc557611bc4611876565b5b6000611bd3858286016118c9565b9250506020611be485828601611b99565b9150509250929050565b600080fd5b600080fd5b7f4e487b7100000000000000000000000000000000000000000000000000000000600052604160045260246000fd5b611c3082611a94565b810181811067ffffffffffffffff82111715611c4f57611c4e611bf8565b5b80604052505050565b6000611c6261186c565b9050611c6e8282611c27565b919050565b600067ffffffffffffffff821115611c8e57611c8d611bf8565b5b611c9782611a94565b9050602081019050919050565b82818337600083830152505050565b6000611cc6611cc184611c73565b611c58565b905082815260208101848484011115611ce257611ce1611bf3565b5b611ced848285611ca4565b509392505050565b600082601f830112611d0a57611d09611bee565b5b8135611d1a848260208601611cb3565b91505092915050565b611d2c81611ade565b8114611d3757600080fd5b50565b600081359050611d4981611d23565b92915050565b600080600080600060a08688031215611d6b57611d6a611876565b5b6000611d79888289016118c9565b955050602086013567ffffffffffffffff811115611d9a57611d9961187b565b5b611da688828901611cf5565b9450506040611db7888289016118ff565b935050606086013567ffffffffffffffff811115611dd857611dd761187b565b5b611de488828901611cf5565b9250506080611df588828901611d3a565b9150509295509295909350565b60008060408385031215611e1957611e18611876565b5b6000611e27858286016118c9565b9250506020611e38858286016118c9565b9150509250929050565b600067ffffffffffffffff821115611e5d57611e5c611bf8565b5b611e6682611a94565b9050602081019050919050565b6000611e86611e8184611e42565b611c58565b905082815260208101848484011115611ea257611ea1611bf3565b5b611ead848285611ca4565b509392505050565b600082601f830112611eca57611ec9611bee565b5b8135611eda848260208601611e73565b91505092915050565b600080600080600060a08688031215611eff57611efe611876565b5b6000611f0d888289016118c9565b9550506020611f1e888289016118c9565b9450506040611f2f888289016118ff565b9350506060611f40888289016118ff565b925050608086013567ffffffffffffffff811115611f6157611f6061187b565b5b611f6d88828901611eb5565b9150509295509295909350565b600080600060608486031215611f9357611f92611876565b5b6000611fa1868287016118c9565b9350506020611fb2868287016118ff565b9250506040611fc3868287016118ff565b9150509250925092565b7f455243313135353a20646972656363696f6e20696e76616c6964610000000000600082015250565b6000612003601b83611a59565b915061200e82611fcd565b602082019050919050565b6000602082019050818103600083015261203281611ff6565b9050919050565b7f4e487b7100000000000000000000000000000000000000000000000000000000600052602260045260246000fd5b6000600282049050600182168061208057607f821691505b60208210810361209357612092612039565b5b50919050565b7f43616c6c6572206973206e6f7420746865206f776e6572000000000000000000600082015250565b60006120cf601783611a59565b91506120da82612099565b602082019050919050565b600060208201905081810360008301526120fe816120c2565b9050919050565b7f43616c6c6572206973206e6f7420612063657274696669657200000000000000600082015250565b600061213b601983611a59565b915061214682612105565b602082019050919050565b6000602082019050818103600083015261216a8161212e565b9050919050565b7f4e487b7100000000000000000000000000000000000000000000000000000000600052601160045260246000fd5b60006121ab826118de565b91507fffffffffffffffffffffffffffffffffffffffffffffffffffffffffffffffff82036121dd576121dc612171565b5b600182019050919050565b60008190508160005260206000209050919050565b60006020601f8301049050919050565b600082821b905092915050565b60006008830261224a7fffffffffffffffffffffffffffffffffffffffffffffffffffffffffffffffff8261220d565b612254868361220d565b95508019841693508086168417925050509392505050565b6000819050919050565b600061229161228c612287846118de565b61226c565b6118de565b9050919050565b6000819050919050565b6122ab83612276565b6122bf6122b782612298565b84845461221a565b825550505050565b600090565b6122d46122c7565b6122df8184846122a2565b505050565b5b81811015612303576122f86000826122cc565b6001810190506122e5565b5050565b601f82111561234857612319816121e8565b612322846121fd565b81016020851015612331578190505b61234561233d856121fd565b8301826122e4565b50505b505050565b600082821c905092915050565b600061236b6000198460080261234d565b1980831691505092915050565b6000612384838361235a565b9150826002028217905092915050565b61239d82611a4e565b67ffffffffffffffff8111156123b6576123b5611bf8565b5b6123c08254612068565b6123cb828285612307565b600060209050601f8311600181146123fe57600084156123ec578287015190505b6123f68582612378565b86555061245e565b601f19841661240c866121e8565b60005b828110156124345784890151825560018201915060208501945060208101905061240f565b86831015612451578489015161244d601f89168261235a565b8355505b6001600288020188555050505b505050505050565b600060608201905081810360008301526124808186611aa5565b905061248f6020830185611954565b61249c6040830184611ae8565b949350505050565b7f455243313135353a206e6f206175746f72697a61646f00000000000000000000600082015250565b60006124da601683611a59565b91506124e5826124a4565b602082019050919050565b60006020820190508181036000830152612509816124cd565b9050919050565b7f455243313135353a206e6f207365207075656465207472616e7366657269722060008201527f61206c6120646972656363696f6e206365726f00000000000000000000000000602082015250565b600061256c603383611a59565b915061257782612510565b604082019050919050565b6000602082019050818103600083015261259b8161255f565b9050919050565b7f455243313135353a2062616c616e636520696e737566696369656e7465000000600082015250565b60006125d8601d83611a59565b91506125e3826125a2565b602082019050919050565b60006020820190508181036000830152612607816125cb565b9050919050565b6000612619826118de565b9150612624836118de565b925082820390508181111561263c5761263b612171565b5b92915050565b600061264d826118de565b9150612658836118de565b92508282019050808211156126705761266f612171565b5b92915050565b600060408201905061268b6000830185611954565b6126986020830184611954565b9392505050565b7f455243313135353a20736f6c6f20656c2070726f706965746172696f2070756560008201527f6465207175656d61722073757320746f6b656e73000000000000000000000000602082015250565b60006126fb603483611a59565b91506127068261269f565b604082019050919050565b6000602082019050818103600083015261272a816126ee565b9050919050565b7f455243313135353a2062616c616e636520696e737566696369656e746520706160008201527f7261207175656d61720000000000000000000000000000000000000000000000602082015250565b600061278d602983611a59565b915061279882612731565b604082019050919050565b600060208201905081810360008301526127bc81612780565b9050919050565b7f455243313135353a206e6f207365207075656465206163756e61722061206c6160008201527f20646972656363696f6e206365726f0000000000000000000000000000000000602082015250565b600061281f602f83611a59565b915061282a826127c3565b604082019050919050565b6000602082019050818103600083015261284e81612812565b905091905056fea26469706673582212205cc0c1e5655c4435234a19c7566d8f490029f0ca0cc677acfc43a0b64d5d511464736f6c634300081c0033","opcodes":"PUSH1 0x80 PUSH1 0x40 MSTORE CALLVALUE DUP1 ISZERO PUSH2 0x10 JUMPI PUSH1 0x0 DUP1 REVERT JUMPDEST POP PUSH1 0x40 MLOAD PUSH2 0x2AC1 CODESIZE SUB DUP1 PUSH2 0x2AC1 DUP4 CODECOPY DUP2 DUP2 ADD PUSH1 0x40 MSTORE DUP2 ADD SWAP1 PUSH2 0x32 SWAP2 SWAP1 PUSH2 0x1FA JUMP JUMPDEST PUSH2 0x4C PUSH8 0xBCA20A6B7B5D9B1B PUSH1 0xC0 SHL PUSH2 0x194 PUSH1 0x20 SHL PUSH1 0x20 SHR JUMP JUMPDEST PUSH2 0x66 PUSH8 0xED19080CBBE87950 PUSH1 0xC0 SHL PUSH2 0x194 PUSH1 0x20 SHL PUSH1 0x20 SHR JUMP JUMPDEST DUP1 PUSH1 0x0 DUP1 PUSH2 0x100 EXP DUP2 SLOAD DUP2 PUSH20 0xFFFFFFFFFFFFFFFFFFFFFFFFFFFFFFFFFFFFFFFF MUL NOT AND SWAP1 DUP4 PUSH20 0xFFFFFFFFFFFFFFFFFFFFFFFFFFFFFFFFFFFFFFFF AND MUL OR SWAP1 SSTORE POP PUSH2 0xC0 PUSH8 0x7D2E1A41ED2E6A76 PUSH1 0xC0 SHL PUSH2 0x194 PUSH1 0x20 SHL PUSH1 0x20 SHR JUMP JUMPDEST PUSH1 0x1 DUP1 PUSH1 0x0 DUP4 PUSH20 0xFFFFFFFFFFFFFFFFFFFFFFFFFFFFFFFFFFFFFFFF AND PUSH20 0xFFFFFFFFFFFFFFFFFFFFFFFFFFFFFFFFFFFFFFFF AND DUP2 MSTORE PUSH1 0x20 ADD SWAP1 DUP2 MSTORE PUSH1 0x20 ADD PUSH1 0x0 KECCAK256 PUSH1 0x0 PUSH2 0x100 EXP DUP2 SLOAD DUP2 PUSH1 0xFF MUL NOT AND SWAP1 DUP4 ISZERO ISZERO MUL OR SWAP1 SSTORE POP PUSH2 0x131 PUSH8 0xDB3A3BB84EE6AFB5 PUSH1 0xC0 SHL PUSH2 0x194 PUSH1 0x20 SHL PUSH1 0x20 SHR JUMP JUMPDEST PUSH2 0x14B PUSH8 0xD9D185609CB36F3 PUSH1 0xC0 SHL PUSH2 0x194 PUSH1 0x20 SHL PUSH1 0x20 SHR JUMP JUMPDEST DUP1 PUSH20 0xFFFFFFFFFFFFFFFFFFFFFFFFFFFFFFFFFFFFFFFF AND PUSH32 0x563190AD7C15C57C6C8DC435EBB37BC9D0961DC3C723A33FCE89A286F7FF6E85 PUSH1 0x40 MLOAD PUSH1 0x40 MLOAD DUP1 SWAP2 SUB SWAP1 LOG2 POP PUSH2 0x227 JUMP JUMPDEST POP JUMP JUMPDEST PUSH1 0x0 DUP1 REVERT JUMPDEST PUSH1 0x0 PUSH20 0xFFFFFFFFFFFFFFFFFFFFFFFFFFFFFFFFFFFFFFFF DUP3 AND SWAP1 POP SWAP2 SWAP1 POP JUMP JUMPDEST PUSH1 0x0 PUSH2 0x1C7 DUP3 PUSH2 0x19C JUMP JUMPDEST SWAP1 POP SWAP2 SWAP1 POP JUMP JUMPDEST PUSH2 0x1D7 DUP2 PUSH2 0x1BC JUMP JUMPDEST DUP2 EQ PUSH2 0x1E2 JUMPI PUSH1 0x0 DUP1 REVERT JUMPDEST POP JUMP JUMPDEST PUSH1 0x0 DUP2 MLOAD SWAP1 POP PUSH2 0x1F4 DUP2 PUSH2 0x1CE JUMP JUMPDEST SWAP3 SWAP2 POP POP JUMP JUMPDEST PUSH1 0x0 PUSH1 0x20 DUP3 DUP5 SUB SLT ISZERO PUSH2 0x210 JUMPI PUSH2 0x20F PUSH2 0x197 JUMP JUMPDEST JUMPDEST PUSH1 0x0 PUSH2 0x21E DUP5 DUP3 DUP6 ADD PUSH2 0x1E5 JUMP JUMPDEST SWAP2 POP POP SWAP3 SWAP2 POP POP JUMP JUMPDEST PUSH2 0x288B DUP1 PUSH2 0x236 PUSH1 0x0 CODECOPY PUSH1 0x0 RETURN INVALID PUSH1 0x80 PUSH1 0x40 MSTORE CALLVALUE DUP1 ISZERO PUSH2 0x10 JUMPI PUSH1 0x0 DUP1 REVERT JUMPDEST POP PUSH1 0x4 CALLDATASIZE LT PUSH2 0xB3 JUMPI PUSH1 0x0 CALLDATALOAD PUSH1 0xE0 SHR DUP1 PUSH4 0xA22CB465 GT PUSH2 0x71 JUMPI DUP1 PUSH4 0xA22CB465 EQ PUSH2 0x1A2 JUMPI DUP1 PUSH4 0xCEE28A59 EQ PUSH2 0x1BE JUMPI DUP1 PUSH4 0xE985E9C5 EQ PUSH2 0x1DA JUMPI DUP1 PUSH4 0xF242432A EQ PUSH2 0x20A JUMPI DUP1 PUSH4 0xF5298ACA EQ PUSH2 0x226 JUMPI DUP1 PUSH4 0xFC810286 EQ PUSH2 0x242 JUMPI PUSH2 0xB3 JUMP JUMPDEST DUP1 PUSH3 0xFDD58E EQ PUSH2 0xB8 JUMPI DUP1 PUSH4 0x1C2353E1 EQ PUSH2 0xE8 JUMPI DUP1 PUSH4 0x3EA0FB13 EQ PUSH2 0x118 JUMPI DUP1 PUSH4 0x85775D47 EQ PUSH2 0x134 JUMPI DUP1 PUSH4 0x86F10405 EQ PUSH2 0x168 JUMPI DUP1 PUSH4 0x8DA5CB5B EQ PUSH2 0x184 JUMPI JUMPDEST PUSH1 0x0 DUP1 REVERT JUMPDEST PUSH2 0xD2 PUSH1 0x4 DUP1 CALLDATASIZE SUB DUP2 ADD SWAP1 PUSH2 0xCD SWAP2 SWAP1 PUSH2 0x1914 JUMP JUMPDEST PUSH2 0x25E JUMP JUMPDEST PUSH1 0x40 MLOAD PUSH2 0xDF SWAP2 SWAP1 PUSH2 0x1963 JUMP JUMPDEST PUSH1 0x40 MLOAD DUP1 SWAP2 SUB SWAP1 RETURN JUMPDEST PUSH2 0x102 PUSH1 0x4 DUP1 CALLDATASIZE SUB DUP2 ADD SWAP1 PUSH2 0xFD SWAP2 SWAP1 PUSH2 0x197E JUMP JUMPDEST PUSH2 0x3B4 JUMP JUMPDEST PUSH1 0x40 MLOAD PUSH2 0x10F SWAP2 SWAP1 PUSH2 0x19C6 JUMP JUMPDEST PUSH1 0x40 MLOAD DUP1 SWAP2 SUB SWAP1 RETURN JUMPDEST PUSH2 0x132 PUSH1 0x4 DUP1 CALLDATASIZE SUB DUP2 ADD SWAP1 PUSH2 0x12D SWAP2 SWAP1 PUSH2 0x19E1 JUMP JUMPDEST PUSH2 0x3D4 JUMP JUMPDEST STOP JUMPDEST PUSH2 0x14E PUSH1 0x4 DUP1 CALLDATASIZE SUB DUP2 ADD SWAP1 PUSH2 0x149 SWAP2 SWAP1 PUSH2 0x1A21 JUMP JUMPDEST PUSH2 0x496 JUMP JUMPDEST PUSH1 0x40 MLOAD PUSH2 0x15F SWAP6 SWAP5 SWAP4 SWAP3 SWAP2 SWAP1 PUSH2 0x1AF7 JUMP JUMPDEST PUSH1 0x40 MLOAD DUP1 SWAP2 SUB SWAP1 RETURN JUMPDEST PUSH2 0x182 PUSH1 0x4 DUP1 CALLDATASIZE SUB DUP2 ADD SWAP1 PUSH2 0x17D SWAP2 SWAP1 PUSH2 0x197E JUMP JUMPDEST PUSH2 0x5DC JUMP JUMPDEST STOP JUMPDEST PUSH2 0x18C PUSH2 0x7F7 JUMP JUMPDEST PUSH1 0x40 MLOAD PUSH2 0x199 SWAP2 SWAP1 PUSH2 0x1B67 JUMP JUMPDEST PUSH1 0x40 MLOAD DUP1 SWAP2 SUB SWAP1 RETURN JUMPDEST PUSH2 0x1BC PUSH1 0x4 DUP1 CALLDATASIZE SUB DUP2 ADD SWAP1 PUSH2 0x1B7 SWAP2 SWAP1 PUSH2 0x1BAE JUMP JUMPDEST PUSH2 0x81B JUMP JUMPDEST STOP JUMPDEST PUSH2 0x1D8 PUSH1 0x4 DUP1 CALLDATASIZE SUB DUP2 ADD SWAP1 PUSH2 0x1D3 SWAP2 SWAP1 PUSH2 0x1D4F JUMP JUMPDEST PUSH2 0x968 JUMP JUMPDEST STOP JUMPDEST PUSH2 0x1F4 PUSH1 0x4 DUP1 CALLDATASIZE SUB DUP2 ADD SWAP1 PUSH2 0x1EF SWAP2 SWAP1 PUSH2 0x1E02 JUMP JUMPDEST PUSH2 0xC3C JUMP JUMPDEST PUSH1 0x40 MLOAD PUSH2 0x201 SWAP2 SWAP1 PUSH2 0x19C6 JUMP JUMPDEST PUSH1 0x40 MLOAD DUP1 SWAP2 SUB SWAP1 RETURN JUMPDEST PUSH2 0x224 PUSH1 0x4 DUP1 CALLDATASIZE SUB DUP2 ADD SWAP1 PUSH2 0x21F SWAP2 SWAP1 PUSH2 0x1EE3 JUMP JUMPDEST PUSH2 0xD0C JUMP JUMPDEST STOP JUMPDEST PUSH2 0x240 PUSH1 0x4 DUP1 CALLDATASIZE SUB DUP2 ADD SWAP1 PUSH2 0x23B SWAP2 SWAP1 PUSH2 0x1F7A JUMP JUMPDEST PUSH2 0x116C JUMP JUMPDEST STOP JUMPDEST PUSH2 0x25C PUSH1 0x4 DUP1 CALLDATASIZE SUB DUP2 ADD SWAP1 PUSH2 0x257 SWAP2 SWAP1 PUSH2 0x197E JUMP JUMPDEST PUSH2 0x1448 JUMP JUMPDEST STOP JUMPDEST PUSH1 0x0 PUSH2 0x274 PUSH8 0x7A5FF48EA38640B0 PUSH1 0xC0 SHL PUSH2 0x1664 JUMP JUMPDEST PUSH2 0x288 PUSH8 0x1BC31672DF81E760 PUSH1 0xC0 SHL PUSH2 0x1664 JUMP JUMPDEST PUSH2 0x29C PUSH8 0x934A4C3C98A1FB3E PUSH1 0xC0 SHL PUSH2 0x1664 JUMP JUMPDEST PUSH2 0x2B0 PUSH8 0x366F348339E9B864 PUSH1 0xC0 SHL PUSH2 0x1664 JUMP JUMPDEST PUSH1 0x0 PUSH20 0xFFFFFFFFFFFFFFFFFFFFFFFFFFFFFFFFFFFFFFFF AND DUP4 PUSH20 0xFFFFFFFFFFFFFFFFFFFFFFFFFFFFFFFFFFFFFFFF AND SUB PUSH2 0x31F JUMPI PUSH1 0x40 MLOAD PUSH32 0x8C379A000000000000000000000000000000000000000000000000000000000 DUP2 MSTORE PUSH1 0x4 ADD PUSH2 0x316 SWAP1 PUSH2 0x2019 JUMP JUMPDEST PUSH1 0x40 MLOAD DUP1 SWAP2 SUB SWAP1 REVERT JUMPDEST PUSH2 0x333 PUSH8 0x7D792138A81ADC8B PUSH1 0xC0 SHL PUSH2 0x1664 JUMP JUMPDEST PUSH2 0x347 PUSH8 0x22E3754D7783940A PUSH1 0xC0 SHL PUSH2 0x1664 JUMP JUMPDEST PUSH2 0x35B PUSH8 0x61B08DBA3A06AEB9 PUSH1 0xC0 SHL PUSH2 0x1664 JUMP JUMPDEST PUSH1 0x2 PUSH1 0x0 DUP4 DUP2 MSTORE PUSH1 0x20 ADD SWAP1 DUP2 MSTORE PUSH1 0x20 ADD PUSH1 0x0 KECCAK256 PUSH1 0x0 DUP5 PUSH20 0xFFFFFFFFFFFFFFFFFFFFFFFFFFFFFFFFFFFFFFFF AND PUSH20 0xFFFFFFFFFFFFFFFFFFFFFFFFFFFFFFFFFFFFFFFF AND DUP2 MSTORE PUSH1 0x20 ADD SWAP1 DUP2 MSTORE PUSH1 0x20 ADD PUSH1 0x0 KECCAK256 SLOAD SWAP1 POP SWAP3 SWAP2 POP POP JUMP JUMPDEST PUSH1 0x1 PUSH1 0x20 MSTORE DUP1 PUSH1 0x0 MSTORE PUSH1 0x40 PUSH1 0x0 KECCAK256 PUSH1 0x0 SWAP2 POP SLOAD SWAP1 PUSH2 0x100 EXP SWAP1 DIV PUSH1 0xFF AND DUP2 JUMP JUMPDEST PUSH2 0x3E8 PUSH8 0x5342E96673362D60 PUSH1 0xC0 SHL PUSH2 0x1664 JUMP JUMPDEST PUSH2 0x3FC PUSH8 0xD22B672268F1E82B PUSH1 0xC0 SHL PUSH2 0x1664 JUMP JUMPDEST PUSH2 0x410 PUSH8 0x383C43D07923FA05 PUSH1 0xC0 SHL PUSH2 0x1664 JUMP JUMPDEST PUSH2 0x41B CALLER DUP4 DUP4 PUSH2 0x116C JUMP JUMPDEST PUSH2 0x42F PUSH8 0xA95D3C3A6E05A53A PUSH1 0xC0 SHL PUSH2 0x1664 JUMP JUMPDEST PUSH2 0x443 PUSH8 0x83C8FEDD1BB0970F PUSH1 0xC0 SHL PUSH2 0x1664 JUMP JUMPDEST CALLER PUSH20 0xFFFFFFFFFFFFFFFFFFFFFFFFFFFFFFFFFFFFFFFF AND DUP3 PUSH32 0x31995D78296D80EC997704A03D4E6295C44E8755E8117523FB44BF086C306DCB DUP4 PUSH1 0x40 MLOAD PUSH2 0x48A SWAP2 SWAP1 PUSH2 0x1963 JUMP JUMPDEST PUSH1 0x40 MLOAD DUP1 SWAP2 SUB SWAP1 LOG3 POP POP JUMP JUMPDEST PUSH1 0x4 PUSH1 0x20 MSTORE DUP1 PUSH1 0x0 MSTORE PUSH1 0x40 PUSH1 0x0 KECCAK256 PUSH1 0x0 SWAP2 POP SWAP1 POP DUP1 PUSH1 0x0 ADD DUP1 SLOAD PUSH2 0x4B9 SWAP1 PUSH2 0x2068 JUMP JUMPDEST DUP1 PUSH1 0x1F ADD PUSH1 0x20 DUP1 SWAP2 DIV MUL PUSH1 0x20 ADD PUSH1 0x40 MLOAD SWAP1 DUP2 ADD PUSH1 0x40 MSTORE DUP1 SWAP3 SWAP2 SWAP1 DUP2 DUP2 MSTORE PUSH1 0x20 ADD DUP3 DUP1 SLOAD PUSH2 0x4E5 SWAP1 PUSH2 0x2068 JUMP JUMPDEST DUP1 ISZERO PUSH2 0x532 JUMPI DUP1 PUSH1 0x1F LT PUSH2 0x507 JUMPI PUSH2 0x100 DUP1 DUP4 SLOAD DIV MUL DUP4 MSTORE SWAP2 PUSH1 0x20 ADD SWAP2 PUSH2 0x532 JUMP JUMPDEST DUP3 ADD SWAP2 SWAP1 PUSH1 0x0 MSTORE PUSH1 0x20 PUSH1 0x0 KECCAK256 SWAP1 JUMPDEST DUP2 SLOAD DUP2 MSTORE SWAP1 PUSH1 0x1 ADD SWAP1 PUSH1 0x20 ADD DUP1 DUP4 GT PUSH2 0x515 JUMPI DUP3 SWAP1 SUB PUSH1 0x1F AND DUP3 ADD SWAP2 JUMPDEST POP POP POP POP POP SWAP1 DUP1 PUSH1 0x1 ADD SLOAD SWAP1 DUP1 PUSH1 0x2 ADD SLOAD SWAP1 DUP1 PUSH1 0x3 ADD DUP1 SLOAD PUSH2 0x553 SWAP1 PUSH2 0x2068 JUMP JUMPDEST DUP1 PUSH1 0x1F ADD PUSH1 0x20 DUP1 SWAP2 DIV MUL PUSH1 0x20 ADD PUSH1 0x40 MLOAD SWAP1 DUP2 ADD PUSH1 0x40 MSTORE DUP1 SWAP3 SWAP2 SWAP1 DUP2 DUP2 MSTORE PUSH1 0x20 ADD DUP3 DUP1 SLOAD PUSH2 0x57F SWAP1 PUSH2 0x2068 JUMP JUMPDEST DUP1 ISZERO PUSH2 0x5CC JUMPI DUP1 PUSH1 0x1F LT PUSH2 0x5A1 JUMPI PUSH2 0x100 DUP1 DUP4 SLOAD DIV MUL DUP4 MSTORE SWAP2 PUSH1 0x20 ADD SWAP2 PUSH2 0x5CC JUMP JUMPDEST DUP3 ADD SWAP2 SWAP1 PUSH1 0x0 MSTORE PUSH1 0x20 PUSH1 0x0 KECCAK256 SWAP1 JUMPDEST DUP2 SLOAD DUP2 MSTORE SWAP1 PUSH1 0x1 ADD SWAP1 PUSH1 0x20 ADD DUP1 DUP4 GT PUSH2 0x5AF JUMPI DUP3 SWAP1 SUB PUSH1 0x1F AND DUP3 ADD SWAP2 JUMPDEST POP POP POP POP POP SWAP1 DUP1 PUSH1 0x4 ADD SLOAD SWAP1 POP DUP6 JUMP JUMPDEST PUSH2 0x5F0 PUSH8 0xEA642CDEE68304B1 PUSH1 0xC0 SHL PUSH2 0x1664 JUMP JUMPDEST PUSH2 0x604 PUSH8 0x17017A0F08EC7717 PUSH1 0xC0 SHL PUSH2 0x1664 JUMP JUMPDEST PUSH2 0x618 PUSH8 0xF475D433E7AE12F3 PUSH1 0xC0 SHL PUSH2 0x1664 JUMP JUMPDEST PUSH2 0x62C PUSH8 0x5D0C6B548AD22F9B PUSH1 0xC0 SHL PUSH2 0x1664 JUMP JUMPDEST PUSH2 0x640 PUSH8 0x436B26AC8E904A5C PUSH1 0xC0 SHL PUSH2 0x1664 JUMP JUMPDEST CALLER PUSH20 0xFFFFFFFFFFFFFFFFFFFFFFFFFFFFFFFFFFFFFFFF AND PUSH1 0x0 DUP1 SLOAD SWAP1 PUSH2 0x100 EXP SWAP1 DIV PUSH20 0xFFFFFFFFFFFFFFFFFFFFFFFFFFFFFFFFFFFFFFFF AND PUSH20 0xFFFFFFFFFFFFFFFFFFFFFFFFFFFFFFFFFFFFFFFF AND EQ PUSH2 0x6CE JUMPI PUSH1 0x40 MLOAD PUSH32 0x8C379A000000000000000000000000000000000000000000000000000000000 DUP2 MSTORE PUSH1 0x4 ADD PUSH2 0x6C5 SWAP1 PUSH2 0x20E5 JUMP JUMPDEST PUSH1 0x40 MLOAD DUP1 SWAP2 SUB SWAP1 REVERT JUMPDEST PUSH2 0x6E2 PUSH8 0x88579CD8658C869E PUSH1 0xC0 SHL PUSH2 0x1664 JUMP JUMPDEST PUSH2 0x6F6 PUSH8 0xA2F1BE6205CCF075 PUSH1 0xC0 SHL PUSH2 0x1664 JUMP JUMPDEST PUSH2 0x70A PUSH8 0x174235EF5045E491 PUSH1 0xC0 SHL PUSH2 0x1664 JUMP JUMPDEST PUSH2 0x71E PUSH8 0xB3B6DF78F1548200 PUSH1 0xC0 SHL PUSH2 0x1664 JUMP JUMPDEST PUSH2 0x732 PUSH8 0xA7BF949DB65369F0 PUSH1 0xC0 SHL PUSH2 0x1664 JUMP JUMPDEST PUSH1 0x1 DUP1 PUSH1 0x0 DUP4 PUSH20 0xFFFFFFFFFFFFFFFFFFFFFFFFFFFFFFFFFFFFFFFF AND PUSH20 0xFFFFFFFFFFFFFFFFFFFFFFFFFFFFFFFFFFFFFFFF AND DUP2 MSTORE PUSH1 0x20 ADD SWAP1 DUP2 MSTORE PUSH1 0x20 ADD PUSH1 0x0 KECCAK256 PUSH1 0x0 PUSH2 0x100 EXP DUP2 SLOAD DUP2 PUSH1 0xFF MUL NOT AND SWAP1 DUP4 ISZERO ISZERO MUL OR SWAP1 SSTORE POP PUSH2 0x79D PUSH8 0xED2748E56ADEEB1B PUSH1 0xC0 SHL PUSH2 0x1664 JUMP JUMPDEST PUSH2 0x7B1 PUSH8 0xB376EAD6974A33D3 PUSH1 0xC0 SHL PUSH2 0x1664 JUMP JUMPDEST DUP1 PUSH20 0xFFFFFFFFFFFFFFFFFFFFFFFFFFFFFFFFFFFFFFFF AND PUSH32 0x563190AD7C15C57C6C8DC435EBB37BC9D0961DC3C723A33FCE89A286F7FF6E85 PUSH1 0x40 MLOAD PUSH1 0x40 MLOAD DUP1 SWAP2 SUB SWAP1 LOG2 POP JUMP JUMPDEST PUSH1 0x0 DUP1 SLOAD SWAP1 PUSH2 0x100 EXP SWAP1 DIV PUSH20 0xFFFFFFFFFFFFFFFFFFFFFFFFFFFFFFFFFFFFFFFF AND DUP2 JUMP JUMPDEST PUSH2 0x82F PUSH8 0x3748591EDE70EC9E PUSH1 0xC0 SHL PUSH2 0x1664 JUMP JUMPDEST PUSH2 0x843 PUSH8 0xE299210C81F452F5 PUSH1 0xC0 SHL PUSH2 0x1664 JUMP JUMPDEST DUP1 PUSH1 0x3 PUSH1 0x0 CALLER PUSH20 0xFFFFFFFFFFFFFFFFFFFFFFFFFFFFFFFFFFFFFFFF AND PUSH20 0xFFFFFFFFFFFFFFFFFFFFFFFFFFFFFFFFFFFFFFFF AND DUP2 MSTORE PUSH1 0x20 ADD SWAP1 DUP2 MSTORE PUSH1 0x20 ADD PUSH1 0x0 KECCAK256 PUSH1 0x0 DUP5 PUSH20 0xFFFFFFFFFFFFFFFFFFFFFFFFFFFFFFFFFFFFFFFF AND PUSH20 0xFFFFFFFFFFFFFFFFFFFFFFFFFFFFFFFFFFFFFFFF AND DUP2 MSTORE PUSH1 0x20 ADD SWAP1 DUP2 MSTORE PUSH1 0x20 ADD PUSH1 0x0 KECCAK256 PUSH1 0x0 PUSH2 0x100 EXP DUP2 SLOAD DUP2 PUSH1 0xFF MUL NOT AND SWAP1 DUP4 ISZERO ISZERO MUL OR SWAP1 SSTORE POP PUSH2 0x8EB PUSH8 0xD489C4FFEA060E49 PUSH1 0xC0 SHL PUSH2 0x1664 JUMP JUMPDEST PUSH2 0x8FF PUSH8 0x92579E14B322FA4 PUSH1 0xC0 SHL PUSH2 0x1664 JUMP JUMPDEST DUP2 PUSH20 0xFFFFFFFFFFFFFFFFFFFFFFFFFFFFFFFFFFFFFFFF AND CALLER PUSH20 0xFFFFFFFFFFFFFFFFFFFFFFFFFFFFFFFFFFFFFFFF AND PUSH32 0x17307EAB39AB6107E8899845AD3D59BD9653F200F220920489CA2B5937696C31 DUP4 PUSH1 0x40 MLOAD PUSH2 0x95C SWAP2 SWAP1 PUSH2 0x19C6 JUMP JUMPDEST PUSH1 0x40 MLOAD DUP1 SWAP2 SUB SWAP1 LOG3 POP POP JUMP JUMPDEST PUSH2 0x97C PUSH8 0x222EFD690B8C8F63 PUSH1 0xC0 SHL PUSH2 0x1664 JUMP JUMPDEST PUSH2 0x990 PUSH8 0x65CEA7B044445469 PUSH1 0xC0 SHL PUSH2 0x1664 JUMP JUMPDEST PUSH2 0x9A4 PUSH8 0x749696ED8B7BC068 PUSH1 0xC0 SHL PUSH2 0x1664 JUMP JUMPDEST PUSH2 0x9B8 PUSH8 0xCE43E7D101DAA838 PUSH1 0xC0 SHL PUSH2 0x1664 JUMP JUMPDEST PUSH2 0x9CC PUSH8 0x3A9F1FD2148687D1 PUSH1 0xC0 SHL PUSH2 0x1664 JUMP JUMPDEST PUSH1 0x1 PUSH1 0x0 CALLER PUSH20 0xFFFFFFFFFFFFFFFFFFFFFFFFFFFFFFFFFFFFFFFF AND PUSH20 0xFFFFFFFFFFFFFFFFFFFFFFFFFFFFFFFFFFFFFFFF AND DUP2 MSTORE PUSH1 0x20 ADD SWAP1 DUP2 MSTORE PUSH1 0x20 ADD PUSH1 0x0 KECCAK256 PUSH1 0x0 SWAP1 SLOAD SWAP1 PUSH2 0x100 EXP SWAP1 DIV PUSH1 0xFF AND PUSH2 0xA58 JUMPI PUSH1 0x40 MLOAD PUSH32 0x8C379A000000000000000000000000000000000000000000000000000000000 DUP2 MSTORE PUSH1 0x4 ADD PUSH2 0xA4F SWAP1 PUSH2 0x2151 JUMP JUMPDEST PUSH1 0x40 MLOAD DUP1 SWAP2 SUB SWAP1 REVERT JUMPDEST PUSH2 0xA6C PUSH8 0x4A288264AFF1251C PUSH1 0xC0 SHL PUSH2 0x1664 JUMP JUMPDEST PUSH2 0xA80 PUSH8 0x71D379B0A5CC9026 PUSH1 0xC0 SHL PUSH2 0x1664 JUMP JUMPDEST PUSH2 0xA94 PUSH8 0x478D9293087A9E2A PUSH1 0xC0 SHL PUSH2 0x1664 JUMP JUMPDEST PUSH2 0xAA8 PUSH8 0xB749E0703F3717A0 PUSH1 0xC0 SHL PUSH2 0x1664 JUMP JUMPDEST PUSH2 0xABC PUSH8 0x79B2CFD434FBAC46 PUSH1 0xC0 SHL PUSH2 0x1664 JUMP JUMPDEST PUSH2 0xAD0 PUSH8 0x2037A20397B1A158 PUSH1 0xC0 SHL PUSH2 0x1664 JUMP JUMPDEST PUSH1 0x0 PUSH1 0x5 PUSH1 0x0 DUP2 SLOAD DUP1 SWAP3 SWAP2 SWAP1 PUSH2 0xAE5 SWAP1 PUSH2 0x21A0 JUMP JUMPDEST SWAP2 SWAP1 POP SSTORE SWAP1 POP PUSH2 0xAFF PUSH8 0x273CD9EB7F645D1E PUSH1 0xC0 SHL PUSH2 0x1664 JUMP JUMPDEST PUSH1 0x40 MLOAD DUP1 PUSH1 0xA0 ADD PUSH1 0x40 MSTORE DUP1 DUP7 DUP2 MSTORE PUSH1 0x20 ADD DUP6 DUP2 MSTORE PUSH1 0x20 ADD TIMESTAMP DUP2 MSTORE PUSH1 0x20 ADD DUP5 DUP2 MSTORE PUSH1 0x20 ADD DUP4 DUP2 MSTORE POP PUSH1 0x4 PUSH1 0x0 DUP4 DUP2 MSTORE PUSH1 0x20 ADD SWAP1 DUP2 MSTORE PUSH1 0x20 ADD PUSH1 0x0 KECCAK256 PUSH1 0x0 DUP3 ADD MLOAD DUP2 PUSH1 0x0 ADD SWAP1 DUP2 PUSH2 0xB4E SWAP2 SWAP1 PUSH2 0x2394 JUMP JUMPDEST POP PUSH1 0x20 DUP3 ADD MLOAD DUP2 PUSH1 0x1 ADD SSTORE PUSH1 0x40 DUP3 ADD MLOAD DUP2 PUSH1 0x2 ADD SSTORE PUSH1 0x60 DUP3 ADD MLOAD DUP2 PUSH1 0x3 ADD SWAP1 DUP2 PUSH2 0xB78 SWAP2 SWAP1 PUSH2 0x2394 JUMP JUMPDEST POP PUSH1 0x80 DUP3 ADD MLOAD DUP2 PUSH1 0x4 ADD SSTORE SWAP1 POP POP PUSH2 0xB9A PUSH8 0x123FE5177C9AAF1E PUSH1 0xC0 SHL PUSH2 0x1664 JUMP JUMPDEST PUSH2 0xBAE PUSH8 0x3AF36EBBA54CD1EF PUSH1 0xC0 SHL PUSH2 0x1664 JUMP JUMPDEST PUSH2 0xBB9 DUP7 DUP3 DUP7 PUSH2 0x1667 JUMP JUMPDEST PUSH2 0xBCD PUSH8 0x8C3E4D00885D6022 PUSH1 0xC0 SHL PUSH2 0x1664 JUMP JUMPDEST PUSH2 0xBE1 PUSH8 0x755EE489329FAF1D PUSH1 0xC0 SHL PUSH2 0x1664 JUMP JUMPDEST DUP6 PUSH20 0xFFFFFFFFFFFFFFFFFFFFFFFFFFFFFFFFFFFFFFFF AND DUP2 PUSH32 0x8EC385D563E2165D797A727CD7443D3CCB850407CF1F8B2B5BBA3842A0EBC68E DUP8 DUP8 DUP7 PUSH1 0x40 MLOAD PUSH2 0xC2C SWAP4 SWAP3 SWAP2 SWAP1 PUSH2 0x2466 JUMP JUMPDEST PUSH1 0x40 MLOAD DUP1 SWAP2 SUB SWAP1 LOG3 POP POP POP POP POP POP JUMP JUMPDEST PUSH1 0x0 PUSH2 0xC52 PUSH8 0xBFF712E53F6FB1D7 PUSH1 0xC0 SHL PUSH2 0x1664 JUMP JUMPDEST PUSH2 0xC66 PUSH8 0x1A914197E65E9987 PUSH1 0xC0 SHL PUSH2 0x1664 JUMP JUMPDEST PUSH2 0xC7A PUSH8 0x7B9DD265A909DDA9 PUSH1 0xC0 SHL PUSH2 0x1664 JUMP JUMPDEST PUSH1 0x3 PUSH1 0x0 DUP5 PUSH20 0xFFFFFFFFFFFFFFFFFFFFFFFFFFFFFFFFFFFFFFFF AND PUSH20 0xFFFFFFFFFFFFFFFFFFFFFFFFFFFFFFFFFFFFFFFF AND DUP2 MSTORE PUSH1 0x20 ADD SWAP1 DUP2 MSTORE PUSH1 0x20 ADD PUSH1 0x0 KECCAK256 PUSH1 0x0 DUP4 PUSH20 0xFFFFFFFFFFFFFFFFFFFFFFFFFFFFFFFFFFFFFFFF AND PUSH20 0xFFFFFFFFFFFFFFFFFFFFFFFFFFFFFFFFFFFFFFFF AND DUP2 MSTORE PUSH1 0x20 ADD SWAP1 DUP2 MSTORE PUSH1 0x20 ADD PUSH1 0x0 KECCAK256 PUSH1 0x0 SWAP1 SLOAD SWAP1 PUSH2 0x100 EXP SWAP1 DIV PUSH1 0xFF AND SWAP1 POP SWAP3 SWAP2 POP POP JUMP JUMPDEST PUSH2 0xD20 PUSH8 0x8A0E5E9AD3199DB4 PUSH1 0xC0 SHL PUSH2 0x1664 JUMP JUMPDEST PUSH2 0xD34 PUSH8 0x48732632905CB38 PUSH1 0xC0 SHL PUSH2 0x1664 JUMP JUMPDEST PUSH2 0xD48 PUSH8 0xA18390537BBCC0D7 PUSH1 0xC0 SHL PUSH2 0x1664 JUMP JUMPDEST PUSH2 0xD5C PUSH8 0x8E934B9BAEAA8895 PUSH1 0xC0 SHL PUSH2 0x1664 JUMP JUMPDEST CALLER PUSH20 0xFFFFFFFFFFFFFFFFFFFFFFFFFFFFFFFFFFFFFFFF AND DUP6 PUSH20 0xFFFFFFFFFFFFFFFFFFFFFFFFFFFFFFFFFFFFFFFF AND EQ DUP1 ISZERO PUSH2 0xDA7 JUMPI POP PUSH2 0xDA6 PUSH8 0x7F5E0AE850D0070 PUSH1 0xC0 SHL PUSH2 0x1861 JUMP JUMPDEST JUMPDEST DUP1 PUSH2 0xDD4 JUMPI POP PUSH2 0xDB7 DUP6 CALLER PUSH2 0xC3C JUMP JUMPDEST DUP1 ISZERO PUSH2 0xDD3 JUMPI POP PUSH2 0xDD2 PUSH8 0x63022B07A886C823 PUSH1 0xC0 SHL PUSH2 0x1861 JUMP JUMPDEST JUMPDEST JUMPDEST PUSH2 0xE13 JUMPI PUSH1 0x40 MLOAD PUSH32 0x8C379A000000000000000000000000000000000000000000000000000000000 DUP2 MSTORE PUSH1 0x4 ADD PUSH2 0xE0A SWAP1 PUSH2 0x24F0 JUMP JUMPDEST PUSH1 0x40 MLOAD DUP1 SWAP2 SUB SWAP1 REVERT JUMPDEST PUSH2 0xE27 PUSH8 0xAC1167F4F3933E27 PUSH1 0xC0 SHL PUSH2 0x1664 JUMP JUMPDEST PUSH2 0xE3B PUSH8 0x623F5389B24BC9FF PUSH1 0xC0 SHL PUSH2 0x1664 JUMP JUMPDEST PUSH2 0xE4F PUSH8 0x43E861575198D40E PUSH1 0xC0 SHL PUSH2 0x1664 JUMP JUMPDEST PUSH2 0xE63 PUSH8 0x7C1D5EA3C5875101 PUSH1 0xC0 SHL PUSH2 0x1664 JUMP JUMPDEST PUSH1 0x0 PUSH20 0xFFFFFFFFFFFFFFFFFFFFFFFFFFFFFFFFFFFFFFFF AND DUP5 PUSH20 0xFFFFFFFFFFFFFFFFFFFFFFFFFFFFFFFFFFFFFFFF AND SUB PUSH2 0xED2 JUMPI PUSH1 0x40 MLOAD PUSH32 0x8C379A000000000000000000000000000000000000000000000000000000000 DUP2 MSTORE PUSH1 0x4 ADD PUSH2 0xEC9 SWAP1 PUSH2 0x2582 JUMP JUMPDEST PUSH1 0x40 MLOAD DUP1 SWAP2 SUB SWAP1 REVERT JUMPDEST PUSH2 0xEE6 PUSH8 0xF093B0AE7D9C488 PUSH1 0xC0 SHL PUSH2 0x1664 JUMP JUMPDEST PUSH2 0xEFA PUSH8 0xC4DACA50F2F7E947 PUSH1 0xC0 SHL PUSH2 0x1664 JUMP JUMPDEST PUSH2 0xF0E PUSH8 0xC3BC7B3EC714C9DE PUSH1 0xC0 SHL PUSH2 0x1664 JUMP JUMPDEST PUSH2 0xF22 PUSH8 0x4AEA7EA990EE0449 PUSH1 0xC0 SHL PUSH2 0x1664 JUMP JUMPDEST DUP2 PUSH1 0x2 PUSH1 0x0 DUP6 DUP2 MSTORE PUSH1 0x20 ADD SWAP1 DUP2 MSTORE PUSH1 0x20 ADD PUSH1 0x0 KECCAK256 PUSH1 0x0 DUP8 PUSH20 0xFFFFFFFFFFFFFFFFFFFFFFFFFFFFFFFFFFFFFFFF AND PUSH20 0xFFFFFFFFFFFFFFFFFFFFFFFFFFFFFFFFFFFFFFFF AND DUP2 MSTORE PUSH1 0x20 ADD SWAP1 DUP2 MSTORE PUSH1 0x20 ADD PUSH1 0x0 KECCAK256 SLOAD LT ISZERO PUSH2 0xFB5 JUMPI PUSH1 0x40 MLOAD PUSH32 0x8C379A000000000000000000000000000000000000000000000000000000000 DUP2 MSTORE PUSH1 0x4 ADD PUSH2 0xFAC SWAP1 PUSH2 0x25EE JUMP JUMPDEST PUSH1 0x40 MLOAD DUP1 SWAP2 SUB SWAP1 REVERT JUMPDEST PUSH2 0xFC9 PUSH8 0xF52C9CDF15C5003 PUSH1 0xC0 SHL PUSH2 0x1664 JUMP JUMPDEST PUSH2 0xFDD PUSH8 0x9DF5885F899AA6C8 PUSH1 0xC0 SHL PUSH2 0x1664 JUMP JUMPDEST DUP2 PUSH1 0x2 PUSH1 0x0 DUP6 DUP2 MSTORE PUSH1 0x20 ADD SWAP1 DUP2 MSTORE PUSH1 0x20 ADD PUSH1 0x0 KECCAK256 PUSH1 0x0 DUP8 PUSH20 0xFFFFFFFFFFFFFFFFFFFFFFFFFFFFFFFFFFFFFFFF AND PUSH20 0xFFFFFFFFFFFFFFFFFFFFFFFFFFFFFFFFFFFFFFFF AND DUP2 MSTORE PUSH1 0x20 ADD SWAP1 DUP2 MSTORE PUSH1 0x20 ADD PUSH1 0x0 KECCAK256 PUSH1 0x0 DUP3 DUP3 SLOAD PUSH2 0x103D SWAP2 SWAP1 PUSH2 0x260E JUMP JUMPDEST SWAP3 POP POP DUP2 SWAP1 SSTORE POP PUSH2 0x1058 PUSH8 0x4BEB4B357461D6DC PUSH1 0xC0 SHL PUSH2 0x1664 JUMP JUMPDEST DUP2 PUSH1 0x2 PUSH1 0x0 DUP6 DUP2 MSTORE PUSH1 0x20 ADD SWAP1 DUP2 MSTORE PUSH1 0x20 ADD PUSH1 0x0 KECCAK256 PUSH1 0x0 DUP7 PUSH20 0xFFFFFFFFFFFFFFFFFFFFFFFFFFFFFFFFFFFFFFFF AND PUSH20 0xFFFFFFFFFFFFFFFFFFFFFFFFFFFFFFFFFFFFFFFF AND DUP2 MSTORE PUSH1 0x20 ADD SWAP1 DUP2 MSTORE PUSH1 0x20 ADD PUSH1 0x0 KECCAK256 PUSH1 0x0 DUP3 DUP3 SLOAD PUSH2 0x10B8 SWAP2 SWAP1 PUSH2 0x2642 JUMP JUMPDEST SWAP3 POP POP DUP2 SWAP1 SSTORE POP PUSH2 0x10D3 PUSH8 0xD070A87A0C14B70F PUSH1 0xC0 SHL PUSH2 0x1664 JUMP JUMPDEST PUSH2 0x10E7 PUSH8 0xB2D0CF3ADB0DC4B2 PUSH1 0xC0 SHL PUSH2 0x1664 JUMP JUMPDEST DUP4 PUSH20 0xFFFFFFFFFFFFFFFFFFFFFFFFFFFFFFFFFFFFFFFF AND DUP6 PUSH20 0xFFFFFFFFFFFFFFFFFFFFFFFFFFFFFFFFFFFFFFFF AND CALLER PUSH20 0xFFFFFFFFFFFFFFFFFFFFFFFFFFFFFFFFFFFFFFFF AND PUSH32 0xC3D58168C5AE7397731D063D5BBF3D657854427343F4C083240F7AACAA2D0F62 DUP7 DUP7 PUSH1 0x40 MLOAD PUSH2 0x115D SWAP3 SWAP2 SWAP1 PUSH2 0x2676 JUMP JUMPDEST PUSH1 0x40 MLOAD DUP1 SWAP2 SUB SWAP1 LOG4 POP POP POP POP POP JUMP JUMPDEST PUSH2 0x1180 PUSH8 0xB0AE284CDA60B0DD PUSH1 0xC0 SHL PUSH2 0x1664 JUMP JUMPDEST PUSH2 0x1194 PUSH8 0x77E37EC9F0E59EAE PUSH1 0xC0 SHL PUSH2 0x1664 JUMP JUMPDEST PUSH2 0x11A8 PUSH8 0x21A51CD108C50B2 PUSH1 0xC0 SHL PUSH2 0x1664 JUMP JUMPDEST PUSH2 0x11BC PUSH8 0x6646C3272B27DE94 PUSH1 0xC0 SHL PUSH2 0x1664 JUMP JUMPDEST CALLER PUSH20 0xFFFFFFFFFFFFFFFFFFFFFFFFFFFFFFFFFFFFFFFF AND DUP4 PUSH20 0xFFFFFFFFFFFFFFFFFFFFFFFFFFFFFFFFFFFFFFFF AND EQ PUSH2 0x122A JUMPI PUSH1 0x40 MLOAD PUSH32 0x8C379A000000000000000000000000000000000000000000000000000000000 DUP2 MSTORE PUSH1 0x4 ADD PUSH2 0x1221 SWAP1 PUSH2 0x2711 JUMP JUMPDEST PUSH1 0x40 MLOAD DUP1 SWAP2 SUB SWAP1 REVERT JUMPDEST PUSH2 0x123E PUSH8 0x5EE215689EF83C43 PUSH1 0xC0 SHL PUSH2 0x1664 JUMP JUMPDEST PUSH2 0x1252 PUSH8 0xE8AA4394DD04676D PUSH1 0xC0 SHL PUSH2 0x1664 JUMP JUMPDEST PUSH2 0x1266 PUSH8 0x91A6A9F2AFA72359 PUSH1 0xC0 SHL PUSH2 0x1664 JUMP JUMPDEST PUSH2 0x127A PUSH8 0x6FD991E98DF68CE6 PUSH1 0xC0 SHL PUSH2 0x1664 JUMP JUMPDEST DUP1 PUSH1 0x2 PUSH1 0x0 DUP5 DUP2 MSTORE PUSH1 0x20 ADD SWAP1 DUP2 MSTORE PUSH1 0x20 ADD PUSH1 0x0 KECCAK256 PUSH1 0x0 DUP6 PUSH20 0xFFFFFFFFFFFFFFFFFFFFFFFFFFFFFFFFFFFFFFFF AND PUSH20 0xFFFFFFFFFFFFFFFFFFFFFFFFFFFFFFFFFFFFFFFF AND DUP2 MSTORE PUSH1 0x20 ADD SWAP1 DUP2 MSTORE PUSH1 0x20 ADD PUSH1 0x0 KECCAK256 SLOAD LT ISZERO PUSH2 0x130D JUMPI PUSH1 0x40 MLOAD PUSH32 0x8C379A000000000000000000000000000000000000000000000000000000000 DUP2 MSTORE PUSH1 0x4 ADD PUSH2 0x1304 SWAP1 PUSH2 0x27A3 JUMP JUMPDEST PUSH1 0x40 MLOAD DUP1 SWAP2 SUB SWAP1 REVERT JUMPDEST PUSH2 0x1321 PUSH8 0x41D044A72AD758CD PUSH1 0xC0 SHL PUSH2 0x1664 JUMP JUMPDEST PUSH2 0x1335 PUSH8 0xA6718A1DD2DB4263 PUSH1 0xC0 SHL PUSH2 0x1664 JUMP JUMPDEST DUP1 PUSH1 0x2 PUSH1 0x0 DUP5 DUP2 MSTORE PUSH1 0x20 ADD SWAP1 DUP2 MSTORE PUSH1 0x20 ADD PUSH1 0x0 KECCAK256 PUSH1 0x0 DUP6 PUSH20 0xFFFFFFFFFFFFFFFFFFFFFFFFFFFFFFFFFFFFFFFF AND PUSH20 0xFFFFFFFFFFFFFFFFFFFFFFFFFFFFFFFFFFFFFFFF AND DUP2 MSTORE PUSH1 0x20 ADD SWAP1 DUP2 MSTORE PUSH1 0x20 ADD PUSH1 0x0 KECCAK256 PUSH1 0x0 DUP3 DUP3 SLOAD PUSH2 0x1395 SWAP2 SWAP1 PUSH2 0x260E JUMP JUMPDEST SWAP3 POP POP DUP2 SWAP1 SSTORE POP PUSH2 0x13B0 PUSH8 0x5B8DA145C91A0388 PUSH1 0xC0 SHL PUSH2 0x1664 JUMP JUMPDEST PUSH2 0x13C4 PUSH8 0x11C324B115513055 PUSH1 0xC0 SHL PUSH2 0x1664 JUMP JUMPDEST PUSH1 0x0 PUSH20 0xFFFFFFFFFFFFFFFFFFFFFFFFFFFFFFFFFFFFFFFF AND DUP4 PUSH20 0xFFFFFFFFFFFFFFFFFFFFFFFFFFFFFFFFFFFFFFFF AND CALLER PUSH20 0xFFFFFFFFFFFFFFFFFFFFFFFFFFFFFFFFFFFFFFFF AND PUSH32 0xC3D58168C5AE7397731D063D5BBF3D657854427343F4C083240F7AACAA2D0F62 DUP6 DUP6 PUSH1 0x40 MLOAD PUSH2 0x143B SWAP3 SWAP2 SWAP1 PUSH2 0x2676 JUMP JUMPDEST PUSH1 0x40 MLOAD DUP1 SWAP2 SUB SWAP1 LOG4 POP POP POP JUMP JUMPDEST PUSH2 0x145C PUSH8 0x3ED183BDD1B15149 PUSH1 0xC0 SHL PUSH2 0x1664 JUMP JUMPDEST PUSH2 0x1470 PUSH8 0x17017A0F08EC7717 PUSH1 0xC0 SHL PUSH2 0x1664 JUMP JUMPDEST PUSH2 0x1484 PUSH8 0xF475D433E7AE12F3 PUSH1 0xC0 SHL PUSH2 0x1664 JUMP JUMPDEST PUSH2 0x1498 PUSH8 0x5D0C6B548AD22F9B PUSH1 0xC0 SHL PUSH2 0x1664 JUMP JUMPDEST PUSH2 0x14AC PUSH8 0x436B26AC8E904A5C PUSH1 0xC0 SHL PUSH2 0x1664 JUMP JUMPDEST CALLER PUSH20 0xFFFFFFFFFFFFFFFFFFFFFFFFFFFFFFFFFFFFFFFF AND PUSH1 0x0 DUP1 SLOAD SWAP1 PUSH2 0x100 EXP SWAP1 DIV PUSH20 0xFFFFFFFFFFFFFFFFFFFFFFFFFFFFFFFFFFFFFFFF AND PUSH20 0xFFFFFFFFFFFFFFFFFFFFFFFFFFFFFFFFFFFFFFFF AND EQ PUSH2 0x153A JUMPI PUSH1 0x40 MLOAD PUSH32 0x8C379A000000000000000000000000000000000000000000000000000000000 DUP2 MSTORE PUSH1 0x4 ADD PUSH2 0x1531 SWAP1 PUSH2 0x20E5 JUMP JUMPDEST PUSH1 0x40 MLOAD DUP1 SWAP2 SUB SWAP1 REVERT JUMPDEST PUSH2 0x154E PUSH8 0x88579CD8658C869E PUSH1 0xC0 SHL PUSH2 0x1664 JUMP JUMPDEST PUSH2 0x1562 PUSH8 0xA2F1BE6205CCF075 PUSH1 0xC0 SHL PUSH2 0x1664 JUMP JUMPDEST PUSH2 0x1576 PUSH8 0x8B988D62DE61FC95 PUSH1 0xC0 SHL PUSH2 0x1664 JUMP JUMPDEST PUSH2 0x158A PUSH8 0xC30C1269C5A3CB45 PUSH1 0xC0 SHL PUSH2 0x1664 JUMP JUMPDEST PUSH2 0x159E PUSH8 0xEC4FE1EDD3978051 PUSH1 0xC0 SHL PUSH2 0x1664 JUMP JUMPDEST PUSH1 0x0 PUSH1 0x1 PUSH1 0x0 DUP4 PUSH20 0xFFFFFFFFFFFFFFFFFFFFFFFFFFFFFFFFFFFFFFFF AND PUSH20 0xFFFFFFFFFFFFFFFFFFFFFFFFFFFFFFFFFFFFFFFF AND DUP2 MSTORE PUSH1 0x20 ADD SWAP1 DUP2 MSTORE PUSH1 0x20 ADD PUSH1 0x0 KECCAK256 PUSH1 0x0 PUSH2 0x100 EXP DUP2 SLOAD DUP2 PUSH1 0xFF MUL NOT AND SWAP1 DUP4 ISZERO ISZERO MUL OR SWAP1 SSTORE POP PUSH2 0x160A PUSH8 0xB343693BC5DB7D4E PUSH1 0xC0 SHL PUSH2 0x1664 JUMP JUMPDEST PUSH2 0x161E PUSH8 0x5B3C4AE8CC402AD PUSH1 0xC0 SHL PUSH2 0x1664 JUMP JUMPDEST DUP1 PUSH20 0xFFFFFFFFFFFFFFFFFFFFFFFFFFFFFFFFFFFFFFFF AND PUSH32 0x33EB6310A00162D25F84366E7EB4ED91841604C766707CAD80B3B7EC54B1120F PUSH1 0x40 MLOAD PUSH1 0x40 MLOAD DUP1 SWAP2 SUB SWAP1 LOG2 POP JUMP JUMPDEST POP JUMP JUMPDEST PUSH2 0x167B PUSH8 0x11FB259B4DDC7683 PUSH1 0xC0 SHL PUSH2 0x1664 JUMP JUMPDEST PUSH2 0x168F PUSH8 0x1FB0973BFDB9ADFF PUSH1 0xC0 SHL PUSH2 0x1664 JUMP JUMPDEST PUSH2 0x16A3 PUSH8 0xC6864A8B681617BB PUSH1 0xC0 SHL PUSH2 0x1664 JUMP JUMPDEST PUSH2 0x16B7 PUSH8 0xD4F9C36AE0FAD772 PUSH1 0xC0 SHL PUSH2 0x1664 JUMP JUMPDEST PUSH1 0x0 PUSH20 0xFFFFFFFFFFFFFFFFFFFFFFFFFFFFFFFFFFFFFFFF AND DUP4 PUSH20 0xFFFFFFFFFFFFFFFFFFFFFFFFFFFFFFFFFFFFFFFF AND SUB PUSH2 0x1726 JUMPI PUSH1 0x40 MLOAD PUSH32 0x8C379A000000000000000000000000000000000000000000000000000000000 DUP2 MSTORE PUSH1 0x4 ADD PUSH2 0x171D SWAP1 PUSH2 0x2835 JUMP JUMPDEST PUSH1 0x40 MLOAD DUP1 SWAP2 SUB SWAP1 REVERT JUMPDEST PUSH2 0x173A PUSH8 0xFCB6E2F60263B35 PUSH1 0xC0 SHL PUSH2 0x1664 JUMP JUMPDEST PUSH2 0x174E PUSH8 0xC36B3AF174017757 PUSH1 0xC0 SHL PUSH2 0x1664 JUMP JUMPDEST DUP1 PUSH1 0x2 PUSH1 0x0 DUP5 DUP2 MSTORE PUSH1 0x20 ADD SWAP1 DUP2 MSTORE PUSH1 0x20 ADD PUSH1 0x0 KECCAK256 PUSH1 0x0 DUP6 PUSH20 0xFFFFFFFFFFFFFFFFFFFFFFFFFFFFFFFFFFFFFFFF AND PUSH20 0xFFFFFFFFFFFFFFFFFFFFFFFFFFFFFFFFFFFFFFFF AND DUP2 MSTORE PUSH1 0x20 ADD SWAP1 DUP2 MSTORE PUSH1 0x20 ADD PUSH1 0x0 KECCAK256 PUSH1 0x0 DUP3 DUP3 SLOAD PUSH2 0x17AE SWAP2 SWAP1 PUSH2 0x2642 JUMP JUMPDEST SWAP3 POP POP DUP2 SWAP1 SSTORE POP PUSH2 0x17C9 PUSH8 0x500CB61633B858B4 PUSH1 0xC0 SHL PUSH2 0x1664 JUMP JUMPDEST PUSH2 0x17DD PUSH8 0x9F3D737CC58E81C6 PUSH1 0xC0 SHL PUSH2 0x1664 JUMP JUMPDEST DUP3 PUSH20 0xFFFFFFFFFFFFFFFFFFFFFFFFFFFFFFFFFFFFFFFF AND PUSH1 0x0 PUSH20 0xFFFFFFFFFFFFFFFFFFFFFFFFFFFFFFFFFFFFFFFF AND CALLER PUSH20 0xFFFFFFFFFFFFFFFFFFFFFFFFFFFFFFFFFFFFFFFF AND PUSH32 0xC3D58168C5AE7397731D063D5BBF3D657854427343F4C083240F7AACAA2D0F62 DUP6 DUP6 PUSH1 0x40 MLOAD PUSH2 0x1854 SWAP3 SWAP2 SWAP1 PUSH2 0x2676 JUMP JUMPDEST PUSH1 0x40 MLOAD DUP1 SWAP2 SUB SWAP1 LOG4 POP POP POP JUMP JUMPDEST PUSH1 0x0 PUSH1 0x1 SWAP1 POP SWAP2 SWAP1 POP JUMP JUMPDEST PUSH1 0x0 PUSH1 0x40 MLOAD SWAP1 POP SWAP1 JUMP JUMPDEST PUSH1 0x0 DUP1 REVERT JUMPDEST PUSH1 0x0 DUP1 REVERT JUMPDEST PUSH1 0x0 PUSH20 0xFFFFFFFFFFFFFFFFFFFFFFFFFFFFFFFFFFFFFFFF DUP3 AND SWAP1 POP SWAP2 SWAP1 POP JUMP JUMPDEST PUSH1 0x0 PUSH2 0x18AB DUP3 PUSH2 0x1880 JUMP JUMPDEST SWAP1 POP SWAP2 SWAP1 POP JUMP JUMPDEST PUSH2 0x18BB DUP2 PUSH2 0x18A0 JUMP JUMPDEST DUP2 EQ PUSH2 0x18C6 JUMPI PUSH1 0x0 DUP1 REVERT JUMPDEST POP JUMP JUMPDEST PUSH1 0x0 DUP2 CALLDATALOAD SWAP1 POP PUSH2 0x18D8 DUP2 PUSH2 0x18B2 JUMP JUMPDEST SWAP3 SWAP2 POP POP JUMP JUMPDEST PUSH1 0x0 DUP2 SWAP1 POP SWAP2 SWAP1 POP JUMP JUMPDEST PUSH2 0x18F1 DUP2 PUSH2 0x18DE JUMP JUMPDEST DUP2 EQ PUSH2 0x18FC JUMPI PUSH1 0x0 DUP1 REVERT JUMPDEST POP JUMP JUMPDEST PUSH1 0x0 DUP2 CALLDATALOAD SWAP1 POP PUSH2 0x190E DUP2 PUSH2 0x18E8 JUMP JUMPDEST SWAP3 SWAP2 POP POP JUMP JUMPDEST PUSH1 0x0 DUP1 PUSH1 0x40 DUP4 DUP6 SUB SLT ISZERO PUSH2 0x192B JUMPI PUSH2 0x192A PUSH2 0x1876 JUMP JUMPDEST JUMPDEST PUSH1 0x0 PUSH2 0x1939 DUP6 DUP3 DUP7 ADD PUSH2 0x18C9 JUMP JUMPDEST SWAP3 POP POP PUSH1 0x20 PUSH2 0x194A DUP6 DUP3 DUP7 ADD PUSH2 0x18FF JUMP JUMPDEST SWAP2 POP POP SWAP3 POP SWAP3 SWAP1 POP JUMP JUMPDEST PUSH2 0x195D DUP2 PUSH2 0x18DE JUMP JUMPDEST DUP3 MSTORE POP POP JUMP JUMPDEST PUSH1 0x0 PUSH1 0x20 DUP3 ADD SWAP1 POP PUSH2 0x1978 PUSH1 0x0 DUP4 ADD DUP5 PUSH2 0x1954 JUMP JUMPDEST SWAP3 SWAP2 POP POP JUMP JUMPDEST PUSH1 0x0 PUSH1 0x20 DUP3 DUP5 SUB SLT ISZERO PUSH2 0x1994 JUMPI PUSH2 0x1993 PUSH2 0x1876 JUMP JUMPDEST JUMPDEST PUSH1 0x0 PUSH2 0x19A2 DUP5 DUP3 DUP6 ADD PUSH2 0x18C9 JUMP JUMPDEST SWAP2 POP POP SWAP3 SWAP2 POP POP JUMP JUMPDEST PUSH1 0x0 DUP2 ISZERO ISZERO SWAP1 POP SWAP2 SWAP1 POP JUMP JUMPDEST PUSH2 0x19C0 DUP2 PUSH2 0x19AB JUMP JUMPDEST DUP3 MSTORE POP POP JUMP JUMPDEST PUSH1 0x0 PUSH1 0x20 DUP3 ADD SWAP1 POP PUSH2 0x19DB PUSH1 0x0 DUP4 ADD DUP5 PUSH2 0x19B7 JUMP JUMPDEST SWAP3 SWAP2 POP POP JUMP JUMPDEST PUSH1 0x0 DUP1 PUSH1 0x40 DUP4 DUP6 SUB SLT ISZERO PUSH2 0x19F8 JUMPI PUSH2 0x19F7 PUSH2 0x1876 JUMP JUMPDEST JUMPDEST PUSH1 0x0 PUSH2 0x1A06 DUP6 DUP3 DUP7 ADD PUSH2 0x18FF JUMP JUMPDEST SWAP3 POP POP PUSH1 0x20 PUSH2 0x1A17 DUP6 DUP3 DUP7 ADD PUSH2 0x18FF JUMP JUMPDEST SWAP2 POP POP SWAP3 POP SWAP3 SWAP1 POP JUMP JUMPDEST PUSH1 0x0 PUSH1 0x20 DUP3 DUP5 SUB SLT ISZERO PUSH2 0x1A37 JUMPI PUSH2 0x1A36 PUSH2 0x1876 JUMP JUMPDEST JUMPDEST PUSH1 0x0 PUSH2 0x1A45 DUP5 DUP3 DUP6 ADD PUSH2 0x18FF JUMP JUMPDEST SWAP2 POP POP SWAP3 SWAP2 POP POP JUMP JUMPDEST PUSH1 0x0 DUP2 MLOAD SWAP1 POP SWAP2 SWAP1 POP JUMP JUMPDEST PUSH1 0x0 DUP3 DUP3 MSTORE PUSH1 0x20 DUP3 ADD SWAP1 POP SWAP3 SWAP2 POP POP JUMP JUMPDEST PUSH1 0x0 JUMPDEST DUP4 DUP2 LT ISZERO PUSH2 0x1A88 JUMPI DUP1 DUP3 ADD MLOAD DUP2 DUP5 ADD MSTORE PUSH1 0x20 DUP2 ADD SWAP1 POP PUSH2 0x1A6D JUMP JUMPDEST PUSH1 0x0 DUP5 DUP5 ADD MSTORE POP POP POP POP JUMP JUMPDEST PUSH1 0x0 PUSH1 0x1F NOT PUSH1 0x1F DUP4 ADD AND SWAP1 POP SWAP2 SWAP1 POP JUMP JUMPDEST PUSH1 0x0 PUSH2 0x1AB0 DUP3 PUSH2 0x1A4E JUMP JUMPDEST PUSH2 0x1ABA DUP2 DUP6 PUSH2 0x1A59 JUMP JUMPDEST SWAP4 POP PUSH2 0x1ACA DUP2 DUP6 PUSH1 0x20 DUP7 ADD PUSH2 0x1A6A JUMP JUMPDEST PUSH2 0x1AD3 DUP2 PUSH2 0x1A94 JUMP JUMPDEST DUP5 ADD SWAP2 POP POP SWAP3 SWAP2 POP POP JUMP JUMPDEST PUSH1 0x0 DUP2 SWAP1 POP SWAP2 SWAP1 POP JUMP JUMPDEST PUSH2 0x1AF1 DUP2 PUSH2 0x1ADE JUMP JUMPDEST DUP3 MSTORE POP POP JUMP JUMPDEST PUSH1 0x0 PUSH1 0xA0 DUP3 ADD SWAP1 POP DUP2 DUP2 SUB PUSH1 0x0 DUP4 ADD MSTORE PUSH2 0x1B11 DUP2 DUP9 PUSH2 0x1AA5 JUMP JUMPDEST SWAP1 POP PUSH2 0x1B20 PUSH1 0x20 DUP4 ADD DUP8 PUSH2 0x1954 JUMP JUMPDEST PUSH2 0x1B2D PUSH1 0x40 DUP4 ADD DUP7 PUSH2 0x1954 JUMP JUMPDEST DUP2 DUP2 SUB PUSH1 0x60 DUP4 ADD MSTORE PUSH2 0x1B3F DUP2 DUP6 PUSH2 0x1AA5 JUMP JUMPDEST SWAP1 POP PUSH2 0x1B4E PUSH1 0x80 DUP4 ADD DUP5 PUSH2 0x1AE8 JUMP JUMPDEST SWAP7 SWAP6 POP POP POP POP POP POP JUMP JUMPDEST PUSH2 0x1B61 DUP2 PUSH2 0x18A0 JUMP JUMPDEST DUP3 MSTORE POP POP JUMP JUMPDEST PUSH1 0x0 PUSH1 0x20 DUP3 ADD SWAP1 POP PUSH2 0x1B7C PUSH1 0x0 DUP4 ADD DUP5 PUSH2 0x1B58 JUMP JUMPDEST SWAP3 SWAP2 POP POP JUMP JUMPDEST PUSH2 0x1B8B DUP2 PUSH2 0x19AB JUMP JUMPDEST DUP2 EQ PUSH2 0x1B96 JUMPI PUSH1 0x0 DUP1 REVERT JUMPDEST POP JUMP JUMPDEST PUSH1 0x0 DUP2 CALLDATALOAD SWAP1 POP PUSH2 0x1BA8 DUP2 PUSH2 0x1B82 JUMP JUMPDEST SWAP3 SWAP2 POP POP JUMP JUMPDEST PUSH1 0x0 DUP1 PUSH1 0x40 DUP4 DUP6 SUB SLT ISZERO PUSH2 0x1BC5 JUMPI PUSH2 0x1BC4 PUSH2 0x1876 JUMP JUMPDEST JUMPDEST PUSH1 0x0 PUSH2 0x1BD3 DUP6 DUP3 DUP7 ADD PUSH2 0x18C9 JUMP JUMPDEST SWAP3 POP POP PUSH1 0x20 PUSH2 0x1BE4 DUP6 DUP3 DUP7 ADD PUSH2 0x1B99 JUMP JUMPDEST SWAP2 POP POP SWAP3 POP SWAP3 SWAP1 POP JUMP JUMPDEST PUSH1 0x0 DUP1 REVERT JUMPDEST PUSH1 0x0 DUP1 REVERT JUMPDEST PUSH32 0x4E487B7100000000000000000000000000000000000000000000000000000000 PUSH1 0x0 MSTORE PUSH1 0x41 PUSH1 0x4 MSTORE PUSH1 0x24 PUSH1 0x0 REVERT JUMPDEST PUSH2 0x1C30 DUP3 PUSH2 0x1A94 JUMP JUMPDEST DUP2 ADD DUP2 DUP2 LT PUSH8 0xFFFFFFFFFFFFFFFF DUP3 GT OR ISZERO PUSH2 0x1C4F JUMPI PUSH2 0x1C4E PUSH2 0x1BF8 JUMP JUMPDEST JUMPDEST DUP1 PUSH1 0x40 MSTORE POP POP POP JUMP JUMPDEST PUSH1 0x0 PUSH2 0x1C62 PUSH2 0x186C JUMP JUMPDEST SWAP1 POP PUSH2 0x1C6E DUP3 DUP3 PUSH2 0x1C27 JUMP JUMPDEST SWAP2 SWAP1 POP JUMP JUMPDEST PUSH1 0x0 PUSH8 0xFFFFFFFFFFFFFFFF DUP3 GT ISZERO PUSH2 0x1C8E JUMPI PUSH2 0x1C8D PUSH2 0x1BF8 JUMP JUMPDEST JUMPDEST PUSH2 0x1C97 DUP3 PUSH2 0x1A94 JUMP JUMPDEST SWAP1 POP PUSH1 0x20 DUP2 ADD SWAP1 POP SWAP2 SWAP1 POP JUMP JUMPDEST DUP3 DUP2 DUP4 CALLDATACOPY PUSH1 0x0 DUP4 DUP4 ADD MSTORE POP POP POP JUMP JUMPDEST PUSH1 0x0 PUSH2 0x1CC6 PUSH2 0x1CC1 DUP5 PUSH2 0x1C73 JUMP JUMPDEST PUSH2 0x1C58 JUMP JUMPDEST SWAP1 POP DUP3 DUP2 MSTORE PUSH1 0x20 DUP2 ADD DUP5 DUP5 DUP5 ADD GT ISZERO PUSH2 0x1CE2 JUMPI PUSH2 0x1CE1 PUSH2 0x1BF3 JUMP JUMPDEST JUMPDEST PUSH2 0x1CED DUP5 DUP3 DUP6 PUSH2 0x1CA4 JUMP JUMPDEST POP SWAP4 SWAP3 POP POP POP JUMP JUMPDEST PUSH1 0x0 DUP3 PUSH1 0x1F DUP4 ADD SLT PUSH2 0x1D0A JUMPI PUSH2 0x1D09 PUSH2 0x1BEE JUMP JUMPDEST JUMPDEST DUP2 CALLDATALOAD PUSH2 0x1D1A DUP5 DUP3 PUSH1 0x20 DUP7 ADD PUSH2 0x1CB3 JUMP JUMPDEST SWAP2 POP POP SWAP3 SWAP2 POP POP JUMP JUMPDEST PUSH2 0x1D2C DUP2 PUSH2 0x1ADE JUMP JUMPDEST DUP2 EQ PUSH2 0x1D37 JUMPI PUSH1 0x0 DUP1 REVERT JUMPDEST POP JUMP JUMPDEST PUSH1 0x0 DUP2 CALLDATALOAD SWAP1 POP PUSH2 0x1D49 DUP2 PUSH2 0x1D23 JUMP JUMPDEST SWAP3 SWAP2 POP POP JUMP JUMPDEST PUSH1 0x0 DUP1 PUSH1 0x0 DUP1 PUSH1 0x0 PUSH1 0xA0 DUP7 DUP9 SUB SLT ISZERO PUSH2 0x1D6B JUMPI PUSH2 0x1D6A PUSH2 0x1876 JUMP JUMPDEST JUMPDEST PUSH1 0x0 PUSH2 0x1D79 DUP9 DUP3 DUP10 ADD PUSH2 0x18C9 JUMP JUMPDEST SWAP6 POP POP PUSH1 0x20 DUP7 ADD CALLDATALOAD PUSH8 0xFFFFFFFFFFFFFFFF DUP2 GT ISZERO PUSH2 0x1D9A JUMPI PUSH2 0x1D99 PUSH2 0x187B JUMP JUMPDEST JUMPDEST PUSH2 0x1DA6 DUP9 DUP3 DUP10 ADD PUSH2 0x1CF5 JUMP JUMPDEST SWAP5 POP POP PUSH1 0x40 PUSH2 0x1DB7 DUP9 DUP3 DUP10 ADD PUSH2 0x18FF JUMP JUMPDEST SWAP4 POP POP PUSH1 0x60 DUP7 ADD CALLDATALOAD PUSH8 0xFFFFFFFFFFFFFFFF DUP2 GT ISZERO PUSH2 0x1DD8 JUMPI PUSH2 0x1DD7 PUSH2 0x187B JUMP JUMPDEST JUMPDEST PUSH2 0x1DE4 DUP9 DUP3 DUP10 ADD PUSH2 0x1CF5 JUMP JUMPDEST SWAP3 POP POP PUSH1 0x80 PUSH2 0x1DF5 DUP9 DUP3 DUP10 ADD PUSH2 0x1D3A JUMP JUMPDEST SWAP2 POP POP SWAP3 SWAP6 POP SWAP3 SWAP6 SWAP1 SWAP4 POP JUMP JUMPDEST PUSH1 0x0 DUP1 PUSH1 0x40 DUP4 DUP6 SUB SLT ISZERO PUSH2 0x1E19 JUMPI PUSH2 0x1E18 PUSH2 0x1876 JUMP JUMPDEST JUMPDEST PUSH1 0x0 PUSH2 0x1E27 DUP6 DUP3 DUP7 ADD PUSH2 0x18C9 JUMP JUMPDEST SWAP3 POP POP PUSH1 0x20 PUSH2 0x1E38 DUP6 DUP3 DUP7 ADD PUSH2 0x18C9 JUMP JUMPDEST SWAP2 POP POP SWAP3 POP SWAP3 SWAP1 POP JUMP JUMPDEST PUSH1 0x0 PUSH8 0xFFFFFFFFFFFFFFFF DUP3 GT ISZERO PUSH2 0x1E5D JUMPI PUSH2 0x1E5C PUSH2 0x1BF8 JUMP JUMPDEST JUMPDEST PUSH2 0x1E66 DUP3 PUSH2 0x1A94 JUMP JUMPDEST SWAP1 POP PUSH1 0x20 DUP2 ADD SWAP1 POP SWAP2 SWAP1 POP JUMP JUMPDEST PUSH1 0x0 PUSH2 0x1E86 PUSH2 0x1E81 DUP5 PUSH2 0x1E42 JUMP JUMPDEST PUSH2 0x1C58 JUMP JUMPDEST SWAP1 POP DUP3 DUP2 MSTORE PUSH1 0x20 DUP2 ADD DUP5 DUP5 DUP5 ADD GT ISZERO PUSH2 0x1EA2 JUMPI PUSH2 0x1EA1 PUSH2 0x1BF3 JUMP JUMPDEST JUMPDEST PUSH2 0x1EAD DUP5 DUP3 DUP6 PUSH2 0x1CA4 JUMP JUMPDEST POP SWAP4 SWAP3 POP POP POP JUMP JUMPDEST PUSH1 0x0 DUP3 PUSH1 0x1F DUP4 ADD SLT PUSH2 0x1ECA JUMPI PUSH2 0x1EC9 PUSH2 0x1BEE JUMP JUMPDEST JUMPDEST DUP2 CALLDATALOAD PUSH2 0x1EDA DUP5 DUP3 PUSH1 0x20 DUP7 ADD PUSH2 0x1E73 JUMP JUMPDEST SWAP2 POP POP SWAP3 SWAP2 POP POP JUMP JUMPDEST PUSH1 0x0 DUP1 PUSH1 0x0 DUP1 PUSH1 0x0 PUSH1 0xA0 DUP7 DUP9 SUB SLT ISZERO PUSH2 0x1EFF JUMPI PUSH2 0x1EFE PUSH2 0x1876 JUMP JUMPDEST JUMPDEST PUSH1 0x0 PUSH2 0x1F0D DUP9 DUP3 DUP10 ADD PUSH2 0x18C9 JUMP JUMPDEST SWAP6 POP POP PUSH1 0x20 PUSH2 0x1F1E DUP9 DUP3 DUP10 ADD PUSH2 0x18C9 JUMP JUMPDEST SWAP5 POP POP PUSH1 0x40 PUSH2 0x1F2F DUP9 DUP3 DUP10 ADD PUSH2 0x18FF JUMP JUMPDEST SWAP4 POP POP PUSH1 0x60 PUSH2 0x1F40 DUP9 DUP3 DUP10 ADD PUSH2 0x18FF JUMP JUMPDEST SWAP3 POP POP PUSH1 0x80 DUP7 ADD CALLDATALOAD PUSH8 0xFFFFFFFFFFFFFFFF DUP2 GT ISZERO PUSH2 0x1F61 JUMPI PUSH2 0x1F60 PUSH2 0x187B JUMP JUMPDEST JUMPDEST PUSH2 0x1F6D DUP9 DUP3 DUP10 ADD PUSH2 0x1EB5 JUMP JUMPDEST SWAP2 POP POP SWAP3 SWAP6 POP SWAP3 SWAP6 SWAP1 SWAP4 POP JUMP JUMPDEST PUSH1 0x0 DUP1 PUSH1 0x0 PUSH1 0x60 DUP5 DUP7 SUB SLT ISZERO PUSH2 0x1F93 JUMPI PUSH2 0x1F92 PUSH2 0x1876 JUMP JUMPDEST JUMPDEST PUSH1 0x0 PUSH2 0x1FA1 DUP7 DUP3 DUP8 ADD PUSH2 0x18C9 JUMP JUMPDEST SWAP4 POP POP PUSH1 0x20 PUSH2 0x1FB2 DUP7 DUP3 DUP8 ADD PUSH2 0x18FF JUMP JUMPDEST SWAP3 POP POP PUSH1 0x40 PUSH2 0x1FC3 DUP7 DUP3 DUP8 ADD PUSH2 0x18FF JUMP JUMPDEST SWAP2 POP POP SWAP3 POP SWAP3 POP SWAP3 JUMP JUMPDEST PUSH32 0x455243313135353A20646972656363696F6E20696E76616C6964610000000000 PUSH1 0x0 DUP3 ADD MSTORE POP JUMP JUMPDEST PUSH1 0x0 PUSH2 0x2003 PUSH1 0x1B DUP4 PUSH2 0x1A59 JUMP JUMPDEST SWAP2 POP PUSH2 0x200E DUP3 PUSH2 0x1FCD JUMP JUMPDEST PUSH1 0x20 DUP3 ADD SWAP1 POP SWAP2 SWAP1 POP JUMP JUMPDEST PUSH1 0x0 PUSH1 0x20 DUP3 ADD SWAP1 POP DUP2 DUP2 SUB PUSH1 0x0 DUP4 ADD MSTORE PUSH2 0x2032 DUP2 PUSH2 0x1FF6 JUMP JUMPDEST SWAP1 POP SWAP2 SWAP1 POP JUMP JUMPDEST PUSH32 0x4E487B7100000000000000000000000000000000000000000000000000000000 PUSH1 0x0 MSTORE PUSH1 0x22 PUSH1 0x4 MSTORE PUSH1 0x24 PUSH1 0x0 REVERT JUMPDEST PUSH1 0x0 PUSH1 0x2 DUP3 DIV SWAP1 POP PUSH1 0x1 DUP3 AND DUP1 PUSH2 0x2080 JUMPI PUSH1 0x7F DUP3 AND SWAP2 POP JUMPDEST PUSH1 0x20 DUP3 LT DUP2 SUB PUSH2 0x2093 JUMPI PUSH2 0x2092 PUSH2 0x2039 JUMP JUMPDEST JUMPDEST POP SWAP2 SWAP1 POP JUMP JUMPDEST PUSH32 0x43616C6C6572206973206E6F7420746865206F776E6572000000000000000000 PUSH1 0x0 DUP3 ADD MSTORE POP JUMP JUMPDEST PUSH1 0x0 PUSH2 0x20CF PUSH1 0x17 DUP4 PUSH2 0x1A59 JUMP JUMPDEST SWAP2 POP PUSH2 0x20DA DUP3 PUSH2 0x2099 JUMP JUMPDEST PUSH1 0x20 DUP3 ADD SWAP1 POP SWAP2 SWAP1 POP JUMP JUMPDEST PUSH1 0x0 PUSH1 0x20 DUP3 ADD SWAP1 POP DUP2 DUP2 SUB PUSH1 0x0 DUP4 ADD MSTORE PUSH2 0x20FE DUP2 PUSH2 0x20C2 JUMP JUMPDEST SWAP1 POP SWAP2 SWAP1 POP JUMP JUMPDEST PUSH32 0x43616C6C6572206973206E6F7420612063657274696669657200000000000000 PUSH1 0x0 DUP3 ADD MSTORE POP JUMP JUMPDEST PUSH1 0x0 PUSH2 0x213B PUSH1 0x19 DUP4 PUSH2 0x1A59 JUMP JUMPDEST SWAP2 POP PUSH2 0x2146 DUP3 PUSH2 0x2105 JUMP JUMPDEST PUSH1 0x20 DUP3 ADD SWAP1 POP SWAP2 SWAP1 POP JUMP JUMPDEST PUSH1 0x0 PUSH1 0x20 DUP3 ADD SWAP1 POP DUP2 DUP2 SUB PUSH1 0x0 DUP4 ADD MSTORE PUSH2 0x216A DUP2 PUSH2 0x212E JUMP JUMPDEST SWAP1 POP SWAP2 SWAP1 POP JUMP JUMPDEST PUSH32 0x4E487B7100000000000000000000000000000000000000000000000000000000 PUSH1 0x0 MSTORE PUSH1 0x11 PUSH1 0x4 MSTORE PUSH1 0x24 PUSH1 0x0 REVERT JUMPDEST PUSH1 0x0 PUSH2 0x21AB DUP3 PUSH2 0x18DE JUMP JUMPDEST SWAP2 POP PUSH32 0xFFFFFFFFFFFFFFFFFFFFFFFFFFFFFFFFFFFFFFFFFFFFFFFFFFFFFFFFFFFFFFFF DUP3 SUB PUSH2 0x21DD JUMPI PUSH2 0x21DC PUSH2 0x2171 JUMP JUMPDEST JUMPDEST PUSH1 0x1 DUP3 ADD SWAP1 POP SWAP2 SWAP1 POP JUMP JUMPDEST PUSH1 0x0 DUP2 SWAP1 POP DUP2 PUSH1 0x0 MSTORE PUSH1 0x20 PUSH1 0x0 KECCAK256 SWAP1 POP SWAP2 SWAP1 POP JUMP JUMPDEST PUSH1 0x0 PUSH1 0x20 PUSH1 0x1F DUP4 ADD DIV SWAP1 POP SWAP2 SWAP1 POP JUMP JUMPDEST PUSH1 0x0 DUP3 DUP3 SHL SWAP1 POP SWAP3 SWAP2 POP POP JUMP JUMPDEST PUSH1 0x0 PUSH1 0x8 DUP4 MUL PUSH2 0x224A PUSH32 0xFFFFFFFFFFFFFFFFFFFFFFFFFFFFFFFFFFFFFFFFFFFFFFFFFFFFFFFFFFFFFFFF DUP3 PUSH2 0x220D JUMP JUMPDEST PUSH2 0x2254 DUP7 DUP4 PUSH2 0x220D JUMP JUMPDEST SWAP6 POP DUP1 NOT DUP5 AND SWAP4 POP DUP1 DUP7 AND DUP5 OR SWAP3 POP POP POP SWAP4 SWAP3 POP POP POP JUMP JUMPDEST PUSH1 0x0 DUP2 SWAP1 POP SWAP2 SWAP1 POP JUMP JUMPDEST PUSH1 0x0 PUSH2 0x2291 PUSH2 0x228C PUSH2 0x2287 DUP5 PUSH2 0x18DE JUMP JUMPDEST PUSH2 0x226C JUMP JUMPDEST PUSH2 0x18DE JUMP JUMPDEST SWAP1 POP SWAP2 SWAP1 POP JUMP JUMPDEST PUSH1 0x0 DUP2 SWAP1 POP SWAP2 SWAP1 POP JUMP JUMPDEST PUSH2 0x22AB DUP4 PUSH2 0x2276 JUMP JUMPDEST PUSH2 0x22BF PUSH2 0x22B7 DUP3 PUSH2 0x2298 JUMP JUMPDEST DUP5 DUP5 SLOAD PUSH2 0x221A JUMP JUMPDEST DUP3 SSTORE POP POP POP POP JUMP JUMPDEST PUSH1 0x0 SWAP1 JUMP JUMPDEST PUSH2 0x22D4 PUSH2 0x22C7 JUMP JUMPDEST PUSH2 0x22DF DUP2 DUP5 DUP5 PUSH2 0x22A2 JUMP JUMPDEST POP POP POP JUMP JUMPDEST JUMPDEST DUP2 DUP2 LT ISZERO PUSH2 0x2303 JUMPI PUSH2 0x22F8 PUSH1 0x0 DUP3 PUSH2 0x22CC JUMP JUMPDEST PUSH1 0x1 DUP2 ADD SWAP1 POP PUSH2 0x22E5 JUMP JUMPDEST POP POP JUMP JUMPDEST PUSH1 0x1F DUP3 GT ISZERO PUSH2 0x2348 JUMPI PUSH2 0x2319 DUP2 PUSH2 0x21E8 JUMP JUMPDEST PUSH2 0x2322 DUP5 PUSH2 0x21FD JUMP JUMPDEST DUP2 ADD PUSH1 0x20 DUP6 LT ISZERO PUSH2 0x2331 JUMPI DUP2 SWAP1 POP JUMPDEST PUSH2 0x2345 PUSH2 0x233D DUP6 PUSH2 0x21FD JUMP JUMPDEST DUP4 ADD DUP3 PUSH2 0x22E4 JUMP JUMPDEST POP POP JUMPDEST POP POP POP JUMP JUMPDEST PUSH1 0x0 DUP3 DUP3 SHR SWAP1 POP SWAP3 SWAP2 POP POP JUMP JUMPDEST PUSH1 0x0 PUSH2 0x236B PUSH1 0x0 NOT DUP5 PUSH1 0x8 MUL PUSH2 0x234D JUMP JUMPDEST NOT DUP1 DUP4 AND SWAP2 POP POP SWAP3 SWAP2 POP POP JUMP JUMPDEST PUSH1 0x0 PUSH2 0x2384 DUP4 DUP4 PUSH2 0x235A JUMP JUMPDEST SWAP2 POP DUP3 PUSH1 0x2 MUL DUP3 OR SWAP1 POP SWAP3 SWAP2 POP POP JUMP JUMPDEST PUSH2 0x239D DUP3 PUSH2 0x1A4E JUMP JUMPDEST PUSH8 0xFFFFFFFFFFFFFFFF DUP2 GT ISZERO PUSH2 0x23B6 JUMPI PUSH2 0x23B5 PUSH2 0x1BF8 JUMP JUMPDEST JUMPDEST PUSH2 0x23C0 DUP3 SLOAD PUSH2 0x2068 JUMP JUMPDEST PUSH2 0x23CB DUP3 DUP3 DUP6 PUSH2 0x2307 JUMP JUMPDEST PUSH1 0x0 PUSH1 0x20 SWAP1 POP PUSH1 0x1F DUP4 GT PUSH1 0x1 DUP2 EQ PUSH2 0x23FE JUMPI PUSH1 0x0 DUP5 ISZERO PUSH2 0x23EC JUMPI DUP3 DUP8 ADD MLOAD SWAP1 POP JUMPDEST PUSH2 0x23F6 DUP6 DUP3 PUSH2 0x2378 JUMP JUMPDEST DUP7 SSTORE POP PUSH2 0x245E JUMP JUMPDEST PUSH1 0x1F NOT DUP5 AND PUSH2 0x240C DUP7 PUSH2 0x21E8 JUMP JUMPDEST PUSH1 0x0 JUMPDEST DUP3 DUP2 LT ISZERO PUSH2 0x2434 JUMPI DUP5 DUP10 ADD MLOAD DUP3 SSTORE PUSH1 0x1 DUP3 ADD SWAP2 POP PUSH1 0x20 DUP6 ADD SWAP5 POP PUSH1 0x20 DUP2 ADD SWAP1 POP PUSH2 0x240F JUMP JUMPDEST DUP7 DUP4 LT ISZERO PUSH2 0x2451 JUMPI DUP5 DUP10 ADD MLOAD PUSH2 0x244D PUSH1 0x1F DUP10 AND DUP3 PUSH2 0x235A JUMP JUMPDEST DUP4 SSTORE POP JUMPDEST PUSH1 0x1 PUSH1 0x2 DUP9 MUL ADD DUP9 SSTORE POP POP POP JUMPDEST POP POP POP POP POP POP JUMP JUMPDEST PUSH1 0x0 PUSH1 0x60 DUP3 ADD SWAP1 POP DUP2 DUP2 SUB PUSH1 0x0 DUP4 ADD MSTORE PUSH2 0x2480 DUP2 DUP7 PUSH2 0x1AA5 JUMP JUMPDEST SWAP1 POP PUSH2 0x248F PUSH1 0x20 DUP4 ADD DUP6 PUSH2 0x1954 JUMP JUMPDEST PUSH2 0x249C PUSH1 0x40 DUP4 ADD DUP5 PUSH2 0x1AE8 JUMP JUMPDEST SWAP5 SWAP4 POP POP POP POP JUMP JUMPDEST PUSH32 0x455243313135353A206E6F206175746F72697A61646F00000000000000000000 PUSH1 0x0 DUP3 ADD MSTORE POP JUMP JUMPDEST PUSH1 0x0 PUSH2 0x24DA PUSH1 0x16 DUP4 PUSH2 0x1A59 JUMP JUMPDEST SWAP2 POP PUSH2 0x24E5 DUP3 PUSH2 0x24A4 JUMP JUMPDEST PUSH1 0x20 DUP3 ADD SWAP1 POP SWAP2 SWAP1 POP JUMP JUMPDEST PUSH1 0x0 PUSH1 0x20 DUP3 ADD SWAP1 POP DUP2 DUP2 SUB PUSH1 0x0 DUP4 ADD MSTORE PUSH2 0x2509 DUP2 PUSH2 0x24CD JUMP JUMPDEST SWAP1 POP SWAP2 SWAP1 POP JUMP JUMPDEST PUSH32 0x455243313135353A206E6F207365207075656465207472616E73666572697220 PUSH1 0x0 DUP3 ADD MSTORE PUSH32 0x61206C6120646972656363696F6E206365726F00000000000000000000000000 PUSH1 0x20 DUP3 ADD MSTORE POP JUMP JUMPDEST PUSH1 0x0 PUSH2 0x256C PUSH1 0x33 DUP4 PUSH2 0x1A59 JUMP JUMPDEST SWAP2 POP PUSH2 0x2577 DUP3 PUSH2 0x2510 JUMP JUMPDEST PUSH1 0x40 DUP3 ADD SWAP1 POP SWAP2 SWAP1 POP JUMP JUMPDEST PUSH1 0x0 PUSH1 0x20 DUP3 ADD SWAP1 POP DUP2 DUP2 SUB PUSH1 0x0 DUP4 ADD MSTORE PUSH2 0x259B DUP2 PUSH2 0x255F JUMP JUMPDEST SWAP1 POP SWAP2 SWAP1 POP JUMP JUMPDEST PUSH32 0x455243313135353A2062616C616E636520696E737566696369656E7465000000 PUSH1 0x0 DUP3 ADD MSTORE POP JUMP JUMPDEST PUSH1 0x0 PUSH2 0x25D8 PUSH1 0x1D DUP4 PUSH2 0x1A59 JUMP JUMPDEST SWAP2 POP PUSH2 0x25E3 DUP3 PUSH2 0x25A2 JUMP JUMPDEST PUSH1 0x20 DUP3 ADD SWAP1 POP SWAP2 SWAP1 POP JUMP JUMPDEST PUSH1 0x0 PUSH1 0x20 DUP3 ADD SWAP1 POP DUP2 DUP2 SUB PUSH1 0x0 DUP4 ADD MSTORE PUSH2 0x2607 DUP2 PUSH2 0x25CB JUMP JUMPDEST SWAP1 POP SWAP2 SWAP1 POP JUMP JUMPDEST PUSH1 0x0 PUSH2 0x2619 DUP3 PUSH2 0x18DE JUMP JUMPDEST SWAP2 POP PUSH2 0x2624 DUP4 PUSH2 0x18DE JUMP JUMPDEST SWAP3 POP DUP3 DUP3 SUB SWAP1 POP DUP2 DUP2 GT ISZERO PUSH2 0x263C JUMPI PUSH2 0x263B PUSH2 0x2171 JUMP JUMPDEST JUMPDEST SWAP3 SWAP2 POP POP JUMP JUMPDEST PUSH1 0x0 PUSH2 0x264D DUP3 PUSH2 0x18DE JUMP JUMPDEST SWAP2 POP PUSH2 0x2658 DUP4 PUSH2 0x18DE JUMP JUMPDEST SWAP3 POP DUP3 DUP3 ADD SWAP1 POP DUP1 DUP3 GT ISZERO PUSH2 0x2670 JUMPI PUSH2 0x266F PUSH2 0x2171 JUMP JUMPDEST JUMPDEST SWAP3 SWAP2 POP POP JUMP JUMPDEST PUSH1 0x0 PUSH1 0x40 DUP3 ADD SWAP1 POP PUSH2 0x268B PUSH1 0x0 DUP4 ADD DUP6 PUSH2 0x1954 JUMP JUMPDEST PUSH2 0x2698 PUSH1 0x20 DUP4 ADD DUP5 PUSH2 0x1954 JUMP JUMPDEST SWAP4 SWAP3 POP POP POP JUMP JUMPDEST PUSH32 0x455243313135353A20736F6C6F20656C2070726F706965746172696F20707565 PUSH1 0x0 DUP3 ADD MSTORE PUSH32 0x6465207175656D61722073757320746F6B656E73000000000000000000000000 PUSH1 0x20 DUP3 ADD MSTORE POP JUMP JUMPDEST PUSH1 0x0 PUSH2 0x26FB PUSH1 0x34 DUP4 PUSH2 0x1A59 JUMP JUMPDEST SWAP2 POP PUSH2 0x2706 DUP3 PUSH2 0x269F JUMP JUMPDEST PUSH1 0x40 DUP3 ADD SWAP1 POP SWAP2 SWAP1 POP JUMP JUMPDEST PUSH1 0x0 PUSH1 0x20 DUP3 ADD SWAP1 POP DUP2 DUP2 SUB PUSH1 0x0 DUP4 ADD MSTORE PUSH2 0x272A DUP2 PUSH2 0x26EE JUMP JUMPDEST SWAP1 POP SWAP2 SWAP1 POP JUMP JUMPDEST PUSH32 0x455243313135353A2062616C616E636520696E737566696369656E7465207061 PUSH1 0x0 DUP3 ADD MSTORE PUSH32 0x7261207175656D61720000000000000000000000000000000000000000000000 PUSH1 0x20 DUP3 ADD MSTORE POP JUMP JUMPDEST PUSH1 0x0 PUSH2 0x278D PUSH1 0x29 DUP4 PUSH2 0x1A59 JUMP JUMPDEST SWAP2 POP PUSH2 0x2798 DUP3 PUSH2 0x2731 JUMP JUMPDEST PUSH1 0x40 DUP3 ADD SWAP1 POP SWAP2 SWAP1 POP JUMP JUMPDEST PUSH1 0x0 PUSH1 0x20 DUP3 ADD SWAP1 POP DUP2 DUP2 SUB PUSH1 0x0 DUP4 ADD MSTORE PUSH2 0x27BC DUP2 PUSH2 0x2780 JUMP JUMPDEST SWAP1 POP SWAP2 SWAP1 POP JUMP JUMPDEST PUSH32 0x455243313135353A206E6F207365207075656465206163756E61722061206C61 PUSH1 0x0 DUP3 ADD MSTORE PUSH32 0x20646972656363696F6E206365726F0000000000000000000000000000000000 PUSH1 0x20 DUP3 ADD MSTORE POP JUMP JUMPDEST PUSH1 0x0 PUSH2 0x281F PUSH1 0x2F DUP4 PUSH2 0x1A59 JUMP JUMPDEST SWAP2 POP PUSH2 0x282A DUP3 PUSH2 0x27C3 JUMP JUMPDEST PUSH1 0x40 DUP3 ADD SWAP1 POP SWAP2 SWAP1 POP JUMP JUMPDEST PUSH1 0x0 PUSH1 0x20 DUP3 ADD SWAP1 POP DUP2 DUP2 SUB PUSH1 0x0 DUP4 ADD MSTORE PUSH2 0x284E DUP2 PUSH2 0x2812 JUMP JUMPDEST SWAP1 POP SWAP2 SWAP1 POP JUMP INVALID LOG2 PUSH5 0x6970667358 0x22 SLT KECCAK256 TLOAD 0xC0 0xC1 0xE5 PUSH6 0x5C4435234A19 0xC7 JUMP PUSH14 0x8F490029F0CA0CC677ACFC43A0B6 0x4D TSTORE MLOAD EQ PUSH5 0x736F6C6343 STOP ADDMOD SHR STOP CALLER "},"methodIdentifiers":{"balanceOf(address,uint256)":"00fdd58e","burn(address,uint256,uint256)":"f5298aca","certifyAndMintBatch(address,string,uint256,string,bytes32)":"cee28a59","creditDetails(uint256)":"85775d47","grantCertifierRole(address)":"86f10405","isApprovedForAll(address,address)":"e985e9c5","isCertifier(address)":"1c2353e1","owner()":"8da5cb5b","retireCredits(uint256,uint256)":"3ea0fb13","revokeCertifierRole(address)":"fc810286","safeTransferFrom(address,address,uint256,uint256,bytes)":"f242432a","setApprovalForAll(address,bool)":"a22cb465"}}}}}