{"contracts/CSA_LatinHack.sol":{"CSA_LatinHack":{"abi":[{"inputs":[{"internalType":"address","name":"initialOwner","type":"address"}],"stateMutability":"nonpayable","type":"constructor"},{"anonymous":false,"inputs":[{"indexed":true,"internalType":"address","name":"_owner","type":"address"},{"indexed":true,"internalType":"address","name":"_operator","type":"address"},{"indexed":false,"internalType":"bool","name":"_approved","type":"bool"}],"name":"ApprovalForAll","type":"event"},{"anonymous":false,"inputs":[{"indexed":false,"internalType":"uint256","name":"seasonId","type":"uint256"},{"indexed":false,"internalType":"address","name":"member","type":"address"},{"indexed":false,"internalType":"uint256","name":"weekNumber","type":"uint256"}],"name":"BoxRedeemed","type":"event"},{"anonymous":false,"inputs":[{"indexed":false,"internalType":"uint256","name":"seasonId","type":"uint256"},{"indexed":false,"internalType":"address","name":"member","type":"address"},{"indexed":false,"internalType":"uint256","name":"amount","type":"uint256"}],"name":"MembershipPurchased","type":"event"},{"anonymous":false,"inputs":[{"indexed":false,"internalType":"uint256","name":"seasonId","type":"uint256"},{"indexed":false,"internalType":"string","name":"name","type":"string"},{"indexed":false,"internalType":"uint256","name":"price","type":"uint256"},{"indexed":false,"internalType":"uint256","name":"capacity","type":"uint256"}],"name":"SeasonCreated","type":"event"},{"anonymous":false,"inputs":[{"indexed":true,"internalType":"address","name":"_operator","type":"address"},{"indexed":true,"internalType":"address","name":"_from","type":"address"},{"indexed":true,"internalType":"address","name":"_to","type":"address"},{"indexed":false,"internalType":"uint256","name":"_id","type":"uint256"},{"indexed":false,"internalType":"uint256","name":"_amount","type":"uint256"}],"name":"TransferSingle","type":"event"},{"inputs":[{"internalType":"address","name":"account","type":"address"},{"internalType":"uint256","name":"id","type":"uint256"}],"name":"balanceOf","outputs":[{"internalType":"uint256","name":"","type":"uint256"}],"stateMutability":"view","type":"function"},{"inputs":[{"internalType":"address","name":"from","type":"address"},{"internalType":"uint256","name":"id","type":"uint256"},{"internalType":"uint256","name":"amount","type":"uint256"}],"name":"burn","outputs":[],"stateMutability":"nonpayable","type":"function"},{"inputs":[],"name":"buyMembership","outputs":[],"stateMutability":"payable","type":"function"},{"inputs":[{"internalType":"uint256","name":"seasonId","type":"uint256"}],"name":"closeSeasonSales","outputs":[],"stateMutability":"nonpayable","type":"function"},{"inputs":[{"internalType":"string","name":"seasonName","type":"string"},{"internalType":"uint256","name":"price","type":"uint256"},{"internalType":"uint256","name":"capacity","type":"uint256"},{"internalType":"uint256","name":"durationInWeeks","type":"uint256"}],"name":"createNewSeason","outputs":[],"stateMutability":"nonpayable","type":"function"},{"inputs":[{"internalType":"address","name":"account","type":"address"},{"internalType":"address","name":"operator","type":"address"}],"name":"isApprovedForAll","outputs":[{"internalType":"bool","name":"","type":"bool"}],"stateMutability":"view","type":"function"},{"inputs":[],"name":"owner","outputs":[{"internalType":"address","name":"","type":"address"}],"stateMutability":"view","type":"function"},{"inputs":[{"internalType":"uint256","name":"seasonId","type":"uint256"}],"name":"redeemWeeklyBox","outputs":[],"stateMutability":"nonpayable","type":"function"},{"inputs":[{"internalType":"address","name":"from","type":"address"},{"internalType":"address","name":"to","type":"address"},{"internalType":"uint256","name":"id","type":"uint256"},{"internalType":"uint256","name":"amount","type":"uint256"},{"internalType":"bytes","name":"data","type":"bytes"}],"name":"safeTransferFrom","outputs":[],"stateMutability":"nonpayable","type":"function"},{"inputs":[{"internalType":"uint256","name":"","type":"uint256"}],"name":"seasons","outputs":[{"internalType":"string","name":"name","type":"string"},{"internalType":"uint256","name":"membershipPrice","type":"uint256"},{"internalType":"uint256","name":"totalMemberships","type":"uint256"},{"internalType":"uint256","name":"soldMemberships","type":"uint256"},{"internalType":"uint256","name":"startTime","type":"uint256"},{"internalType":"uint256","name":"endTime","type":"uint256"},{"internalType":"bool","name":"isOpenForSale","type":"bool"}],"stateMutability":"view","type":"function"},{"inputs":[{"internalType":"address","name":"operator","type":"address"},{"internalType":"bool","name":"approved","type":"bool"}],"name":"setApprovalForAll","outputs":[],"stateMutability":"nonpayable","type":"function"},{"inputs":[{"internalType":"address","name":"newOwner","type":"address"}],"name":"transferOwnership","outputs":[],"stateMutability":"nonpayable","type":"function"},{"inputs":[{"internalType":"address","name":"","type":"address"},{"internalType":"uint256","name":"","type":"uint256"},{"internalType":"uint256","name":"","type":"uint256"}],"name":"weeklyRedemptions","outputs":[{"internalType":"bool","name":"","type":"bool"}],"stateMutability":"view","type":"function"},{"inputs":[],"name":"withdraw","outputs":[],"stateMutability":"nonpayable","type":"function"}],"evm":{"bytecode":{"linkReferences":{},"object":"608060405234801561001057600080fd5b5060405161395938038061395983398181016040528101906100329190610112565b61004c670a5bb3f85ef70aea60c01b6100ac60201b60201c565b6100666722054a042928236d60c01b6100ac60201b60201c565b806000806101000a81548173ffffffffffffffffffffffffffffffffffffffff021916908373ffffffffffffffffffffffffffffffffffffffff1602179055505061013f565b50565b600080fd5b600073ffffffffffffffffffffffffffffffffffffffff82169050919050565b60006100df826100b4565b9050919050565b6100ef816100d4565b81146100fa57600080fd5b50565b60008151905061010c816100e6565b92915050565b600060208284031215610128576101276100af565b5b6000610136848285016100fd565b91505092915050565b61380b8061014e6000396000f3fe6080604052600436106100dc5760003560e01c80638da5cb5b1161007f578063f242432a11610059578063f242432a14610288578063f2fde38b146102b1578063f5298aca146102da578063f5d709a114610303576100dc565b80638da5cb5b146101f7578063a22cb46514610222578063e985e9c51461024b576100dc565b80635c581119116100bb5780635c5811191461015e5780636cc07beb1461016857806373afd20014610191578063833727e8146101ba576100dc565b8062fdd58e146100e15780633aef7c801461011e5780633ccfd60b14610147575b600080fd5b3480156100ed57600080fd5b5061010860048036038101906101039190612348565b610346565b6040516101159190612397565b60405180910390f35b34801561012a57600080fd5b50610145600480360381019061014091906124f8565b61049c565b005b34801561015357600080fd5b5061015c6107f1565b005b610166610a7b565b005b34801561017457600080fd5b5061018f600480360381019061018a919061257b565b610e4e565b005b34801561019d57600080fd5b506101b860048036038101906101b3919061257b565b61107c565b005b3480156101c657600080fd5b506101e160048036038101906101dc91906125a8565b611461565b6040516101ee9190612616565b60405180910390f35b34801561020357600080fd5b5061020c61149d565b6040516102199190612640565b60405180910390f35b34801561022e57600080fd5b5061024960048036038101906102449190612687565b6114c1565b005b34801561025757600080fd5b50610272600480360381019061026d91906126c7565b61160e565b60405161027f9190612616565b60405180910390f35b34801561029457600080fd5b506102af60048036038101906102aa91906127a8565b6116de565b005b3480156102bd57600080fd5b506102d860048036038101906102d3919061283f565b611b3e565b005b3480156102e657600080fd5b5061030160048036038101906102fc91906125a8565b611cd7565b005b34801561030f57600080fd5b5061032a6004803603810190610325919061257b565b611fb3565b60405161033d97969594939291906128eb565b60405180910390f35b600061035c677032bcd1b6a2536360c01b61209a565b61037067562f944bc5b4ced560c01b61209a565b6103846713b905d2718e711060c01b61209a565b610398671777e9bf173c42c760c01b61209a565b600073ffffffffffffffffffffffffffffffffffffffff168373ffffffffffffffffffffffffffffffffffffffff1603610407576040517f08c379a00000000000000000000000000000000000000000000000000000000081526004016103fe906129ad565b60405180910390fd5b61041b6795bb74f77b3c2eca60c01b61209a565b61042f67cb19289e390e267660c01b61209a565b610443676be2a60e72af3a3960c01b61209a565b6001600083815260200190815260200160002060008473ffffffffffffffffffffffffffffffffffffffff1673ffffffffffffffffffffffffffffffffffffffff16815260200190815260200160002054905092915050565b6104b067e1ccf58379d0f0f260c01b61209a565b6104c467ab267b289bf7e22360c01b61209a565b6104d867e6860ec9ad94585e60c01b61209a565b6104ec6752cac397e7fe50f460c01b61209a565b61050067ba50882c3c8158b760c01b61209a565b3373ffffffffffffffffffffffffffffffffffffffff1660008054906101000a900473ffffffffffffffffffffffffffffffffffffffff1673ffffffffffffffffffffffffffffffffffffffff161461058e576040517f08c379a000000000000000000000000000000000000000000000000000000000815260040161058590612a3f565b60405180910390fd5b6105a267bd79d4c7cf57e00660c01b61209a565b6105b667d3fc60edbb06f55f60c01b61209a565b6105ca679f5ee2e453a8ba0060c01b61209a565b6105de678bc11e9f6bb432ee60c01b61209a565b6105f267b7923e14459f7c6260c01b61209a565b61060667300eda3e153dff4760c01b61209a565b600042905061061f67cf5de4b7bcfd57d960c01b61209a565b61063367e73c9195ac77d5bb60c01b61209a565b600062093a80836106449190612a8e565b8261064f9190612ad0565b9050610665677db718e892d255ca60c01b61209a565b61067967d50b5df6d8011a9760c01b61209a565b60036040518060e001604052808881526020018781526020018681526020016000815260200184815260200183815260200160011515815250908060018154018082558091505060019003906000526020600020906007020160009091909190915060008201518160000190816106f09190612d10565b506020820151816001015560408201518160020155606082015181600301556080820151816004015560a0820151816005015560c08201518160060160006101000a81548160ff021916908315150217905550505061075967dc355aaca3cc9ed460c01b61209a565b61076d671ffc40927b73616760c01b61209a565b600060016003805490506107819190612de2565b905061079767d072d3b00c99cad760c01b61209a565b6107ab672d85bb237b88611460c01b61209a565b7fc53cf244672e3e1eed9acdcd22658f6c1cee6d44144f1a17e4a1609b803aa605818888886040516107e09493929190612e16565b60405180910390a150505050505050565b6108056773e132a8b13ca6e460c01b61209a565b61081967ab267b289bf7e22360c01b61209a565b61082d67e6860ec9ad94585e60c01b61209a565b6108416752cac397e7fe50f460c01b61209a565b61085567ba50882c3c8158b760c01b61209a565b3373ffffffffffffffffffffffffffffffffffffffff1660008054906101000a900473ffffffffffffffffffffffffffffffffffffffff1673ffffffffffffffffffffffffffffffffffffffff16146108e3576040517f08c379a00000000000000000000000000000000000000000000000000000000081526004016108da90612a3f565b60405180910390fd5b6108f767bd79d4c7cf57e00660c01b61209a565b61090b67d3fc60edbb06f55f60c01b61209a565b61091f6750241f5905fe505160c01b61209a565b61093367cd5fd3d0349edd9660c01b61209a565b61094767cecbc986cfc699e060c01b61209a565b61095b6743431683a219f70d60c01b61209a565b60008060009054906101000a900473ffffffffffffffffffffffffffffffffffffffff1673ffffffffffffffffffffffffffffffffffffffff16476040516109a290612e93565b60006040518083038185875af1925050503d80600081146109df576040519150601f19603f3d011682016040523d82523d6000602084013e6109e4565b606091505b505090506109fc67b0f6ed96acf208af60c01b61209a565b610a106736dc078c6b95381460c01b61209a565b610a2467c2a073e5b0ece19260c01b61209a565b80610a64576040517f08c379a0000000000000000000000000000000000000000000000000000000008152600401610a5b90612ef4565b60405180910390fd5b610a786737e43cade87dbfa160c01b61209a565b50565b610a8f67136c85c6e7cbc13560c01b61209a565b610aa3676ccb7bd9379603a960c01b61209a565b610ab767c584fe5683bbba8960c01b61209a565b610acb673551a01919155f7160c01b61209a565b600060038054905011610b13576040517f08c379a0000000000000000000000000000000000000000000000000000000008152600401610b0a90612f60565b60405180910390fd5b610b27675beb71a21907326360c01b61209a565b610b3b678bf24671f9d7efef60c01b61209a565b610b4f677348f5fd37e85c5860c01b61209a565b60006001600380549050610b639190612de2565b9050610b79670ac9152989d951eb60c01b61209a565b610b8d6720224698593515f060c01b61209a565b600060038281548110610ba357610ba2612f80565b5b90600052602060002090600702019050610bc76770ef3df40370b51760c01b61209a565b610bdb672d96ca2639bd286860c01b61209a565b610bef671496e3b6429e72c460c01b61209a565b8060060160009054906101000a900460ff16610c40576040517f08c379a0000000000000000000000000000000000000000000000000000000008152600401610c3790612ffb565b60405180910390fd5b610c546789153acb8bee8b0660c01b61209a565b610c6867729b32e2c0a6d83160c01b61209a565b610c7c670803649ffd7d630960c01b61209a565b610c9067154445fe386ce48f60c01b61209a565b8060020154816003015410610cda576040517f08c379a0000000000000000000000000000000000000000000000000000000008152600401610cd19061308d565b60405180910390fd5b610cee67c0477a40dbd8aa9760c01b61209a565b610d0267760cc7cc9c66072860c01b61209a565b610d1667660ca11124e1efac60c01b61209a565b610d2a671f476728132c0f1c60c01b61209a565b80600101543414610d70576040517f08c379a0000000000000000000000000000000000000000000000000000000008152600401610d67906130f9565b60405180910390fd5b610d846753af712148116fb460c01b61209a565b610d98670f6473c7d91dc1be60c01b61209a565b806003016000815480929190610dad90613119565b9190505550610dc667821fb852954a69da60c01b61209a565b610dda6734ecd3c184e7c34560c01b61209a565b610de63383600161209d565b610dfa67412937ceffaab5c960c01b61209a565b610e0e679fe12df342363d0d60c01b61209a565b7f3040ff01f7e0ef639d0a39654b7be379473b85453c82254b1ab871accbd51edf82336001604051610e429392919061319c565b60405180910390a15050565b610e626729bab031ca7b0d6060c01b61209a565b610e7667ab267b289bf7e22360c01b61209a565b610e8a67e6860ec9ad94585e60c01b61209a565b610e9e6752cac397e7fe50f460c01b61209a565b610eb267ba50882c3c8158b760c01b61209a565b3373ffffffffffffffffffffffffffffffffffffffff1660008054906101000a900473ffffffffffffffffffffffffffffffffffffffff1673ffffffffffffffffffffffffffffffffffffffff1614610f40576040517f08c379a0000000000000000000000000000000000000000000000000000000008152600401610f3790612a3f565b60405180910390fd5b610f5467bd79d4c7cf57e00660c01b61209a565b610f6867d3fc60edbb06f55f60c01b61209a565b610f7c67387d1c2aad1a412e60c01b61209a565b610f9067df2d47c2f832699b60c01b61209a565b610fa467f3336e1c97feede660c01b61209a565b610fb8673b8bc1486034d8ee60c01b61209a565b610fcc67b862470492eaacbc60c01b61209a565b6003805490508110611013576040517f08c379a000000000000000000000000000000000000000000000000000000000815260040161100a9061321f565b60405180910390fd5b61102767562b07407058355460c01b61209a565b61103b673c8ef113a18bff3160c01b61209a565b60006003828154811061105157611050612f80565b5b906000526020600020906007020160060160006101000a81548160ff02191690831515021790555050565b611090679aff07b76f36928d60c01b61209a565b6110a46775769d12742a394360c01b61209a565b6110b867ee4d02d19a7efa0160c01b61209a565b6110cc67ccfe6629fac6355060c01b61209a565b60016110d83383610346565b1015611119576040517f08c379a0000000000000000000000000000000000000000000000000000000008152600401611110906132b1565b60405180910390fd5b61112d67ae7cee424cd8f23860c01b61209a565b611141671042cfd47fc27d5160c01b61209a565b61115567577f7af7bd0984e160c01b61209a565b60006003828154811061116b5761116a612f80565b5b9060005260206000209060070201905061118f677465373941d37a4d60c01b61209a565b6111a367421c9907327ee29960c01b61209a565b6111b767a558b2779861df7f60c01b61209a565b806004015442101580156111cf575080600501544211155b61120e576040517f08c379a000000000000000000000000000000000000000000000000000000000815260040161120590613343565b60405180910390fd5b61122267a98a80427f513ed160c01b61209a565b61123667d4b8b7a1c43d2ff960c01b61209a565b61124a67bfbd480e6c59b12c60c01b61209a565b600062093a808260040154426112609190612de2565b61126a9190613392565b90506112806788393905ae67bf5a60c01b61209a565b6112946772c2ccdb55a0b19160c01b61209a565b6112a867a72f4e30f67e0fb060c01b61209a565b600460003373ffffffffffffffffffffffffffffffffffffffff1673ffffffffffffffffffffffffffffffffffffffff1681526020019081526020016000206000848152602001908152602001600020600082815260200190815260200160002060009054906101000a900460ff1615611357576040517f08c379a000000000000000000000000000000000000000000000000000000000815260040161134e90613435565b60405180910390fd5b61136b670a11681ab953725260c01b61209a565b61137f67c7849c4e6e0775fb60c01b61209a565b6001600460003373ffffffffffffffffffffffffffffffffffffffff1673ffffffffffffffffffffffffffffffffffffffff1681526020019081526020016000206000858152602001908152602001600020600083815260200190815260200160002060006101000a81548160ff02191690831515021790555061140d6754227fdd4f9f147960c01b61209a565b61142167092d9dc97c828bdb60c01b61209a565b7ff5cf00eb1f48ddf482622c8808e58960924c23a2a09920f594da63271914d5d183338360405161145493929190613455565b60405180910390a1505050565b6004602052826000526040600020602052816000526040600020602052806000526040600020600092509250509054906101000a900460ff1681565b60008054906101000a900473ffffffffffffffffffffffffffffffffffffffff1681565b6114d567d8c72db29a2c4e0360c01b61209a565b6114e9671fd0c01f72f130fb60c01b61209a565b80600260003373ffffffffffffffffffffffffffffffffffffffff1673ffffffffffffffffffffffffffffffffffffffff16815260200190815260200160002060008473ffffffffffffffffffffffffffffffffffffffff1673ffffffffffffffffffffffffffffffffffffffff16815260200190815260200160002060006101000a81548160ff02191690831515021790555061159167d5e81a0c6af3310e60c01b61209a565b6115a5670c05a1ee3c62888960c01b61209a565b8173ffffffffffffffffffffffffffffffffffffffff163373ffffffffffffffffffffffffffffffffffffffff167f17307eab39ab6107e8899845ad3d59bd9653f200f220920489ca2b5937696c31836040516116029190612616565b60405180910390a35050565b600061162467b25693f188ec983d60c01b61209a565b6116386774e8cb6015e1457f60c01b61209a565b61164c6719dbdca1b828ffba60c01b61209a565b600260008473ffffffffffffffffffffffffffffffffffffffff1673ffffffffffffffffffffffffffffffffffffffff16815260200190815260200160002060008373ffffffffffffffffffffffffffffffffffffffff1673ffffffffffffffffffffffffffffffffffffffff16815260200190815260200160002060009054906101000a900460ff16905092915050565b6116f26743c6aa694e6c13a660c01b61209a565b61170667f871d2fd78e5ebef60c01b61209a565b61171a67707c5cdfd005e24a60c01b61209a565b61172e675f0a49d310139b1e60c01b61209a565b3373ffffffffffffffffffffffffffffffffffffffff168573ffffffffffffffffffffffffffffffffffffffff16148015611779575061177867dfd844ac62e9060c60c01b612295565b5b806117a65750611789853361160e565b80156117a557506117a46792664af19bbb272f60c01b612295565b5b5b6117e5576040517f08c379a00000000000000000000000000000000000000000000000000000000081526004016117dc906134d8565b60405180910390fd5b6117f967651335ed250cb88e60c01b61209a565b61180d67be71efabfc145a9560c01b61209a565b61182167a10ee1f11466d3d760c01b61209a565b61183567be070531236ca76d60c01b61209a565b600073ffffffffffffffffffffffffffffffffffffffff168473ffffffffffffffffffffffffffffffffffffffff16036118a4576040517f08c379a000000000000000000000000000000000000000000000000000000000815260040161189b9061356a565b60405180910390fd5b6118b86753f77f958de44ee460c01b61209a565b6118cc678180a9f9cc72b6bd60c01b61209a565b6118e0674f75c9cbac59b8ef60c01b61209a565b6118f4675dc98aaeae36d99460c01b61209a565b816001600085815260200190815260200160002060008773ffffffffffffffffffffffffffffffffffffffff1673ffffffffffffffffffffffffffffffffffffffff168152602001908152602001600020541015611987576040517f08c379a000000000000000000000000000000000000000000000000000000000815260040161197e906135d6565b60405180910390fd5b61199b6763dc6c73f8d10e3360c01b61209a565b6119af6750d5c91cd9443a0460c01b61209a565b816001600085815260200190815260200160002060008773ffffffffffffffffffffffffffffffffffffffff1673ffffffffffffffffffffffffffffffffffffffff1681526020019081526020016000206000828254611a0f9190612de2565b92505081905550611a2a67cf773594090b6e7460c01b61209a565b816001600085815260200190815260200160002060008673ffffffffffffffffffffffffffffffffffffffff1673ffffffffffffffffffffffffffffffffffffffff1681526020019081526020016000206000828254611a8a9190612ad0565b92505081905550611aa5670b73e5ec5d1b87e360c01b61209a565b611ab967194a0cb1c360202e60c01b61209a565b8373ffffffffffffffffffffffffffffffffffffffff168573ffffffffffffffffffffffffffffffffffffffff163373ffffffffffffffffffffffffffffffffffffffff167fc3d58168c5ae7397731d063d5bbf3d657854427343f4c083240f7aacaa2d0f628686604051611b2f9291906135f6565b60405180910390a45050505050565b611b5267241026e1e1922ef060c01b61209a565b611b6667ab267b289bf7e22360c01b61209a565b611b7a67e6860ec9ad94585e60c01b61209a565b611b8e6752cac397e7fe50f460c01b61209a565b611ba267ba50882c3c8158b760c01b61209a565b3373ffffffffffffffffffffffffffffffffffffffff1660008054906101000a900473ffffffffffffffffffffffffffffffffffffffff1673ffffffffffffffffffffffffffffffffffffffff1614611c30576040517f08c379a0000000000000000000000000000000000000000000000000000000008152600401611c2790612a3f565b60405180910390fd5b611c4467bd79d4c7cf57e00660c01b61209a565b611c5867d3fc60edbb06f55f60c01b61209a565b611c6c6734e194357eb5acb660c01b61209a565b611c8067f47c70128b6932cb60c01b61209a565b611c94672c3f127b5206d24760c01b61209a565b806000806101000a81548173ffffffffffffffffffffffffffffffffffffffff021916908373ffffffffffffffffffffffffffffffffffffffff16021790555050565b611ceb672aafeedf1531208860c01b61209a565b611cff678ed57867a3322e7060c01b61209a565b611d13678bf445c2d67478e560c01b61209a565b611d276705f12096d794623960c01b61209a565b3373ffffffffffffffffffffffffffffffffffffffff168373ffffffffffffffffffffffffffffffffffffffff1614611d95576040517f08c379a0000000000000000000000000000000000000000000000000000000008152600401611d8c90613691565b60405180910390fd5b611da9670a41548a036f54cb60c01b61209a565b611dbd676760e447286cb99d60c01b61209a565b611dd1672287ebc2b252488c60c01b61209a565b611de567cca0a7959bc31f8560c01b61209a565b806001600084815260200190815260200160002060008573ffffffffffffffffffffffffffffffffffffffff1673ffffffffffffffffffffffffffffffffffffffff168152602001908152602001600020541015611e78576040517f08c379a0000000000000000000000000000000000000000000000000000000008152600401611e6f90613723565b60405180910390fd5b611e8c67a16cc72822f2f1e860c01b61209a565b611ea067288b769683755e0f60c01b61209a565b806001600084815260200190815260200160002060008573ffffffffffffffffffffffffffffffffffffffff1673ffffffffffffffffffffffffffffffffffffffff1681526020019081526020016000206000828254611f009190612de2565b92505081905550611f1b6791385bdc1745c7d160c01b61209a565b611f2f67763d09d849ccb61d60c01b61209a565b600073ffffffffffffffffffffffffffffffffffffffff168373ffffffffffffffffffffffffffffffffffffffff163373ffffffffffffffffffffffffffffffffffffffff167fc3d58168c5ae7397731d063d5bbf3d657854427343f4c083240f7aacaa2d0f628585604051611fa69291906135f6565b60405180910390a4505050565b60038181548110611fc357600080fd5b9060005260206000209060070201600091509050806000018054611fe690612b33565b80601f016020809104026020016040519081016040528092919081815260200182805461201290612b33565b801561205f5780601f106120345761010080835404028352916020019161205f565b820191906000526020600020905b81548152906001019060200180831161204257829003601f168201915b5050505050908060010154908060020154908060030154908060040154908060050154908060060160009054906101000a900460ff16905087565b50565b6120b167890e4f6a19419a8960c01b61209a565b6120c567e41b8a81c5d3bd5360c01b61209a565b6120d96790f9ed0caee092a760c01b61209a565b6120ed67a51a9f8732647adb60c01b61209a565b600073ffffffffffffffffffffffffffffffffffffffff168373ffffffffffffffffffffffffffffffffffffffff160361215c576040517f08c379a0000000000000000000000000000000000000000000000000000000008152600401612153906137b5565b60405180910390fd5b61216e65b2101d89f3be60c01b61209a565b61218267047a5fdaed736c8260c01b61209a565b806001600084815260200190815260200160002060008573ffffffffffffffffffffffffffffffffffffffff1673ffffffffffffffffffffffffffffffffffffffff16815260200190815260200160002060008282546121e29190612ad0565b925050819055506121fd67ebdabf23b3c9a20260c01b61209a565b612211671ad9ebbac030843560c01b61209a565b8273ffffffffffffffffffffffffffffffffffffffff16600073ffffffffffffffffffffffffffffffffffffffff163373ffffffffffffffffffffffffffffffffffffffff167fc3d58168c5ae7397731d063d5bbf3d657854427343f4c083240f7aacaa2d0f6285856040516122889291906135f6565b60405180910390a4505050565b600060019050919050565b6000604051905090565b600080fd5b600080fd5b600073ffffffffffffffffffffffffffffffffffffffff82169050919050565b60006122df826122b4565b9050919050565b6122ef816122d4565b81146122fa57600080fd5b50565b60008135905061230c816122e6565b92915050565b6000819050919050565b61232581612312565b811461233057600080fd5b50565b6000813590506123428161231c565b92915050565b6000806040838503121561235f5761235e6122aa565b5b600061236d858286016122fd565b925050602061237e85828601612333565b9150509250929050565b61239181612312565b82525050565b60006020820190506123ac6000830184612388565b92915050565b600080fd5b600080fd5b6000601f19601f8301169050919050565b7f4e487b7100000000000000000000000000000000000000000000000000000000600052604160045260246000fd5b612405826123bc565b810181811067ffffffffffffffff82111715612424576124236123cd565b5b80604052505050565b60006124376122a0565b905061244382826123fc565b919050565b600067ffffffffffffffff821115612463576124626123cd565b5b61246c826123bc565b9050602081019050919050565b82818337600083830152505050565b600061249b61249684612448565b61242d565b9050828152602081018484840111156124b7576124b66123b7565b5b6124c2848285612479565b509392505050565b600082601f8301126124df576124de6123b2565b5b81356124ef848260208601612488565b91505092915050565b60008060008060808587031215612512576125116122aa565b5b600085013567ffffffffffffffff8111156125305761252f6122af565b5b61253c878288016124ca565b945050602061254d87828801612333565b935050604061255e87828801612333565b925050606061256f87828801612333565b91505092959194509250565b600060208284031215612591576125906122aa565b5b600061259f84828501612333565b91505092915050565b6000806000606084860312156125c1576125c06122aa565b5b60006125cf868287016122fd565b93505060206125e086828701612333565b92505060406125f186828701612333565b9150509250925092565b60008115159050919050565b612610816125fb565b82525050565b600060208201905061262b6000830184612607565b92915050565b61263a816122d4565b82525050565b60006020820190506126556000830184612631565b92915050565b612664816125fb565b811461266f57600080fd5b50565b6000813590506126818161265b565b92915050565b6000806040838503121561269e5761269d6122aa565b5b60006126ac858286016122fd565b92505060206126bd85828601612672565b9150509250929050565b600080604083850312156126de576126dd6122aa565b5b60006126ec858286016122fd565b92505060206126fd858286016122fd565b9150509250929050565b600067ffffffffffffffff821115612722576127216123cd565b5b61272b826123bc565b9050602081019050919050565b600061274b61274684612707565b61242d565b905082815260208101848484011115612767576127666123b7565b5b612772848285612479565b509392505050565b600082601f83011261278f5761278e6123b2565b5b813561279f848260208601612738565b91505092915050565b600080600080600060a086880312156127c4576127c36122aa565b5b60006127d2888289016122fd565b95505060206127e3888289016122fd565b94505060406127f488828901612333565b935050606061280588828901612333565b925050608086013567ffffffffffffffff811115612826576128256122af565b5b6128328882890161277a565b9150509295509295909350565b600060208284031215612855576128546122aa565b5b6000612863848285016122fd565b91505092915050565b600081519050919050565b600082825260208201905092915050565b60005b838110156128a657808201518184015260208101905061288b565b60008484015250505050565b60006128bd8261286c565b6128c78185612877565b93506128d7818560208601612888565b6128e0816123bc565b840191505092915050565b600060e0820190508181036000830152612905818a6128b2565b90506129146020830189612388565b6129216040830188612388565b61292e6060830187612388565b61293b6080830186612388565b61294860a0830185612388565b61295560c0830184612607565b98975050505050505050565b7f455243313135353a20646972656363696f6e20696e76616c6964610000000000600082015250565b6000612997601b83612877565b91506129a282612961565b602082019050919050565b600060208201905081810360008301526129c68161298a565b9050919050565b7f4353413a20517569656e206c6c616d61206e6f20657320656c2070726f70696560008201527f746172696f000000000000000000000000000000000000000000000000000000602082015250565b6000612a29602583612877565b9150612a34826129cd565b604082019050919050565b60006020820190508181036000830152612a5881612a1c565b9050919050565b7f4e487b7100000000000000000000000000000000000000000000000000000000600052601160045260246000fd5b6000612a9982612312565b9150612aa483612312565b9250828202612ab281612312565b91508282048414831517612ac957612ac8612a5f565b5b5092915050565b6000612adb82612312565b9150612ae683612312565b9250828201905080821115612afe57612afd612a5f565b5b92915050565b7f4e487b7100000000000000000000000000000000000000000000000000000000600052602260045260246000fd5b60006002820490506001821680612b4b57607f821691505b602082108103612b5e57612b5d612b04565b5b50919050565b60008190508160005260206000209050919050565b60006020601f8301049050919050565b600082821b905092915050565b600060088302612bc67fffffffffffffffffffffffffffffffffffffffffffffffffffffffffffffffff82612b89565b612bd08683612b89565b95508019841693508086168417925050509392505050565b6000819050919050565b6000612c0d612c08612c0384612312565b612be8565b612312565b9050919050565b6000819050919050565b612c2783612bf2565b612c3b612c3382612c14565b848454612b96565b825550505050565b600090565b612c50612c43565b612c5b818484612c1e565b505050565b5b81811015612c7f57612c74600082612c48565b600181019050612c61565b5050565b601f821115612cc457612c9581612b64565b612c9e84612b79565b81016020851015612cad578190505b612cc1612cb985612b79565b830182612c60565b50505b505050565b600082821c905092915050565b6000612ce760001984600802612cc9565b1980831691505092915050565b6000612d008383612cd6565b9150826002028217905092915050565b612d198261286c565b67ffffffffffffffff811115612d3257612d316123cd565b5b612d3c8254612b33565b612d47828285612c83565b600060209050601f831160018114612d7a5760008415612d68578287015190505b612d728582612cf4565b865550612dda565b601f198416612d8886612b64565b60005b82811015612db057848901518255600182019150602085019450602081019050612d8b565b86831015612dcd5784890151612dc9601f891682612cd6565b8355505b6001600288020188555050505b505050505050565b6000612ded82612312565b9150612df883612312565b9250828203905081811115612e1057612e0f612a5f565b5b92915050565b6000608082019050612e2b6000830187612388565b8181036020830152612e3d81866128b2565b9050612e4c6040830185612388565b612e596060830184612388565b95945050505050565b600081905092915050565b50565b6000612e7d600083612e62565b9150612e8882612e6d565b600082019050919050565b6000612e9e82612e70565b9150819050919050565b7f4353413a20456c2072657469726f2066616c6c6f000000000000000000000000600082015250565b6000612ede601483612877565b9150612ee982612ea8565b602082019050919050565b60006020820190508181036000830152612f0d81612ed1565b9050919050565b7f4353413a204e6f206861792074656d706f726164617320637265616461730000600082015250565b6000612f4a601e83612877565b9150612f5582612f14565b602082019050919050565b60006020820190508181036000830152612f7981612f3d565b9050919050565b7f4e487b7100000000000000000000000000000000000000000000000000000000600052603260045260246000fd5b7f4353413a204c61732076656e74617320657374616e2063657272616461730000600082015250565b6000612fe5601e83612877565b9150612ff082612faf565b602082019050919050565b6000602082019050818103600083015261301481612fd8565b9050919050565b7f4353413a20546f646173206c61732070617274696369706163696f6e6573207660008201527f656e646964617300000000000000000000000000000000000000000000000000602082015250565b6000613077602783612877565b91506130828261301b565b604082019050919050565b600060208201905081810360008301526130a68161306a565b9050919050565b7f4353413a204d6f6e746f20656e766961646f20696e636f72726563746f000000600082015250565b60006130e3601d83612877565b91506130ee826130ad565b602082019050919050565b60006020820190508181036000830152613112816130d6565b9050919050565b600061312482612312565b91507fffffffffffffffffffffffffffffffffffffffffffffffffffffffffffffffff820361315657613155612a5f565b5b600182019050919050565b6000819050919050565b600061318661318161317c84613161565b612be8565b612312565b9050919050565b6131968161316b565b82525050565b60006060820190506131b16000830186612388565b6131be6020830185612631565b6131cb604083018461318d565b949350505050565b7f4353413a2049442064652074656d706f7261646120696e76616c69646f000000600082015250565b6000613209601d83612877565b9150613214826131d3565b602082019050919050565b60006020820190508181036000830152613238816131fc565b9050919050565b7f4353413a204e6f2065726573206d69656d62726f20646520657374612074656d60008201527f706f726164610000000000000000000000000000000000000000000000000000602082015250565b600061329b602683612877565b91506132a68261323f565b604082019050919050565b600060208201905081810360008301526132ca8161328e565b9050919050565b7f4353413a2046756572612064656c20706572696f646f206465206c612074656d60008201527f706f726164610000000000000000000000000000000000000000000000000000602082015250565b600061332d602683612877565b9150613338826132d1565b604082019050919050565b6000602082019050818103600083015261335c81613320565b9050919050565b7f4e487b7100000000000000000000000000000000000000000000000000000000600052601260045260246000fd5b600061339d82612312565b91506133a883612312565b9250826133b8576133b7613363565b5b828204905092915050565b7f4353413a204c612063616a6120646520657374612073656d616e61207961206660008201527f75652063616e6a65616461000000000000000000000000000000000000000000602082015250565b600061341f602b83612877565b915061342a826133c3565b604082019050919050565b6000602082019050818103600083015261344e81613412565b9050919050565b600060608201905061346a6000830186612388565b6134776020830185612631565b6134846040830184612388565b949350505050565b7f455243313135353a206e6f206175746f72697a61646f00000000000000000000600082015250565b60006134c2601683612877565b91506134cd8261348c565b602082019050919050565b600060208201905081810360008301526134f1816134b5565b9050919050565b7f455243313135353a206e6f207365207075656465207472616e7366657269722060008201527f61206c6120646972656363696f6e206365726f00000000000000000000000000602082015250565b6000613554603383612877565b915061355f826134f8565b604082019050919050565b6000602082019050818103600083015261358381613547565b9050919050565b7f455243313135353a2062616c616e636520696e737566696369656e7465000000600082015250565b60006135c0601d83612877565b91506135cb8261358a565b602082019050919050565b600060208201905081810360008301526135ef816135b3565b9050919050565b600060408201905061360b6000830185612388565b6136186020830184612388565b9392505050565b7f455243313135353a20736f6c6f20656c2070726f706965746172696f2070756560008201527f6465207175656d61720000000000000000000000000000000000000000000000602082015250565b600061367b602983612877565b91506136868261361f565b604082019050919050565b600060208201905081810360008301526136aa8161366e565b9050919050565b7f455243313135353a2062616c616e636520696e737566696369656e746520706160008201527f7261207175656d61720000000000000000000000000000000000000000000000602082015250565b600061370d602983612877565b9150613718826136b1565b604082019050919050565b6000602082019050818103600083015261373c81613700565b9050919050565b7f455243313135353a206e6f207365207075656465206163756e61722061206c6160008201527f20646972656363696f6e206365726f0000000000000000000000000000000000602082015250565b600061379f602f83612877565b91506137aa82613743565b604082019050919050565b600060208201905081810360008301526137ce81613792565b905091905056fea2646970667358221220a51a114c183779a25a80d5d70408441800740eaea4a123ee08808f236605ac5964736f6c634300081c0033","opcodes":"PUSH1 0x80 PUSH1 0x40 MSTORE CALLVALUE DUP1 ISZERO PUSH2 0x10 JUMPI PUSH1 0x0 DUP1 REVERT JUMPDEST POP PUSH1 0x40 MLOAD PUSH2 0x3959 CODESIZE SUB DUP1 PUSH2 0x3959 DUP4 CODECOPY DUP2 DUP2 ADD PUSH1 0x40 MSTORE DUP2 ADD SWAP1 PUSH2 0x32 SWAP2 SWAP1 PUSH2 0x112 JUMP JUMPDEST PUSH2 0x4C PUSH8 0xA5BB3F85EF70AEA PUSH1 0xC0 SHL PUSH2 0xAC PUSH1 0x20 SHL PUSH1 0x20 SHR JUMP JUMPDEST PUSH2 0x66 PUSH8 0x22054A042928236D PUSH1 0xC0 SHL PUSH2 0xAC PUSH1 0x20 SHL PUSH1 0x20 SHR JUMP JUMPDEST DUP1 PUSH1 0x0 DUP1 PUSH2 0x100 EXP DUP2 SLOAD DUP2 PUSH20 0xFFFFFFFFFFFFFFFFFFFFFFFFFFFFFFFFFFFFFFFF MUL NOT AND SWAP1 DUP4 PUSH20 0xFFFFFFFFFFFFFFFFFFFFFFFFFFFFFFFFFFFFFFFF AND MUL OR SWAP1 SSTORE POP POP PUSH2 0x13F JUMP JUMPDEST POP JUMP JUMPDEST PUSH1 0x0 DUP1 REVERT JUMPDEST PUSH1 0x0 PUSH20 0xFFFFFFFFFFFFFFFFFFFFFFFFFFFFFFFFFFFFFFFF DUP3 AND SWAP1 POP SWAP2 SWAP1 POP JUMP JUMPDEST PUSH1 0x0 PUSH2 0xDF DUP3 PUSH2 0xB4 JUMP JUMPDEST SWAP1 POP SWAP2 SWAP1 POP JUMP JUMPDEST PUSH2 0xEF DUP2 PUSH2 0xD4 JUMP JUMPDEST DUP2 EQ PUSH2 0xFA JUMPI PUSH1 0x0 DUP1 REVERT JUMPDEST POP JUMP JUMPDEST PUSH1 0x0 DUP2 MLOAD SWAP1 POP PUSH2 0x10C DUP2 PUSH2 0xE6 JUMP JUMPDEST SWAP3 SWAP2 POP POP JUMP JUMPDEST PUSH1 0x0 PUSH1 0x20 DUP3 DUP5 SUB SLT ISZERO PUSH2 0x128 JUMPI PUSH2 0x127 PUSH2 0xAF JUMP JUMPDEST JUMPDEST PUSH1 0x0 PUSH2 0x136 DUP5 DUP3 DUP6 ADD PUSH2 0xFD JUMP JUMPDEST SWAP2 POP POP SWAP3 SWAP2 POP POP JUMP JUMPDEST PUSH2 0x380B DUP1 PUSH2 0x14E PUSH1 0x0 CODECOPY PUSH1 0x0 RETURN INVALID PUSH1 0x80 PUSH1 0x40 MSTORE PUSH1 0x4 CALLDATASIZE LT PUSH2 0xDC JUMPI PUSH1 0x0 CALLDATALOAD PUSH1 0xE0 SHR DUP1 PUSH4 0x8DA5CB5B GT PUSH2 0x7F JUMPI DUP1 PUSH4 0xF242432A GT PUSH2 0x59 JUMPI DUP1 PUSH4 0xF242432A EQ PUSH2 0x288 JUMPI DUP1 PUSH4 0xF2FDE38B EQ PUSH2 0x2B1 JUMPI DUP1 PUSH4 0xF5298ACA EQ PUSH2 0x2DA JUMPI DUP1 PUSH4 0xF5D709A1 EQ PUSH2 0x303 JUMPI PUSH2 0xDC JUMP JUMPDEST DUP1 PUSH4 0x8DA5CB5B EQ PUSH2 0x1F7 JUMPI DUP1 PUSH4 0xA22CB465 EQ PUSH2 0x222 JUMPI DUP1 PUSH4 0xE985E9C5 EQ PUSH2 0x24B JUMPI PUSH2 0xDC JUMP JUMPDEST DUP1 PUSH4 0x5C581119 GT PUSH2 0xBB JUMPI DUP1 PUSH4 0x5C581119 EQ PUSH2 0x15E JUMPI DUP1 PUSH4 0x6CC07BEB EQ PUSH2 0x168 JUMPI DUP1 PUSH4 0x73AFD200 EQ PUSH2 0x191 JUMPI DUP1 PUSH4 0x833727E8 EQ PUSH2 0x1BA JUMPI PUSH2 0xDC JUMP JUMPDEST DUP1 PUSH3 0xFDD58E EQ PUSH2 0xE1 JUMPI DUP1 PUSH4 0x3AEF7C80 EQ PUSH2 0x11E JUMPI DUP1 PUSH4 0x3CCFD60B EQ PUSH2 0x147 JUMPI JUMPDEST PUSH1 0x0 DUP1 REVERT JUMPDEST CALLVALUE DUP1 ISZERO PUSH2 0xED JUMPI PUSH1 0x0 DUP1 REVERT JUMPDEST POP PUSH2 0x108 PUSH1 0x4 DUP1 CALLDATASIZE SUB DUP2 ADD SWAP1 PUSH2 0x103 SWAP2 SWAP1 PUSH2 0x2348 JUMP JUMPDEST PUSH2 0x346 JUMP JUMPDEST PUSH1 0x40 MLOAD PUSH2 0x115 SWAP2 SWAP1 PUSH2 0x2397 JUMP JUMPDEST PUSH1 0x40 MLOAD DUP1 SWAP2 SUB SWAP1 RETURN JUMPDEST CALLVALUE DUP1 ISZERO PUSH2 0x12A JUMPI PUSH1 0x0 DUP1 REVERT JUMPDEST POP PUSH2 0x145 PUSH1 0x4 DUP1 CALLDATASIZE SUB DUP2 ADD SWAP1 PUSH2 0x140 SWAP2 SWAP1 PUSH2 0x24F8 JUMP JUMPDEST PUSH2 0x49C JUMP JUMPDEST STOP JUMPDEST CALLVALUE DUP1 ISZERO PUSH2 0x153 JUMPI PUSH1 0x0 DUP1 REVERT JUMPDEST POP PUSH2 0x15C PUSH2 0x7F1 JUMP JUMPDEST STOP JUMPDEST PUSH2 0x166 PUSH2 0xA7B JUMP JUMPDEST STOP JUMPDEST CALLVALUE DUP1 ISZERO PUSH2 0x174 JUMPI PUSH1 0x0 DUP1 REVERT JUMPDEST POP PUSH2 0x18F PUSH1 0x4 DUP1 CALLDATASIZE SUB DUP2 ADD SWAP1 PUSH2 0x18A SWAP2 SWAP1 PUSH2 0x257B JUMP JUMPDEST PUSH2 0xE4E JUMP JUMPDEST STOP JUMPDEST CALLVALUE DUP1 ISZERO PUSH2 0x19D JUMPI PUSH1 0x0 DUP1 REVERT JUMPDEST POP PUSH2 0x1B8 PUSH1 0x4 DUP1 CALLDATASIZE SUB DUP2 ADD SWAP1 PUSH2 0x1B3 SWAP2 SWAP1 PUSH2 0x257B JUMP JUMPDEST PUSH2 0x107C JUMP JUMPDEST STOP JUMPDEST CALLVALUE DUP1 ISZERO PUSH2 0x1C6 JUMPI PUSH1 0x0 DUP1 REVERT JUMPDEST POP PUSH2 0x1E1 PUSH1 0x4 DUP1 CALLDATASIZE SUB DUP2 ADD SWAP1 PUSH2 0x1DC SWAP2 SWAP1 PUSH2 0x25A8 JUMP JUMPDEST PUSH2 0x1461 JUMP JUMPDEST PUSH1 0x40 MLOAD PUSH2 0x1EE SWAP2 SWAP1 PUSH2 0x2616 JUMP JUMPDEST PUSH1 0x40 MLOAD DUP1 SWAP2 SUB SWAP1 RETURN JUMPDEST CALLVALUE DUP1 ISZERO PUSH2 0x203 JUMPI PUSH1 0x0 DUP1 REVERT JUMPDEST POP PUSH2 0x20C PUSH2 0x149D JUMP JUMPDEST PUSH1 0x40 MLOAD PUSH2 0x219 SWAP2 SWAP1 PUSH2 0x2640 JUMP JUMPDEST PUSH1 0x40 MLOAD DUP1 SWAP2 SUB SWAP1 RETURN JUMPDEST CALLVALUE DUP1 ISZERO PUSH2 0x22E JUMPI PUSH1 0x0 DUP1 REVERT JUMPDEST POP PUSH2 0x249 PUSH1 0x4 DUP1 CALLDATASIZE SUB DUP2 ADD SWAP1 PUSH2 0x244 SWAP2 SWAP1 PUSH2 0x2687 JUMP JUMPDEST PUSH2 0x14C1 JUMP JUMPDEST STOP JUMPDEST CALLVALUE DUP1 ISZERO PUSH2 0x257 JUMPI PUSH1 0x0 DUP1 REVERT JUMPDEST POP PUSH2 0x272 PUSH1 0x4 DUP1 CALLDATASIZE SUB DUP2 ADD SWAP1 PUSH2 0x26D SWAP2 SWAP1 PUSH2 0x26C7 JUMP JUMPDEST PUSH2 0x160E JUMP JUMPDEST PUSH1 0x40 MLOAD PUSH2 0x27F SWAP2 SWAP1 PUSH2 0x2616 JUMP JUMPDEST PUSH1 0x40 MLOAD DUP1 SWAP2 SUB SWAP1 RETURN JUMPDEST CALLVALUE DUP1 ISZERO PUSH2 0x294 JUMPI PUSH1 0x0 DUP1 REVERT JUMPDEST POP PUSH2 0x2AF PUSH1 0x4 DUP1 CALLDATASIZE SUB DUP2 ADD SWAP1 PUSH2 0x2AA SWAP2 SWAP1 PUSH2 0x27A8 JUMP JUMPDEST PUSH2 0x16DE JUMP JUMPDEST STOP JUMPDEST CALLVALUE DUP1 ISZERO PUSH2 0x2BD JUMPI PUSH1 0x0 DUP1 REVERT JUMPDEST POP PUSH2 0x2D8 PUSH1 0x4 DUP1 CALLDATASIZE SUB DUP2 ADD SWAP1 PUSH2 0x2D3 SWAP2 SWAP1 PUSH2 0x283F JUMP JUMPDEST PUSH2 0x1B3E JUMP JUMPDEST STOP JUMPDEST CALLVALUE DUP1 ISZERO PUSH2 0x2E6 JUMPI PUSH1 0x0 DUP1 REVERT JUMPDEST POP PUSH2 0x301 PUSH1 0x4 DUP1 CALLDATASIZE SUB DUP2 ADD SWAP1 PUSH2 0x2FC SWAP2 SWAP1 PUSH2 0x25A8 JUMP JUMPDEST PUSH2 0x1CD7 JUMP JUMPDEST STOP JUMPDEST CALLVALUE DUP1 ISZERO PUSH2 0x30F JUMPI PUSH1 0x0 DUP1 REVERT JUMPDEST POP PUSH2 0x32A PUSH1 0x4 DUP1 CALLDATASIZE SUB DUP2 ADD SWAP1 PUSH2 0x325 SWAP2 SWAP1 PUSH2 0x257B JUMP JUMPDEST PUSH2 0x1FB3 JUMP JUMPDEST PUSH1 0x40 MLOAD PUSH2 0x33D SWAP8 SWAP7 SWAP6 SWAP5 SWAP4 SWAP3 SWAP2 SWAP1 PUSH2 0x28EB JUMP JUMPDEST PUSH1 0x40 MLOAD DUP1 SWAP2 SUB SWAP1 RETURN JUMPDEST PUSH1 0x0 PUSH2 0x35C PUSH8 0x7032BCD1B6A25363 PUSH1 0xC0 SHL PUSH2 0x209A JUMP JUMPDEST PUSH2 0x370 PUSH8 0x562F944BC5B4CED5 PUSH1 0xC0 SHL PUSH2 0x209A JUMP JUMPDEST PUSH2 0x384 PUSH8 0x13B905D2718E7110 PUSH1 0xC0 SHL PUSH2 0x209A JUMP JUMPDEST PUSH2 0x398 PUSH8 0x1777E9BF173C42C7 PUSH1 0xC0 SHL PUSH2 0x209A JUMP JUMPDEST PUSH1 0x0 PUSH20 0xFFFFFFFFFFFFFFFFFFFFFFFFFFFFFFFFFFFFFFFF AND DUP4 PUSH20 0xFFFFFFFFFFFFFFFFFFFFFFFFFFFFFFFFFFFFFFFF AND SUB PUSH2 0x407 JUMPI PUSH1 0x40 MLOAD PUSH32 0x8C379A000000000000000000000000000000000000000000000000000000000 DUP2 MSTORE PUSH1 0x4 ADD PUSH2 0x3FE SWAP1 PUSH2 0x29AD JUMP JUMPDEST PUSH1 0x40 MLOAD DUP1 SWAP2 SUB SWAP1 REVERT JUMPDEST PUSH2 0x41B PUSH8 0x95BB74F77B3C2ECA PUSH1 0xC0 SHL PUSH2 0x209A JUMP JUMPDEST PUSH2 0x42F PUSH8 0xCB19289E390E2676 PUSH1 0xC0 SHL PUSH2 0x209A JUMP JUMPDEST PUSH2 0x443 PUSH8 0x6BE2A60E72AF3A39 PUSH1 0xC0 SHL PUSH2 0x209A JUMP JUMPDEST PUSH1 0x1 PUSH1 0x0 DUP4 DUP2 MSTORE PUSH1 0x20 ADD SWAP1 DUP2 MSTORE PUSH1 0x20 ADD PUSH1 0x0 KECCAK256 PUSH1 0x0 DUP5 PUSH20 0xFFFFFFFFFFFFFFFFFFFFFFFFFFFFFFFFFFFFFFFF AND PUSH20 0xFFFFFFFFFFFFFFFFFFFFFFFFFFFFFFFFFFFFFFFF AND DUP2 MSTORE PUSH1 0x20 ADD SWAP1 DUP2 MSTORE PUSH1 0x20 ADD PUSH1 0x0 KECCAK256 SLOAD SWAP1 POP SWAP3 SWAP2 POP POP JUMP JUMPDEST PUSH2 0x4B0 PUSH8 0xE1CCF58379D0F0F2 PUSH1 0xC0 SHL PUSH2 0x209A JUMP JUMPDEST PUSH2 0x4C4 PUSH8 0xAB267B289BF7E223 PUSH1 0xC0 SHL PUSH2 0x209A JUMP JUMPDEST PUSH2 0x4D8 PUSH8 0xE6860EC9AD94585E PUSH1 0xC0 SHL PUSH2 0x209A JUMP JUMPDEST PUSH2 0x4EC PUSH8 0x52CAC397E7FE50F4 PUSH1 0xC0 SHL PUSH2 0x209A JUMP JUMPDEST PUSH2 0x500 PUSH8 0xBA50882C3C8158B7 PUSH1 0xC0 SHL PUSH2 0x209A JUMP JUMPDEST CALLER PUSH20 0xFFFFFFFFFFFFFFFFFFFFFFFFFFFFFFFFFFFFFFFF AND PUSH1 0x0 DUP1 SLOAD SWAP1 PUSH2 0x100 EXP SWAP1 DIV PUSH20 0xFFFFFFFFFFFFFFFFFFFFFFFFFFFFFFFFFFFFFFFF AND PUSH20 0xFFFFFFFFFFFFFFFFFFFFFFFFFFFFFFFFFFFFFFFF AND EQ PUSH2 0x58E JUMPI PUSH1 0x40 MLOAD PUSH32 0x8C379A000000000000000000000000000000000000000000000000000000000 DUP2 MSTORE PUSH1 0x4 ADD PUSH2 0x585 SWAP1 PUSH2 0x2A3F JUMP JUMPDEST PUSH1 0x40 MLOAD DUP1 SWAP2 SUB SWAP1 REVERT JUMPDEST PUSH2 0x5A2 PUSH8 0xBD79D4C7CF57E006 PUSH1 0xC0 SHL PUSH2 0x209A JUMP JUMPDEST PUSH2 0x5B6 PUSH8 0xD3FC60EDBB06F55F PUSH1 0xC0 SHL PUSH2 0x209A JUMP JUMPDEST PUSH2 0x5CA PUSH8 0x9F5EE2E453A8BA00 PUSH1 0xC0 SHL PUSH2 0x209A JUMP JUMPDEST PUSH2 0x5DE PUSH8 0x8BC11E9F6BB432EE PUSH1 0xC0 SHL PUSH2 0x209A JUMP JUMPDEST PUSH2 0x5F2 PUSH8 0xB7923E14459F7C62 PUSH1 0xC0 SHL PUSH2 0x209A JUMP JUMPDEST PUSH2 0x606 PUSH8 0x300EDA3E153DFF47 PUSH1 0xC0 SHL PUSH2 0x209A JUMP JUMPDEST PUSH1 0x0 TIMESTAMP SWAP1 POP PUSH2 0x61F PUSH8 0xCF5DE4B7BCFD57D9 PUSH1 0xC0 SHL PUSH2 0x209A JUMP JUMPDEST PUSH2 0x633 PUSH8 0xE73C9195AC77D5BB PUSH1 0xC0 SHL PUSH2 0x209A JUMP JUMPDEST PUSH1 0x0 PUSH3 0x93A80 DUP4 PUSH2 0x644 SWAP2 SWAP1 PUSH2 0x2A8E JUMP JUMPDEST DUP3 PUSH2 0x64F SWAP2 SWAP1 PUSH2 0x2AD0 JUMP JUMPDEST SWAP1 POP PUSH2 0x665 PUSH8 0x7DB718E892D255CA PUSH1 0xC0 SHL PUSH2 0x209A JUMP JUMPDEST PUSH2 0x679 PUSH8 0xD50B5DF6D8011A97 PUSH1 0xC0 SHL PUSH2 0x209A JUMP JUMPDEST PUSH1 0x3 PUSH1 0x40 MLOAD DUP1 PUSH1 0xE0 ADD PUSH1 0x40 MSTORE DUP1 DUP9 DUP2 MSTORE PUSH1 0x20 ADD DUP8 DUP2 MSTORE PUSH1 0x20 ADD DUP7 DUP2 MSTORE PUSH1 0x20 ADD PUSH1 0x0 DUP2 MSTORE PUSH1 0x20 ADD DUP5 DUP2 MSTORE PUSH1 0x20 ADD DUP4 DUP2 MSTORE PUSH1 0x20 ADD PUSH1 0x1 ISZERO ISZERO DUP2 MSTORE POP SWAP1 DUP1 PUSH1 0x1 DUP2 SLOAD ADD DUP1 DUP3 SSTORE DUP1 SWAP2 POP POP PUSH1 0x1 SWAP1 SUB SWAP1 PUSH1 0x0 MSTORE PUSH1 0x20 PUSH1 0x0 KECCAK256 SWAP1 PUSH1 0x7 MUL ADD PUSH1 0x0 SWAP1 SWAP2 SWAP1 SWAP2 SWAP1 SWAP2 POP PUSH1 0x0 DUP3 ADD MLOAD DUP2 PUSH1 0x0 ADD SWAP1 DUP2 PUSH2 0x6F0 SWAP2 SWAP1 PUSH2 0x2D10 JUMP JUMPDEST POP PUSH1 0x20 DUP3 ADD MLOAD DUP2 PUSH1 0x1 ADD SSTORE PUSH1 0x40 DUP3 ADD MLOAD DUP2 PUSH1 0x2 ADD SSTORE PUSH1 0x60 DUP3 ADD MLOAD DUP2 PUSH1 0x3 ADD SSTORE PUSH1 0x80 DUP3 ADD MLOAD DUP2 PUSH1 0x4 ADD SSTORE PUSH1 0xA0 DUP3 ADD MLOAD DUP2 PUSH1 0x5 ADD SSTORE PUSH1 0xC0 DUP3 ADD MLOAD DUP2 PUSH1 0x6 ADD PUSH1 0x0 PUSH2 0x100 EXP DUP2 SLOAD DUP2 PUSH1 0xFF MUL NOT AND SWAP1 DUP4 ISZERO ISZERO MUL OR SWAP1 SSTORE POP POP POP PUSH2 0x759 PUSH8 0xDC355AACA3CC9ED4 PUSH1 0xC0 SHL PUSH2 0x209A JUMP JUMPDEST PUSH2 0x76D PUSH8 0x1FFC40927B736167 PUSH1 0xC0 SHL PUSH2 0x209A JUMP JUMPDEST PUSH1 0x0 PUSH1 0x1 PUSH1 0x3 DUP1 SLOAD SWAP1 POP PUSH2 0x781 SWAP2 SWAP1 PUSH2 0x2DE2 JUMP JUMPDEST SWAP1 POP PUSH2 0x797 PUSH8 0xD072D3B00C99CAD7 PUSH1 0xC0 SHL PUSH2 0x209A JUMP JUMPDEST PUSH2 0x7AB PUSH8 0x2D85BB237B886114 PUSH1 0xC0 SHL PUSH2 0x209A JUMP JUMPDEST PUSH32 0xC53CF244672E3E1EED9ACDCD22658F6C1CEE6D44144F1A17E4A1609B803AA605 DUP2 DUP9 DUP9 DUP9 PUSH1 0x40 MLOAD PUSH2 0x7E0 SWAP5 SWAP4 SWAP3 SWAP2 SWAP1 PUSH2 0x2E16 JUMP JUMPDEST PUSH1 0x40 MLOAD DUP1 SWAP2 SUB SWAP1 LOG1 POP POP POP POP POP POP POP JUMP JUMPDEST PUSH2 0x805 PUSH8 0x73E132A8B13CA6E4 PUSH1 0xC0 SHL PUSH2 0x209A JUMP JUMPDEST PUSH2 0x819 PUSH8 0xAB267B289BF7E223 PUSH1 0xC0 SHL PUSH2 0x209A JUMP JUMPDEST PUSH2 0x82D PUSH8 0xE6860EC9AD94585E PUSH1 0xC0 SHL PUSH2 0x209A JUMP JUMPDEST PUSH2 0x841 PUSH8 0x52CAC397E7FE50F4 PUSH1 0xC0 SHL PUSH2 0x209A JUMP JUMPDEST PUSH2 0x855 PUSH8 0xBA50882C3C8158B7 PUSH1 0xC0 SHL PUSH2 0x209A JUMP JUMPDEST CALLER PUSH20 0xFFFFFFFFFFFFFFFFFFFFFFFFFFFFFFFFFFFFFFFF AND PUSH1 0x0 DUP1 SLOAD SWAP1 PUSH2 0x100 EXP SWAP1 DIV PUSH20 0xFFFFFFFFFFFFFFFFFFFFFFFFFFFFFFFFFFFFFFFF AND PUSH20 0xFFFFFFFFFFFFFFFFFFFFFFFFFFFFFFFFFFFFFFFF AND EQ PUSH2 0x8E3 JUMPI PUSH1 0x40 MLOAD PUSH32 0x8C379A000000000000000000000000000000000000000000000000000000000 DUP2 MSTORE PUSH1 0x4 ADD PUSH2 0x8DA SWAP1 PUSH2 0x2A3F JUMP JUMPDEST PUSH1 0x40 MLOAD DUP1 SWAP2 SUB SWAP1 REVERT JUMPDEST PUSH2 0x8F7 PUSH8 0xBD79D4C7CF57E006 PUSH1 0xC0 SHL PUSH2 0x209A JUMP JUMPDEST PUSH2 0x90B PUSH8 0xD3FC60EDBB06F55F PUSH1 0xC0 SHL PUSH2 0x209A JUMP JUMPDEST PUSH2 0x91F PUSH8 0x50241F5905FE5051 PUSH1 0xC0 SHL PUSH2 0x209A JUMP JUMPDEST PUSH2 0x933 PUSH8 0xCD5FD3D0349EDD96 PUSH1 0xC0 SHL PUSH2 0x209A JUMP JUMPDEST PUSH2 0x947 PUSH8 0xCECBC986CFC699E0 PUSH1 0xC0 SHL PUSH2 0x209A JUMP JUMPDEST PUSH2 0x95B PUSH8 0x43431683A219F70D PUSH1 0xC0 SHL PUSH2 0x209A JUMP JUMPDEST PUSH1 0x0 DUP1 PUSH1 0x0 SWAP1 SLOAD SWAP1 PUSH2 0x100 EXP SWAP1 DIV PUSH20 0xFFFFFFFFFFFFFFFFFFFFFFFFFFFFFFFFFFFFFFFF AND PUSH20 0xFFFFFFFFFFFFFFFFFFFFFFFFFFFFFFFFFFFFFFFF AND SELFBALANCE PUSH1 0x40 MLOAD PUSH2 0x9A2 SWAP1 PUSH2 0x2E93 JUMP JUMPDEST PUSH1 0x0 PUSH1 0x40 MLOAD DUP1 DUP4 SUB DUP2 DUP6 DUP8 GAS CALL SWAP3 POP POP POP RETURNDATASIZE DUP1 PUSH1 0x0 DUP2 EQ PUSH2 0x9DF JUMPI PUSH1 0x40 MLOAD SWAP2 POP PUSH1 0x1F NOT PUSH1 0x3F RETURNDATASIZE ADD AND DUP3 ADD PUSH1 0x40 MSTORE RETURNDATASIZE DUP3 MSTORE RETURNDATASIZE PUSH1 0x0 PUSH1 0x20 DUP5 ADD RETURNDATACOPY PUSH2 0x9E4 JUMP JUMPDEST PUSH1 0x60 SWAP2 POP JUMPDEST POP POP SWAP1 POP PUSH2 0x9FC PUSH8 0xB0F6ED96ACF208AF PUSH1 0xC0 SHL PUSH2 0x209A JUMP JUMPDEST PUSH2 0xA10 PUSH8 0x36DC078C6B953814 PUSH1 0xC0 SHL PUSH2 0x209A JUMP JUMPDEST PUSH2 0xA24 PUSH8 0xC2A073E5B0ECE192 PUSH1 0xC0 SHL PUSH2 0x209A JUMP JUMPDEST DUP1 PUSH2 0xA64 JUMPI PUSH1 0x40 MLOAD PUSH32 0x8C379A000000000000000000000000000000000000000000000000000000000 DUP2 MSTORE PUSH1 0x4 ADD PUSH2 0xA5B SWAP1 PUSH2 0x2EF4 JUMP JUMPDEST PUSH1 0x40 MLOAD DUP1 SWAP2 SUB SWAP1 REVERT JUMPDEST PUSH2 0xA78 PUSH8 0x37E43CADE87DBFA1 PUSH1 0xC0 SHL PUSH2 0x209A JUMP JUMPDEST POP JUMP JUMPDEST PUSH2 0xA8F PUSH8 0x136C85C6E7CBC135 PUSH1 0xC0 SHL PUSH2 0x209A JUMP JUMPDEST PUSH2 0xAA3 PUSH8 0x6CCB7BD9379603A9 PUSH1 0xC0 SHL PUSH2 0x209A JUMP JUMPDEST PUSH2 0xAB7 PUSH8 0xC584FE5683BBBA89 PUSH1 0xC0 SHL PUSH2 0x209A JUMP JUMPDEST PUSH2 0xACB PUSH8 0x3551A01919155F71 PUSH1 0xC0 SHL PUSH2 0x209A JUMP JUMPDEST PUSH1 0x0 PUSH1 0x3 DUP1 SLOAD SWAP1 POP GT PUSH2 0xB13 JUMPI PUSH1 0x40 MLOAD PUSH32 0x8C379A000000000000000000000000000000000000000000000000000000000 DUP2 MSTORE PUSH1 0x4 ADD PUSH2 0xB0A SWAP1 PUSH2 0x2F60 JUMP JUMPDEST PUSH1 0x40 MLOAD DUP1 SWAP2 SUB SWAP1 REVERT JUMPDEST PUSH2 0xB27 PUSH8 0x5BEB71A219073263 PUSH1 0xC0 SHL PUSH2 0x209A JUMP JUMPDEST PUSH2 0xB3B PUSH8 0x8BF24671F9D7EFEF PUSH1 0xC0 SHL PUSH2 0x209A JUMP JUMPDEST PUSH2 0xB4F PUSH8 0x7348F5FD37E85C58 PUSH1 0xC0 SHL PUSH2 0x209A JUMP JUMPDEST PUSH1 0x0 PUSH1 0x1 PUSH1 0x3 DUP1 SLOAD SWAP1 POP PUSH2 0xB63 SWAP2 SWAP1 PUSH2 0x2DE2 JUMP JUMPDEST SWAP1 POP PUSH2 0xB79 PUSH8 0xAC9152989D951EB PUSH1 0xC0 SHL PUSH2 0x209A JUMP JUMPDEST PUSH2 0xB8D PUSH8 0x20224698593515F0 PUSH1 0xC0 SHL PUSH2 0x209A JUMP JUMPDEST PUSH1 0x0 PUSH1 0x3 DUP3 DUP2 SLOAD DUP2 LT PUSH2 0xBA3 JUMPI PUSH2 0xBA2 PUSH2 0x2F80 JUMP JUMPDEST JUMPDEST SWAP1 PUSH1 0x0 MSTORE PUSH1 0x20 PUSH1 0x0 KECCAK256 SWAP1 PUSH1 0x7 MUL ADD SWAP1 POP PUSH2 0xBC7 PUSH8 0x70EF3DF40370B517 PUSH1 0xC0 SHL PUSH2 0x209A JUMP JUMPDEST PUSH2 0xBDB PUSH8 0x2D96CA2639BD2868 PUSH1 0xC0 SHL PUSH2 0x209A JUMP JUMPDEST PUSH2 0xBEF PUSH8 0x1496E3B6429E72C4 PUSH1 0xC0 SHL PUSH2 0x209A JUMP JUMPDEST DUP1 PUSH1 0x6 ADD PUSH1 0x0 SWAP1 SLOAD SWAP1 PUSH2 0x100 EXP SWAP1 DIV PUSH1 0xFF AND PUSH2 0xC40 JUMPI PUSH1 0x40 MLOAD PUSH32 0x8C379A000000000000000000000000000000000000000000000000000000000 DUP2 MSTORE PUSH1 0x4 ADD PUSH2 0xC37 SWAP1 PUSH2 0x2FFB JUMP JUMPDEST PUSH1 0x40 MLOAD DUP1 SWAP2 SUB SWAP1 REVERT JUMPDEST PUSH2 0xC54 PUSH8 0x89153ACB8BEE8B06 PUSH1 0xC0 SHL PUSH2 0x209A JUMP JUMPDEST PUSH2 0xC68 PUSH8 0x729B32E2C0A6D831 PUSH1 0xC0 SHL PUSH2 0x209A JUMP JUMPDEST PUSH2 0xC7C PUSH8 0x803649FFD7D6309 PUSH1 0xC0 SHL PUSH2 0x209A JUMP JUMPDEST PUSH2 0xC90 PUSH8 0x154445FE386CE48F PUSH1 0xC0 SHL PUSH2 0x209A JUMP JUMPDEST DUP1 PUSH1 0x2 ADD SLOAD DUP2 PUSH1 0x3 ADD SLOAD LT PUSH2 0xCDA JUMPI PUSH1 0x40 MLOAD PUSH32 0x8C379A000000000000000000000000000000000000000000000000000000000 DUP2 MSTORE PUSH1 0x4 ADD PUSH2 0xCD1 SWAP1 PUSH2 0x308D JUMP JUMPDEST PUSH1 0x40 MLOAD DUP1 SWAP2 SUB SWAP1 REVERT JUMPDEST PUSH2 0xCEE PUSH8 0xC0477A40DBD8AA97 PUSH1 0xC0 SHL PUSH2 0x209A JUMP JUMPDEST PUSH2 0xD02 PUSH8 0x760CC7CC9C660728 PUSH1 0xC0 SHL PUSH2 0x209A JUMP JUMPDEST PUSH2 0xD16 PUSH8 0x660CA11124E1EFAC PUSH1 0xC0 SHL PUSH2 0x209A JUMP JUMPDEST PUSH2 0xD2A PUSH8 0x1F476728132C0F1C PUSH1 0xC0 SHL PUSH2 0x209A JUMP JUMPDEST DUP1 PUSH1 0x1 ADD SLOAD CALLVALUE EQ PUSH2 0xD70 JUMPI PUSH1 0x40 MLOAD PUSH32 0x8C379A000000000000000000000000000000000000000000000000000000000 DUP2 MSTORE PUSH1 0x4 ADD PUSH2 0xD67 SWAP1 PUSH2 0x30F9 JUMP JUMPDEST PUSH1 0x40 MLOAD DUP1 SWAP2 SUB SWAP1 REVERT JUMPDEST PUSH2 0xD84 PUSH8 0x53AF712148116FB4 PUSH1 0xC0 SHL PUSH2 0x209A JUMP JUMPDEST PUSH2 0xD98 PUSH8 0xF6473C7D91DC1BE PUSH1 0xC0 SHL PUSH2 0x209A JUMP JUMPDEST DUP1 PUSH1 0x3 ADD PUSH1 0x0 DUP2 SLOAD DUP1 SWAP3 SWAP2 SWAP1 PUSH2 0xDAD SWAP1 PUSH2 0x3119 JUMP JUMPDEST SWAP2 SWAP1 POP SSTORE POP PUSH2 0xDC6 PUSH8 0x821FB852954A69DA PUSH1 0xC0 SHL PUSH2 0x209A JUMP JUMPDEST PUSH2 0xDDA PUSH8 0x34ECD3C184E7C345 PUSH1 0xC0 SHL PUSH2 0x209A JUMP JUMPDEST PUSH2 0xDE6 CALLER DUP4 PUSH1 0x1 PUSH2 0x209D JUMP JUMPDEST PUSH2 0xDFA PUSH8 0x412937CEFFAAB5C9 PUSH1 0xC0 SHL PUSH2 0x209A JUMP JUMPDEST PUSH2 0xE0E PUSH8 0x9FE12DF342363D0D PUSH1 0xC0 SHL PUSH2 0x209A JUMP JUMPDEST PUSH32 0x3040FF01F7E0EF639D0A39654B7BE379473B85453C82254B1AB871ACCBD51EDF DUP3 CALLER PUSH1 0x1 PUSH1 0x40 MLOAD PUSH2 0xE42 SWAP4 SWAP3 SWAP2 SWAP1 PUSH2 0x319C JUMP JUMPDEST PUSH1 0x40 MLOAD DUP1 SWAP2 SUB SWAP1 LOG1 POP POP JUMP JUMPDEST PUSH2 0xE62 PUSH8 0x29BAB031CA7B0D60 PUSH1 0xC0 SHL PUSH2 0x209A JUMP JUMPDEST PUSH2 0xE76 PUSH8 0xAB267B289BF7E223 PUSH1 0xC0 SHL PUSH2 0x209A JUMP JUMPDEST PUSH2 0xE8A PUSH8 0xE6860EC9AD94585E PUSH1 0xC0 SHL PUSH2 0x209A JUMP JUMPDEST PUSH2 0xE9E PUSH8 0x52CAC397E7FE50F4 PUSH1 0xC0 SHL PUSH2 0x209A JUMP JUMPDEST PUSH2 0xEB2 PUSH8 0xBA50882C3C8158B7 PUSH1 0xC0 SHL PUSH2 0x209A JUMP JUMPDEST CALLER PUSH20 0xFFFFFFFFFFFFFFFFFFFFFFFFFFFFFFFFFFFFFFFF AND PUSH1 0x0 DUP1 SLOAD SWAP1 PUSH2 0x100 EXP SWAP1 DIV PUSH20 0xFFFFFFFFFFFFFFFFFFFFFFFFFFFFFFFFFFFFFFFF AND PUSH20 0xFFFFFFFFFFFFFFFFFFFFFFFFFFFFFFFFFFFFFFFF AND EQ PUSH2 0xF40 JUMPI PUSH1 0x40 MLOAD PUSH32 0x8C379A000000000000000000000000000000000000000000000000000000000 DUP2 MSTORE PUSH1 0x4 ADD PUSH2 0xF37 SWAP1 PUSH2 0x2A3F JUMP JUMPDEST PUSH1 0x40 MLOAD DUP1 SWAP2 SUB SWAP1 REVERT JUMPDEST PUSH2 0xF54 PUSH8 0xBD79D4C7CF57E006 PUSH1 0xC0 SHL PUSH2 0x209A JUMP JUMPDEST PUSH2 0xF68 PUSH8 0xD3FC60EDBB06F55F PUSH1 0xC0 SHL PUSH2 0x209A JUMP JUMPDEST PUSH2 0xF7C PUSH8 0x387D1C2AAD1A412E PUSH1 0xC0 SHL PUSH2 0x209A JUMP JUMPDEST PUSH2 0xF90 PUSH8 0xDF2D47C2F832699B PUSH1 0xC0 SHL PUSH2 0x209A JUMP JUMPDEST PUSH2 0xFA4 PUSH8 0xF3336E1C97FEEDE6 PUSH1 0xC0 SHL PUSH2 0x209A JUMP JUMPDEST PUSH2 0xFB8 PUSH8 0x3B8BC1486034D8EE PUSH1 0xC0 SHL PUSH2 0x209A JUMP JUMPDEST PUSH2 0xFCC PUSH8 0xB862470492EAACBC PUSH1 0xC0 SHL PUSH2 0x209A JUMP JUMPDEST PUSH1 0x3 DUP1 SLOAD SWAP1 POP DUP2 LT PUSH2 0x1013 JUMPI PUSH1 0x40 MLOAD PUSH32 0x8C379A000000000000000000000000000000000000000000000000000000000 DUP2 MSTORE PUSH1 0x4 ADD PUSH2 0x100A SWAP1 PUSH2 0x321F JUMP JUMPDEST PUSH1 0x40 MLOAD DUP1 SWAP2 SUB SWAP1 REVERT JUMPDEST PUSH2 0x1027 PUSH8 0x562B074070583554 PUSH1 0xC0 SHL PUSH2 0x209A JUMP JUMPDEST PUSH2 0x103B PUSH8 0x3C8EF113A18BFF31 PUSH1 0xC0 SHL PUSH2 0x209A JUMP JUMPDEST PUSH1 0x0 PUSH1 0x3 DUP3 DUP2 SLOAD DUP2 LT PUSH2 0x1051 JUMPI PUSH2 0x1050 PUSH2 0x2F80 JUMP JUMPDEST JUMPDEST SWAP1 PUSH1 0x0 MSTORE PUSH1 0x20 PUSH1 0x0 KECCAK256 SWAP1 PUSH1 0x7 MUL ADD PUSH1 0x6 ADD PUSH1 0x0 PUSH2 0x100 EXP DUP2 SLOAD DUP2 PUSH1 0xFF MUL NOT AND SWAP1 DUP4 ISZERO ISZERO MUL OR SWAP1 SSTORE POP POP JUMP JUMPDEST PUSH2 0x1090 PUSH8 0x9AFF07B76F36928D PUSH1 0xC0 SHL PUSH2 0x209A JUMP JUMPDEST PUSH2 0x10A4 PUSH8 0x75769D12742A3943 PUSH1 0xC0 SHL PUSH2 0x209A JUMP JUMPDEST PUSH2 0x10B8 PUSH8 0xEE4D02D19A7EFA01 PUSH1 0xC0 SHL PUSH2 0x209A JUMP JUMPDEST PUSH2 0x10CC PUSH8 0xCCFE6629FAC63550 PUSH1 0xC0 SHL PUSH2 0x209A JUMP JUMPDEST PUSH1 0x1 PUSH2 0x10D8 CALLER DUP4 PUSH2 0x346 JUMP JUMPDEST LT ISZERO PUSH2 0x1119 JUMPI PUSH1 0x40 MLOAD PUSH32 0x8C379A000000000000000000000000000000000000000000000000000000000 DUP2 MSTORE PUSH1 0x4 ADD PUSH2 0x1110 SWAP1 PUSH2 0x32B1 JUMP JUMPDEST PUSH1 0x40 MLOAD DUP1 SWAP2 SUB SWAP1 REVERT JUMPDEST PUSH2 0x112D PUSH8 0xAE7CEE424CD8F238 PUSH1 0xC0 SHL PUSH2 0x209A JUMP JUMPDEST PUSH2 0x1141 PUSH8 0x1042CFD47FC27D51 PUSH1 0xC0 SHL PUSH2 0x209A JUMP JUMPDEST PUSH2 0x1155 PUSH8 0x577F7AF7BD0984E1 PUSH1 0xC0 SHL PUSH2 0x209A JUMP JUMPDEST PUSH1 0x0 PUSH1 0x3 DUP3 DUP2 SLOAD DUP2 LT PUSH2 0x116B JUMPI PUSH2 0x116A PUSH2 0x2F80 JUMP JUMPDEST JUMPDEST SWAP1 PUSH1 0x0 MSTORE PUSH1 0x20 PUSH1 0x0 KECCAK256 SWAP1 PUSH1 0x7 MUL ADD SWAP1 POP PUSH2 0x118F PUSH8 0x7465373941D37A4D PUSH1 0xC0 SHL PUSH2 0x209A JUMP JUMPDEST PUSH2 0x11A3 PUSH8 0x421C9907327EE299 PUSH1 0xC0 SHL PUSH2 0x209A JUMP JUMPDEST PUSH2 0x11B7 PUSH8 0xA558B2779861DF7F PUSH1 0xC0 SHL PUSH2 0x209A JUMP JUMPDEST DUP1 PUSH1 0x4 ADD SLOAD TIMESTAMP LT ISZERO DUP1 ISZERO PUSH2 0x11CF JUMPI POP DUP1 PUSH1 0x5 ADD SLOAD TIMESTAMP GT ISZERO JUMPDEST PUSH2 0x120E JUMPI PUSH1 0x40 MLOAD PUSH32 0x8C379A000000000000000000000000000000000000000000000000000000000 DUP2 MSTORE PUSH1 0x4 ADD PUSH2 0x1205 SWAP1 PUSH2 0x3343 JUMP JUMPDEST PUSH1 0x40 MLOAD DUP1 SWAP2 SUB SWAP1 REVERT JUMPDEST PUSH2 0x1222 PUSH8 0xA98A80427F513ED1 PUSH1 0xC0 SHL PUSH2 0x209A JUMP JUMPDEST PUSH2 0x1236 PUSH8 0xD4B8B7A1C43D2FF9 PUSH1 0xC0 SHL PUSH2 0x209A JUMP JUMPDEST PUSH2 0x124A PUSH8 0xBFBD480E6C59B12C PUSH1 0xC0 SHL PUSH2 0x209A JUMP JUMPDEST PUSH1 0x0 PUSH3 0x93A80 DUP3 PUSH1 0x4 ADD SLOAD TIMESTAMP PUSH2 0x1260 SWAP2 SWAP1 PUSH2 0x2DE2 JUMP JUMPDEST PUSH2 0x126A SWAP2 SWAP1 PUSH2 0x3392 JUMP JUMPDEST SWAP1 POP PUSH2 0x1280 PUSH8 0x88393905AE67BF5A PUSH1 0xC0 SHL PUSH2 0x209A JUMP JUMPDEST PUSH2 0x1294 PUSH8 0x72C2CCDB55A0B191 PUSH1 0xC0 SHL PUSH2 0x209A JUMP JUMPDEST PUSH2 0x12A8 PUSH8 0xA72F4E30F67E0FB0 PUSH1 0xC0 SHL PUSH2 0x209A JUMP JUMPDEST PUSH1 0x4 PUSH1 0x0 CALLER PUSH20 0xFFFFFFFFFFFFFFFFFFFFFFFFFFFFFFFFFFFFFFFF AND PUSH20 0xFFFFFFFFFFFFFFFFFFFFFFFFFFFFFFFFFFFFFFFF AND DUP2 MSTORE PUSH1 0x20 ADD SWAP1 DUP2 MSTORE PUSH1 0x20 ADD PUSH1 0x0 KECCAK256 PUSH1 0x0 DUP5 DUP2 MSTORE PUSH1 0x20 ADD SWAP1 DUP2 MSTORE PUSH1 0x20 ADD PUSH1 0x0 KECCAK256 PUSH1 0x0 DUP3 DUP2 MSTORE PUSH1 0x20 ADD SWAP1 DUP2 MSTORE PUSH1 0x20 ADD PUSH1 0x0 KECCAK256 PUSH1 0x0 SWAP1 SLOAD SWAP1 PUSH2 0x100 EXP SWAP1 DIV PUSH1 0xFF AND ISZERO PUSH2 0x1357 JUMPI PUSH1 0x40 MLOAD PUSH32 0x8C379A000000000000000000000000000000000000000000000000000000000 DUP2 MSTORE PUSH1 0x4 ADD PUSH2 0x134E SWAP1 PUSH2 0x3435 JUMP JUMPDEST PUSH1 0x40 MLOAD DUP1 SWAP2 SUB SWAP1 REVERT JUMPDEST PUSH2 0x136B PUSH8 0xA11681AB9537252 PUSH1 0xC0 SHL PUSH2 0x209A JUMP JUMPDEST PUSH2 0x137F PUSH8 0xC7849C4E6E0775FB PUSH1 0xC0 SHL PUSH2 0x209A JUMP JUMPDEST PUSH1 0x1 PUSH1 0x4 PUSH1 0x0 CALLER PUSH20 0xFFFFFFFFFFFFFFFFFFFFFFFFFFFFFFFFFFFFFFFF AND PUSH20 0xFFFFFFFFFFFFFFFFFFFFFFFFFFFFFFFFFFFFFFFF AND DUP2 MSTORE PUSH1 0x20 ADD SWAP1 DUP2 MSTORE PUSH1 0x20 ADD PUSH1 0x0 KECCAK256 PUSH1 0x0 DUP6 DUP2 MSTORE PUSH1 0x20 ADD SWAP1 DUP2 MSTORE PUSH1 0x20 ADD PUSH1 0x0 KECCAK256 PUSH1 0x0 DUP4 DUP2 MSTORE PUSH1 0x20 ADD SWAP1 DUP2 MSTORE PUSH1 0x20 ADD PUSH1 0x0 KECCAK256 PUSH1 0x0 PUSH2 0x100 EXP DUP2 SLOAD DUP2 PUSH1 0xFF MUL NOT AND SWAP1 DUP4 ISZERO ISZERO MUL OR SWAP1 SSTORE POP PUSH2 0x140D PUSH8 0x54227FDD4F9F1479 PUSH1 0xC0 SHL PUSH2 0x209A JUMP JUMPDEST PUSH2 0x1421 PUSH8 0x92D9DC97C828BDB PUSH1 0xC0 SHL PUSH2 0x209A JUMP JUMPDEST PUSH32 0xF5CF00EB1F48DDF482622C8808E58960924C23A2A09920F594DA63271914D5D1 DUP4 CALLER DUP4 PUSH1 0x40 MLOAD PUSH2 0x1454 SWAP4 SWAP3 SWAP2 SWAP1 PUSH2 0x3455 JUMP JUMPDEST PUSH1 0x40 MLOAD DUP1 SWAP2 SUB SWAP1 LOG1 POP POP POP JUMP JUMPDEST PUSH1 0x4 PUSH1 0x20 MSTORE DUP3 PUSH1 0x0 MSTORE PUSH1 0x40 PUSH1 0x0 KECCAK256 PUSH1 0x20 MSTORE DUP2 PUSH1 0x0 MSTORE PUSH1 0x40 PUSH1 0x0 KECCAK256 PUSH1 0x20 MSTORE DUP1 PUSH1 0x0 MSTORE PUSH1 0x40 PUSH1 0x0 KECCAK256 PUSH1 0x0 SWAP3 POP SWAP3 POP POP SWAP1 SLOAD SWAP1 PUSH2 0x100 EXP SWAP1 DIV PUSH1 0xFF AND DUP2 JUMP JUMPDEST PUSH1 0x0 DUP1 SLOAD SWAP1 PUSH2 0x100 EXP SWAP1 DIV PUSH20 0xFFFFFFFFFFFFFFFFFFFFFFFFFFFFFFFFFFFFFFFF AND DUP2 JUMP JUMPDEST PUSH2 0x14D5 PUSH8 0xD8C72DB29A2C4E03 PUSH1 0xC0 SHL PUSH2 0x209A JUMP JUMPDEST PUSH2 0x14E9 PUSH8 0x1FD0C01F72F130FB PUSH1 0xC0 SHL PUSH2 0x209A JUMP JUMPDEST DUP1 PUSH1 0x2 PUSH1 0x0 CALLER PUSH20 0xFFFFFFFFFFFFFFFFFFFFFFFFFFFFFFFFFFFFFFFF AND PUSH20 0xFFFFFFFFFFFFFFFFFFFFFFFFFFFFFFFFFFFFFFFF AND DUP2 MSTORE PUSH1 0x20 ADD SWAP1 DUP2 MSTORE PUSH1 0x20 ADD PUSH1 0x0 KECCAK256 PUSH1 0x0 DUP5 PUSH20 0xFFFFFFFFFFFFFFFFFFFFFFFFFFFFFFFFFFFFFFFF AND PUSH20 0xFFFFFFFFFFFFFFFFFFFFFFFFFFFFFFFFFFFFFFFF AND DUP2 MSTORE PUSH1 0x20 ADD SWAP1 DUP2 MSTORE PUSH1 0x20 ADD PUSH1 0x0 KECCAK256 PUSH1 0x0 PUSH2 0x100 EXP DUP2 SLOAD DUP2 PUSH1 0xFF MUL NOT AND SWAP1 DUP4 ISZERO ISZERO MUL OR SWAP1 SSTORE POP PUSH2 0x1591 PUSH8 0xD5E81A0C6AF3310E PUSH1 0xC0 SHL PUSH2 0x209A JUMP JUMPDEST PUSH2 0x15A5 PUSH8 0xC05A1EE3C628889 PUSH1 0xC0 SHL PUSH2 0x209A JUMP JUMPDEST DUP2 PUSH20 0xFFFFFFFFFFFFFFFFFFFFFFFFFFFFFFFFFFFFFFFF AND CALLER PUSH20 0xFFFFFFFFFFFFFFFFFFFFFFFFFFFFFFFFFFFFFFFF AND PUSH32 0x17307EAB39AB6107E8899845AD3D59BD9653F200F220920489CA2B5937696C31 DUP4 PUSH1 0x40 MLOAD PUSH2 0x1602 SWAP2 SWAP1 PUSH2 0x2616 JUMP JUMPDEST PUSH1 0x40 MLOAD DUP1 SWAP2 SUB SWAP1 LOG3 POP POP JUMP JUMPDEST PUSH1 0x0 PUSH2 0x1624 PUSH8 0xB25693F188EC983D PUSH1 0xC0 SHL PUSH2 0x209A JUMP JUMPDEST PUSH2 0x1638 PUSH8 0x74E8CB6015E1457F PUSH1 0xC0 SHL PUSH2 0x209A JUMP JUMPDEST PUSH2 0x164C PUSH8 0x19DBDCA1B828FFBA PUSH1 0xC0 SHL PUSH2 0x209A JUMP JUMPDEST PUSH1 0x2 PUSH1 0x0 DUP5 PUSH20 0xFFFFFFFFFFFFFFFFFFFFFFFFFFFFFFFFFFFFFFFF AND PUSH20 0xFFFFFFFFFFFFFFFFFFFFFFFFFFFFFFFFFFFFFFFF AND DUP2 MSTORE PUSH1 0x20 ADD SWAP1 DUP2 MSTORE PUSH1 0x20 ADD PUSH1 0x0 KECCAK256 PUSH1 0x0 DUP4 PUSH20 0xFFFFFFFFFFFFFFFFFFFFFFFFFFFFFFFFFFFFFFFF AND PUSH20 0xFFFFFFFFFFFFFFFFFFFFFFFFFFFFFFFFFFFFFFFF AND DUP2 MSTORE PUSH1 0x20 ADD SWAP1 DUP2 MSTORE PUSH1 0x20 ADD PUSH1 0x0 KECCAK256 PUSH1 0x0 SWAP1 SLOAD SWAP1 PUSH2 0x100 EXP SWAP1 DIV PUSH1 0xFF AND SWAP1 POP SWAP3 SWAP2 POP POP JUMP JUMPDEST PUSH2 0x16F2 PUSH8 0x43C6AA694E6C13A6 PUSH1 0xC0 SHL PUSH2 0x209A JUMP JUMPDEST PUSH2 0x1706 PUSH8 0xF871D2FD78E5EBEF PUSH1 0xC0 SHL PUSH2 0x209A JUMP JUMPDEST PUSH2 0x171A PUSH8 0x707C5CDFD005E24A PUSH1 0xC0 SHL PUSH2 0x209A JUMP JUMPDEST PUSH2 0x172E PUSH8 0x5F0A49D310139B1E PUSH1 0xC0 SHL PUSH2 0x209A JUMP JUMPDEST CALLER PUSH20 0xFFFFFFFFFFFFFFFFFFFFFFFFFFFFFFFFFFFFFFFF AND DUP6 PUSH20 0xFFFFFFFFFFFFFFFFFFFFFFFFFFFFFFFFFFFFFFFF AND EQ DUP1 ISZERO PUSH2 0x1779 JUMPI POP PUSH2 0x1778 PUSH8 0xDFD844AC62E9060C PUSH1 0xC0 SHL PUSH2 0x2295 JUMP JUMPDEST JUMPDEST DUP1 PUSH2 0x17A6 JUMPI POP PUSH2 0x1789 DUP6 CALLER PUSH2 0x160E JUMP JUMPDEST DUP1 ISZERO PUSH2 0x17A5 JUMPI POP PUSH2 0x17A4 PUSH8 0x92664AF19BBB272F PUSH1 0xC0 SHL PUSH2 0x2295 JUMP JUMPDEST JUMPDEST JUMPDEST PUSH2 0x17E5 JUMPI PUSH1 0x40 MLOAD PUSH32 0x8C379A000000000000000000000000000000000000000000000000000000000 DUP2 MSTORE PUSH1 0x4 ADD PUSH2 0x17DC SWAP1 PUSH2 0x34D8 JUMP JUMPDEST PUSH1 0x40 MLOAD DUP1 SWAP2 SUB SWAP1 REVERT JUMPDEST PUSH2 0x17F9 PUSH8 0x651335ED250CB88E PUSH1 0xC0 SHL PUSH2 0x209A JUMP JUMPDEST PUSH2 0x180D PUSH8 0xBE71EFABFC145A95 PUSH1 0xC0 SHL PUSH2 0x209A JUMP JUMPDEST PUSH2 0x1821 PUSH8 0xA10EE1F11466D3D7 PUSH1 0xC0 SHL PUSH2 0x209A JUMP JUMPDEST PUSH2 0x1835 PUSH8 0xBE070531236CA76D PUSH1 0xC0 SHL PUSH2 0x209A JUMP JUMPDEST PUSH1 0x0 PUSH20 0xFFFFFFFFFFFFFFFFFFFFFFFFFFFFFFFFFFFFFFFF AND DUP5 PUSH20 0xFFFFFFFFFFFFFFFFFFFFFFFFFFFFFFFFFFFFFFFF AND SUB PUSH2 0x18A4 JUMPI PUSH1 0x40 MLOAD PUSH32 0x8C379A000000000000000000000000000000000000000000000000000000000 DUP2 MSTORE PUSH1 0x4 ADD PUSH2 0x189B SWAP1 PUSH2 0x356A JUMP JUMPDEST PUSH1 0x40 MLOAD DUP1 SWAP2 SUB SWAP1 REVERT JUMPDEST PUSH2 0x18B8 PUSH8 0x53F77F958DE44EE4 PUSH1 0xC0 SHL PUSH2 0x209A JUMP JUMPDEST PUSH2 0x18CC PUSH8 0x8180A9F9CC72B6BD PUSH1 0xC0 SHL PUSH2 0x209A JUMP JUMPDEST PUSH2 0x18E0 PUSH8 0x4F75C9CBAC59B8EF PUSH1 0xC0 SHL PUSH2 0x209A JUMP JUMPDEST PUSH2 0x18F4 PUSH8 0x5DC98AAEAE36D994 PUSH1 0xC0 SHL PUSH2 0x209A JUMP JUMPDEST DUP2 PUSH1 0x1 PUSH1 0x0 DUP6 DUP2 MSTORE PUSH1 0x20 ADD SWAP1 DUP2 MSTORE PUSH1 0x20 ADD PUSH1 0x0 KECCAK256 PUSH1 0x0 DUP8 PUSH20 0xFFFFFFFFFFFFFFFFFFFFFFFFFFFFFFFFFFFFFFFF AND PUSH20 0xFFFFFFFFFFFFFFFFFFFFFFFFFFFFFFFFFFFFFFFF AND DUP2 MSTORE PUSH1 0x20 ADD SWAP1 DUP2 MSTORE PUSH1 0x20 ADD PUSH1 0x0 KECCAK256 SLOAD LT ISZERO PUSH2 0x1987 JUMPI PUSH1 0x40 MLOAD PUSH32 0x8C379A000000000000000000000000000000000000000000000000000000000 DUP2 MSTORE PUSH1 0x4 ADD PUSH2 0x197E SWAP1 PUSH2 0x35D6 JUMP JUMPDEST PUSH1 0x40 MLOAD DUP1 SWAP2 SUB SWAP1 REVERT JUMPDEST PUSH2 0x199B PUSH8 0x63DC6C73F8D10E33 PUSH1 0xC0 SHL PUSH2 0x209A JUMP JUMPDEST PUSH2 0x19AF PUSH8 0x50D5C91CD9443A04 PUSH1 0xC0 SHL PUSH2 0x209A JUMP JUMPDEST DUP2 PUSH1 0x1 PUSH1 0x0 DUP6 DUP2 MSTORE PUSH1 0x20 ADD SWAP1 DUP2 MSTORE PUSH1 0x20 ADD PUSH1 0x0 KECCAK256 PUSH1 0x0 DUP8 PUSH20 0xFFFFFFFFFFFFFFFFFFFFFFFFFFFFFFFFFFFFFFFF AND PUSH20 0xFFFFFFFFFFFFFFFFFFFFFFFFFFFFFFFFFFFFFFFF AND DUP2 MSTORE PUSH1 0x20 ADD SWAP1 DUP2 MSTORE PUSH1 0x20 ADD PUSH1 0x0 KECCAK256 PUSH1 0x0 DUP3 DUP3 SLOAD PUSH2 0x1A0F SWAP2 SWAP1 PUSH2 0x2DE2 JUMP JUMPDEST SWAP3 POP POP DUP2 SWAP1 SSTORE POP PUSH2 0x1A2A PUSH8 0xCF773594090B6E74 PUSH1 0xC0 SHL PUSH2 0x209A JUMP JUMPDEST DUP2 PUSH1 0x1 PUSH1 0x0 DUP6 DUP2 MSTORE PUSH1 0x20 ADD SWAP1 DUP2 MSTORE PUSH1 0x20 ADD PUSH1 0x0 KECCAK256 PUSH1 0x0 DUP7 PUSH20 0xFFFFFFFFFFFFFFFFFFFFFFFFFFFFFFFFFFFFFFFF AND PUSH20 0xFFFFFFFFFFFFFFFFFFFFFFFFFFFFFFFFFFFFFFFF AND DUP2 MSTORE PUSH1 0x20 ADD SWAP1 DUP2 MSTORE PUSH1 0x20 ADD PUSH1 0x0 KECCAK256 PUSH1 0x0 DUP3 DUP3 SLOAD PUSH2 0x1A8A SWAP2 SWAP1 PUSH2 0x2AD0 JUMP JUMPDEST SWAP3 POP POP DUP2 SWAP1 SSTORE POP PUSH2 0x1AA5 PUSH8 0xB73E5EC5D1B87E3 PUSH1 0xC0 SHL PUSH2 0x209A JUMP JUMPDEST PUSH2 0x1AB9 PUSH8 0x194A0CB1C360202E PUSH1 0xC0 SHL PUSH2 0x209A JUMP JUMPDEST DUP4 PUSH20 0xFFFFFFFFFFFFFFFFFFFFFFFFFFFFFFFFFFFFFFFF AND DUP6 PUSH20 0xFFFFFFFFFFFFFFFFFFFFFFFFFFFFFFFFFFFFFFFF AND CALLER PUSH20 0xFFFFFFFFFFFFFFFFFFFFFFFFFFFFFFFFFFFFFFFF AND PUSH32 0xC3D58168C5AE7397731D063D5BBF3D657854427343F4C083240F7AACAA2D0F62 DUP7 DUP7 PUSH1 0x40 MLOAD PUSH2 0x1B2F SWAP3 SWAP2 SWAP1 PUSH2 0x35F6 JUMP JUMPDEST PUSH1 0x40 MLOAD DUP1 SWAP2 SUB SWAP1 LOG4 POP POP POP POP POP JUMP JUMPDEST PUSH2 0x1B52 PUSH8 0x241026E1E1922EF0 PUSH1 0xC0 SHL PUSH2 0x209A JUMP JUMPDEST PUSH2 0x1B66 PUSH8 0xAB267B289BF7E223 PUSH1 0xC0 SHL PUSH2 0x209A JUMP JUMPDEST PUSH2 0x1B7A PUSH8 0xE6860EC9AD94585E PUSH1 0xC0 SHL PUSH2 0x209A JUMP JUMPDEST PUSH2 0x1B8E PUSH8 0x52CAC397E7FE50F4 PUSH1 0xC0 SHL PUSH2 0x209A JUMP JUMPDEST PUSH2 0x1BA2 PUSH8 0xBA50882C3C8158B7 PUSH1 0xC0 SHL PUSH2 0x209A JUMP JUMPDEST CALLER PUSH20 0xFFFFFFFFFFFFFFFFFFFFFFFFFFFFFFFFFFFFFFFF AND PUSH1 0x0 DUP1 SLOAD SWAP1 PUSH2 0x100 EXP SWAP1 DIV PUSH20 0xFFFFFFFFFFFFFFFFFFFFFFFFFFFFFFFFFFFFFFFF AND PUSH20 0xFFFFFFFFFFFFFFFFFFFFFFFFFFFFFFFFFFFFFFFF AND EQ PUSH2 0x1C30 JUMPI PUSH1 0x40 MLOAD PUSH32 0x8C379A000000000000000000000000000000000000000000000000000000000 DUP2 MSTORE PUSH1 0x4 ADD PUSH2 0x1C27 SWAP1 PUSH2 0x2A3F JUMP JUMPDEST PUSH1 0x40 MLOAD DUP1 SWAP2 SUB SWAP1 REVERT JUMPDEST PUSH2 0x1C44 PUSH8 0xBD79D4C7CF57E006 PUSH1 0xC0 SHL PUSH2 0x209A JUMP JUMPDEST PUSH2 0x1C58 PUSH8 0xD3FC60EDBB06F55F PUSH1 0xC0 SHL PUSH2 0x209A JUMP JUMPDEST PUSH2 0x1C6C PUSH8 0x34E194357EB5ACB6 PUSH1 0xC0 SHL PUSH2 0x209A JUMP JUMPDEST PUSH2 0x1C80 PUSH8 0xF47C70128B6932CB PUSH1 0xC0 SHL PUSH2 0x209A JUMP JUMPDEST PUSH2 0x1C94 PUSH8 0x2C3F127B5206D247 PUSH1 0xC0 SHL PUSH2 0x209A JUMP JUMPDEST DUP1 PUSH1 0x0 DUP1 PUSH2 0x100 EXP DUP2 SLOAD DUP2 PUSH20 0xFFFFFFFFFFFFFFFFFFFFFFFFFFFFFFFFFFFFFFFF MUL NOT AND SWAP1 DUP4 PUSH20 0xFFFFFFFFFFFFFFFFFFFFFFFFFFFFFFFFFFFFFFFF AND MUL OR SWAP1 SSTORE POP POP JUMP JUMPDEST PUSH2 0x1CEB PUSH8 0x2AAFEEDF15312088 PUSH1 0xC0 SHL PUSH2 0x209A JUMP JUMPDEST PUSH2 0x1CFF PUSH8 0x8ED57867A3322E70 PUSH1 0xC0 SHL PUSH2 0x209A JUMP JUMPDEST PUSH2 0x1D13 PUSH8 0x8BF445C2D67478E5 PUSH1 0xC0 SHL PUSH2 0x209A JUMP JUMPDEST PUSH2 0x1D27 PUSH8 0x5F12096D7946239 PUSH1 0xC0 SHL PUSH2 0x209A JUMP JUMPDEST CALLER PUSH20 0xFFFFFFFFFFFFFFFFFFFFFFFFFFFFFFFFFFFFFFFF AND DUP4 PUSH20 0xFFFFFFFFFFFFFFFFFFFFFFFFFFFFFFFFFFFFFFFF AND EQ PUSH2 0x1D95 JUMPI PUSH1 0x40 MLOAD PUSH32 0x8C379A000000000000000000000000000000000000000000000000000000000 DUP2 MSTORE PUSH1 0x4 ADD PUSH2 0x1D8C SWAP1 PUSH2 0x3691 JUMP JUMPDEST PUSH1 0x40 MLOAD DUP1 SWAP2 SUB SWAP1 REVERT JUMPDEST PUSH2 0x1DA9 PUSH8 0xA41548A036F54CB PUSH1 0xC0 SHL PUSH2 0x209A JUMP JUMPDEST PUSH2 0x1DBD PUSH8 0x6760E447286CB99D PUSH1 0xC0 SHL PUSH2 0x209A JUMP JUMPDEST PUSH2 0x1DD1 PUSH8 0x2287EBC2B252488C PUSH1 0xC0 SHL PUSH2 0x209A JUMP JUMPDEST PUSH2 0x1DE5 PUSH8 0xCCA0A7959BC31F85 PUSH1 0xC0 SHL PUSH2 0x209A JUMP JUMPDEST DUP1 PUSH1 0x1 PUSH1 0x0 DUP5 DUP2 MSTORE PUSH1 0x20 ADD SWAP1 DUP2 MSTORE PUSH1 0x20 ADD PUSH1 0x0 KECCAK256 PUSH1 0x0 DUP6 PUSH20 0xFFFFFFFFFFFFFFFFFFFFFFFFFFFFFFFFFFFFFFFF AND PUSH20 0xFFFFFFFFFFFFFFFFFFFFFFFFFFFFFFFFFFFFFFFF AND DUP2 MSTORE PUSH1 0x20 ADD SWAP1 DUP2 MSTORE PUSH1 0x20 ADD PUSH1 0x0 KECCAK256 SLOAD LT ISZERO PUSH2 0x1E78 JUMPI PUSH1 0x40 MLOAD PUSH32 0x8C379A000000000000000000000000000000000000000000000000000000000 DUP2 MSTORE PUSH1 0x4 ADD PUSH2 0x1E6F SWAP1 PUSH2 0x3723 JUMP JUMPDEST PUSH1 0x40 MLOAD DUP1 SWAP2 SUB SWAP1 REVERT JUMPDEST PUSH2 0x1E8C PUSH8 0xA16CC72822F2F1E8 PUSH1 0xC0 SHL PUSH2 0x209A JUMP JUMPDEST PUSH2 0x1EA0 PUSH8 0x288B769683755E0F PUSH1 0xC0 SHL PUSH2 0x209A JUMP JUMPDEST DUP1 PUSH1 0x1 PUSH1 0x0 DUP5 DUP2 MSTORE PUSH1 0x20 ADD SWAP1 DUP2 MSTORE PUSH1 0x20 ADD PUSH1 0x0 KECCAK256 PUSH1 0x0 DUP6 PUSH20 0xFFFFFFFFFFFFFFFFFFFFFFFFFFFFFFFFFFFFFFFF AND PUSH20 0xFFFFFFFFFFFFFFFFFFFFFFFFFFFFFFFFFFFFFFFF AND DUP2 MSTORE PUSH1 0x20 ADD SWAP1 DUP2 MSTORE PUSH1 0x20 ADD PUSH1 0x0 KECCAK256 PUSH1 0x0 DUP3 DUP3 SLOAD PUSH2 0x1F00 SWAP2 SWAP1 PUSH2 0x2DE2 JUMP JUMPDEST SWAP3 POP POP DUP2 SWAP1 SSTORE POP PUSH2 0x1F1B PUSH8 0x91385BDC1745C7D1 PUSH1 0xC0 SHL PUSH2 0x209A JUMP JUMPDEST PUSH2 0x1F2F PUSH8 0x763D09D849CCB61D PUSH1 0xC0 SHL PUSH2 0x209A JUMP JUMPDEST PUSH1 0x0 PUSH20 0xFFFFFFFFFFFFFFFFFFFFFFFFFFFFFFFFFFFFFFFF AND DUP4 PUSH20 0xFFFFFFFFFFFFFFFFFFFFFFFFFFFFFFFFFFFFFFFF AND CALLER PUSH20 0xFFFFFFFFFFFFFFFFFFFFFFFFFFFFFFFFFFFFFFFF AND PUSH32 0xC3D58168C5AE7397731D063D5BBF3D657854427343F4C083240F7AACAA2D0F62 DUP6 DUP6 PUSH1 0x40 MLOAD PUSH2 0x1FA6 SWAP3 SWAP2 SWAP1 PUSH2 0x35F6 JUMP JUMPDEST PUSH1 0x40 MLOAD DUP1 SWAP2 SUB SWAP1 LOG4 POP POP POP JUMP JUMPDEST PUSH1 0x3 DUP2 DUP2 SLOAD DUP2 LT PUSH2 0x1FC3 JUMPI PUSH1 0x0 DUP1 REVERT JUMPDEST SWAP1 PUSH1 0x0 MSTORE PUSH1 0x20 PUSH1 0x0 KECCAK256 SWAP1 PUSH1 0x7 MUL ADD PUSH1 0x0 SWAP2 POP SWAP1 POP DUP1 PUSH1 0x0 ADD DUP1 SLOAD PUSH2 0x1FE6 SWAP1 PUSH2 0x2B33 JUMP JUMPDEST DUP1 PUSH1 0x1F ADD PUSH1 0x20 DUP1 SWAP2 DIV MUL PUSH1 0x20 ADD PUSH1 0x40 MLOAD SWAP1 DUP2 ADD PUSH1 0x40 MSTORE DUP1 SWAP3 SWAP2 SWAP1 DUP2 DUP2 MSTORE PUSH1 0x20 ADD DUP3 DUP1 SLOAD PUSH2 0x2012 SWAP1 PUSH2 0x2B33 JUMP JUMPDEST DUP1 ISZERO PUSH2 0x205F JUMPI DUP1 PUSH1 0x1F LT PUSH2 0x2034 JUMPI PUSH2 0x100 DUP1 DUP4 SLOAD DIV MUL DUP4 MSTORE SWAP2 PUSH1 0x20 ADD SWAP2 PUSH2 0x205F JUMP JUMPDEST DUP3 ADD SWAP2 SWAP1 PUSH1 0x0 MSTORE PUSH1 0x20 PUSH1 0x0 KECCAK256 SWAP1 JUMPDEST DUP2 SLOAD DUP2 MSTORE SWAP1 PUSH1 0x1 ADD SWAP1 PUSH1 0x20 ADD DUP1 DUP4 GT PUSH2 0x2042 JUMPI DUP3 SWAP1 SUB PUSH1 0x1F AND DUP3 ADD SWAP2 JUMPDEST POP POP POP POP POP SWAP1 DUP1 PUSH1 0x1 ADD SLOAD SWAP1 DUP1 PUSH1 0x2 ADD SLOAD SWAP1 DUP1 PUSH1 0x3 ADD SLOAD SWAP1 DUP1 PUSH1 0x4 ADD SLOAD SWAP1 DUP1 PUSH1 0x5 ADD SLOAD SWAP1 DUP1 PUSH1 0x6 ADD PUSH1 0x0 SWAP1 SLOAD SWAP1 PUSH2 0x100 EXP SWAP1 DIV PUSH1 0xFF AND SWAP1 POP DUP8 JUMP JUMPDEST POP JUMP JUMPDEST PUSH2 0x20B1 PUSH8 0x890E4F6A19419A89 PUSH1 0xC0 SHL PUSH2 0x209A JUMP JUMPDEST PUSH2 0x20C5 PUSH8 0xE41B8A81C5D3BD53 PUSH1 0xC0 SHL PUSH2 0x209A JUMP JUMPDEST PUSH2 0x20D9 PUSH8 0x90F9ED0CAEE092A7 PUSH1 0xC0 SHL PUSH2 0x209A JUMP JUMPDEST PUSH2 0x20ED PUSH8 0xA51A9F8732647ADB PUSH1 0xC0 SHL PUSH2 0x209A JUMP JUMPDEST PUSH1 0x0 PUSH20 0xFFFFFFFFFFFFFFFFFFFFFFFFFFFFFFFFFFFFFFFF AND DUP4 PUSH20 0xFFFFFFFFFFFFFFFFFFFFFFFFFFFFFFFFFFFFFFFF AND SUB PUSH2 0x215C JUMPI PUSH1 0x40 MLOAD PUSH32 0x8C379A000000000000000000000000000000000000000000000000000000000 DUP2 MSTORE PUSH1 0x4 ADD PUSH2 0x2153 SWAP1 PUSH2 0x37B5 JUMP JUMPDEST PUSH1 0x40 MLOAD DUP1 SWAP2 SUB SWAP1 REVERT JUMPDEST PUSH2 0x216E PUSH6 0xB2101D89F3BE PUSH1 0xC0 SHL PUSH2 0x209A JUMP JUMPDEST PUSH2 0x2182 PUSH8 0x47A5FDAED736C82 PUSH1 0xC0 SHL PUSH2 0x209A JUMP JUMPDEST DUP1 PUSH1 0x1 PUSH1 0x0 DUP5 DUP2 MSTORE PUSH1 0x20 ADD SWAP1 DUP2 MSTORE PUSH1 0x20 ADD PUSH1 0x0 KECCAK256 PUSH1 0x0 DUP6 PUSH20 0xFFFFFFFFFFFFFFFFFFFFFFFFFFFFFFFFFFFFFFFF AND PUSH20 0xFFFFFFFFFFFFFFFFFFFFFFFFFFFFFFFFFFFFFFFF AND DUP2 MSTORE PUSH1 0x20 ADD SWAP1 DUP2 MSTORE PUSH1 0x20 ADD PUSH1 0x0 KECCAK256 PUSH1 0x0 DUP3 DUP3 SLOAD PUSH2 0x21E2 SWAP2 SWAP1 PUSH2 0x2AD0 JUMP JUMPDEST SWAP3 POP POP DUP2 SWAP1 SSTORE POP PUSH2 0x21FD PUSH8 0xEBDABF23B3C9A202 PUSH1 0xC0 SHL PUSH2 0x209A JUMP JUMPDEST PUSH2 0x2211 PUSH8 0x1AD9EBBAC0308435 PUSH1 0xC0 SHL PUSH2 0x209A JUMP JUMPDEST DUP3 PUSH20 0xFFFFFFFFFFFFFFFFFFFFFFFFFFFFFFFFFFFFFFFF AND PUSH1 0x0 PUSH20 0xFFFFFFFFFFFFFFFFFFFFFFFFFFFFFFFFFFFFFFFF AND CALLER PUSH20 0xFFFFFFFFFFFFFFFFFFFFFFFFFFFFFFFFFFFFFFFF AND PUSH32 0xC3D58168C5AE7397731D063D5BBF3D657854427343F4C083240F7AACAA2D0F62 DUP6 DUP6 PUSH1 0x40 MLOAD PUSH2 0x2288 SWAP3 SWAP2 SWAP1 PUSH2 0x35F6 JUMP JUMPDEST PUSH1 0x40 MLOAD DUP1 SWAP2 SUB SWAP1 LOG4 POP POP POP JUMP JUMPDEST PUSH1 0x0 PUSH1 0x1 SWAP1 POP SWAP2 SWAP1 POP JUMP JUMPDEST PUSH1 0x0 PUSH1 0x40 MLOAD SWAP1 POP SWAP1 JUMP JUMPDEST PUSH1 0x0 DUP1 REVERT JUMPDEST PUSH1 0x0 DUP1 REVERT JUMPDEST PUSH1 0x0 PUSH20 0xFFFFFFFFFFFFFFFFFFFFFFFFFFFFFFFFFFFFFFFF DUP3 AND SWAP1 POP SWAP2 SWAP1 POP JUMP JUMPDEST PUSH1 0x0 PUSH2 0x22DF DUP3 PUSH2 0x22B4 JUMP JUMPDEST SWAP1 POP SWAP2 SWAP1 POP JUMP JUMPDEST PUSH2 0x22EF DUP2 PUSH2 0x22D4 JUMP JUMPDEST DUP2 EQ PUSH2 0x22FA JUMPI PUSH1 0x0 DUP1 REVERT JUMPDEST POP JUMP JUMPDEST PUSH1 0x0 DUP2 CALLDATALOAD SWAP1 POP PUSH2 0x230C DUP2 PUSH2 0x22E6 JUMP JUMPDEST SWAP3 SWAP2 POP POP JUMP JUMPDEST PUSH1 0x0 DUP2 SWAP1 POP SWAP2 SWAP1 POP JUMP JUMPDEST PUSH2 0x2325 DUP2 PUSH2 0x2312 JUMP JUMPDEST DUP2 EQ PUSH2 0x2330 JUMPI PUSH1 0x0 DUP1 REVERT JUMPDEST POP JUMP JUMPDEST PUSH1 0x0 DUP2 CALLDATALOAD SWAP1 POP PUSH2 0x2342 DUP2 PUSH2 0x231C JUMP JUMPDEST SWAP3 SWAP2 POP POP JUMP JUMPDEST PUSH1 0x0 DUP1 PUSH1 0x40 DUP4 DUP6 SUB SLT ISZERO PUSH2 0x235F JUMPI PUSH2 0x235E PUSH2 0x22AA JUMP JUMPDEST JUMPDEST PUSH1 0x0 PUSH2 0x236D DUP6 DUP3 DUP7 ADD PUSH2 0x22FD JUMP JUMPDEST SWAP3 POP POP PUSH1 0x20 PUSH2 0x237E DUP6 DUP3 DUP7 ADD PUSH2 0x2333 JUMP JUMPDEST SWAP2 POP POP SWAP3 POP SWAP3 SWAP1 POP JUMP JUMPDEST PUSH2 0x2391 DUP2 PUSH2 0x2312 JUMP JUMPDEST DUP3 MSTORE POP POP JUMP JUMPDEST PUSH1 0x0 PUSH1 0x20 DUP3 ADD SWAP1 POP PUSH2 0x23AC PUSH1 0x0 DUP4 ADD DUP5 PUSH2 0x2388 JUMP JUMPDEST SWAP3 SWAP2 POP POP JUMP JUMPDEST PUSH1 0x0 DUP1 REVERT JUMPDEST PUSH1 0x0 DUP1 REVERT JUMPDEST PUSH1 0x0 PUSH1 0x1F NOT PUSH1 0x1F DUP4 ADD AND SWAP1 POP SWAP2 SWAP1 POP JUMP JUMPDEST PUSH32 0x4E487B7100000000000000000000000000000000000000000000000000000000 PUSH1 0x0 MSTORE PUSH1 0x41 PUSH1 0x4 MSTORE PUSH1 0x24 PUSH1 0x0 REVERT JUMPDEST PUSH2 0x2405 DUP3 PUSH2 0x23BC JUMP JUMPDEST DUP2 ADD DUP2 DUP2 LT PUSH8 0xFFFFFFFFFFFFFFFF DUP3 GT OR ISZERO PUSH2 0x2424 JUMPI PUSH2 0x2423 PUSH2 0x23CD JUMP JUMPDEST JUMPDEST DUP1 PUSH1 0x40 MSTORE POP POP POP JUMP JUMPDEST PUSH1 0x0 PUSH2 0x2437 PUSH2 0x22A0 JUMP JUMPDEST SWAP1 POP PUSH2 0x2443 DUP3 DUP3 PUSH2 0x23FC JUMP JUMPDEST SWAP2 SWAP1 POP JUMP JUMPDEST PUSH1 0x0 PUSH8 0xFFFFFFFFFFFFFFFF DUP3 GT ISZERO PUSH2 0x2463 JUMPI PUSH2 0x2462 PUSH2 0x23CD JUMP JUMPDEST JUMPDEST PUSH2 0x246C DUP3 PUSH2 0x23BC JUMP JUMPDEST SWAP1 POP PUSH1 0x20 DUP2 ADD SWAP1 POP SWAP2 SWAP1 POP JUMP JUMPDEST DUP3 DUP2 DUP4 CALLDATACOPY PUSH1 0x0 DUP4 DUP4 ADD MSTORE POP POP POP JUMP JUMPDEST PUSH1 0x0 PUSH2 0x249B PUSH2 0x2496 DUP5 PUSH2 0x2448 JUMP JUMPDEST PUSH2 0x242D JUMP JUMPDEST SWAP1 POP DUP3 DUP2 MSTORE PUSH1 0x20 DUP2 ADD DUP5 DUP5 DUP5 ADD GT ISZERO PUSH2 0x24B7 JUMPI PUSH2 0x24B6 PUSH2 0x23B7 JUMP JUMPDEST JUMPDEST PUSH2 0x24C2 DUP5 DUP3 DUP6 PUSH2 0x2479 JUMP JUMPDEST POP SWAP4 SWAP3 POP POP POP JUMP JUMPDEST PUSH1 0x0 DUP3 PUSH1 0x1F DUP4 ADD SLT PUSH2 0x24DF JUMPI PUSH2 0x24DE PUSH2 0x23B2 JUMP JUMPDEST JUMPDEST DUP2 CALLDATALOAD PUSH2 0x24EF DUP5 DUP3 PUSH1 0x20 DUP7 ADD PUSH2 0x2488 JUMP JUMPDEST SWAP2 POP POP SWAP3 SWAP2 POP POP JUMP JUMPDEST PUSH1 0x0 DUP1 PUSH1 0x0 DUP1 PUSH1 0x80 DUP6 DUP8 SUB SLT ISZERO PUSH2 0x2512 JUMPI PUSH2 0x2511 PUSH2 0x22AA JUMP JUMPDEST JUMPDEST PUSH1 0x0 DUP6 ADD CALLDATALOAD PUSH8 0xFFFFFFFFFFFFFFFF DUP2 GT ISZERO PUSH2 0x2530 JUMPI PUSH2 0x252F PUSH2 0x22AF JUMP JUMPDEST JUMPDEST PUSH2 0x253C DUP8 DUP3 DUP9 ADD PUSH2 0x24CA JUMP JUMPDEST SWAP5 POP POP PUSH1 0x20 PUSH2 0x254D DUP8 DUP3 DUP9 ADD PUSH2 0x2333 JUMP JUMPDEST SWAP4 POP POP PUSH1 0x40 PUSH2 0x255E DUP8 DUP3 DUP9 ADD PUSH2 0x2333 JUMP JUMPDEST SWAP3 POP POP PUSH1 0x60 PUSH2 0x256F DUP8 DUP3 DUP9 ADD PUSH2 0x2333 JUMP JUMPDEST SWAP2 POP POP SWAP3 SWAP6 SWAP2 SWAP5 POP SWAP3 POP JUMP JUMPDEST PUSH1 0x0 PUSH1 0x20 DUP3 DUP5 SUB SLT ISZERO PUSH2 0x2591 JUMPI PUSH2 0x2590 PUSH2 0x22AA JUMP JUMPDEST JUMPDEST PUSH1 0x0 PUSH2 0x259F DUP5 DUP3 DUP6 ADD PUSH2 0x2333 JUMP JUMPDEST SWAP2 POP POP SWAP3 SWAP2 POP POP JUMP JUMPDEST PUSH1 0x0 DUP1 PUSH1 0x0 PUSH1 0x60 DUP5 DUP7 SUB SLT ISZERO PUSH2 0x25C1 JUMPI PUSH2 0x25C0 PUSH2 0x22AA JUMP JUMPDEST JUMPDEST PUSH1 0x0 PUSH2 0x25CF DUP7 DUP3 DUP8 ADD PUSH2 0x22FD JUMP JUMPDEST SWAP4 POP POP PUSH1 0x20 PUSH2 0x25E0 DUP7 DUP3 DUP8 ADD PUSH2 0x2333 JUMP JUMPDEST SWAP3 POP POP PUSH1 0x40 PUSH2 0x25F1 DUP7 DUP3 DUP8 ADD PUSH2 0x2333 JUMP JUMPDEST SWAP2 POP POP SWAP3 POP SWAP3 POP SWAP3 JUMP JUMPDEST PUSH1 0x0 DUP2 ISZERO ISZERO SWAP1 POP SWAP2 SWAP1 POP JUMP JUMPDEST PUSH2 0x2610 DUP2 PUSH2 0x25FB JUMP JUMPDEST DUP3 MSTORE POP POP JUMP JUMPDEST PUSH1 0x0 PUSH1 0x20 DUP3 ADD SWAP1 POP PUSH2 0x262B PUSH1 0x0 DUP4 ADD DUP5 PUSH2 0x2607 JUMP JUMPDEST SWAP3 SWAP2 POP POP JUMP JUMPDEST PUSH2 0x263A DUP2 PUSH2 0x22D4 JUMP JUMPDEST DUP3 MSTORE POP POP JUMP JUMPDEST PUSH1 0x0 PUSH1 0x20 DUP3 ADD SWAP1 POP PUSH2 0x2655 PUSH1 0x0 DUP4 ADD DUP5 PUSH2 0x2631 JUMP JUMPDEST SWAP3 SWAP2 POP POP JUMP JUMPDEST PUSH2 0x2664 DUP2 PUSH2 0x25FB JUMP JUMPDEST DUP2 EQ PUSH2 0x266F JUMPI PUSH1 0x0 DUP1 REVERT JUMPDEST POP JUMP JUMPDEST PUSH1 0x0 DUP2 CALLDATALOAD SWAP1 POP PUSH2 0x2681 DUP2 PUSH2 0x265B JUMP JUMPDEST SWAP3 SWAP2 POP POP JUMP JUMPDEST PUSH1 0x0 DUP1 PUSH1 0x40 DUP4 DUP6 SUB SLT ISZERO PUSH2 0x269E JUMPI PUSH2 0x269D PUSH2 0x22AA JUMP JUMPDEST JUMPDEST PUSH1 0x0 PUSH2 0x26AC DUP6 DUP3 DUP7 ADD PUSH2 0x22FD JUMP JUMPDEST SWAP3 POP POP PUSH1 0x20 PUSH2 0x26BD DUP6 DUP3 DUP7 ADD PUSH2 0x2672 JUMP JUMPDEST SWAP2 POP POP SWAP3 POP SWAP3 SWAP1 POP JUMP JUMPDEST PUSH1 0x0 DUP1 PUSH1 0x40 DUP4 DUP6 SUB SLT ISZERO PUSH2 0x26DE JUMPI PUSH2 0x26DD PUSH2 0x22AA JUMP JUMPDEST JUMPDEST PUSH1 0x0 PUSH2 0x26EC DUP6 DUP3 DUP7 ADD PUSH2 0x22FD JUMP JUMPDEST SWAP3 POP POP PUSH1 0x20 PUSH2 0x26FD DUP6 DUP3 DUP7 ADD PUSH2 0x22FD JUMP JUMPDEST SWAP2 POP POP SWAP3 POP SWAP3 SWAP1 POP JUMP JUMPDEST PUSH1 0x0 PUSH8 0xFFFFFFFFFFFFFFFF DUP3 GT ISZERO PUSH2 0x2722 JUMPI PUSH2 0x2721 PUSH2 0x23CD JUMP JUMPDEST JUMPDEST PUSH2 0x272B DUP3 PUSH2 0x23BC JUMP JUMPDEST SWAP1 POP PUSH1 0x20 DUP2 ADD SWAP1 POP SWAP2 SWAP1 POP JUMP JUMPDEST PUSH1 0x0 PUSH2 0x274B PUSH2 0x2746 DUP5 PUSH2 0x2707 JUMP JUMPDEST PUSH2 0x242D JUMP JUMPDEST SWAP1 POP DUP3 DUP2 MSTORE PUSH1 0x20 DUP2 ADD DUP5 DUP5 DUP5 ADD GT ISZERO PUSH2 0x2767 JUMPI PUSH2 0x2766 PUSH2 0x23B7 JUMP JUMPDEST JUMPDEST PUSH2 0x2772 DUP5 DUP3 DUP6 PUSH2 0x2479 JUMP JUMPDEST POP SWAP4 SWAP3 POP POP POP JUMP JUMPDEST PUSH1 0x0 DUP3 PUSH1 0x1F DUP4 ADD SLT PUSH2 0x278F JUMPI PUSH2 0x278E PUSH2 0x23B2 JUMP JUMPDEST JUMPDEST DUP2 CALLDATALOAD PUSH2 0x279F DUP5 DUP3 PUSH1 0x20 DUP7 ADD PUSH2 0x2738 JUMP JUMPDEST SWAP2 POP POP SWAP3 SWAP2 POP POP JUMP JUMPDEST PUSH1 0x0 DUP1 PUSH1 0x0 DUP1 PUSH1 0x0 PUSH1 0xA0 DUP7 DUP9 SUB SLT ISZERO PUSH2 0x27C4 JUMPI PUSH2 0x27C3 PUSH2 0x22AA JUMP JUMPDEST JUMPDEST PUSH1 0x0 PUSH2 0x27D2 DUP9 DUP3 DUP10 ADD PUSH2 0x22FD JUMP JUMPDEST SWAP6 POP POP PUSH1 0x20 PUSH2 0x27E3 DUP9 DUP3 DUP10 ADD PUSH2 0x22FD JUMP JUMPDEST SWAP5 POP POP PUSH1 0x40 PUSH2 0x27F4 DUP9 DUP3 DUP10 ADD PUSH2 0x2333 JUMP JUMPDEST SWAP4 POP POP PUSH1 0x60 PUSH2 0x2805 DUP9 DUP3 DUP10 ADD PUSH2 0x2333 JUMP JUMPDEST SWAP3 POP POP PUSH1 0x80 DUP7 ADD CALLDATALOAD PUSH8 0xFFFFFFFFFFFFFFFF DUP2 GT ISZERO PUSH2 0x2826 JUMPI PUSH2 0x2825 PUSH2 0x22AF JUMP JUMPDEST JUMPDEST PUSH2 0x2832 DUP9 DUP3 DUP10 ADD PUSH2 0x277A JUMP JUMPDEST SWAP2 POP POP SWAP3 SWAP6 POP SWAP3 SWAP6 SWAP1 SWAP4 POP JUMP JUMPDEST PUSH1 0x0 PUSH1 0x20 DUP3 DUP5 SUB SLT ISZERO PUSH2 0x2855 JUMPI PUSH2 0x2854 PUSH2 0x22AA JUMP JUMPDEST JUMPDEST PUSH1 0x0 PUSH2 0x2863 DUP5 DUP3 DUP6 ADD PUSH2 0x22FD JUMP JUMPDEST SWAP2 POP POP SWAP3 SWAP2 POP POP JUMP JUMPDEST PUSH1 0x0 DUP2 MLOAD SWAP1 POP SWAP2 SWAP1 POP JUMP JUMPDEST PUSH1 0x0 DUP3 DUP3 MSTORE PUSH1 0x20 DUP3 ADD SWAP1 POP SWAP3 SWAP2 POP POP JUMP JUMPDEST PUSH1 0x0 JUMPDEST DUP4 DUP2 LT ISZERO PUSH2 0x28A6 JUMPI DUP1 DUP3 ADD MLOAD DUP2 DUP5 ADD MSTORE PUSH1 0x20 DUP2 ADD SWAP1 POP PUSH2 0x288B JUMP JUMPDEST PUSH1 0x0 DUP5 DUP5 ADD MSTORE POP POP POP POP JUMP JUMPDEST PUSH1 0x0 PUSH2 0x28BD DUP3 PUSH2 0x286C JUMP JUMPDEST PUSH2 0x28C7 DUP2 DUP6 PUSH2 0x2877 JUMP JUMPDEST SWAP4 POP PUSH2 0x28D7 DUP2 DUP6 PUSH1 0x20 DUP7 ADD PUSH2 0x2888 JUMP JUMPDEST PUSH2 0x28E0 DUP2 PUSH2 0x23BC JUMP JUMPDEST DUP5 ADD SWAP2 POP POP SWAP3 SWAP2 POP POP JUMP JUMPDEST PUSH1 0x0 PUSH1 0xE0 DUP3 ADD SWAP1 POP DUP2 DUP2 SUB PUSH1 0x0 DUP4 ADD MSTORE PUSH2 0x2905 DUP2 DUP11 PUSH2 0x28B2 JUMP JUMPDEST SWAP1 POP PUSH2 0x2914 PUSH1 0x20 DUP4 ADD DUP10 PUSH2 0x2388 JUMP JUMPDEST PUSH2 0x2921 PUSH1 0x40 DUP4 ADD DUP9 PUSH2 0x2388 JUMP JUMPDEST PUSH2 0x292E PUSH1 0x60 DUP4 ADD DUP8 PUSH2 0x2388 JUMP JUMPDEST PUSH2 0x293B PUSH1 0x80 DUP4 ADD DUP7 PUSH2 0x2388 JUMP JUMPDEST PUSH2 0x2948 PUSH1 0xA0 DUP4 ADD DUP6 PUSH2 0x2388 JUMP JUMPDEST PUSH2 0x2955 PUSH1 0xC0 DUP4 ADD DUP5 PUSH2 0x2607 JUMP JUMPDEST SWAP9 SWAP8 POP POP POP POP POP POP POP POP JUMP JUMPDEST PUSH32 0x455243313135353A20646972656363696F6E20696E76616C6964610000000000 PUSH1 0x0 DUP3 ADD MSTORE POP JUMP JUMPDEST PUSH1 0x0 PUSH2 0x2997 PUSH1 0x1B DUP4 PUSH2 0x2877 JUMP JUMPDEST SWAP2 POP PUSH2 0x29A2 DUP3 PUSH2 0x2961 JUMP JUMPDEST PUSH1 0x20 DUP3 ADD SWAP1 POP SWAP2 SWAP1 POP JUMP JUMPDEST PUSH1 0x0 PUSH1 0x20 DUP3 ADD SWAP1 POP DUP2 DUP2 SUB PUSH1 0x0 DUP4 ADD MSTORE PUSH2 0x29C6 DUP2 PUSH2 0x298A JUMP JUMPDEST SWAP1 POP SWAP2 SWAP1 POP JUMP JUMPDEST PUSH32 0x4353413A20517569656E206C6C616D61206E6F20657320656C2070726F706965 PUSH1 0x0 DUP3 ADD MSTORE PUSH32 0x746172696F000000000000000000000000000000000000000000000000000000 PUSH1 0x20 DUP3 ADD MSTORE POP JUMP JUMPDEST PUSH1 0x0 PUSH2 0x2A29 PUSH1 0x25 DUP4 PUSH2 0x2877 JUMP JUMPDEST SWAP2 POP PUSH2 0x2A34 DUP3 PUSH2 0x29CD JUMP JUMPDEST PUSH1 0x40 DUP3 ADD SWAP1 POP SWAP2 SWAP1 POP JUMP JUMPDEST PUSH1 0x0 PUSH1 0x20 DUP3 ADD SWAP1 POP DUP2 DUP2 SUB PUSH1 0x0 DUP4 ADD MSTORE PUSH2 0x2A58 DUP2 PUSH2 0x2A1C JUMP JUMPDEST SWAP1 POP SWAP2 SWAP1 POP JUMP JUMPDEST PUSH32 0x4E487B7100000000000000000000000000000000000000000000000000000000 PUSH1 0x0 MSTORE PUSH1 0x11 PUSH1 0x4 MSTORE PUSH1 0x24 PUSH1 0x0 REVERT JUMPDEST PUSH1 0x0 PUSH2 0x2A99 DUP3 PUSH2 0x2312 JUMP JUMPDEST SWAP2 POP PUSH2 0x2AA4 DUP4 PUSH2 0x2312 JUMP JUMPDEST SWAP3 POP DUP3 DUP3 MUL PUSH2 0x2AB2 DUP2 PUSH2 0x2312 JUMP JUMPDEST SWAP2 POP DUP3 DUP3 DIV DUP5 EQ DUP4 ISZERO OR PUSH2 0x2AC9 JUMPI PUSH2 0x2AC8 PUSH2 0x2A5F JUMP JUMPDEST JUMPDEST POP SWAP3 SWAP2 POP POP JUMP JUMPDEST PUSH1 0x0 PUSH2 0x2ADB DUP3 PUSH2 0x2312 JUMP JUMPDEST SWAP2 POP PUSH2 0x2AE6 DUP4 PUSH2 0x2312 JUMP JUMPDEST SWAP3 POP DUP3 DUP3 ADD SWAP1 POP DUP1 DUP3 GT ISZERO PUSH2 0x2AFE JUMPI PUSH2 0x2AFD PUSH2 0x2A5F JUMP JUMPDEST JUMPDEST SWAP3 SWAP2 POP POP JUMP JUMPDEST PUSH32 0x4E487B7100000000000000000000000000000000000000000000000000000000 PUSH1 0x0 MSTORE PUSH1 0x22 PUSH1 0x4 MSTORE PUSH1 0x24 PUSH1 0x0 REVERT JUMPDEST PUSH1 0x0 PUSH1 0x2 DUP3 DIV SWAP1 POP PUSH1 0x1 DUP3 AND DUP1 PUSH2 0x2B4B JUMPI PUSH1 0x7F DUP3 AND SWAP2 POP JUMPDEST PUSH1 0x20 DUP3 LT DUP2 SUB PUSH2 0x2B5E JUMPI PUSH2 0x2B5D PUSH2 0x2B04 JUMP JUMPDEST JUMPDEST POP SWAP2 SWAP1 POP JUMP JUMPDEST PUSH1 0x0 DUP2 SWAP1 POP DUP2 PUSH1 0x0 MSTORE PUSH1 0x20 PUSH1 0x0 KECCAK256 SWAP1 POP SWAP2 SWAP1 POP JUMP JUMPDEST PUSH1 0x0 PUSH1 0x20 PUSH1 0x1F DUP4 ADD DIV SWAP1 POP SWAP2 SWAP1 POP JUMP JUMPDEST PUSH1 0x0 DUP3 DUP3 SHL SWAP1 POP SWAP3 SWAP2 POP POP JUMP JUMPDEST PUSH1 0x0 PUSH1 0x8 DUP4 MUL PUSH2 0x2BC6 PUSH32 0xFFFFFFFFFFFFFFFFFFFFFFFFFFFFFFFFFFFFFFFFFFFFFFFFFFFFFFFFFFFFFFFF DUP3 PUSH2 0x2B89 JUMP JUMPDEST PUSH2 0x2BD0 DUP7 DUP4 PUSH2 0x2B89 JUMP JUMPDEST SWAP6 POP DUP1 NOT DUP5 AND SWAP4 POP DUP1 DUP7 AND DUP5 OR SWAP3 POP POP POP SWAP4 SWAP3 POP POP POP JUMP JUMPDEST PUSH1 0x0 DUP2 SWAP1 POP SWAP2 SWAP1 POP JUMP JUMPDEST PUSH1 0x0 PUSH2 0x2C0D PUSH2 0x2C08 PUSH2 0x2C03 DUP5 PUSH2 0x2312 JUMP JUMPDEST PUSH2 0x2BE8 JUMP JUMPDEST PUSH2 0x2312 JUMP JUMPDEST SWAP1 POP SWAP2 SWAP1 POP JUMP JUMPDEST PUSH1 0x0 DUP2 SWAP1 POP SWAP2 SWAP1 POP JUMP JUMPDEST PUSH2 0x2C27 DUP4 PUSH2 0x2BF2 JUMP JUMPDEST PUSH2 0x2C3B PUSH2 0x2C33 DUP3 PUSH2 0x2C14 JUMP JUMPDEST DUP5 DUP5 SLOAD PUSH2 0x2B96 JUMP JUMPDEST DUP3 SSTORE POP POP POP POP JUMP JUMPDEST PUSH1 0x0 SWAP1 JUMP JUMPDEST PUSH2 0x2C50 PUSH2 0x2C43 JUMP JUMPDEST PUSH2 0x2C5B DUP2 DUP5 DUP5 PUSH2 0x2C1E JUMP JUMPDEST POP POP POP JUMP JUMPDEST JUMPDEST DUP2 DUP2 LT ISZERO PUSH2 0x2C7F JUMPI PUSH2 0x2C74 PUSH1 0x0 DUP3 PUSH2 0x2C48 JUMP JUMPDEST PUSH1 0x1 DUP2 ADD SWAP1 POP PUSH2 0x2C61 JUMP JUMPDEST POP POP JUMP JUMPDEST PUSH1 0x1F DUP3 GT ISZERO PUSH2 0x2CC4 JUMPI PUSH2 0x2C95 DUP2 PUSH2 0x2B64 JUMP JUMPDEST PUSH2 0x2C9E DUP5 PUSH2 0x2B79 JUMP JUMPDEST DUP2 ADD PUSH1 0x20 DUP6 LT ISZERO PUSH2 0x2CAD JUMPI DUP2 SWAP1 POP JUMPDEST PUSH2 0x2CC1 PUSH2 0x2CB9 DUP6 PUSH2 0x2B79 JUMP JUMPDEST DUP4 ADD DUP3 PUSH2 0x2C60 JUMP JUMPDEST POP POP JUMPDEST POP POP POP JUMP JUMPDEST PUSH1 0x0 DUP3 DUP3 SHR SWAP1 POP SWAP3 SWAP2 POP POP JUMP JUMPDEST PUSH1 0x0 PUSH2 0x2CE7 PUSH1 0x0 NOT DUP5 PUSH1 0x8 MUL PUSH2 0x2CC9 JUMP JUMPDEST NOT DUP1 DUP4 AND SWAP2 POP POP SWAP3 SWAP2 POP POP JUMP JUMPDEST PUSH1 0x0 PUSH2 0x2D00 DUP4 DUP4 PUSH2 0x2CD6 JUMP JUMPDEST SWAP2 POP DUP3 PUSH1 0x2 MUL DUP3 OR SWAP1 POP SWAP3 SWAP2 POP POP JUMP JUMPDEST PUSH2 0x2D19 DUP3 PUSH2 0x286C JUMP JUMPDEST PUSH8 0xFFFFFFFFFFFFFFFF DUP2 GT ISZERO PUSH2 0x2D32 JUMPI PUSH2 0x2D31 PUSH2 0x23CD JUMP JUMPDEST JUMPDEST PUSH2 0x2D3C DUP3 SLOAD PUSH2 0x2B33 JUMP JUMPDEST PUSH2 0x2D47 DUP3 DUP3 DUP6 PUSH2 0x2C83 JUMP JUMPDEST PUSH1 0x0 PUSH1 0x20 SWAP1 POP PUSH1 0x1F DUP4 GT PUSH1 0x1 DUP2 EQ PUSH2 0x2D7A JUMPI PUSH1 0x0 DUP5 ISZERO PUSH2 0x2D68 JUMPI DUP3 DUP8 ADD MLOAD SWAP1 POP JUMPDEST PUSH2 0x2D72 DUP6 DUP3 PUSH2 0x2CF4 JUMP JUMPDEST DUP7 SSTORE POP PUSH2 0x2DDA JUMP JUMPDEST PUSH1 0x1F NOT DUP5 AND PUSH2 0x2D88 DUP7 PUSH2 0x2B64 JUMP JUMPDEST PUSH1 0x0 JUMPDEST DUP3 DUP2 LT ISZERO PUSH2 0x2DB0 JUMPI DUP5 DUP10 ADD MLOAD DUP3 SSTORE PUSH1 0x1 DUP3 ADD SWAP2 POP PUSH1 0x20 DUP6 ADD SWAP5 POP PUSH1 0x20 DUP2 ADD SWAP1 POP PUSH2 0x2D8B JUMP JUMPDEST DUP7 DUP4 LT ISZERO PUSH2 0x2DCD JUMPI DUP5 DUP10 ADD MLOAD PUSH2 0x2DC9 PUSH1 0x1F DUP10 AND DUP3 PUSH2 0x2CD6 JUMP JUMPDEST DUP4 SSTORE POP JUMPDEST PUSH1 0x1 PUSH1 0x2 DUP9 MUL ADD DUP9 SSTORE POP POP POP JUMPDEST POP POP POP POP POP POP JUMP JUMPDEST PUSH1 0x0 PUSH2 0x2DED DUP3 PUSH2 0x2312 JUMP JUMPDEST SWAP2 POP PUSH2 0x2DF8 DUP4 PUSH2 0x2312 JUMP JUMPDEST SWAP3 POP DUP3 DUP3 SUB SWAP1 POP DUP2 DUP2 GT ISZERO PUSH2 0x2E10 JUMPI PUSH2 0x2E0F PUSH2 0x2A5F JUMP JUMPDEST JUMPDEST SWAP3 SWAP2 POP POP JUMP JUMPDEST PUSH1 0x0 PUSH1 0x80 DUP3 ADD SWAP1 POP PUSH2 0x2E2B PUSH1 0x0 DUP4 ADD DUP8 PUSH2 0x2388 JUMP JUMPDEST DUP2 DUP2 SUB PUSH1 0x20 DUP4 ADD MSTORE PUSH2 0x2E3D DUP2 DUP7 PUSH2 0x28B2 JUMP JUMPDEST SWAP1 POP PUSH2 0x2E4C PUSH1 0x40 DUP4 ADD DUP6 PUSH2 0x2388 JUMP JUMPDEST PUSH2 0x2E59 PUSH1 0x60 DUP4 ADD DUP5 PUSH2 0x2388 JUMP JUMPDEST SWAP6 SWAP5 POP POP POP POP POP JUMP JUMPDEST PUSH1 0x0 DUP2 SWAP1 POP SWAP3 SWAP2 POP POP JUMP JUMPDEST POP JUMP JUMPDEST PUSH1 0x0 PUSH2 0x2E7D PUSH1 0x0 DUP4 PUSH2 0x2E62 JUMP JUMPDEST SWAP2 POP PUSH2 0x2E88 DUP3 PUSH2 0x2E6D JUMP JUMPDEST PUSH1 0x0 DUP3 ADD SWAP1 POP SWAP2 SWAP1 POP JUMP JUMPDEST PUSH1 0x0 PUSH2 0x2E9E DUP3 PUSH2 0x2E70 JUMP JUMPDEST SWAP2 POP DUP2 SWAP1 POP SWAP2 SWAP1 POP JUMP JUMPDEST PUSH32 0x4353413A20456C2072657469726F2066616C6C6F000000000000000000000000 PUSH1 0x0 DUP3 ADD MSTORE POP JUMP JUMPDEST PUSH1 0x0 PUSH2 0x2EDE PUSH1 0x14 DUP4 PUSH2 0x2877 JUMP JUMPDEST SWAP2 POP PUSH2 0x2EE9 DUP3 PUSH2 0x2EA8 JUMP JUMPDEST PUSH1 0x20 DUP3 ADD SWAP1 POP SWAP2 SWAP1 POP JUMP JUMPDEST PUSH1 0x0 PUSH1 0x20 DUP3 ADD SWAP1 POP DUP2 DUP2 SUB PUSH1 0x0 DUP4 ADD MSTORE PUSH2 0x2F0D DUP2 PUSH2 0x2ED1 JUMP JUMPDEST SWAP1 POP SWAP2 SWAP1 POP JUMP JUMPDEST PUSH32 0x4353413A204E6F206861792074656D706F726164617320637265616461730000 PUSH1 0x0 DUP3 ADD MSTORE POP JUMP JUMPDEST PUSH1 0x0 PUSH2 0x2F4A PUSH1 0x1E DUP4 PUSH2 0x2877 JUMP JUMPDEST SWAP2 POP PUSH2 0x2F55 DUP3 PUSH2 0x2F14 JUMP JUMPDEST PUSH1 0x20 DUP3 ADD SWAP1 POP SWAP2 SWAP1 POP JUMP JUMPDEST PUSH1 0x0 PUSH1 0x20 DUP3 ADD SWAP1 POP DUP2 DUP2 SUB PUSH1 0x0 DUP4 ADD MSTORE PUSH2 0x2F79 DUP2 PUSH2 0x2F3D JUMP JUMPDEST SWAP1 POP SWAP2 SWAP1 POP JUMP JUMPDEST PUSH32 0x4E487B7100000000000000000000000000000000000000000000000000000000 PUSH1 0x0 MSTORE PUSH1 0x32 PUSH1 0x4 MSTORE PUSH1 0x24 PUSH1 0x0 REVERT JUMPDEST PUSH32 0x4353413A204C61732076656E74617320657374616E2063657272616461730000 PUSH1 0x0 DUP3 ADD MSTORE POP JUMP JUMPDEST PUSH1 0x0 PUSH2 0x2FE5 PUSH1 0x1E DUP4 PUSH2 0x2877 JUMP JUMPDEST SWAP2 POP PUSH2 0x2FF0 DUP3 PUSH2 0x2FAF JUMP JUMPDEST PUSH1 0x20 DUP3 ADD SWAP1 POP SWAP2 SWAP1 POP JUMP JUMPDEST PUSH1 0x0 PUSH1 0x20 DUP3 ADD SWAP1 POP DUP2 DUP2 SUB PUSH1 0x0 DUP4 ADD MSTORE PUSH2 0x3014 DUP2 PUSH2 0x2FD8 JUMP JUMPDEST SWAP1 POP SWAP2 SWAP1 POP JUMP JUMPDEST PUSH32 0x4353413A20546F646173206C61732070617274696369706163696F6E65732076 PUSH1 0x0 DUP3 ADD MSTORE PUSH32 0x656E646964617300000000000000000000000000000000000000000000000000 PUSH1 0x20 DUP3 ADD MSTORE POP JUMP JUMPDEST PUSH1 0x0 PUSH2 0x3077 PUSH1 0x27 DUP4 PUSH2 0x2877 JUMP JUMPDEST SWAP2 POP PUSH2 0x3082 DUP3 PUSH2 0x301B JUMP JUMPDEST PUSH1 0x40 DUP3 ADD SWAP1 POP SWAP2 SWAP1 POP JUMP JUMPDEST PUSH1 0x0 PUSH1 0x20 DUP3 ADD SWAP1 POP DUP2 DUP2 SUB PUSH1 0x0 DUP4 ADD MSTORE PUSH2 0x30A6 DUP2 PUSH2 0x306A JUMP JUMPDEST SWAP1 POP SWAP2 SWAP1 POP JUMP JUMPDEST PUSH32 0x4353413A204D6F6E746F20656E766961646F20696E636F72726563746F000000 PUSH1 0x0 DUP3 ADD MSTORE POP JUMP JUMPDEST PUSH1 0x0 PUSH2 0x30E3 PUSH1 0x1D DUP4 PUSH2 0x2877 JUMP JUMPDEST SWAP2 POP PUSH2 0x30EE DUP3 PUSH2 0x30AD JUMP JUMPDEST PUSH1 0x20 DUP3 ADD SWAP1 POP SWAP2 SWAP1 POP JUMP JUMPDEST PUSH1 0x0 PUSH1 0x20 DUP3 ADD SWAP1 POP DUP2 DUP2 SUB PUSH1 0x0 DUP4 ADD MSTORE PUSH2 0x3112 DUP2 PUSH2 0x30D6 JUMP JUMPDEST SWAP1 POP SWAP2 SWAP1 POP JUMP JUMPDEST PUSH1 0x0 PUSH2 0x3124 DUP3 PUSH2 0x2312 JUMP JUMPDEST SWAP2 POP PUSH32 0xFFFFFFFFFFFFFFFFFFFFFFFFFFFFFFFFFFFFFFFFFFFFFFFFFFFFFFFFFFFFFFFF DUP3 SUB PUSH2 0x3156 JUMPI PUSH2 0x3155 PUSH2 0x2A5F JUMP JUMPDEST JUMPDEST PUSH1 0x1 DUP3 ADD SWAP1 POP SWAP2 SWAP1 POP JUMP JUMPDEST PUSH1 0x0 DUP2 SWAP1 POP SWAP2 SWAP1 POP JUMP JUMPDEST PUSH1 0x0 PUSH2 0x3186 PUSH2 0x3181 PUSH2 0x317C DUP5 PUSH2 0x3161 JUMP JUMPDEST PUSH2 0x2BE8 JUMP JUMPDEST PUSH2 0x2312 JUMP JUMPDEST SWAP1 POP SWAP2 SWAP1 POP JUMP JUMPDEST PUSH2 0x3196 DUP2 PUSH2 0x316B JUMP JUMPDEST DUP3 MSTORE POP POP JUMP JUMPDEST PUSH1 0x0 PUSH1 0x60 DUP3 ADD SWAP1 POP PUSH2 0x31B1 PUSH1 0x0 DUP4 ADD DUP7 PUSH2 0x2388 JUMP JUMPDEST PUSH2 0x31BE PUSH1 0x20 DUP4 ADD DUP6 PUSH2 0x2631 JUMP JUMPDEST PUSH2 0x31CB PUSH1 0x40 DUP4 ADD DUP5 PUSH2 0x318D JUMP JUMPDEST SWAP5 SWAP4 POP POP POP POP JUMP JUMPDEST PUSH32 0x4353413A2049442064652074656D706F7261646120696E76616C69646F000000 PUSH1 0x0 DUP3 ADD MSTORE POP JUMP JUMPDEST PUSH1 0x0 PUSH2 0x3209 PUSH1 0x1D DUP4 PUSH2 0x2877 JUMP JUMPDEST SWAP2 POP PUSH2 0x3214 DUP3 PUSH2 0x31D3 JUMP JUMPDEST PUSH1 0x20 DUP3 ADD SWAP1 POP SWAP2 SWAP1 POP JUMP JUMPDEST PUSH1 0x0 PUSH1 0x20 DUP3 ADD SWAP1 POP DUP2 DUP2 SUB PUSH1 0x0 DUP4 ADD MSTORE PUSH2 0x3238 DUP2 PUSH2 0x31FC JUMP JUMPDEST SWAP1 POP SWAP2 SWAP1 POP JUMP JUMPDEST PUSH32 0x4353413A204E6F2065726573206D69656D62726F20646520657374612074656D PUSH1 0x0 DUP3 ADD MSTORE PUSH32 0x706F726164610000000000000000000000000000000000000000000000000000 PUSH1 0x20 DUP3 ADD MSTORE POP JUMP JUMPDEST PUSH1 0x0 PUSH2 0x329B PUSH1 0x26 DUP4 PUSH2 0x2877 JUMP JUMPDEST SWAP2 POP PUSH2 0x32A6 DUP3 PUSH2 0x323F JUMP JUMPDEST PUSH1 0x40 DUP3 ADD SWAP1 POP SWAP2 SWAP1 POP JUMP JUMPDEST PUSH1 0x0 PUSH1 0x20 DUP3 ADD SWAP1 POP DUP2 DUP2 SUB PUSH1 0x0 DUP4 ADD MSTORE PUSH2 0x32CA DUP2 PUSH2 0x328E JUMP JUMPDEST SWAP1 POP SWAP2 SWAP1 POP JUMP JUMPDEST PUSH32 0x4353413A2046756572612064656C20706572696F646F206465206C612074656D PUSH1 0x0 DUP3 ADD MSTORE PUSH32 0x706F726164610000000000000000000000000000000000000000000000000000 PUSH1 0x20 DUP3 ADD MSTORE POP JUMP JUMPDEST PUSH1 0x0 PUSH2 0x332D PUSH1 0x26 DUP4 PUSH2 0x2877 JUMP JUMPDEST SWAP2 POP PUSH2 0x3338 DUP3 PUSH2 0x32D1 JUMP JUMPDEST PUSH1 0x40 DUP3 ADD SWAP1 POP SWAP2 SWAP1 POP JUMP JUMPDEST PUSH1 0x0 PUSH1 0x20 DUP3 ADD SWAP1 POP DUP2 DUP2 SUB PUSH1 0x0 DUP4 ADD MSTORE PUSH2 0x335C DUP2 PUSH2 0x3320 JUMP JUMPDEST SWAP1 POP SWAP2 SWAP1 POP JUMP JUMPDEST PUSH32 0x4E487B7100000000000000000000000000000000000000000000000000000000 PUSH1 0x0 MSTORE PUSH1 0x12 PUSH1 0x4 MSTORE PUSH1 0x24 PUSH1 0x0 REVERT JUMPDEST PUSH1 0x0 PUSH2 0x339D DUP3 PUSH2 0x2312 JUMP JUMPDEST SWAP2 POP PUSH2 0x33A8 DUP4 PUSH2 0x2312 JUMP JUMPDEST SWAP3 POP DUP3 PUSH2 0x33B8 JUMPI PUSH2 0x33B7 PUSH2 0x3363 JUMP JUMPDEST JUMPDEST DUP3 DUP3 DIV SWAP1 POP SWAP3 SWAP2 POP POP JUMP JUMPDEST PUSH32 0x4353413A204C612063616A6120646520657374612073656D616E612079612066 PUSH1 0x0 DUP3 ADD MSTORE PUSH32 0x75652063616E6A65616461000000000000000000000000000000000000000000 PUSH1 0x20 DUP3 ADD MSTORE POP JUMP JUMPDEST PUSH1 0x0 PUSH2 0x341F PUSH1 0x2B DUP4 PUSH2 0x2877 JUMP JUMPDEST SWAP2 POP PUSH2 0x342A DUP3 PUSH2 0x33C3 JUMP JUMPDEST PUSH1 0x40 DUP3 ADD SWAP1 POP SWAP2 SWAP1 POP JUMP JUMPDEST PUSH1 0x0 PUSH1 0x20 DUP3 ADD SWAP1 POP DUP2 DUP2 SUB PUSH1 0x0 DUP4 ADD MSTORE PUSH2 0x344E DUP2 PUSH2 0x3412 JUMP JUMPDEST SWAP1 POP SWAP2 SWAP1 POP JUMP JUMPDEST PUSH1 0x0 PUSH1 0x60 DUP3 ADD SWAP1 POP PUSH2 0x346A PUSH1 0x0 DUP4 ADD DUP7 PUSH2 0x2388 JUMP JUMPDEST PUSH2 0x3477 PUSH1 0x20 DUP4 ADD DUP6 PUSH2 0x2631 JUMP JUMPDEST PUSH2 0x3484 PUSH1 0x40 DUP4 ADD DUP5 PUSH2 0x2388 JUMP JUMPDEST SWAP5 SWAP4 POP POP POP POP JUMP JUMPDEST PUSH32 0x455243313135353A206E6F206175746F72697A61646F00000000000000000000 PUSH1 0x0 DUP3 ADD MSTORE POP JUMP JUMPDEST PUSH1 0x0 PUSH2 0x34C2 PUSH1 0x16 DUP4 PUSH2 0x2877 JUMP JUMPDEST SWAP2 POP PUSH2 0x34CD DUP3 PUSH2 0x348C JUMP JUMPDEST PUSH1 0x20 DUP3 ADD SWAP1 POP SWAP2 SWAP1 POP JUMP JUMPDEST PUSH1 0x0 PUSH1 0x20 DUP3 ADD SWAP1 POP DUP2 DUP2 SUB PUSH1 0x0 DUP4 ADD MSTORE PUSH2 0x34F1 DUP2 PUSH2 0x34B5 JUMP JUMPDEST SWAP1 POP SWAP2 SWAP1 POP JUMP JUMPDEST PUSH32 0x455243313135353A206E6F207365207075656465207472616E73666572697220 PUSH1 0x0 DUP3 ADD MSTORE PUSH32 0x61206C6120646972656363696F6E206365726F00000000000000000000000000 PUSH1 0x20 DUP3 ADD MSTORE POP JUMP JUMPDEST PUSH1 0x0 PUSH2 0x3554 PUSH1 0x33 DUP4 PUSH2 0x2877 JUMP JUMPDEST SWAP2 POP PUSH2 0x355F DUP3 PUSH2 0x34F8 JUMP JUMPDEST PUSH1 0x40 DUP3 ADD SWAP1 POP SWAP2 SWAP1 POP JUMP JUMPDEST PUSH1 0x0 PUSH1 0x20 DUP3 ADD SWAP1 POP DUP2 DUP2 SUB PUSH1 0x0 DUP4 ADD MSTORE PUSH2 0x3583 DUP2 PUSH2 0x3547 JUMP JUMPDEST SWAP1 POP SWAP2 SWAP1 POP JUMP JUMPDEST PUSH32 0x455243313135353A2062616C616E636520696E737566696369656E7465000000 PUSH1 0x0 DUP3 ADD MSTORE POP JUMP JUMPDEST PUSH1 0x0 PUSH2 0x35C0 PUSH1 0x1D DUP4 PUSH2 0x2877 JUMP JUMPDEST SWAP2 POP PUSH2 0x35CB DUP3 PUSH2 0x358A JUMP JUMPDEST PUSH1 0x20 DUP3 ADD SWAP1 POP SWAP2 SWAP1 POP JUMP JUMPDEST PUSH1 0x0 PUSH1 0x20 DUP3 ADD SWAP1 POP DUP2 DUP2 SUB PUSH1 0x0 DUP4 ADD MSTORE PUSH2 0x35EF DUP2 PUSH2 0x35B3 JUMP JUMPDEST SWAP1 POP SWAP2 SWAP1 POP JUMP JUMPDEST PUSH1 0x0 PUSH1 0x40 DUP3 ADD SWAP1 POP PUSH2 0x360B PUSH1 0x0 DUP4 ADD DUP6 PUSH2 0x2388 JUMP JUMPDEST PUSH2 0x3618 PUSH1 0x20 DUP4 ADD DUP5 PUSH2 0x2388 JUMP JUMPDEST SWAP4 SWAP3 POP POP POP JUMP JUMPDEST PUSH32 0x455243313135353A20736F6C6F20656C2070726F706965746172696F20707565 PUSH1 0x0 DUP3 ADD MSTORE PUSH32 0x6465207175656D61720000000000000000000000000000000000000000000000 PUSH1 0x20 DUP3 ADD MSTORE POP JUMP JUMPDEST PUSH1 0x0 PUSH2 0x367B PUSH1 0x29 DUP4 PUSH2 0x2877 JUMP JUMPDEST SWAP2 POP PUSH2 0x3686 DUP3 PUSH2 0x361F JUMP JUMPDEST PUSH1 0x40 DUP3 ADD SWAP1 POP SWAP2 SWAP1 POP JUMP JUMPDEST PUSH1 0x0 PUSH1 0x20 DUP3 ADD SWAP1 POP DUP2 DUP2 SUB PUSH1 0x0 DUP4 ADD MSTORE PUSH2 0x36AA DUP2 PUSH2 0x366E JUMP JUMPDEST SWAP1 POP SWAP2 SWAP1 POP JUMP JUMPDEST PUSH32 0x455243313135353A2062616C616E636520696E737566696369656E7465207061 PUSH1 0x0 DUP3 ADD MSTORE PUSH32 0x7261207175656D61720000000000000000000000000000000000000000000000 PUSH1 0x20 DUP3 ADD MSTORE POP JUMP JUMPDEST PUSH1 0x0 PUSH2 0x370D PUSH1 0x29 DUP4 PUSH2 0x2877 JUMP JUMPDEST SWAP2 POP PUSH2 0x3718 DUP3 PUSH2 0x36B1 JUMP JUMPDEST PUSH1 0x40 DUP3 ADD SWAP1 POP SWAP2 SWAP1 POP JUMP JUMPDEST PUSH1 0x0 PUSH1 0x20 DUP3 ADD SWAP1 POP DUP2 DUP2 SUB PUSH1 0x0 DUP4 ADD MSTORE PUSH2 0x373C DUP2 PUSH2 0x3700 JUMP JUMPDEST SWAP1 POP SWAP2 SWAP1 POP JUMP JUMPDEST PUSH32 0x455243313135353A206E6F207365207075656465206163756E61722061206C61 PUSH1 0x0 DUP3 ADD MSTORE PUSH32 0x20646972656363696F6E206365726F0000000000000000000000000000000000 PUSH1 0x20 DUP3 ADD MSTORE POP JUMP JUMPDEST PUSH1 0x0 PUSH2 0x379F PUSH1 0x2F DUP4 PUSH2 0x2877 JUMP JUMPDEST SWAP2 POP PUSH2 0x37AA DUP3 PUSH2 0x3743 JUMP JUMPDEST PUSH1 0x40 DUP3 ADD SWAP1 POP SWAP2 SWAP1 POP JUMP JUMPDEST PUSH1 0x0 PUSH1 0x20 DUP3 ADD SWAP1 POP DUP2 DUP2 SUB PUSH1 0x0 DUP4 ADD MSTORE PUSH2 0x37CE DUP2 PUSH2 0x3792 JUMP JUMPDEST SWAP1 POP SWAP2 SWAP1 POP JUMP INVALID LOG2 PUSH5 0x6970667358 0x22 SLT KECCAK256 0xA5 BYTE GT 0x4C XOR CALLDATACOPY PUSH26 0xA25A80D5D70408441800740EAEA4A123EE08808F236605AC5964 PUSH20 0x6F6C634300081C00330000000000000000000000 "},"methodIdentifiers":{"balanceOf(address,uint256)":"00fdd58e","burn(address,uint256,uint256)":"f5298aca","buyMembership()":"5c581119","closeSeasonSales(uint256)":"6cc07beb","createNewSeason(string,uint256,uint256,uint256)":"3aef7c80","isApprovedForAll(address,address)":"e985e9c5","owner()":"8da5cb5b","redeemWeeklyBox(uint256)":"73afd200","safeTransferFrom(address,address,uint256,uint256,bytes)":"f242432a","seasons(uint256)":"f5d709a1","setApprovalForAll(address,bool)":"a22cb465","transferOwnership(address)":"f2fde38b","weeklyRedemptions(address,uint256,uint256)":"833727e8","withdraw()":"3ccfd60b"}}}}}