{"contracts/BiodiversityCredits_LatinHack.sol":{"BiodiversityCredits_LatinHack":{"abi":[{"inputs":[{"internalType":"address","name":"_initialAdmin","type":"address"}],"stateMutability":"nonpayable","type":"constructor"},{"anonymous":false,"inputs":[{"indexed":true,"internalType":"address","name":"owner","type":"address"},{"indexed":true,"internalType":"address","name":"operator","type":"address"},{"indexed":false,"internalType":"bool","name":"approved","type":"bool"}],"name":"ApprovalForAll","type":"event"},{"anonymous":false,"inputs":[{"indexed":true,"internalType":"uint256","name":"creditId","type":"uint256"},{"indexed":true,"internalType":"uint256","name":"projectId","type":"uint256"},{"indexed":true,"internalType":"address","name":"verifier","type":"address"},{"indexed":false,"internalType":"address","name":"creditOwner","type":"address"},{"indexed":false,"internalType":"uint256","name":"amount","type":"uint256"}],"name":"CreditBatchCertified","type":"event"},{"anonymous":false,"inputs":[{"indexed":true,"internalType":"uint256","name":"creditId","type":"uint256"},{"indexed":true,"internalType":"address","name":"retiredBy","type":"address"},{"indexed":false,"internalType":"uint256","name":"amount","type":"uint256"}],"name":"CreditsRetired","type":"event"},{"anonymous":false,"inputs":[{"indexed":true,"internalType":"uint256","name":"projectId","type":"uint256"},{"indexed":true,"internalType":"address","name":"developer","type":"address"},{"indexed":true,"internalType":"address","name":"verifier","type":"address"}],"name":"ProjectRegistered","type":"event"},{"anonymous":false,"inputs":[{"indexed":true,"internalType":"uint256","name":"projectId","type":"uint256"},{"indexed":false,"internalType":"enum BiodiversityCredits_LatinHack.Status","name":"newStatus","type":"uint8"}],"name":"ProjectStatusUpdated","type":"event"},{"anonymous":false,"inputs":[{"indexed":true,"internalType":"address","name":"operator","type":"address"},{"indexed":true,"internalType":"address","name":"from","type":"address"},{"indexed":true,"internalType":"address","name":"to","type":"address"},{"indexed":false,"internalType":"uint256","name":"id","type":"uint256"},{"indexed":false,"internalType":"uint256","name":"amount","type":"uint256"}],"name":"TransferSingle","type":"event"},{"inputs":[],"name":"admin","outputs":[{"internalType":"address","name":"","type":"address"}],"stateMutability":"view","type":"function"},{"inputs":[{"internalType":"address","name":"_account","type":"address"},{"internalType":"uint256","name":"_id","type":"uint256"}],"name":"balanceOf","outputs":[{"internalType":"uint256","name":"","type":"uint256"}],"stateMutability":"view","type":"function"},{"inputs":[{"internalType":"address","name":"from","type":"address"},{"internalType":"uint256","name":"id","type":"uint256"},{"internalType":"uint256","name":"amount","type":"uint256"}],"name":"burn","outputs":[],"stateMutability":"nonpayable","type":"function"},{"inputs":[{"internalType":"uint256","name":"_projectId","type":"uint256"},{"internalType":"address","name":"_creditOwner","type":"address"},{"internalType":"uint256","name":"_amount","type":"uint256"}],"name":"certifyAndMintBatch","outputs":[],"stateMutability":"nonpayable","type":"function"},{"inputs":[{"internalType":"uint256","name":"","type":"uint256"}],"name":"creditBatchDetails","outputs":[{"internalType":"uint256","name":"projectId","type":"uint256"},{"internalType":"uint256","name":"timestamp","type":"uint256"},{"internalType":"uint256","name":"totalMinted","type":"uint256"}],"stateMutability":"view","type":"function"},{"inputs":[{"internalType":"address","name":"_account","type":"address"},{"internalType":"address","name":"_operator","type":"address"}],"name":"isApprovedForAll","outputs":[{"internalType":"bool","name":"","type":"bool"}],"stateMutability":"view","type":"function"},{"inputs":[{"internalType":"uint256","name":"","type":"uint256"}],"name":"projects","outputs":[{"internalType":"address","name":"developer","type":"address"},{"internalType":"address","name":"verifier","type":"address"},{"internalType":"string","name":"projectURI","type":"string"},{"internalType":"bytes32","name":"methodologyHash","type":"bytes32"},{"internalType":"enum BiodiversityCredits_LatinHack.Status","name":"status","type":"uint8"}],"stateMutability":"view","type":"function"},{"inputs":[{"internalType":"address","name":"_verifier","type":"address"},{"internalType":"string","name":"_projectURI","type":"string"},{"internalType":"bytes32","name":"_methodologyHash","type":"bytes32"}],"name":"registerProject","outputs":[{"internalType":"uint256","name":"","type":"uint256"}],"stateMutability":"nonpayable","type":"function"},{"inputs":[{"internalType":"uint256","name":"creditId","type":"uint256"},{"internalType":"uint256","name":"amount","type":"uint256"}],"name":"retireCredits","outputs":[],"stateMutability":"nonpayable","type":"function"},{"inputs":[{"internalType":"address","name":"_from","type":"address"},{"internalType":"address","name":"_to","type":"address"},{"internalType":"uint256","name":"_id","type":"uint256"},{"internalType":"uint256","name":"_amount","type":"uint256"},{"internalType":"bytes","name":"_data","type":"bytes"}],"name":"safeTransferFrom","outputs":[],"stateMutability":"nonpayable","type":"function"},{"inputs":[{"internalType":"address","name":"_operator","type":"address"},{"internalType":"bool","name":"_approved","type":"bool"}],"name":"setApprovalForAll","outputs":[],"stateMutability":"nonpayable","type":"function"},{"inputs":[{"internalType":"uint256","name":"_projectId","type":"uint256"},{"internalType":"enum BiodiversityCredits_LatinHack.Status","name":"_newStatus","type":"uint8"}],"name":"updateProjectStatus","outputs":[],"stateMutability":"nonpayable","type":"function"}],"evm":{"bytecode":{"linkReferences":{},"object":"608060405234801561001057600080fd5b50604051612ffb380380612ffb83398181016040528101906100329190610112565b61004c679c03aa4373b3985760c01b6100ac60201b60201c565b6100666730e54017a0ec601560c01b6100ac60201b60201c565b806000806101000a81548173ffffffffffffffffffffffffffffffffffffffff021916908373ffffffffffffffffffffffffffffffffffffffff1602179055505061013f565b50565b600080fd5b600073ffffffffffffffffffffffffffffffffffffffff82169050919050565b60006100df826100b4565b9050919050565b6100ef816100d4565b81146100fa57600080fd5b50565b60008151905061010c816100e6565b92915050565b600060208284031215610128576101276100af565b5b6000610136848285016100fd565b91505092915050565b612ead8061014e6000396000f3fe608060405234801561001057600080fd5b50600436106100b35760003560e01c8063bb0e12e711610071578063bb0e12e7146101a0578063d11d498b146101d2578063e985e9c5146101ee578063f242432a1461021e578063f5298aca1461023a578063f851a44014610256576100b3565b8062fdd58e146100b8578063107046bd146100e85780632579c24d1461011c5780633ea0fb131461014c57806382d26b1714610168578063a22cb46514610184575b600080fd5b6100d260048036038101906100cd9190611cf8565b610274565b6040516100df9190611d47565b60405180910390f35b61010260048036038101906100fd9190611d62565b61030b565b604051610113959493929190611ebe565b60405180910390f35b61013660048036038101906101319190612079565b610416565b6040516101439190611d47565b60405180910390f35b610166600480360381019061016191906120e8565b610752565b005b610182600480360381019061017d9190612128565b610a14565b005b61019e600480360381019061019991906121b3565b610d6b565b005b6101ba60048036038101906101b59190611d62565b610eb8565b6040516101c9939291906121f3565b60405180910390f35b6101ec60048036038101906101e7919061224f565b610ee2565b005b6102086004803603810190610203919061228f565b6111cf565b60405161021591906122de565b60405180910390f35b6102386004803603810190610233919061239a565b61129f565b005b610254600480360381019061024f9190612431565b6116ff565b005b61025e611a24565b60405161026b9190612484565b60405180910390f35b600061028a67a99c0be114234c9560c01b611a48565b61029e679286876e35a62a6e60c01b611a48565b6102b267c91aab288ed1001360c01b611a48565b6005600083815260200190815260200160002060008473ffffffffffffffffffffffffffffffffffffffff1673ffffffffffffffffffffffffffffffffffffffff16815260200190815260200160002054905092915050565b60016020528060005260406000206000915090508060000160009054906101000a900473ffffffffffffffffffffffffffffffffffffffff16908060010160009054906101000a900473ffffffffffffffffffffffffffffffffffffffff169080600201805461037a906124ce565b80601f01602080910402602001604051908101604052809291908181526020018280546103a6906124ce565b80156103f35780601f106103c8576101008083540402835291602001916103f3565b820191906000526020600020905b8154815290600101906020018083116103d657829003601f168201915b5050505050908060030154908060040160009054906101000a900460ff16905085565b600061042c674fd83297b3b0965960c01b611a48565b61044067be90b1faf4c37dca60c01b611a48565b61045467ba97bc0a06c4ef8a60c01b611a48565b6104686781c92b17d222d62f60c01b611a48565b600073ffffffffffffffffffffffffffffffffffffffff168473ffffffffffffffffffffffffffffffffffffffff16036104d7576040517f08c379a00000000000000000000000000000000000000000000000000000000081526004016104ce90612571565b60405180910390fd5b6104eb674cc56bed49cc37c260c01b611a48565b6104ff676a1bce96499b6de460c01b611a48565b61051367b48efe055784cc5660c01b611a48565b600060026000815480929190610528906125c0565b919050559050610542672fbbc4c75d8b73b160c01b611a48565b6040518060a001604052803373ffffffffffffffffffffffffffffffffffffffff1681526020018673ffffffffffffffffffffffffffffffffffffffff168152602001858152602001848152602001600060028111156105a5576105a4611e47565b5b8152506001600083815260200190815260200160002060008201518160000160006101000a81548173ffffffffffffffffffffffffffffffffffffffff021916908373ffffffffffffffffffffffffffffffffffffffff16021790555060208201518160010160006101000a81548173ffffffffffffffffffffffffffffffffffffffff021916908373ffffffffffffffffffffffffffffffffffffffff160217905550604082015181600201908161065e91906127b4565b506060820151816003015560808201518160040160006101000a81548160ff0219169083600281111561069457610693611e47565b5b02179055509050506106b067615368ed59400d8c60c01b611a48565b6106c467baa905add9ce013060c01b611a48565b8473ffffffffffffffffffffffffffffffffffffffff163373ffffffffffffffffffffffffffffffffffffffff16827f7024d444707bcd36a8b0a076e120d984b0f8431dc1aa0513f728193d34a630dd60405160405180910390a461073367a0cc6b16bb790b8560c01b611a48565b61074767c667dd8b1fcb26ff60c01b611a48565b809150509392505050565b61076667f959deb4f42b1aa960c01b611a48565b61077a676e9d1e3a7ff8c39560c01b611a48565b61078e676a723e419daafe0360c01b611a48565b60003390506107a767283706107c7a53a460c01b611a48565b6107bb67b53c90162624d04e60c01b611a48565b6107cf67fb7b67fd6d17133a60c01b611a48565b816005600085815260200190815260200160002060008373ffffffffffffffffffffffffffffffffffffffff1673ffffffffffffffffffffffffffffffffffffffff168152602001908152602001600020541015610862576040517f08c379a0000000000000000000000000000000000000000000000000000000008152600401610859906128f8565b60405180910390fd5b610876670ea4c80fd87f4cbd60c01b611a48565b61088a67225e6791cc706fdc60c01b611a48565b816005600085815260200190815260200160002060008373ffffffffffffffffffffffffffffffffffffffff1673ffffffffffffffffffffffffffffffffffffffff16815260200190815260200160002060008282546108ea9190612918565b92505081905550610905674b5dcd5536a4e7df60c01b611a48565b610919674d4c01d12133200760c01b611a48565b600073ffffffffffffffffffffffffffffffffffffffff168173ffffffffffffffffffffffffffffffffffffffff168273ffffffffffffffffffffffffffffffffffffffff167fc3d58168c5ae7397731d063d5bbf3d657854427343f4c083240f7aacaa2d0f62868660405161099092919061294c565b60405180910390a46109ac67227b9787c2fa973060c01b611a48565b6109c06725596b2b421c07b460c01b611a48565b8073ffffffffffffffffffffffffffffffffffffffff16837f31995d78296d80ec997704a03d4e6295c44e8755e8117523fb44bf086c306dcb84604051610a079190611d47565b60405180910390a3505050565b610a2867d49d25d2d400f8e060c01b611a48565b610a3c6772e0acdd3131f51d60c01b611a48565b610a50673f7ab279e8dea6bf60c01b611a48565b6000600160008581526020019081526020016000209050610a7b676a725b443588fea260c01b611a48565b610a8f6745d462a8105adebd60c01b611a48565b610aa3678f45e0805f3f699c60c01b611a48565b60016002811115610ab757610ab6611e47565b5b8160040160009054906101000a900460ff166002811115610adb57610ada611e47565b5b14610b1b576040517f08c379a0000000000000000000000000000000000000000000000000000000008152600401610b12906129c1565b60405180910390fd5b610b2f67dfe4cdb7720c43bc60c01b611a48565b610b436742466db1828fc53e60c01b611a48565b610b5767557ac2b3f07e5ebb60c01b611a48565b610b6b678b46d801cfd29eef60c01b611a48565b8060010160009054906101000a900473ffffffffffffffffffffffffffffffffffffffff1673ffffffffffffffffffffffffffffffffffffffff163373ffffffffffffffffffffffffffffffffffffffff1614610bfd576040517f08c379a0000000000000000000000000000000000000000000000000000000008152600401610bf490612a53565b60405180910390fd5b610c1167568c4498d2bf70e960c01b611a48565b610c2567d071cba8341520cd60c01b611a48565b610c3967414d089cb6c3f51960c01b611a48565b600060046000815480929190610c4e906125c0565b919050559050610c686726e067e1869f863c60c01b611a48565b60405180606001604052808681526020014281526020018481525060036000838152602001908152602001600020600082015181600001556020820151816001015560408201518160020155905050610ccb673aaeba0a5be273b660c01b611a48565b610cdf6704e7c6422fa814ba60c01b611a48565b610cea848285611a4b565b610cfe677e0a1842ee4bb55360c01b611a48565b610d1267b0641e6082f1225e60c01b611a48565b3373ffffffffffffffffffffffffffffffffffffffff1685827f1dc2eff6065ae138f646dfc86e678c27bdcd906b084e71aa63faf4bcb0efe2118787604051610d5c929190612a73565b60405180910390a45050505050565b610d7f678b1849df87fa1d1660c01b611a48565b610d93678eb24d76fe938df860c01b611a48565b80600660003373ffffffffffffffffffffffffffffffffffffffff1673ffffffffffffffffffffffffffffffffffffffff16815260200190815260200160002060008473ffffffffffffffffffffffffffffffffffffffff1673ffffffffffffffffffffffffffffffffffffffff16815260200190815260200160002060006101000a81548160ff021916908315150217905550610e3b67aab570626d4b797e60c01b611a48565b610e4f678a4ced68fbf598c760c01b611a48565b8173ffffffffffffffffffffffffffffffffffffffff163373ffffffffffffffffffffffffffffffffffffffff167f17307eab39ab6107e8899845ad3d59bd9653f200f220920489ca2b5937696c3183604051610eac91906122de565b60405180910390a35050565b60036020528060005260406000206000915090508060000154908060010154908060020154905083565b610ef667069e620e547de38a60c01b611a48565b610f0a67161eeca96641cba560c01b611a48565b610f1e67785adedd996125d860c01b611a48565b610f326727b4c37022324e6060c01b611a48565b610f466772552d1606c33ed160c01b611a48565b60008054906101000a900473ffffffffffffffffffffffffffffffffffffffff1673ffffffffffffffffffffffffffffffffffffffff163373ffffffffffffffffffffffffffffffffffffffff1614610fd4576040517f08c379a0000000000000000000000000000000000000000000000000000000008152600401610fcb90612ae8565b60405180910390fd5b610fe867f7dc2399d5c8afc160c01b611a48565b610ffc672cc2c4ae475483db60c01b611a48565b61101067e19101374d8a772c60c01b611a48565b6110246713fcdb119e3316b460c01b611a48565b6110386741cf9d19884ae47560c01b611a48565b61104c67fd63e34e51d104d860c01b611a48565b6110606715f996ef3e08043960c01b611a48565b600073ffffffffffffffffffffffffffffffffffffffff166001600084815260200190815260200160002060000160009054906101000a900473ffffffffffffffffffffffffffffffffffffffff1673ffffffffffffffffffffffffffffffffffffffff1603611105576040517f08c379a00000000000000000000000000000000000000000000000000000000081526004016110fc90612b54565b60405180910390fd5b61111967d7684f404758665a60c01b611a48565b61112d675478333fe6d4bc8660c01b611a48565b806001600084815260200190815260200160002060040160006101000a81548160ff0219169083600281111561116657611165611e47565b5b021790555061117f6722fe788843eda21660c01b611a48565b61119367551926090427be7e60c01b611a48565b817f8fb6fda973f304b2834c4147004045448416c05b253872373ac5b19f4a5b7a5d826040516111c39190612b74565b60405180910390a25050565b60006111e56773020daaa275062f60c01b611a48565b6111f9679e28b43bc70bb91c60c01b611a48565b61120d672cf7eac54adc128b60c01b611a48565b600660008473ffffffffffffffffffffffffffffffffffffffff1673ffffffffffffffffffffffffffffffffffffffff16815260200190815260200160002060008373ffffffffffffffffffffffffffffffffffffffff1673ffffffffffffffffffffffffffffffffffffffff16815260200190815260200160002060009054906101000a900460ff16905092915050565b6112b3670338d57b0a646bea60c01b611a48565b6112c767c179e86d7696e42260c01b611a48565b6112db671b272548067809d660c01b611a48565b6112ef67e31a9d3fa91e5d4c60c01b611a48565b3373ffffffffffffffffffffffffffffffffffffffff168573ffffffffffffffffffffffffffffffffffffffff1614801561133a575061133967f11ffa9b983fc88360c01b611c45565b5b80611367575061134a85336111cf565b80156113665750611365674fbd30a111ffb69660c01b611c45565b5b5b6113a6576040517f08c379a000000000000000000000000000000000000000000000000000000000815260040161139d90612c01565b60405180910390fd5b6113ba6725e6c372de0139d960c01b611a48565b6113ce678a711cb7770948e260c01b611a48565b6113e26796103c31a581d13b60c01b611a48565b6113f667ad95061ba8c805da60c01b611a48565b600073ffffffffffffffffffffffffffffffffffffffff168473ffffffffffffffffffffffffffffffffffffffff1603611465576040517f08c379a000000000000000000000000000000000000000000000000000000000815260040161145c90612c93565b60405180910390fd5b611479671cfb20ac82931f0160c01b611a48565b61148d67a3ee19a9843530df60c01b611a48565b6114a167452b7df9eb67592d60c01b611a48565b6114b567b721b58a6dead79660c01b611a48565b816005600085815260200190815260200160002060008773ffffffffffffffffffffffffffffffffffffffff1673ffffffffffffffffffffffffffffffffffffffff168152602001908152602001600020541015611548576040517f08c379a000000000000000000000000000000000000000000000000000000000815260040161153f90612cff565b60405180910390fd5b61155c67a8f958b20447935360c01b611a48565b611570679525a5040919894d60c01b611a48565b816005600085815260200190815260200160002060008773ffffffffffffffffffffffffffffffffffffffff1673ffffffffffffffffffffffffffffffffffffffff16815260200190815260200160002060008282546115d09190612918565b925050819055506115eb67a8c75ad1044db54160c01b611a48565b816005600085815260200190815260200160002060008673ffffffffffffffffffffffffffffffffffffffff1673ffffffffffffffffffffffffffffffffffffffff168152602001908152602001600020600082825461164b9190612d1f565b9250508190555061166667a65a9175995584c560c01b611a48565b61167a67d08aed63be9bdfeb60c01b611a48565b8373ffffffffffffffffffffffffffffffffffffffff168573ffffffffffffffffffffffffffffffffffffffff163373ffffffffffffffffffffffffffffffffffffffff167fc3d58168c5ae7397731d063d5bbf3d657854427343f4c083240f7aacaa2d0f6286866040516116f092919061294c565b60405180910390a45050505050565b611713676fbde5bb7ebc01a160c01b611a48565b6117276791edbfa96a96e6b060c01b611a48565b61173b67c09cb4ff405d399060c01b611a48565b61174f67282521b7d6683aa160c01b611a48565b3373ffffffffffffffffffffffffffffffffffffffff168373ffffffffffffffffffffffffffffffffffffffff1614801561179a575061179967b79752ab4ee316a460c01b611c45565b5b806117c757506117aa83336111cf565b80156117c657506117c5677540615319fa7d3a60c01b611c45565b5b5b611806576040517f08c379a00000000000000000000000000000000000000000000000000000000081526004016117fd90612dc5565b60405180910390fd5b61181a67cca7ae4bb8dfe24960c01b611a48565b61182e6707dd9eeb2e94cf9460c01b611a48565b611842673e6c4d8ad16b59b460c01b611a48565b61185667ae231a14df328a0a60c01b611a48565b806005600084815260200190815260200160002060008573ffffffffffffffffffffffffffffffffffffffff1673ffffffffffffffffffffffffffffffffffffffff1681526020019081526020016000205410156118e9576040517f08c379a00000000000000000000000000000000000000000000000000000000081526004016118e0906128f8565b60405180910390fd5b6118fd67ca575b407498157960c01b611a48565b6119116702eb0e128fea533760c01b611a48565b806005600084815260200190815260200160002060008573ffffffffffffffffffffffffffffffffffffffff1673ffffffffffffffffffffffffffffffffffffffff16815260200190815260200160002060008282546119719190612918565b9250508190555061198c6731ac47d0d870189160c01b611a48565b6119a067148c5ad279ba27b460c01b611a48565b600073ffffffffffffffffffffffffffffffffffffffff168373ffffffffffffffffffffffffffffffffffffffff163373ffffffffffffffffffffffffffffffffffffffff167fc3d58168c5ae7397731d063d5bbf3d657854427343f4c083240f7aacaa2d0f628585604051611a1792919061294c565b60405180910390a4505050565b60008054906101000a900473ffffffffffffffffffffffffffffffffffffffff1681565b50565b611a5f67ecc11c92f62b56d560c01b611a48565b611a73679e22f400b3ca3ab260c01b611a48565b611a8767fce1bc320f1f79de60c01b611a48565b611a9b67f3588572b866f52b60c01b611a48565b600073ffffffffffffffffffffffffffffffffffffffff168373ffffffffffffffffffffffffffffffffffffffff1603611b0a576040517f08c379a0000000000000000000000000000000000000000000000000000000008152600401611b0190612e57565b60405180910390fd5b611b1e676f5925032c6872cb60c01b611a48565b611b326775f17ec6572154f960c01b611a48565b806005600084815260200190815260200160002060008573ffffffffffffffffffffffffffffffffffffffff1673ffffffffffffffffffffffffffffffffffffffff1681526020019081526020016000206000828254611b929190612d1f565b92505081905550611bad67d765f00bb019525c60c01b611a48565b611bc167edb3e55c43e0db7c60c01b611a48565b8273ffffffffffffffffffffffffffffffffffffffff16600073ffffffffffffffffffffffffffffffffffffffff163373ffffffffffffffffffffffffffffffffffffffff167fc3d58168c5ae7397731d063d5bbf3d657854427343f4c083240f7aacaa2d0f628585604051611c3892919061294c565b60405180910390a4505050565b600060019050919050565b6000604051905090565b600080fd5b600080fd5b600073ffffffffffffffffffffffffffffffffffffffff82169050919050565b6000611c8f82611c64565b9050919050565b611c9f81611c84565b8114611caa57600080fd5b50565b600081359050611cbc81611c96565b92915050565b6000819050919050565b611cd581611cc2565b8114611ce057600080fd5b50565b600081359050611cf281611ccc565b92915050565b60008060408385031215611d0f57611d0e611c5a565b5b6000611d1d85828601611cad565b9250506020611d2e85828601611ce3565b9150509250929050565b611d4181611cc2565b82525050565b6000602082019050611d5c6000830184611d38565b92915050565b600060208284031215611d7857611d77611c5a565b5b6000611d8684828501611ce3565b91505092915050565b611d9881611c84565b82525050565b600081519050919050565b600082825260208201905092915050565b60005b83811015611dd8578082015181840152602081019050611dbd565b60008484015250505050565b6000601f19601f8301169050919050565b6000611e0082611d9e565b611e0a8185611da9565b9350611e1a818560208601611dba565b611e2381611de4565b840191505092915050565b6000819050919050565b611e4181611e2e565b82525050565b7f4e487b7100000000000000000000000000000000000000000000000000000000600052602160045260246000fd5b60038110611e8757611e86611e47565b5b50565b6000819050611e9882611e76565b919050565b6000611ea882611e8a565b9050919050565b611eb881611e9d565b82525050565b600060a082019050611ed36000830188611d8f565b611ee06020830187611d8f565b8181036040830152611ef28186611df5565b9050611f016060830185611e38565b611f0e6080830184611eaf565b9695505050505050565b600080fd5b600080fd5b7f4e487b7100000000000000000000000000000000000000000000000000000000600052604160045260246000fd5b611f5a82611de4565b810181811067ffffffffffffffff82111715611f7957611f78611f22565b5b80604052505050565b6000611f8c611c50565b9050611f988282611f51565b919050565b600067ffffffffffffffff821115611fb857611fb7611f22565b5b611fc182611de4565b9050602081019050919050565b82818337600083830152505050565b6000611ff0611feb84611f9d565b611f82565b90508281526020810184848401111561200c5761200b611f1d565b5b612017848285611fce565b509392505050565b600082601f83011261203457612033611f18565b5b8135612044848260208601611fdd565b91505092915050565b61205681611e2e565b811461206157600080fd5b50565b6000813590506120738161204d565b92915050565b60008060006060848603121561209257612091611c5a565b5b60006120a086828701611cad565b935050602084013567ffffffffffffffff8111156120c1576120c0611c5f565b5b6120cd8682870161201f565b92505060406120de86828701612064565b9150509250925092565b600080604083850312156120ff576120fe611c5a565b5b600061210d85828601611ce3565b925050602061211e85828601611ce3565b9150509250929050565b60008060006060848603121561214157612140611c5a565b5b600061214f86828701611ce3565b935050602061216086828701611cad565b925050604061217186828701611ce3565b9150509250925092565b60008115159050919050565b6121908161217b565b811461219b57600080fd5b50565b6000813590506121ad81612187565b92915050565b600080604083850312156121ca576121c9611c5a565b5b60006121d885828601611cad565b92505060206121e98582860161219e565b9150509250929050565b60006060820190506122086000830186611d38565b6122156020830185611d38565b6122226040830184611d38565b949350505050565b6003811061223757600080fd5b50565b6000813590506122498161222a565b92915050565b6000806040838503121561226657612265611c5a565b5b600061227485828601611ce3565b92505060206122858582860161223a565b9150509250929050565b600080604083850312156122a6576122a5611c5a565b5b60006122b485828601611cad565b92505060206122c585828601611cad565b9150509250929050565b6122d88161217b565b82525050565b60006020820190506122f360008301846122cf565b92915050565b600067ffffffffffffffff82111561231457612313611f22565b5b61231d82611de4565b9050602081019050919050565b600061233d612338846122f9565b611f82565b90508281526020810184848401111561235957612358611f1d565b5b612364848285611fce565b509392505050565b600082601f83011261238157612380611f18565b5b813561239184826020860161232a565b91505092915050565b600080600080600060a086880312156123b6576123b5611c5a565b5b60006123c488828901611cad565b95505060206123d588828901611cad565b94505060406123e688828901611ce3565b93505060606123f788828901611ce3565b925050608086013567ffffffffffffffff81111561241857612417611c5f565b5b6124248882890161236c565b9150509295509295909350565b60008060006060848603121561244a57612449611c5a565b5b600061245886828701611cad565b935050602061246986828701611ce3565b925050604061247a86828701611ce3565b9150509250925092565b60006020820190506124996000830184611d8f565b92915050565b7f4e487b7100000000000000000000000000000000000000000000000000000000600052602260045260246000fd5b600060028204905060018216806124e657607f821691505b6020821081036124f9576124f861249f565b5b50919050565b7f456c207665726966696361646f72206e6f20707565646520736572206c61206460008201527f6972656363696f6e206365726f00000000000000000000000000000000000000602082015250565b600061255b602d83611da9565b9150612566826124ff565b604082019050919050565b6000602082019050818103600083015261258a8161254e565b9050919050565b7f4e487b7100000000000000000000000000000000000000000000000000000000600052601160045260246000fd5b60006125cb82611cc2565b91507fffffffffffffffffffffffffffffffffffffffffffffffffffffffffffffffff82036125fd576125fc612591565b5b600182019050919050565b60008190508160005260206000209050919050565b60006020601f8301049050919050565b600082821b905092915050565b60006008830261266a7fffffffffffffffffffffffffffffffffffffffffffffffffffffffffffffffff8261262d565b612674868361262d565b95508019841693508086168417925050509392505050565b6000819050919050565b60006126b16126ac6126a784611cc2565b61268c565b611cc2565b9050919050565b6000819050919050565b6126cb83612696565b6126df6126d7826126b8565b84845461263a565b825550505050565b600090565b6126f46126e7565b6126ff8184846126c2565b505050565b5b81811015612723576127186000826126ec565b600181019050612705565b5050565b601f8211156127685761273981612608565b6127428461261d565b81016020851015612751578190505b61276561275d8561261d565b830182612704565b50505b505050565b600082821c905092915050565b600061278b6000198460080261276d565b1980831691505092915050565b60006127a4838361277a565b9150826002028217905092915050565b6127bd82611d9e565b67ffffffffffffffff8111156127d6576127d5611f22565b5b6127e082546124ce565b6127eb828285612727565b600060209050601f83116001811461281e576000841561280c578287015190505b6128168582612798565b86555061287e565b601f19841661282c86612608565b60005b828110156128545784890151825560018201915060208501945060208101905061282f565b86831015612871578489015161286d601f89168261277a565b8355505b6001600288020188555050505b505050505050565b7f455243313135353a2062616c616e636520696e737566696369656e746520706160008201527f7261207175656d61720000000000000000000000000000000000000000000000602082015250565b60006128e2602983611da9565b91506128ed82612886565b604082019050919050565b60006020820190508181036000830152612911816128d5565b9050919050565b600061292382611cc2565b915061292e83611cc2565b925082820390508181111561294657612945612591565b5b92915050565b60006040820190506129616000830185611d38565b61296e6020830184611d38565b9392505050565b7f456c2070726f796563746f206e6f2065737461206170726f6261646f00000000600082015250565b60006129ab601c83611da9565b91506129b682612975565b602082019050919050565b600060208201905081810360008301526129da8161299e565b9050919050565b7f4c6c616d61646f72206e6f20657320656c207665726966696361646f7220646560008201527f20657374652070726f796563746f000000000000000000000000000000000000602082015250565b6000612a3d602e83611da9565b9150612a48826129e1565b604082019050919050565b60006020820190508181036000830152612a6c81612a30565b9050919050565b6000604082019050612a886000830185611d8f565b612a956020830184611d38565b9392505050565b7f4c6c616d61646f72206e6f20657320656c2061646d696e000000000000000000600082015250565b6000612ad2601783611da9565b9150612add82612a9c565b602082019050919050565b60006020820190508181036000830152612b0181612ac5565b9050919050565b7f456c2070726f796563746f206e6f206578697374650000000000000000000000600082015250565b6000612b3e601583611da9565b9150612b4982612b08565b602082019050919050565b60006020820190508181036000830152612b6d81612b31565b9050919050565b6000602082019050612b896000830184611eaf565b92915050565b7f455243313135353a206e6f206175746f72697a61646f2070617261207472616e60008201527f7366657269720000000000000000000000000000000000000000000000000000602082015250565b6000612beb602683611da9565b9150612bf682612b8f565b604082019050919050565b60006020820190508181036000830152612c1a81612bde565b9050919050565b7f455243313135353a206e6f207365207075656465207472616e7366657269722060008201527f61206c6120646972656363696f6e206365726f00000000000000000000000000602082015250565b6000612c7d603383611da9565b9150612c8882612c21565b604082019050919050565b60006020820190508181036000830152612cac81612c70565b9050919050565b7f455243313135353a2062616c616e636520696e737566696369656e7465000000600082015250565b6000612ce9601d83611da9565b9150612cf482612cb3565b602082019050919050565b60006020820190508181036000830152612d1881612cdc565b9050919050565b6000612d2a82611cc2565b9150612d3583611cc2565b9250828201905080821115612d4d57612d4c612591565b5b92915050565b7f455243313135353a206e6f206175746f72697a61646f2070617261207175656d60008201527f6172000000000000000000000000000000000000000000000000000000000000602082015250565b6000612daf602283611da9565b9150612dba82612d53565b604082019050919050565b60006020820190508181036000830152612dde81612da2565b9050919050565b7f455243313135353a206e6f207365207075656465206163756e61722061206c6160008201527f20646972656363696f6e206365726f0000000000000000000000000000000000602082015250565b6000612e41602f83611da9565b9150612e4c82612de5565b604082019050919050565b60006020820190508181036000830152612e7081612e34565b905091905056fea26469706673582212207faf370d3bca462c06faaba45b7e3c7e4ecd78c324c20f75ca28c4636ffa7d7d64736f6c634300081c0033","opcodes":"PUSH1 0x80 PUSH1 0x40 MSTORE CALLVALUE DUP1 ISZERO PUSH2 0x10 JUMPI PUSH1 0x0 DUP1 REVERT JUMPDEST POP PUSH1 0x40 MLOAD PUSH2 0x2FFB CODESIZE SUB DUP1 PUSH2 0x2FFB DUP4 CODECOPY DUP2 DUP2 ADD PUSH1 0x40 MSTORE DUP2 ADD SWAP1 PUSH2 0x32 SWAP2 SWAP1 PUSH2 0x112 JUMP JUMPDEST PUSH2 0x4C PUSH8 0x9C03AA4373B39857 PUSH1 0xC0 SHL PUSH2 0xAC PUSH1 0x20 SHL PUSH1 0x20 SHR JUMP JUMPDEST PUSH2 0x66 PUSH8 0x30E54017A0EC6015 PUSH1 0xC0 SHL PUSH2 0xAC PUSH1 0x20 SHL PUSH1 0x20 SHR JUMP JUMPDEST DUP1 PUSH1 0x0 DUP1 PUSH2 0x100 EXP DUP2 SLOAD DUP2 PUSH20 0xFFFFFFFFFFFFFFFFFFFFFFFFFFFFFFFFFFFFFFFF MUL NOT AND SWAP1 DUP4 PUSH20 0xFFFFFFFFFFFFFFFFFFFFFFFFFFFFFFFFFFFFFFFF AND MUL OR SWAP1 SSTORE POP POP PUSH2 0x13F JUMP JUMPDEST POP JUMP JUMPDEST PUSH1 0x0 DUP1 REVERT JUMPDEST PUSH1 0x0 PUSH20 0xFFFFFFFFFFFFFFFFFFFFFFFFFFFFFFFFFFFFFFFF DUP3 AND SWAP1 POP SWAP2 SWAP1 POP JUMP JUMPDEST PUSH1 0x0 PUSH2 0xDF DUP3 PUSH2 0xB4 JUMP JUMPDEST SWAP1 POP SWAP2 SWAP1 POP JUMP JUMPDEST PUSH2 0xEF DUP2 PUSH2 0xD4 JUMP JUMPDEST DUP2 EQ PUSH2 0xFA JUMPI PUSH1 0x0 DUP1 REVERT JUMPDEST POP JUMP JUMPDEST PUSH1 0x0 DUP2 MLOAD SWAP1 POP PUSH2 0x10C DUP2 PUSH2 0xE6 JUMP JUMPDEST SWAP3 SWAP2 POP POP JUMP JUMPDEST PUSH1 0x0 PUSH1 0x20 DUP3 DUP5 SUB SLT ISZERO PUSH2 0x128 JUMPI PUSH2 0x127 PUSH2 0xAF JUMP JUMPDEST JUMPDEST PUSH1 0x0 PUSH2 0x136 DUP5 DUP3 DUP6 ADD PUSH2 0xFD JUMP JUMPDEST SWAP2 POP POP SWAP3 SWAP2 POP POP JUMP JUMPDEST PUSH2 0x2EAD DUP1 PUSH2 0x14E PUSH1 0x0 CODECOPY PUSH1 0x0 RETURN INVALID PUSH1 0x80 PUSH1 0x40 MSTORE CALLVALUE DUP1 ISZERO PUSH2 0x10 JUMPI PUSH1 0x0 DUP1 REVERT JUMPDEST POP PUSH1 0x4 CALLDATASIZE LT PUSH2 0xB3 JUMPI PUSH1 0x0 CALLDATALOAD PUSH1 0xE0 SHR DUP1 PUSH4 0xBB0E12E7 GT PUSH2 0x71 JUMPI DUP1 PUSH4 0xBB0E12E7 EQ PUSH2 0x1A0 JUMPI DUP1 PUSH4 0xD11D498B EQ PUSH2 0x1D2 JUMPI DUP1 PUSH4 0xE985E9C5 EQ PUSH2 0x1EE JUMPI DUP1 PUSH4 0xF242432A EQ PUSH2 0x21E JUMPI DUP1 PUSH4 0xF5298ACA EQ PUSH2 0x23A JUMPI DUP1 PUSH4 0xF851A440 EQ PUSH2 0x256 JUMPI PUSH2 0xB3 JUMP JUMPDEST DUP1 PUSH3 0xFDD58E EQ PUSH2 0xB8 JUMPI DUP1 PUSH4 0x107046BD EQ PUSH2 0xE8 JUMPI DUP1 PUSH4 0x2579C24D EQ PUSH2 0x11C JUMPI DUP1 PUSH4 0x3EA0FB13 EQ PUSH2 0x14C JUMPI DUP1 PUSH4 0x82D26B17 EQ PUSH2 0x168 JUMPI DUP1 PUSH4 0xA22CB465 EQ PUSH2 0x184 JUMPI JUMPDEST PUSH1 0x0 DUP1 REVERT JUMPDEST PUSH2 0xD2 PUSH1 0x4 DUP1 CALLDATASIZE SUB DUP2 ADD SWAP1 PUSH2 0xCD SWAP2 SWAP1 PUSH2 0x1CF8 JUMP JUMPDEST PUSH2 0x274 JUMP JUMPDEST PUSH1 0x40 MLOAD PUSH2 0xDF SWAP2 SWAP1 PUSH2 0x1D47 JUMP JUMPDEST PUSH1 0x40 MLOAD DUP1 SWAP2 SUB SWAP1 RETURN JUMPDEST PUSH2 0x102 PUSH1 0x4 DUP1 CALLDATASIZE SUB DUP2 ADD SWAP1 PUSH2 0xFD SWAP2 SWAP1 PUSH2 0x1D62 JUMP JUMPDEST PUSH2 0x30B JUMP JUMPDEST PUSH1 0x40 MLOAD PUSH2 0x113 SWAP6 SWAP5 SWAP4 SWAP3 SWAP2 SWAP1 PUSH2 0x1EBE JUMP JUMPDEST PUSH1 0x40 MLOAD DUP1 SWAP2 SUB SWAP1 RETURN JUMPDEST PUSH2 0x136 PUSH1 0x4 DUP1 CALLDATASIZE SUB DUP2 ADD SWAP1 PUSH2 0x131 SWAP2 SWAP1 PUSH2 0x2079 JUMP JUMPDEST PUSH2 0x416 JUMP JUMPDEST PUSH1 0x40 MLOAD PUSH2 0x143 SWAP2 SWAP1 PUSH2 0x1D47 JUMP JUMPDEST PUSH1 0x40 MLOAD DUP1 SWAP2 SUB SWAP1 RETURN JUMPDEST PUSH2 0x166 PUSH1 0x4 DUP1 CALLDATASIZE SUB DUP2 ADD SWAP1 PUSH2 0x161 SWAP2 SWAP1 PUSH2 0x20E8 JUMP JUMPDEST PUSH2 0x752 JUMP JUMPDEST STOP JUMPDEST PUSH2 0x182 PUSH1 0x4 DUP1 CALLDATASIZE SUB DUP2 ADD SWAP1 PUSH2 0x17D SWAP2 SWAP1 PUSH2 0x2128 JUMP JUMPDEST PUSH2 0xA14 JUMP JUMPDEST STOP JUMPDEST PUSH2 0x19E PUSH1 0x4 DUP1 CALLDATASIZE SUB DUP2 ADD SWAP1 PUSH2 0x199 SWAP2 SWAP1 PUSH2 0x21B3 JUMP JUMPDEST PUSH2 0xD6B JUMP JUMPDEST STOP JUMPDEST PUSH2 0x1BA PUSH1 0x4 DUP1 CALLDATASIZE SUB DUP2 ADD SWAP1 PUSH2 0x1B5 SWAP2 SWAP1 PUSH2 0x1D62 JUMP JUMPDEST PUSH2 0xEB8 JUMP JUMPDEST PUSH1 0x40 MLOAD PUSH2 0x1C9 SWAP4 SWAP3 SWAP2 SWAP1 PUSH2 0x21F3 JUMP JUMPDEST PUSH1 0x40 MLOAD DUP1 SWAP2 SUB SWAP1 RETURN JUMPDEST PUSH2 0x1EC PUSH1 0x4 DUP1 CALLDATASIZE SUB DUP2 ADD SWAP1 PUSH2 0x1E7 SWAP2 SWAP1 PUSH2 0x224F JUMP JUMPDEST PUSH2 0xEE2 JUMP JUMPDEST STOP JUMPDEST PUSH2 0x208 PUSH1 0x4 DUP1 CALLDATASIZE SUB DUP2 ADD SWAP1 PUSH2 0x203 SWAP2 SWAP1 PUSH2 0x228F JUMP JUMPDEST PUSH2 0x11CF JUMP JUMPDEST PUSH1 0x40 MLOAD PUSH2 0x215 SWAP2 SWAP1 PUSH2 0x22DE JUMP JUMPDEST PUSH1 0x40 MLOAD DUP1 SWAP2 SUB SWAP1 RETURN JUMPDEST PUSH2 0x238 PUSH1 0x4 DUP1 CALLDATASIZE SUB DUP2 ADD SWAP1 PUSH2 0x233 SWAP2 SWAP1 PUSH2 0x239A JUMP JUMPDEST PUSH2 0x129F JUMP JUMPDEST STOP JUMPDEST PUSH2 0x254 PUSH1 0x4 DUP1 CALLDATASIZE SUB DUP2 ADD SWAP1 PUSH2 0x24F SWAP2 SWAP1 PUSH2 0x2431 JUMP JUMPDEST PUSH2 0x16FF JUMP JUMPDEST STOP JUMPDEST PUSH2 0x25E PUSH2 0x1A24 JUMP JUMPDEST PUSH1 0x40 MLOAD PUSH2 0x26B SWAP2 SWAP1 PUSH2 0x2484 JUMP JUMPDEST PUSH1 0x40 MLOAD DUP1 SWAP2 SUB SWAP1 RETURN JUMPDEST PUSH1 0x0 PUSH2 0x28A PUSH8 0xA99C0BE114234C95 PUSH1 0xC0 SHL PUSH2 0x1A48 JUMP JUMPDEST PUSH2 0x29E PUSH8 0x9286876E35A62A6E PUSH1 0xC0 SHL PUSH2 0x1A48 JUMP JUMPDEST PUSH2 0x2B2 PUSH8 0xC91AAB288ED10013 PUSH1 0xC0 SHL PUSH2 0x1A48 JUMP JUMPDEST PUSH1 0x5 PUSH1 0x0 DUP4 DUP2 MSTORE PUSH1 0x20 ADD SWAP1 DUP2 MSTORE PUSH1 0x20 ADD PUSH1 0x0 KECCAK256 PUSH1 0x0 DUP5 PUSH20 0xFFFFFFFFFFFFFFFFFFFFFFFFFFFFFFFFFFFFFFFF AND PUSH20 0xFFFFFFFFFFFFFFFFFFFFFFFFFFFFFFFFFFFFFFFF AND DUP2 MSTORE PUSH1 0x20 ADD SWAP1 DUP2 MSTORE PUSH1 0x20 ADD PUSH1 0x0 KECCAK256 SLOAD SWAP1 POP SWAP3 SWAP2 POP POP JUMP JUMPDEST PUSH1 0x1 PUSH1 0x20 MSTORE DUP1 PUSH1 0x0 MSTORE PUSH1 0x40 PUSH1 0x0 KECCAK256 PUSH1 0x0 SWAP2 POP SWAP1 POP DUP1 PUSH1 0x0 ADD PUSH1 0x0 SWAP1 SLOAD SWAP1 PUSH2 0x100 EXP SWAP1 DIV PUSH20 0xFFFFFFFFFFFFFFFFFFFFFFFFFFFFFFFFFFFFFFFF AND SWAP1 DUP1 PUSH1 0x1 ADD PUSH1 0x0 SWAP1 SLOAD SWAP1 PUSH2 0x100 EXP SWAP1 DIV PUSH20 0xFFFFFFFFFFFFFFFFFFFFFFFFFFFFFFFFFFFFFFFF AND SWAP1 DUP1 PUSH1 0x2 ADD DUP1 SLOAD PUSH2 0x37A SWAP1 PUSH2 0x24CE JUMP JUMPDEST DUP1 PUSH1 0x1F ADD PUSH1 0x20 DUP1 SWAP2 DIV MUL PUSH1 0x20 ADD PUSH1 0x40 MLOAD SWAP1 DUP2 ADD PUSH1 0x40 MSTORE DUP1 SWAP3 SWAP2 SWAP1 DUP2 DUP2 MSTORE PUSH1 0x20 ADD DUP3 DUP1 SLOAD PUSH2 0x3A6 SWAP1 PUSH2 0x24CE JUMP JUMPDEST DUP1 ISZERO PUSH2 0x3F3 JUMPI DUP1 PUSH1 0x1F LT PUSH2 0x3C8 JUMPI PUSH2 0x100 DUP1 DUP4 SLOAD DIV MUL DUP4 MSTORE SWAP2 PUSH1 0x20 ADD SWAP2 PUSH2 0x3F3 JUMP JUMPDEST DUP3 ADD SWAP2 SWAP1 PUSH1 0x0 MSTORE PUSH1 0x20 PUSH1 0x0 KECCAK256 SWAP1 JUMPDEST DUP2 SLOAD DUP2 MSTORE SWAP1 PUSH1 0x1 ADD SWAP1 PUSH1 0x20 ADD DUP1 DUP4 GT PUSH2 0x3D6 JUMPI DUP3 SWAP1 SUB PUSH1 0x1F AND DUP3 ADD SWAP2 JUMPDEST POP POP POP POP POP SWAP1 DUP1 PUSH1 0x3 ADD SLOAD SWAP1 DUP1 PUSH1 0x4 ADD PUSH1 0x0 SWAP1 SLOAD SWAP1 PUSH2 0x100 EXP SWAP1 DIV PUSH1 0xFF AND SWAP1 POP DUP6 JUMP JUMPDEST PUSH1 0x0 PUSH2 0x42C PUSH8 0x4FD83297B3B09659 PUSH1 0xC0 SHL PUSH2 0x1A48 JUMP JUMPDEST PUSH2 0x440 PUSH8 0xBE90B1FAF4C37DCA PUSH1 0xC0 SHL PUSH2 0x1A48 JUMP JUMPDEST PUSH2 0x454 PUSH8 0xBA97BC0A06C4EF8A PUSH1 0xC0 SHL PUSH2 0x1A48 JUMP JUMPDEST PUSH2 0x468 PUSH8 0x81C92B17D222D62F PUSH1 0xC0 SHL PUSH2 0x1A48 JUMP JUMPDEST PUSH1 0x0 PUSH20 0xFFFFFFFFFFFFFFFFFFFFFFFFFFFFFFFFFFFFFFFF AND DUP5 PUSH20 0xFFFFFFFFFFFFFFFFFFFFFFFFFFFFFFFFFFFFFFFF AND SUB PUSH2 0x4D7 JUMPI PUSH1 0x40 MLOAD PUSH32 0x8C379A000000000000000000000000000000000000000000000000000000000 DUP2 MSTORE PUSH1 0x4 ADD PUSH2 0x4CE SWAP1 PUSH2 0x2571 JUMP JUMPDEST PUSH1 0x40 MLOAD DUP1 SWAP2 SUB SWAP1 REVERT JUMPDEST PUSH2 0x4EB PUSH8 0x4CC56BED49CC37C2 PUSH1 0xC0 SHL PUSH2 0x1A48 JUMP JUMPDEST PUSH2 0x4FF PUSH8 0x6A1BCE96499B6DE4 PUSH1 0xC0 SHL PUSH2 0x1A48 JUMP JUMPDEST PUSH2 0x513 PUSH8 0xB48EFE055784CC56 PUSH1 0xC0 SHL PUSH2 0x1A48 JUMP JUMPDEST PUSH1 0x0 PUSH1 0x2 PUSH1 0x0 DUP2 SLOAD DUP1 SWAP3 SWAP2 SWAP1 PUSH2 0x528 SWAP1 PUSH2 0x25C0 JUMP JUMPDEST SWAP2 SWAP1 POP SSTORE SWAP1 POP PUSH2 0x542 PUSH8 0x2FBBC4C75D8B73B1 PUSH1 0xC0 SHL PUSH2 0x1A48 JUMP JUMPDEST PUSH1 0x40 MLOAD DUP1 PUSH1 0xA0 ADD PUSH1 0x40 MSTORE DUP1 CALLER PUSH20 0xFFFFFFFFFFFFFFFFFFFFFFFFFFFFFFFFFFFFFFFF AND DUP2 MSTORE PUSH1 0x20 ADD DUP7 PUSH20 0xFFFFFFFFFFFFFFFFFFFFFFFFFFFFFFFFFFFFFFFF AND DUP2 MSTORE PUSH1 0x20 ADD DUP6 DUP2 MSTORE PUSH1 0x20 ADD DUP5 DUP2 MSTORE PUSH1 0x20 ADD PUSH1 0x0 PUSH1 0x2 DUP2 GT ISZERO PUSH2 0x5A5 JUMPI PUSH2 0x5A4 PUSH2 0x1E47 JUMP JUMPDEST JUMPDEST DUP2 MSTORE POP PUSH1 0x1 PUSH1 0x0 DUP4 DUP2 MSTORE PUSH1 0x20 ADD SWAP1 DUP2 MSTORE PUSH1 0x20 ADD PUSH1 0x0 KECCAK256 PUSH1 0x0 DUP3 ADD MLOAD DUP2 PUSH1 0x0 ADD PUSH1 0x0 PUSH2 0x100 EXP DUP2 SLOAD DUP2 PUSH20 0xFFFFFFFFFFFFFFFFFFFFFFFFFFFFFFFFFFFFFFFF MUL NOT AND SWAP1 DUP4 PUSH20 0xFFFFFFFFFFFFFFFFFFFFFFFFFFFFFFFFFFFFFFFF AND MUL OR SWAP1 SSTORE POP PUSH1 0x20 DUP3 ADD MLOAD DUP2 PUSH1 0x1 ADD PUSH1 0x0 PUSH2 0x100 EXP DUP2 SLOAD DUP2 PUSH20 0xFFFFFFFFFFFFFFFFFFFFFFFFFFFFFFFFFFFFFFFF MUL NOT AND SWAP1 DUP4 PUSH20 0xFFFFFFFFFFFFFFFFFFFFFFFFFFFFFFFFFFFFFFFF AND MUL OR SWAP1 SSTORE POP PUSH1 0x40 DUP3 ADD MLOAD DUP2 PUSH1 0x2 ADD SWAP1 DUP2 PUSH2 0x65E SWAP2 SWAP1 PUSH2 0x27B4 JUMP JUMPDEST POP PUSH1 0x60 DUP3 ADD MLOAD DUP2 PUSH1 0x3 ADD SSTORE PUSH1 0x80 DUP3 ADD MLOAD DUP2 PUSH1 0x4 ADD PUSH1 0x0 PUSH2 0x100 EXP DUP2 SLOAD DUP2 PUSH1 0xFF MUL NOT AND SWAP1 DUP4 PUSH1 0x2 DUP2 GT ISZERO PUSH2 0x694 JUMPI PUSH2 0x693 PUSH2 0x1E47 JUMP JUMPDEST JUMPDEST MUL OR SWAP1 SSTORE POP SWAP1 POP POP PUSH2 0x6B0 PUSH8 0x615368ED59400D8C PUSH1 0xC0 SHL PUSH2 0x1A48 JUMP JUMPDEST PUSH2 0x6C4 PUSH8 0xBAA905ADD9CE0130 PUSH1 0xC0 SHL PUSH2 0x1A48 JUMP JUMPDEST DUP5 PUSH20 0xFFFFFFFFFFFFFFFFFFFFFFFFFFFFFFFFFFFFFFFF AND CALLER PUSH20 0xFFFFFFFFFFFFFFFFFFFFFFFFFFFFFFFFFFFFFFFF AND DUP3 PUSH32 0x7024D444707BCD36A8B0A076E120D984B0F8431DC1AA0513F728193D34A630DD PUSH1 0x40 MLOAD PUSH1 0x40 MLOAD DUP1 SWAP2 SUB SWAP1 LOG4 PUSH2 0x733 PUSH8 0xA0CC6B16BB790B85 PUSH1 0xC0 SHL PUSH2 0x1A48 JUMP JUMPDEST PUSH2 0x747 PUSH8 0xC667DD8B1FCB26FF PUSH1 0xC0 SHL PUSH2 0x1A48 JUMP JUMPDEST DUP1 SWAP2 POP POP SWAP4 SWAP3 POP POP POP JUMP JUMPDEST PUSH2 0x766 PUSH8 0xF959DEB4F42B1AA9 PUSH1 0xC0 SHL PUSH2 0x1A48 JUMP JUMPDEST PUSH2 0x77A PUSH8 0x6E9D1E3A7FF8C395 PUSH1 0xC0 SHL PUSH2 0x1A48 JUMP JUMPDEST PUSH2 0x78E PUSH8 0x6A723E419DAAFE03 PUSH1 0xC0 SHL PUSH2 0x1A48 JUMP JUMPDEST PUSH1 0x0 CALLER SWAP1 POP PUSH2 0x7A7 PUSH8 0x283706107C7A53A4 PUSH1 0xC0 SHL PUSH2 0x1A48 JUMP JUMPDEST PUSH2 0x7BB PUSH8 0xB53C90162624D04E PUSH1 0xC0 SHL PUSH2 0x1A48 JUMP JUMPDEST PUSH2 0x7CF PUSH8 0xFB7B67FD6D17133A PUSH1 0xC0 SHL PUSH2 0x1A48 JUMP JUMPDEST DUP2 PUSH1 0x5 PUSH1 0x0 DUP6 DUP2 MSTORE PUSH1 0x20 ADD SWAP1 DUP2 MSTORE PUSH1 0x20 ADD PUSH1 0x0 KECCAK256 PUSH1 0x0 DUP4 PUSH20 0xFFFFFFFFFFFFFFFFFFFFFFFFFFFFFFFFFFFFFFFF AND PUSH20 0xFFFFFFFFFFFFFFFFFFFFFFFFFFFFFFFFFFFFFFFF AND DUP2 MSTORE PUSH1 0x20 ADD SWAP1 DUP2 MSTORE PUSH1 0x20 ADD PUSH1 0x0 KECCAK256 SLOAD LT ISZERO PUSH2 0x862 JUMPI PUSH1 0x40 MLOAD PUSH32 0x8C379A000000000000000000000000000000000000000000000000000000000 DUP2 MSTORE PUSH1 0x4 ADD PUSH2 0x859 SWAP1 PUSH2 0x28F8 JUMP JUMPDEST PUSH1 0x40 MLOAD DUP1 SWAP2 SUB SWAP1 REVERT JUMPDEST PUSH2 0x876 PUSH8 0xEA4C80FD87F4CBD PUSH1 0xC0 SHL PUSH2 0x1A48 JUMP JUMPDEST PUSH2 0x88A PUSH8 0x225E6791CC706FDC PUSH1 0xC0 SHL PUSH2 0x1A48 JUMP JUMPDEST DUP2 PUSH1 0x5 PUSH1 0x0 DUP6 DUP2 MSTORE PUSH1 0x20 ADD SWAP1 DUP2 MSTORE PUSH1 0x20 ADD PUSH1 0x0 KECCAK256 PUSH1 0x0 DUP4 PUSH20 0xFFFFFFFFFFFFFFFFFFFFFFFFFFFFFFFFFFFFFFFF AND PUSH20 0xFFFFFFFFFFFFFFFFFFFFFFFFFFFFFFFFFFFFFFFF AND DUP2 MSTORE PUSH1 0x20 ADD SWAP1 DUP2 MSTORE PUSH1 0x20 ADD PUSH1 0x0 KECCAK256 PUSH1 0x0 DUP3 DUP3 SLOAD PUSH2 0x8EA SWAP2 SWAP1 PUSH2 0x2918 JUMP JUMPDEST SWAP3 POP POP DUP2 SWAP1 SSTORE POP PUSH2 0x905 PUSH8 0x4B5DCD5536A4E7DF PUSH1 0xC0 SHL PUSH2 0x1A48 JUMP JUMPDEST PUSH2 0x919 PUSH8 0x4D4C01D121332007 PUSH1 0xC0 SHL PUSH2 0x1A48 JUMP JUMPDEST PUSH1 0x0 PUSH20 0xFFFFFFFFFFFFFFFFFFFFFFFFFFFFFFFFFFFFFFFF AND DUP2 PUSH20 0xFFFFFFFFFFFFFFFFFFFFFFFFFFFFFFFFFFFFFFFF AND DUP3 PUSH20 0xFFFFFFFFFFFFFFFFFFFFFFFFFFFFFFFFFFFFFFFF AND PUSH32 0xC3D58168C5AE7397731D063D5BBF3D657854427343F4C083240F7AACAA2D0F62 DUP7 DUP7 PUSH1 0x40 MLOAD PUSH2 0x990 SWAP3 SWAP2 SWAP1 PUSH2 0x294C JUMP JUMPDEST PUSH1 0x40 MLOAD DUP1 SWAP2 SUB SWAP1 LOG4 PUSH2 0x9AC PUSH8 0x227B9787C2FA9730 PUSH1 0xC0 SHL PUSH2 0x1A48 JUMP JUMPDEST PUSH2 0x9C0 PUSH8 0x25596B2B421C07B4 PUSH1 0xC0 SHL PUSH2 0x1A48 JUMP JUMPDEST DUP1 PUSH20 0xFFFFFFFFFFFFFFFFFFFFFFFFFFFFFFFFFFFFFFFF AND DUP4 PUSH32 0x31995D78296D80EC997704A03D4E6295C44E8755E8117523FB44BF086C306DCB DUP5 PUSH1 0x40 MLOAD PUSH2 0xA07 SWAP2 SWAP1 PUSH2 0x1D47 JUMP JUMPDEST PUSH1 0x40 MLOAD DUP1 SWAP2 SUB SWAP1 LOG3 POP POP POP JUMP JUMPDEST PUSH2 0xA28 PUSH8 0xD49D25D2D400F8E0 PUSH1 0xC0 SHL PUSH2 0x1A48 JUMP JUMPDEST PUSH2 0xA3C PUSH8 0x72E0ACDD3131F51D PUSH1 0xC0 SHL PUSH2 0x1A48 JUMP JUMPDEST PUSH2 0xA50 PUSH8 0x3F7AB279E8DEA6BF PUSH1 0xC0 SHL PUSH2 0x1A48 JUMP JUMPDEST PUSH1 0x0 PUSH1 0x1 PUSH1 0x0 DUP6 DUP2 MSTORE PUSH1 0x20 ADD SWAP1 DUP2 MSTORE PUSH1 0x20 ADD PUSH1 0x0 KECCAK256 SWAP1 POP PUSH2 0xA7B PUSH8 0x6A725B443588FEA2 PUSH1 0xC0 SHL PUSH2 0x1A48 JUMP JUMPDEST PUSH2 0xA8F PUSH8 0x45D462A8105ADEBD PUSH1 0xC0 SHL PUSH2 0x1A48 JUMP JUMPDEST PUSH2 0xAA3 PUSH8 0x8F45E0805F3F699C PUSH1 0xC0 SHL PUSH2 0x1A48 JUMP JUMPDEST PUSH1 0x1 PUSH1 0x2 DUP2 GT ISZERO PUSH2 0xAB7 JUMPI PUSH2 0xAB6 PUSH2 0x1E47 JUMP JUMPDEST JUMPDEST DUP2 PUSH1 0x4 ADD PUSH1 0x0 SWAP1 SLOAD SWAP1 PUSH2 0x100 EXP SWAP1 DIV PUSH1 0xFF AND PUSH1 0x2 DUP2 GT ISZERO PUSH2 0xADB JUMPI PUSH2 0xADA PUSH2 0x1E47 JUMP JUMPDEST JUMPDEST EQ PUSH2 0xB1B JUMPI PUSH1 0x40 MLOAD PUSH32 0x8C379A000000000000000000000000000000000000000000000000000000000 DUP2 MSTORE PUSH1 0x4 ADD PUSH2 0xB12 SWAP1 PUSH2 0x29C1 JUMP JUMPDEST PUSH1 0x40 MLOAD DUP1 SWAP2 SUB SWAP1 REVERT JUMPDEST PUSH2 0xB2F PUSH8 0xDFE4CDB7720C43BC PUSH1 0xC0 SHL PUSH2 0x1A48 JUMP JUMPDEST PUSH2 0xB43 PUSH8 0x42466DB1828FC53E PUSH1 0xC0 SHL PUSH2 0x1A48 JUMP JUMPDEST PUSH2 0xB57 PUSH8 0x557AC2B3F07E5EBB PUSH1 0xC0 SHL PUSH2 0x1A48 JUMP JUMPDEST PUSH2 0xB6B PUSH8 0x8B46D801CFD29EEF PUSH1 0xC0 SHL PUSH2 0x1A48 JUMP JUMPDEST DUP1 PUSH1 0x1 ADD PUSH1 0x0 SWAP1 SLOAD SWAP1 PUSH2 0x100 EXP SWAP1 DIV PUSH20 0xFFFFFFFFFFFFFFFFFFFFFFFFFFFFFFFFFFFFFFFF AND PUSH20 0xFFFFFFFFFFFFFFFFFFFFFFFFFFFFFFFFFFFFFFFF AND CALLER PUSH20 0xFFFFFFFFFFFFFFFFFFFFFFFFFFFFFFFFFFFFFFFF AND EQ PUSH2 0xBFD JUMPI PUSH1 0x40 MLOAD PUSH32 0x8C379A000000000000000000000000000000000000000000000000000000000 DUP2 MSTORE PUSH1 0x4 ADD PUSH2 0xBF4 SWAP1 PUSH2 0x2A53 JUMP JUMPDEST PUSH1 0x40 MLOAD DUP1 SWAP2 SUB SWAP1 REVERT JUMPDEST PUSH2 0xC11 PUSH8 0x568C4498D2BF70E9 PUSH1 0xC0 SHL PUSH2 0x1A48 JUMP JUMPDEST PUSH2 0xC25 PUSH8 0xD071CBA8341520CD PUSH1 0xC0 SHL PUSH2 0x1A48 JUMP JUMPDEST PUSH2 0xC39 PUSH8 0x414D089CB6C3F519 PUSH1 0xC0 SHL PUSH2 0x1A48 JUMP JUMPDEST PUSH1 0x0 PUSH1 0x4 PUSH1 0x0 DUP2 SLOAD DUP1 SWAP3 SWAP2 SWAP1 PUSH2 0xC4E SWAP1 PUSH2 0x25C0 JUMP JUMPDEST SWAP2 SWAP1 POP SSTORE SWAP1 POP PUSH2 0xC68 PUSH8 0x26E067E1869F863C PUSH1 0xC0 SHL PUSH2 0x1A48 JUMP JUMPDEST PUSH1 0x40 MLOAD DUP1 PUSH1 0x60 ADD PUSH1 0x40 MSTORE DUP1 DUP7 DUP2 MSTORE PUSH1 0x20 ADD TIMESTAMP DUP2 MSTORE PUSH1 0x20 ADD DUP5 DUP2 MSTORE POP PUSH1 0x3 PUSH1 0x0 DUP4 DUP2 MSTORE PUSH1 0x20 ADD SWAP1 DUP2 MSTORE PUSH1 0x20 ADD PUSH1 0x0 KECCAK256 PUSH1 0x0 DUP3 ADD MLOAD DUP2 PUSH1 0x0 ADD SSTORE PUSH1 0x20 DUP3 ADD MLOAD DUP2 PUSH1 0x1 ADD SSTORE PUSH1 0x40 DUP3 ADD MLOAD DUP2 PUSH1 0x2 ADD SSTORE SWAP1 POP POP PUSH2 0xCCB PUSH8 0x3AAEBA0A5BE273B6 PUSH1 0xC0 SHL PUSH2 0x1A48 JUMP JUMPDEST PUSH2 0xCDF PUSH8 0x4E7C6422FA814BA PUSH1 0xC0 SHL PUSH2 0x1A48 JUMP JUMPDEST PUSH2 0xCEA DUP5 DUP3 DUP6 PUSH2 0x1A4B JUMP JUMPDEST PUSH2 0xCFE PUSH8 0x7E0A1842EE4BB553 PUSH1 0xC0 SHL PUSH2 0x1A48 JUMP JUMPDEST PUSH2 0xD12 PUSH8 0xB0641E6082F1225E PUSH1 0xC0 SHL PUSH2 0x1A48 JUMP JUMPDEST CALLER PUSH20 0xFFFFFFFFFFFFFFFFFFFFFFFFFFFFFFFFFFFFFFFF AND DUP6 DUP3 PUSH32 0x1DC2EFF6065AE138F646DFC86E678C27BDCD906B084E71AA63FAF4BCB0EFE211 DUP8 DUP8 PUSH1 0x40 MLOAD PUSH2 0xD5C SWAP3 SWAP2 SWAP1 PUSH2 0x2A73 JUMP JUMPDEST PUSH1 0x40 MLOAD DUP1 SWAP2 SUB SWAP1 LOG4 POP POP POP POP POP JUMP JUMPDEST PUSH2 0xD7F PUSH8 0x8B1849DF87FA1D16 PUSH1 0xC0 SHL PUSH2 0x1A48 JUMP JUMPDEST PUSH2 0xD93 PUSH8 0x8EB24D76FE938DF8 PUSH1 0xC0 SHL PUSH2 0x1A48 JUMP JUMPDEST DUP1 PUSH1 0x6 PUSH1 0x0 CALLER PUSH20 0xFFFFFFFFFFFFFFFFFFFFFFFFFFFFFFFFFFFFFFFF AND PUSH20 0xFFFFFFFFFFFFFFFFFFFFFFFFFFFFFFFFFFFFFFFF AND DUP2 MSTORE PUSH1 0x20 ADD SWAP1 DUP2 MSTORE PUSH1 0x20 ADD PUSH1 0x0 KECCAK256 PUSH1 0x0 DUP5 PUSH20 0xFFFFFFFFFFFFFFFFFFFFFFFFFFFFFFFFFFFFFFFF AND PUSH20 0xFFFFFFFFFFFFFFFFFFFFFFFFFFFFFFFFFFFFFFFF AND DUP2 MSTORE PUSH1 0x20 ADD SWAP1 DUP2 MSTORE PUSH1 0x20 ADD PUSH1 0x0 KECCAK256 PUSH1 0x0 PUSH2 0x100 EXP DUP2 SLOAD DUP2 PUSH1 0xFF MUL NOT AND SWAP1 DUP4 ISZERO ISZERO MUL OR SWAP1 SSTORE POP PUSH2 0xE3B PUSH8 0xAAB570626D4B797E PUSH1 0xC0 SHL PUSH2 0x1A48 JUMP JUMPDEST PUSH2 0xE4F PUSH8 0x8A4CED68FBF598C7 PUSH1 0xC0 SHL PUSH2 0x1A48 JUMP JUMPDEST DUP2 PUSH20 0xFFFFFFFFFFFFFFFFFFFFFFFFFFFFFFFFFFFFFFFF AND CALLER PUSH20 0xFFFFFFFFFFFFFFFFFFFFFFFFFFFFFFFFFFFFFFFF AND PUSH32 0x17307EAB39AB6107E8899845AD3D59BD9653F200F220920489CA2B5937696C31 DUP4 PUSH1 0x40 MLOAD PUSH2 0xEAC SWAP2 SWAP1 PUSH2 0x22DE JUMP JUMPDEST PUSH1 0x40 MLOAD DUP1 SWAP2 SUB SWAP1 LOG3 POP POP JUMP JUMPDEST PUSH1 0x3 PUSH1 0x20 MSTORE DUP1 PUSH1 0x0 MSTORE PUSH1 0x40 PUSH1 0x0 KECCAK256 PUSH1 0x0 SWAP2 POP SWAP1 POP DUP1 PUSH1 0x0 ADD SLOAD SWAP1 DUP1 PUSH1 0x1 ADD SLOAD SWAP1 DUP1 PUSH1 0x2 ADD SLOAD SWAP1 POP DUP4 JUMP JUMPDEST PUSH2 0xEF6 PUSH8 0x69E620E547DE38A PUSH1 0xC0 SHL PUSH2 0x1A48 JUMP JUMPDEST PUSH2 0xF0A PUSH8 0x161EECA96641CBA5 PUSH1 0xC0 SHL PUSH2 0x1A48 JUMP JUMPDEST PUSH2 0xF1E PUSH8 0x785ADEDD996125D8 PUSH1 0xC0 SHL PUSH2 0x1A48 JUMP JUMPDEST PUSH2 0xF32 PUSH8 0x27B4C37022324E60 PUSH1 0xC0 SHL PUSH2 0x1A48 JUMP JUMPDEST PUSH2 0xF46 PUSH8 0x72552D1606C33ED1 PUSH1 0xC0 SHL PUSH2 0x1A48 JUMP JUMPDEST PUSH1 0x0 DUP1 SLOAD SWAP1 PUSH2 0x100 EXP SWAP1 DIV PUSH20 0xFFFFFFFFFFFFFFFFFFFFFFFFFFFFFFFFFFFFFFFF AND PUSH20 0xFFFFFFFFFFFFFFFFFFFFFFFFFFFFFFFFFFFFFFFF AND CALLER PUSH20 0xFFFFFFFFFFFFFFFFFFFFFFFFFFFFFFFFFFFFFFFF AND EQ PUSH2 0xFD4 JUMPI PUSH1 0x40 MLOAD PUSH32 0x8C379A000000000000000000000000000000000000000000000000000000000 DUP2 MSTORE PUSH1 0x4 ADD PUSH2 0xFCB SWAP1 PUSH2 0x2AE8 JUMP JUMPDEST PUSH1 0x40 MLOAD DUP1 SWAP2 SUB SWAP1 REVERT JUMPDEST PUSH2 0xFE8 PUSH8 0xF7DC2399D5C8AFC1 PUSH1 0xC0 SHL PUSH2 0x1A48 JUMP JUMPDEST PUSH2 0xFFC PUSH8 0x2CC2C4AE475483DB PUSH1 0xC0 SHL PUSH2 0x1A48 JUMP JUMPDEST PUSH2 0x1010 PUSH8 0xE19101374D8A772C PUSH1 0xC0 SHL PUSH2 0x1A48 JUMP JUMPDEST PUSH2 0x1024 PUSH8 0x13FCDB119E3316B4 PUSH1 0xC0 SHL PUSH2 0x1A48 JUMP JUMPDEST PUSH2 0x1038 PUSH8 0x41CF9D19884AE475 PUSH1 0xC0 SHL PUSH2 0x1A48 JUMP JUMPDEST PUSH2 0x104C PUSH8 0xFD63E34E51D104D8 PUSH1 0xC0 SHL PUSH2 0x1A48 JUMP JUMPDEST PUSH2 0x1060 PUSH8 0x15F996EF3E080439 PUSH1 0xC0 SHL PUSH2 0x1A48 JUMP JUMPDEST PUSH1 0x0 PUSH20 0xFFFFFFFFFFFFFFFFFFFFFFFFFFFFFFFFFFFFFFFF AND PUSH1 0x1 PUSH1 0x0 DUP5 DUP2 MSTORE PUSH1 0x20 ADD SWAP1 DUP2 MSTORE PUSH1 0x20 ADD PUSH1 0x0 KECCAK256 PUSH1 0x0 ADD PUSH1 0x0 SWAP1 SLOAD SWAP1 PUSH2 0x100 EXP SWAP1 DIV PUSH20 0xFFFFFFFFFFFFFFFFFFFFFFFFFFFFFFFFFFFFFFFF AND PUSH20 0xFFFFFFFFFFFFFFFFFFFFFFFFFFFFFFFFFFFFFFFF AND SUB PUSH2 0x1105 JUMPI PUSH1 0x40 MLOAD PUSH32 0x8C379A000000000000000000000000000000000000000000000000000000000 DUP2 MSTORE PUSH1 0x4 ADD PUSH2 0x10FC SWAP1 PUSH2 0x2B54 JUMP JUMPDEST PUSH1 0x40 MLOAD DUP1 SWAP2 SUB SWAP1 REVERT JUMPDEST PUSH2 0x1119 PUSH8 0xD7684F404758665A PUSH1 0xC0 SHL PUSH2 0x1A48 JUMP JUMPDEST PUSH2 0x112D PUSH8 0x5478333FE6D4BC86 PUSH1 0xC0 SHL PUSH2 0x1A48 JUMP JUMPDEST DUP1 PUSH1 0x1 PUSH1 0x0 DUP5 DUP2 MSTORE PUSH1 0x20 ADD SWAP1 DUP2 MSTORE PUSH1 0x20 ADD PUSH1 0x0 KECCAK256 PUSH1 0x4 ADD PUSH1 0x0 PUSH2 0x100 EXP DUP2 SLOAD DUP2 PUSH1 0xFF MUL NOT AND SWAP1 DUP4 PUSH1 0x2 DUP2 GT ISZERO PUSH2 0x1166 JUMPI PUSH2 0x1165 PUSH2 0x1E47 JUMP JUMPDEST JUMPDEST MUL OR SWAP1 SSTORE POP PUSH2 0x117F PUSH8 0x22FE788843EDA216 PUSH1 0xC0 SHL PUSH2 0x1A48 JUMP JUMPDEST PUSH2 0x1193 PUSH8 0x551926090427BE7E PUSH1 0xC0 SHL PUSH2 0x1A48 JUMP JUMPDEST DUP2 PUSH32 0x8FB6FDA973F304B2834C4147004045448416C05B253872373AC5B19F4A5B7A5D DUP3 PUSH1 0x40 MLOAD PUSH2 0x11C3 SWAP2 SWAP1 PUSH2 0x2B74 JUMP JUMPDEST PUSH1 0x40 MLOAD DUP1 SWAP2 SUB SWAP1 LOG2 POP POP JUMP JUMPDEST PUSH1 0x0 PUSH2 0x11E5 PUSH8 0x73020DAAA275062F PUSH1 0xC0 SHL PUSH2 0x1A48 JUMP JUMPDEST PUSH2 0x11F9 PUSH8 0x9E28B43BC70BB91C PUSH1 0xC0 SHL PUSH2 0x1A48 JUMP JUMPDEST PUSH2 0x120D PUSH8 0x2CF7EAC54ADC128B PUSH1 0xC0 SHL PUSH2 0x1A48 JUMP JUMPDEST PUSH1 0x6 PUSH1 0x0 DUP5 PUSH20 0xFFFFFFFFFFFFFFFFFFFFFFFFFFFFFFFFFFFFFFFF AND PUSH20 0xFFFFFFFFFFFFFFFFFFFFFFFFFFFFFFFFFFFFFFFF AND DUP2 MSTORE PUSH1 0x20 ADD SWAP1 DUP2 MSTORE PUSH1 0x20 ADD PUSH1 0x0 KECCAK256 PUSH1 0x0 DUP4 PUSH20 0xFFFFFFFFFFFFFFFFFFFFFFFFFFFFFFFFFFFFFFFF AND PUSH20 0xFFFFFFFFFFFFFFFFFFFFFFFFFFFFFFFFFFFFFFFF AND DUP2 MSTORE PUSH1 0x20 ADD SWAP1 DUP2 MSTORE PUSH1 0x20 ADD PUSH1 0x0 KECCAK256 PUSH1 0x0 SWAP1 SLOAD SWAP1 PUSH2 0x100 EXP SWAP1 DIV PUSH1 0xFF AND SWAP1 POP SWAP3 SWAP2 POP POP JUMP JUMPDEST PUSH2 0x12B3 PUSH8 0x338D57B0A646BEA PUSH1 0xC0 SHL PUSH2 0x1A48 JUMP JUMPDEST PUSH2 0x12C7 PUSH8 0xC179E86D7696E422 PUSH1 0xC0 SHL PUSH2 0x1A48 JUMP JUMPDEST PUSH2 0x12DB PUSH8 0x1B272548067809D6 PUSH1 0xC0 SHL PUSH2 0x1A48 JUMP JUMPDEST PUSH2 0x12EF PUSH8 0xE31A9D3FA91E5D4C PUSH1 0xC0 SHL PUSH2 0x1A48 JUMP JUMPDEST CALLER PUSH20 0xFFFFFFFFFFFFFFFFFFFFFFFFFFFFFFFFFFFFFFFF AND DUP6 PUSH20 0xFFFFFFFFFFFFFFFFFFFFFFFFFFFFFFFFFFFFFFFF AND EQ DUP1 ISZERO PUSH2 0x133A JUMPI POP PUSH2 0x1339 PUSH8 0xF11FFA9B983FC883 PUSH1 0xC0 SHL PUSH2 0x1C45 JUMP JUMPDEST JUMPDEST DUP1 PUSH2 0x1367 JUMPI POP PUSH2 0x134A DUP6 CALLER PUSH2 0x11CF JUMP JUMPDEST DUP1 ISZERO PUSH2 0x1366 JUMPI POP PUSH2 0x1365 PUSH8 0x4FBD30A111FFB696 PUSH1 0xC0 SHL PUSH2 0x1C45 JUMP JUMPDEST JUMPDEST JUMPDEST PUSH2 0x13A6 JUMPI PUSH1 0x40 MLOAD PUSH32 0x8C379A000000000000000000000000000000000000000000000000000000000 DUP2 MSTORE PUSH1 0x4 ADD PUSH2 0x139D SWAP1 PUSH2 0x2C01 JUMP JUMPDEST PUSH1 0x40 MLOAD DUP1 SWAP2 SUB SWAP1 REVERT JUMPDEST PUSH2 0x13BA PUSH8 0x25E6C372DE0139D9 PUSH1 0xC0 SHL PUSH2 0x1A48 JUMP JUMPDEST PUSH2 0x13CE PUSH8 0x8A711CB7770948E2 PUSH1 0xC0 SHL PUSH2 0x1A48 JUMP JUMPDEST PUSH2 0x13E2 PUSH8 0x96103C31A581D13B PUSH1 0xC0 SHL PUSH2 0x1A48 JUMP JUMPDEST PUSH2 0x13F6 PUSH8 0xAD95061BA8C805DA PUSH1 0xC0 SHL PUSH2 0x1A48 JUMP JUMPDEST PUSH1 0x0 PUSH20 0xFFFFFFFFFFFFFFFFFFFFFFFFFFFFFFFFFFFFFFFF AND DUP5 PUSH20 0xFFFFFFFFFFFFFFFFFFFFFFFFFFFFFFFFFFFFFFFF AND SUB PUSH2 0x1465 JUMPI PUSH1 0x40 MLOAD PUSH32 0x8C379A000000000000000000000000000000000000000000000000000000000 DUP2 MSTORE PUSH1 0x4 ADD PUSH2 0x145C SWAP1 PUSH2 0x2C93 JUMP JUMPDEST PUSH1 0x40 MLOAD DUP1 SWAP2 SUB SWAP1 REVERT JUMPDEST PUSH2 0x1479 PUSH8 0x1CFB20AC82931F01 PUSH1 0xC0 SHL PUSH2 0x1A48 JUMP JUMPDEST PUSH2 0x148D PUSH8 0xA3EE19A9843530DF PUSH1 0xC0 SHL PUSH2 0x1A48 JUMP JUMPDEST PUSH2 0x14A1 PUSH8 0x452B7DF9EB67592D PUSH1 0xC0 SHL PUSH2 0x1A48 JUMP JUMPDEST PUSH2 0x14B5 PUSH8 0xB721B58A6DEAD796 PUSH1 0xC0 SHL PUSH2 0x1A48 JUMP JUMPDEST DUP2 PUSH1 0x5 PUSH1 0x0 DUP6 DUP2 MSTORE PUSH1 0x20 ADD SWAP1 DUP2 MSTORE PUSH1 0x20 ADD PUSH1 0x0 KECCAK256 PUSH1 0x0 DUP8 PUSH20 0xFFFFFFFFFFFFFFFFFFFFFFFFFFFFFFFFFFFFFFFF AND PUSH20 0xFFFFFFFFFFFFFFFFFFFFFFFFFFFFFFFFFFFFFFFF AND DUP2 MSTORE PUSH1 0x20 ADD SWAP1 DUP2 MSTORE PUSH1 0x20 ADD PUSH1 0x0 KECCAK256 SLOAD LT ISZERO PUSH2 0x1548 JUMPI PUSH1 0x40 MLOAD PUSH32 0x8C379A000000000000000000000000000000000000000000000000000000000 DUP2 MSTORE PUSH1 0x4 ADD PUSH2 0x153F SWAP1 PUSH2 0x2CFF JUMP JUMPDEST PUSH1 0x40 MLOAD DUP1 SWAP2 SUB SWAP1 REVERT JUMPDEST PUSH2 0x155C PUSH8 0xA8F958B204479353 PUSH1 0xC0 SHL PUSH2 0x1A48 JUMP JUMPDEST PUSH2 0x1570 PUSH8 0x9525A5040919894D PUSH1 0xC0 SHL PUSH2 0x1A48 JUMP JUMPDEST DUP2 PUSH1 0x5 PUSH1 0x0 DUP6 DUP2 MSTORE PUSH1 0x20 ADD SWAP1 DUP2 MSTORE PUSH1 0x20 ADD PUSH1 0x0 KECCAK256 PUSH1 0x0 DUP8 PUSH20 0xFFFFFFFFFFFFFFFFFFFFFFFFFFFFFFFFFFFFFFFF AND PUSH20 0xFFFFFFFFFFFFFFFFFFFFFFFFFFFFFFFFFFFFFFFF AND DUP2 MSTORE PUSH1 0x20 ADD SWAP1 DUP2 MSTORE PUSH1 0x20 ADD PUSH1 0x0 KECCAK256 PUSH1 0x0 DUP3 DUP3 SLOAD PUSH2 0x15D0 SWAP2 SWAP1 PUSH2 0x2918 JUMP JUMPDEST SWAP3 POP POP DUP2 SWAP1 SSTORE POP PUSH2 0x15EB PUSH8 0xA8C75AD1044DB541 PUSH1 0xC0 SHL PUSH2 0x1A48 JUMP JUMPDEST DUP2 PUSH1 0x5 PUSH1 0x0 DUP6 DUP2 MSTORE PUSH1 0x20 ADD SWAP1 DUP2 MSTORE PUSH1 0x20 ADD PUSH1 0x0 KECCAK256 PUSH1 0x0 DUP7 PUSH20 0xFFFFFFFFFFFFFFFFFFFFFFFFFFFFFFFFFFFFFFFF AND PUSH20 0xFFFFFFFFFFFFFFFFFFFFFFFFFFFFFFFFFFFFFFFF AND DUP2 MSTORE PUSH1 0x20 ADD SWAP1 DUP2 MSTORE PUSH1 0x20 ADD PUSH1 0x0 KECCAK256 PUSH1 0x0 DUP3 DUP3 SLOAD PUSH2 0x164B SWAP2 SWAP1 PUSH2 0x2D1F JUMP JUMPDEST SWAP3 POP POP DUP2 SWAP1 SSTORE POP PUSH2 0x1666 PUSH8 0xA65A9175995584C5 PUSH1 0xC0 SHL PUSH2 0x1A48 JUMP JUMPDEST PUSH2 0x167A PUSH8 0xD08AED63BE9BDFEB PUSH1 0xC0 SHL PUSH2 0x1A48 JUMP JUMPDEST DUP4 PUSH20 0xFFFFFFFFFFFFFFFFFFFFFFFFFFFFFFFFFFFFFFFF AND DUP6 PUSH20 0xFFFFFFFFFFFFFFFFFFFFFFFFFFFFFFFFFFFFFFFF AND CALLER PUSH20 0xFFFFFFFFFFFFFFFFFFFFFFFFFFFFFFFFFFFFFFFF AND PUSH32 0xC3D58168C5AE7397731D063D5BBF3D657854427343F4C083240F7AACAA2D0F62 DUP7 DUP7 PUSH1 0x40 MLOAD PUSH2 0x16F0 SWAP3 SWAP2 SWAP1 PUSH2 0x294C JUMP JUMPDEST PUSH1 0x40 MLOAD DUP1 SWAP2 SUB SWAP1 LOG4 POP POP POP POP POP JUMP JUMPDEST PUSH2 0x1713 PUSH8 0x6FBDE5BB7EBC01A1 PUSH1 0xC0 SHL PUSH2 0x1A48 JUMP JUMPDEST PUSH2 0x1727 PUSH8 0x91EDBFA96A96E6B0 PUSH1 0xC0 SHL PUSH2 0x1A48 JUMP JUMPDEST PUSH2 0x173B PUSH8 0xC09CB4FF405D3990 PUSH1 0xC0 SHL PUSH2 0x1A48 JUMP JUMPDEST PUSH2 0x174F PUSH8 0x282521B7D6683AA1 PUSH1 0xC0 SHL PUSH2 0x1A48 JUMP JUMPDEST CALLER PUSH20 0xFFFFFFFFFFFFFFFFFFFFFFFFFFFFFFFFFFFFFFFF AND DUP4 PUSH20 0xFFFFFFFFFFFFFFFFFFFFFFFFFFFFFFFFFFFFFFFF AND EQ DUP1 ISZERO PUSH2 0x179A JUMPI POP PUSH2 0x1799 PUSH8 0xB79752AB4EE316A4 PUSH1 0xC0 SHL PUSH2 0x1C45 JUMP JUMPDEST JUMPDEST DUP1 PUSH2 0x17C7 JUMPI POP PUSH2 0x17AA DUP4 CALLER PUSH2 0x11CF JUMP JUMPDEST DUP1 ISZERO PUSH2 0x17C6 JUMPI POP PUSH2 0x17C5 PUSH8 0x7540615319FA7D3A PUSH1 0xC0 SHL PUSH2 0x1C45 JUMP JUMPDEST JUMPDEST JUMPDEST PUSH2 0x1806 JUMPI PUSH1 0x40 MLOAD PUSH32 0x8C379A000000000000000000000000000000000000000000000000000000000 DUP2 MSTORE PUSH1 0x4 ADD PUSH2 0x17FD SWAP1 PUSH2 0x2DC5 JUMP JUMPDEST PUSH1 0x40 MLOAD DUP1 SWAP2 SUB SWAP1 REVERT JUMPDEST PUSH2 0x181A PUSH8 0xCCA7AE4BB8DFE249 PUSH1 0xC0 SHL PUSH2 0x1A48 JUMP JUMPDEST PUSH2 0x182E PUSH8 0x7DD9EEB2E94CF94 PUSH1 0xC0 SHL PUSH2 0x1A48 JUMP JUMPDEST PUSH2 0x1842 PUSH8 0x3E6C4D8AD16B59B4 PUSH1 0xC0 SHL PUSH2 0x1A48 JUMP JUMPDEST PUSH2 0x1856 PUSH8 0xAE231A14DF328A0A PUSH1 0xC0 SHL PUSH2 0x1A48 JUMP JUMPDEST DUP1 PUSH1 0x5 PUSH1 0x0 DUP5 DUP2 MSTORE PUSH1 0x20 ADD SWAP1 DUP2 MSTORE PUSH1 0x20 ADD PUSH1 0x0 KECCAK256 PUSH1 0x0 DUP6 PUSH20 0xFFFFFFFFFFFFFFFFFFFFFFFFFFFFFFFFFFFFFFFF AND PUSH20 0xFFFFFFFFFFFFFFFFFFFFFFFFFFFFFFFFFFFFFFFF AND DUP2 MSTORE PUSH1 0x20 ADD SWAP1 DUP2 MSTORE PUSH1 0x20 ADD PUSH1 0x0 KECCAK256 SLOAD LT ISZERO PUSH2 0x18E9 JUMPI PUSH1 0x40 MLOAD PUSH32 0x8C379A000000000000000000000000000000000000000000000000000000000 DUP2 MSTORE PUSH1 0x4 ADD PUSH2 0x18E0 SWAP1 PUSH2 0x28F8 JUMP JUMPDEST PUSH1 0x40 MLOAD DUP1 SWAP2 SUB SWAP1 REVERT JUMPDEST PUSH2 0x18FD PUSH8 0xCA575B4074981579 PUSH1 0xC0 SHL PUSH2 0x1A48 JUMP JUMPDEST PUSH2 0x1911 PUSH8 0x2EB0E128FEA5337 PUSH1 0xC0 SHL PUSH2 0x1A48 JUMP JUMPDEST DUP1 PUSH1 0x5 PUSH1 0x0 DUP5 DUP2 MSTORE PUSH1 0x20 ADD SWAP1 DUP2 MSTORE PUSH1 0x20 ADD PUSH1 0x0 KECCAK256 PUSH1 0x0 DUP6 PUSH20 0xFFFFFFFFFFFFFFFFFFFFFFFFFFFFFFFFFFFFFFFF AND PUSH20 0xFFFFFFFFFFFFFFFFFFFFFFFFFFFFFFFFFFFFFFFF AND DUP2 MSTORE PUSH1 0x20 ADD SWAP1 DUP2 MSTORE PUSH1 0x20 ADD PUSH1 0x0 KECCAK256 PUSH1 0x0 DUP3 DUP3 SLOAD PUSH2 0x1971 SWAP2 SWAP1 PUSH2 0x2918 JUMP JUMPDEST SWAP3 POP POP DUP2 SWAP1 SSTORE POP PUSH2 0x198C PUSH8 0x31AC47D0D8701891 PUSH1 0xC0 SHL PUSH2 0x1A48 JUMP JUMPDEST PUSH2 0x19A0 PUSH8 0x148C5AD279BA27B4 PUSH1 0xC0 SHL PUSH2 0x1A48 JUMP JUMPDEST PUSH1 0x0 PUSH20 0xFFFFFFFFFFFFFFFFFFFFFFFFFFFFFFFFFFFFFFFF AND DUP4 PUSH20 0xFFFFFFFFFFFFFFFFFFFFFFFFFFFFFFFFFFFFFFFF AND CALLER PUSH20 0xFFFFFFFFFFFFFFFFFFFFFFFFFFFFFFFFFFFFFFFF AND PUSH32 0xC3D58168C5AE7397731D063D5BBF3D657854427343F4C083240F7AACAA2D0F62 DUP6 DUP6 PUSH1 0x40 MLOAD PUSH2 0x1A17 SWAP3 SWAP2 SWAP1 PUSH2 0x294C JUMP JUMPDEST PUSH1 0x40 MLOAD DUP1 SWAP2 SUB SWAP1 LOG4 POP POP POP JUMP JUMPDEST PUSH1 0x0 DUP1 SLOAD SWAP1 PUSH2 0x100 EXP SWAP1 DIV PUSH20 0xFFFFFFFFFFFFFFFFFFFFFFFFFFFFFFFFFFFFFFFF AND DUP2 JUMP JUMPDEST POP JUMP JUMPDEST PUSH2 0x1A5F PUSH8 0xECC11C92F62B56D5 PUSH1 0xC0 SHL PUSH2 0x1A48 JUMP JUMPDEST PUSH2 0x1A73 PUSH8 0x9E22F400B3CA3AB2 PUSH1 0xC0 SHL PUSH2 0x1A48 JUMP JUMPDEST PUSH2 0x1A87 PUSH8 0xFCE1BC320F1F79DE PUSH1 0xC0 SHL PUSH2 0x1A48 JUMP JUMPDEST PUSH2 0x1A9B PUSH8 0xF3588572B866F52B PUSH1 0xC0 SHL PUSH2 0x1A48 JUMP JUMPDEST PUSH1 0x0 PUSH20 0xFFFFFFFFFFFFFFFFFFFFFFFFFFFFFFFFFFFFFFFF AND DUP4 PUSH20 0xFFFFFFFFFFFFFFFFFFFFFFFFFFFFFFFFFFFFFFFF AND SUB PUSH2 0x1B0A JUMPI PUSH1 0x40 MLOAD PUSH32 0x8C379A000000000000000000000000000000000000000000000000000000000 DUP2 MSTORE PUSH1 0x4 ADD PUSH2 0x1B01 SWAP1 PUSH2 0x2E57 JUMP JUMPDEST PUSH1 0x40 MLOAD DUP1 SWAP2 SUB SWAP1 REVERT JUMPDEST PUSH2 0x1B1E PUSH8 0x6F5925032C6872CB PUSH1 0xC0 SHL PUSH2 0x1A48 JUMP JUMPDEST PUSH2 0x1B32 PUSH8 0x75F17EC6572154F9 PUSH1 0xC0 SHL PUSH2 0x1A48 JUMP JUMPDEST DUP1 PUSH1 0x5 PUSH1 0x0 DUP5 DUP2 MSTORE PUSH1 0x20 ADD SWAP1 DUP2 MSTORE PUSH1 0x20 ADD PUSH1 0x0 KECCAK256 PUSH1 0x0 DUP6 PUSH20 0xFFFFFFFFFFFFFFFFFFFFFFFFFFFFFFFFFFFFFFFF AND PUSH20 0xFFFFFFFFFFFFFFFFFFFFFFFFFFFFFFFFFFFFFFFF AND DUP2 MSTORE PUSH1 0x20 ADD SWAP1 DUP2 MSTORE PUSH1 0x20 ADD PUSH1 0x0 KECCAK256 PUSH1 0x0 DUP3 DUP3 SLOAD PUSH2 0x1B92 SWAP2 SWAP1 PUSH2 0x2D1F JUMP JUMPDEST SWAP3 POP POP DUP2 SWAP1 SSTORE POP PUSH2 0x1BAD PUSH8 0xD765F00BB019525C PUSH1 0xC0 SHL PUSH2 0x1A48 JUMP JUMPDEST PUSH2 0x1BC1 PUSH8 0xEDB3E55C43E0DB7C PUSH1 0xC0 SHL PUSH2 0x1A48 JUMP JUMPDEST DUP3 PUSH20 0xFFFFFFFFFFFFFFFFFFFFFFFFFFFFFFFFFFFFFFFF AND PUSH1 0x0 PUSH20 0xFFFFFFFFFFFFFFFFFFFFFFFFFFFFFFFFFFFFFFFF AND CALLER PUSH20 0xFFFFFFFFFFFFFFFFFFFFFFFFFFFFFFFFFFFFFFFF AND PUSH32 0xC3D58168C5AE7397731D063D5BBF3D657854427343F4C083240F7AACAA2D0F62 DUP6 DUP6 PUSH1 0x40 MLOAD PUSH2 0x1C38 SWAP3 SWAP2 SWAP1 PUSH2 0x294C JUMP JUMPDEST PUSH1 0x40 MLOAD DUP1 SWAP2 SUB SWAP1 LOG4 POP POP POP JUMP JUMPDEST PUSH1 0x0 PUSH1 0x1 SWAP1 POP SWAP2 SWAP1 POP JUMP JUMPDEST PUSH1 0x0 PUSH1 0x40 MLOAD SWAP1 POP SWAP1 JUMP JUMPDEST PUSH1 0x0 DUP1 REVERT JUMPDEST PUSH1 0x0 DUP1 REVERT JUMPDEST PUSH1 0x0 PUSH20 0xFFFFFFFFFFFFFFFFFFFFFFFFFFFFFFFFFFFFFFFF DUP3 AND SWAP1 POP SWAP2 SWAP1 POP JUMP JUMPDEST PUSH1 0x0 PUSH2 0x1C8F DUP3 PUSH2 0x1C64 JUMP JUMPDEST SWAP1 POP SWAP2 SWAP1 POP JUMP JUMPDEST PUSH2 0x1C9F DUP2 PUSH2 0x1C84 JUMP JUMPDEST DUP2 EQ PUSH2 0x1CAA JUMPI PUSH1 0x0 DUP1 REVERT JUMPDEST POP JUMP JUMPDEST PUSH1 0x0 DUP2 CALLDATALOAD SWAP1 POP PUSH2 0x1CBC DUP2 PUSH2 0x1C96 JUMP JUMPDEST SWAP3 SWAP2 POP POP JUMP JUMPDEST PUSH1 0x0 DUP2 SWAP1 POP SWAP2 SWAP1 POP JUMP JUMPDEST PUSH2 0x1CD5 DUP2 PUSH2 0x1CC2 JUMP JUMPDEST DUP2 EQ PUSH2 0x1CE0 JUMPI PUSH1 0x0 DUP1 REVERT JUMPDEST POP JUMP JUMPDEST PUSH1 0x0 DUP2 CALLDATALOAD SWAP1 POP PUSH2 0x1CF2 DUP2 PUSH2 0x1CCC JUMP JUMPDEST SWAP3 SWAP2 POP POP JUMP JUMPDEST PUSH1 0x0 DUP1 PUSH1 0x40 DUP4 DUP6 SUB SLT ISZERO PUSH2 0x1D0F JUMPI PUSH2 0x1D0E PUSH2 0x1C5A JUMP JUMPDEST JUMPDEST PUSH1 0x0 PUSH2 0x1D1D DUP6 DUP3 DUP7 ADD PUSH2 0x1CAD JUMP JUMPDEST SWAP3 POP POP PUSH1 0x20 PUSH2 0x1D2E DUP6 DUP3 DUP7 ADD PUSH2 0x1CE3 JUMP JUMPDEST SWAP2 POP POP SWAP3 POP SWAP3 SWAP1 POP JUMP JUMPDEST PUSH2 0x1D41 DUP2 PUSH2 0x1CC2 JUMP JUMPDEST DUP3 MSTORE POP POP JUMP JUMPDEST PUSH1 0x0 PUSH1 0x20 DUP3 ADD SWAP1 POP PUSH2 0x1D5C PUSH1 0x0 DUP4 ADD DUP5 PUSH2 0x1D38 JUMP JUMPDEST SWAP3 SWAP2 POP POP JUMP JUMPDEST PUSH1 0x0 PUSH1 0x20 DUP3 DUP5 SUB SLT ISZERO PUSH2 0x1D78 JUMPI PUSH2 0x1D77 PUSH2 0x1C5A JUMP JUMPDEST JUMPDEST PUSH1 0x0 PUSH2 0x1D86 DUP5 DUP3 DUP6 ADD PUSH2 0x1CE3 JUMP JUMPDEST SWAP2 POP POP SWAP3 SWAP2 POP POP JUMP JUMPDEST PUSH2 0x1D98 DUP2 PUSH2 0x1C84 JUMP JUMPDEST DUP3 MSTORE POP POP JUMP JUMPDEST PUSH1 0x0 DUP2 MLOAD SWAP1 POP SWAP2 SWAP1 POP JUMP JUMPDEST PUSH1 0x0 DUP3 DUP3 MSTORE PUSH1 0x20 DUP3 ADD SWAP1 POP SWAP3 SWAP2 POP POP JUMP JUMPDEST PUSH1 0x0 JUMPDEST DUP4 DUP2 LT ISZERO PUSH2 0x1DD8 JUMPI DUP1 DUP3 ADD MLOAD DUP2 DUP5 ADD MSTORE PUSH1 0x20 DUP2 ADD SWAP1 POP PUSH2 0x1DBD JUMP JUMPDEST PUSH1 0x0 DUP5 DUP5 ADD MSTORE POP POP POP POP JUMP JUMPDEST PUSH1 0x0 PUSH1 0x1F NOT PUSH1 0x1F DUP4 ADD AND SWAP1 POP SWAP2 SWAP1 POP JUMP JUMPDEST PUSH1 0x0 PUSH2 0x1E00 DUP3 PUSH2 0x1D9E JUMP JUMPDEST PUSH2 0x1E0A DUP2 DUP6 PUSH2 0x1DA9 JUMP JUMPDEST SWAP4 POP PUSH2 0x1E1A DUP2 DUP6 PUSH1 0x20 DUP7 ADD PUSH2 0x1DBA JUMP JUMPDEST PUSH2 0x1E23 DUP2 PUSH2 0x1DE4 JUMP JUMPDEST DUP5 ADD SWAP2 POP POP SWAP3 SWAP2 POP POP JUMP JUMPDEST PUSH1 0x0 DUP2 SWAP1 POP SWAP2 SWAP1 POP JUMP JUMPDEST PUSH2 0x1E41 DUP2 PUSH2 0x1E2E JUMP JUMPDEST DUP3 MSTORE POP POP JUMP JUMPDEST PUSH32 0x4E487B7100000000000000000000000000000000000000000000000000000000 PUSH1 0x0 MSTORE PUSH1 0x21 PUSH1 0x4 MSTORE PUSH1 0x24 PUSH1 0x0 REVERT JUMPDEST PUSH1 0x3 DUP2 LT PUSH2 0x1E87 JUMPI PUSH2 0x1E86 PUSH2 0x1E47 JUMP JUMPDEST JUMPDEST POP JUMP JUMPDEST PUSH1 0x0 DUP2 SWAP1 POP PUSH2 0x1E98 DUP3 PUSH2 0x1E76 JUMP JUMPDEST SWAP2 SWAP1 POP JUMP JUMPDEST PUSH1 0x0 PUSH2 0x1EA8 DUP3 PUSH2 0x1E8A JUMP JUMPDEST SWAP1 POP SWAP2 SWAP1 POP JUMP JUMPDEST PUSH2 0x1EB8 DUP2 PUSH2 0x1E9D JUMP JUMPDEST DUP3 MSTORE POP POP JUMP JUMPDEST PUSH1 0x0 PUSH1 0xA0 DUP3 ADD SWAP1 POP PUSH2 0x1ED3 PUSH1 0x0 DUP4 ADD DUP9 PUSH2 0x1D8F JUMP JUMPDEST PUSH2 0x1EE0 PUSH1 0x20 DUP4 ADD DUP8 PUSH2 0x1D8F JUMP JUMPDEST DUP2 DUP2 SUB PUSH1 0x40 DUP4 ADD MSTORE PUSH2 0x1EF2 DUP2 DUP7 PUSH2 0x1DF5 JUMP JUMPDEST SWAP1 POP PUSH2 0x1F01 PUSH1 0x60 DUP4 ADD DUP6 PUSH2 0x1E38 JUMP JUMPDEST PUSH2 0x1F0E PUSH1 0x80 DUP4 ADD DUP5 PUSH2 0x1EAF JUMP JUMPDEST SWAP7 SWAP6 POP POP POP POP POP POP JUMP JUMPDEST PUSH1 0x0 DUP1 REVERT JUMPDEST PUSH1 0x0 DUP1 REVERT JUMPDEST PUSH32 0x4E487B7100000000000000000000000000000000000000000000000000000000 PUSH1 0x0 MSTORE PUSH1 0x41 PUSH1 0x4 MSTORE PUSH1 0x24 PUSH1 0x0 REVERT JUMPDEST PUSH2 0x1F5A DUP3 PUSH2 0x1DE4 JUMP JUMPDEST DUP2 ADD DUP2 DUP2 LT PUSH8 0xFFFFFFFFFFFFFFFF DUP3 GT OR ISZERO PUSH2 0x1F79 JUMPI PUSH2 0x1F78 PUSH2 0x1F22 JUMP JUMPDEST JUMPDEST DUP1 PUSH1 0x40 MSTORE POP POP POP JUMP JUMPDEST PUSH1 0x0 PUSH2 0x1F8C PUSH2 0x1C50 JUMP JUMPDEST SWAP1 POP PUSH2 0x1F98 DUP3 DUP3 PUSH2 0x1F51 JUMP JUMPDEST SWAP2 SWAP1 POP JUMP JUMPDEST PUSH1 0x0 PUSH8 0xFFFFFFFFFFFFFFFF DUP3 GT ISZERO PUSH2 0x1FB8 JUMPI PUSH2 0x1FB7 PUSH2 0x1F22 JUMP JUMPDEST JUMPDEST PUSH2 0x1FC1 DUP3 PUSH2 0x1DE4 JUMP JUMPDEST SWAP1 POP PUSH1 0x20 DUP2 ADD SWAP1 POP SWAP2 SWAP1 POP JUMP JUMPDEST DUP3 DUP2 DUP4 CALLDATACOPY PUSH1 0x0 DUP4 DUP4 ADD MSTORE POP POP POP JUMP JUMPDEST PUSH1 0x0 PUSH2 0x1FF0 PUSH2 0x1FEB DUP5 PUSH2 0x1F9D JUMP JUMPDEST PUSH2 0x1F82 JUMP JUMPDEST SWAP1 POP DUP3 DUP2 MSTORE PUSH1 0x20 DUP2 ADD DUP5 DUP5 DUP5 ADD GT ISZERO PUSH2 0x200C JUMPI PUSH2 0x200B PUSH2 0x1F1D JUMP JUMPDEST JUMPDEST PUSH2 0x2017 DUP5 DUP3 DUP6 PUSH2 0x1FCE JUMP JUMPDEST POP SWAP4 SWAP3 POP POP POP JUMP JUMPDEST PUSH1 0x0 DUP3 PUSH1 0x1F DUP4 ADD SLT PUSH2 0x2034 JUMPI PUSH2 0x2033 PUSH2 0x1F18 JUMP JUMPDEST JUMPDEST DUP2 CALLDATALOAD PUSH2 0x2044 DUP5 DUP3 PUSH1 0x20 DUP7 ADD PUSH2 0x1FDD JUMP JUMPDEST SWAP2 POP POP SWAP3 SWAP2 POP POP JUMP JUMPDEST PUSH2 0x2056 DUP2 PUSH2 0x1E2E JUMP JUMPDEST DUP2 EQ PUSH2 0x2061 JUMPI PUSH1 0x0 DUP1 REVERT JUMPDEST POP JUMP JUMPDEST PUSH1 0x0 DUP2 CALLDATALOAD SWAP1 POP PUSH2 0x2073 DUP2 PUSH2 0x204D JUMP JUMPDEST SWAP3 SWAP2 POP POP JUMP JUMPDEST PUSH1 0x0 DUP1 PUSH1 0x0 PUSH1 0x60 DUP5 DUP7 SUB SLT ISZERO PUSH2 0x2092 JUMPI PUSH2 0x2091 PUSH2 0x1C5A JUMP JUMPDEST JUMPDEST PUSH1 0x0 PUSH2 0x20A0 DUP7 DUP3 DUP8 ADD PUSH2 0x1CAD JUMP JUMPDEST SWAP4 POP POP PUSH1 0x20 DUP5 ADD CALLDATALOAD PUSH8 0xFFFFFFFFFFFFFFFF DUP2 GT ISZERO PUSH2 0x20C1 JUMPI PUSH2 0x20C0 PUSH2 0x1C5F JUMP JUMPDEST JUMPDEST PUSH2 0x20CD DUP7 DUP3 DUP8 ADD PUSH2 0x201F JUMP JUMPDEST SWAP3 POP POP PUSH1 0x40 PUSH2 0x20DE DUP7 DUP3 DUP8 ADD PUSH2 0x2064 JUMP JUMPDEST SWAP2 POP POP SWAP3 POP SWAP3 POP SWAP3 JUMP JUMPDEST PUSH1 0x0 DUP1 PUSH1 0x40 DUP4 DUP6 SUB SLT ISZERO PUSH2 0x20FF JUMPI PUSH2 0x20FE PUSH2 0x1C5A JUMP JUMPDEST JUMPDEST PUSH1 0x0 PUSH2 0x210D DUP6 DUP3 DUP7 ADD PUSH2 0x1CE3 JUMP JUMPDEST SWAP3 POP POP PUSH1 0x20 PUSH2 0x211E DUP6 DUP3 DUP7 ADD PUSH2 0x1CE3 JUMP JUMPDEST SWAP2 POP POP SWAP3 POP SWAP3 SWAP1 POP JUMP JUMPDEST PUSH1 0x0 DUP1 PUSH1 0x0 PUSH1 0x60 DUP5 DUP7 SUB SLT ISZERO PUSH2 0x2141 JUMPI PUSH2 0x2140 PUSH2 0x1C5A JUMP JUMPDEST JUMPDEST PUSH1 0x0 PUSH2 0x214F DUP7 DUP3 DUP8 ADD PUSH2 0x1CE3 JUMP JUMPDEST SWAP4 POP POP PUSH1 0x20 PUSH2 0x2160 DUP7 DUP3 DUP8 ADD PUSH2 0x1CAD JUMP JUMPDEST SWAP3 POP POP PUSH1 0x40 PUSH2 0x2171 DUP7 DUP3 DUP8 ADD PUSH2 0x1CE3 JUMP JUMPDEST SWAP2 POP POP SWAP3 POP SWAP3 POP SWAP3 JUMP JUMPDEST PUSH1 0x0 DUP2 ISZERO ISZERO SWAP1 POP SWAP2 SWAP1 POP JUMP JUMPDEST PUSH2 0x2190 DUP2 PUSH2 0x217B JUMP JUMPDEST DUP2 EQ PUSH2 0x219B JUMPI PUSH1 0x0 DUP1 REVERT JUMPDEST POP JUMP JUMPDEST PUSH1 0x0 DUP2 CALLDATALOAD SWAP1 POP PUSH2 0x21AD DUP2 PUSH2 0x2187 JUMP JUMPDEST SWAP3 SWAP2 POP POP JUMP JUMPDEST PUSH1 0x0 DUP1 PUSH1 0x40 DUP4 DUP6 SUB SLT ISZERO PUSH2 0x21CA JUMPI PUSH2 0x21C9 PUSH2 0x1C5A JUMP JUMPDEST JUMPDEST PUSH1 0x0 PUSH2 0x21D8 DUP6 DUP3 DUP7 ADD PUSH2 0x1CAD JUMP JUMPDEST SWAP3 POP POP PUSH1 0x20 PUSH2 0x21E9 DUP6 DUP3 DUP7 ADD PUSH2 0x219E JUMP JUMPDEST SWAP2 POP POP SWAP3 POP SWAP3 SWAP1 POP JUMP JUMPDEST PUSH1 0x0 PUSH1 0x60 DUP3 ADD SWAP1 POP PUSH2 0x2208 PUSH1 0x0 DUP4 ADD DUP7 PUSH2 0x1D38 JUMP JUMPDEST PUSH2 0x2215 PUSH1 0x20 DUP4 ADD DUP6 PUSH2 0x1D38 JUMP JUMPDEST PUSH2 0x2222 PUSH1 0x40 DUP4 ADD DUP5 PUSH2 0x1D38 JUMP JUMPDEST SWAP5 SWAP4 POP POP POP POP JUMP JUMPDEST PUSH1 0x3 DUP2 LT PUSH2 0x2237 JUMPI PUSH1 0x0 DUP1 REVERT JUMPDEST POP JUMP JUMPDEST PUSH1 0x0 DUP2 CALLDATALOAD SWAP1 POP PUSH2 0x2249 DUP2 PUSH2 0x222A JUMP JUMPDEST SWAP3 SWAP2 POP POP JUMP JUMPDEST PUSH1 0x0 DUP1 PUSH1 0x40 DUP4 DUP6 SUB SLT ISZERO PUSH2 0x2266 JUMPI PUSH2 0x2265 PUSH2 0x1C5A JUMP JUMPDEST JUMPDEST PUSH1 0x0 PUSH2 0x2274 DUP6 DUP3 DUP7 ADD PUSH2 0x1CE3 JUMP JUMPDEST SWAP3 POP POP PUSH1 0x20 PUSH2 0x2285 DUP6 DUP3 DUP7 ADD PUSH2 0x223A JUMP JUMPDEST SWAP2 POP POP SWAP3 POP SWAP3 SWAP1 POP JUMP JUMPDEST PUSH1 0x0 DUP1 PUSH1 0x40 DUP4 DUP6 SUB SLT ISZERO PUSH2 0x22A6 JUMPI PUSH2 0x22A5 PUSH2 0x1C5A JUMP JUMPDEST JUMPDEST PUSH1 0x0 PUSH2 0x22B4 DUP6 DUP3 DUP7 ADD PUSH2 0x1CAD JUMP JUMPDEST SWAP3 POP POP PUSH1 0x20 PUSH2 0x22C5 DUP6 DUP3 DUP7 ADD PUSH2 0x1CAD JUMP JUMPDEST SWAP2 POP POP SWAP3 POP SWAP3 SWAP1 POP JUMP JUMPDEST PUSH2 0x22D8 DUP2 PUSH2 0x217B JUMP JUMPDEST DUP3 MSTORE POP POP JUMP JUMPDEST PUSH1 0x0 PUSH1 0x20 DUP3 ADD SWAP1 POP PUSH2 0x22F3 PUSH1 0x0 DUP4 ADD DUP5 PUSH2 0x22CF JUMP JUMPDEST SWAP3 SWAP2 POP POP JUMP JUMPDEST PUSH1 0x0 PUSH8 0xFFFFFFFFFFFFFFFF DUP3 GT ISZERO PUSH2 0x2314 JUMPI PUSH2 0x2313 PUSH2 0x1F22 JUMP JUMPDEST JUMPDEST PUSH2 0x231D DUP3 PUSH2 0x1DE4 JUMP JUMPDEST SWAP1 POP PUSH1 0x20 DUP2 ADD SWAP1 POP SWAP2 SWAP1 POP JUMP JUMPDEST PUSH1 0x0 PUSH2 0x233D PUSH2 0x2338 DUP5 PUSH2 0x22F9 JUMP JUMPDEST PUSH2 0x1F82 JUMP JUMPDEST SWAP1 POP DUP3 DUP2 MSTORE PUSH1 0x20 DUP2 ADD DUP5 DUP5 DUP5 ADD GT ISZERO PUSH2 0x2359 JUMPI PUSH2 0x2358 PUSH2 0x1F1D JUMP JUMPDEST JUMPDEST PUSH2 0x2364 DUP5 DUP3 DUP6 PUSH2 0x1FCE JUMP JUMPDEST POP SWAP4 SWAP3 POP POP POP JUMP JUMPDEST PUSH1 0x0 DUP3 PUSH1 0x1F DUP4 ADD SLT PUSH2 0x2381 JUMPI PUSH2 0x2380 PUSH2 0x1F18 JUMP JUMPDEST JUMPDEST DUP2 CALLDATALOAD PUSH2 0x2391 DUP5 DUP3 PUSH1 0x20 DUP7 ADD PUSH2 0x232A JUMP JUMPDEST SWAP2 POP POP SWAP3 SWAP2 POP POP JUMP JUMPDEST PUSH1 0x0 DUP1 PUSH1 0x0 DUP1 PUSH1 0x0 PUSH1 0xA0 DUP7 DUP9 SUB SLT ISZERO PUSH2 0x23B6 JUMPI PUSH2 0x23B5 PUSH2 0x1C5A JUMP JUMPDEST JUMPDEST PUSH1 0x0 PUSH2 0x23C4 DUP9 DUP3 DUP10 ADD PUSH2 0x1CAD JUMP JUMPDEST SWAP6 POP POP PUSH1 0x20 PUSH2 0x23D5 DUP9 DUP3 DUP10 ADD PUSH2 0x1CAD JUMP JUMPDEST SWAP5 POP POP PUSH1 0x40 PUSH2 0x23E6 DUP9 DUP3 DUP10 ADD PUSH2 0x1CE3 JUMP JUMPDEST SWAP4 POP POP PUSH1 0x60 PUSH2 0x23F7 DUP9 DUP3 DUP10 ADD PUSH2 0x1CE3 JUMP JUMPDEST SWAP3 POP POP PUSH1 0x80 DUP7 ADD CALLDATALOAD PUSH8 0xFFFFFFFFFFFFFFFF DUP2 GT ISZERO PUSH2 0x2418 JUMPI PUSH2 0x2417 PUSH2 0x1C5F JUMP JUMPDEST JUMPDEST PUSH2 0x2424 DUP9 DUP3 DUP10 ADD PUSH2 0x236C JUMP JUMPDEST SWAP2 POP POP SWAP3 SWAP6 POP SWAP3 SWAP6 SWAP1 SWAP4 POP JUMP JUMPDEST PUSH1 0x0 DUP1 PUSH1 0x0 PUSH1 0x60 DUP5 DUP7 SUB SLT ISZERO PUSH2 0x244A JUMPI PUSH2 0x2449 PUSH2 0x1C5A JUMP JUMPDEST JUMPDEST PUSH1 0x0 PUSH2 0x2458 DUP7 DUP3 DUP8 ADD PUSH2 0x1CAD JUMP JUMPDEST SWAP4 POP POP PUSH1 0x20 PUSH2 0x2469 DUP7 DUP3 DUP8 ADD PUSH2 0x1CE3 JUMP JUMPDEST SWAP3 POP POP PUSH1 0x40 PUSH2 0x247A DUP7 DUP3 DUP8 ADD PUSH2 0x1CE3 JUMP JUMPDEST SWAP2 POP POP SWAP3 POP SWAP3 POP SWAP3 JUMP JUMPDEST PUSH1 0x0 PUSH1 0x20 DUP3 ADD SWAP1 POP PUSH2 0x2499 PUSH1 0x0 DUP4 ADD DUP5 PUSH2 0x1D8F JUMP JUMPDEST SWAP3 SWAP2 POP POP JUMP JUMPDEST PUSH32 0x4E487B7100000000000000000000000000000000000000000000000000000000 PUSH1 0x0 MSTORE PUSH1 0x22 PUSH1 0x4 MSTORE PUSH1 0x24 PUSH1 0x0 REVERT JUMPDEST PUSH1 0x0 PUSH1 0x2 DUP3 DIV SWAP1 POP PUSH1 0x1 DUP3 AND DUP1 PUSH2 0x24E6 JUMPI PUSH1 0x7F DUP3 AND SWAP2 POP JUMPDEST PUSH1 0x20 DUP3 LT DUP2 SUB PUSH2 0x24F9 JUMPI PUSH2 0x24F8 PUSH2 0x249F JUMP JUMPDEST JUMPDEST POP SWAP2 SWAP1 POP JUMP JUMPDEST PUSH32 0x456C207665726966696361646F72206E6F20707565646520736572206C612064 PUSH1 0x0 DUP3 ADD MSTORE PUSH32 0x6972656363696F6E206365726F00000000000000000000000000000000000000 PUSH1 0x20 DUP3 ADD MSTORE POP JUMP JUMPDEST PUSH1 0x0 PUSH2 0x255B PUSH1 0x2D DUP4 PUSH2 0x1DA9 JUMP JUMPDEST SWAP2 POP PUSH2 0x2566 DUP3 PUSH2 0x24FF JUMP JUMPDEST PUSH1 0x40 DUP3 ADD SWAP1 POP SWAP2 SWAP1 POP JUMP JUMPDEST PUSH1 0x0 PUSH1 0x20 DUP3 ADD SWAP1 POP DUP2 DUP2 SUB PUSH1 0x0 DUP4 ADD MSTORE PUSH2 0x258A DUP2 PUSH2 0x254E JUMP JUMPDEST SWAP1 POP SWAP2 SWAP1 POP JUMP JUMPDEST PUSH32 0x4E487B7100000000000000000000000000000000000000000000000000000000 PUSH1 0x0 MSTORE PUSH1 0x11 PUSH1 0x4 MSTORE PUSH1 0x24 PUSH1 0x0 REVERT JUMPDEST PUSH1 0x0 PUSH2 0x25CB DUP3 PUSH2 0x1CC2 JUMP JUMPDEST SWAP2 POP PUSH32 0xFFFFFFFFFFFFFFFFFFFFFFFFFFFFFFFFFFFFFFFFFFFFFFFFFFFFFFFFFFFFFFFF DUP3 SUB PUSH2 0x25FD JUMPI PUSH2 0x25FC PUSH2 0x2591 JUMP JUMPDEST JUMPDEST PUSH1 0x1 DUP3 ADD SWAP1 POP SWAP2 SWAP1 POP JUMP JUMPDEST PUSH1 0x0 DUP2 SWAP1 POP DUP2 PUSH1 0x0 MSTORE PUSH1 0x20 PUSH1 0x0 KECCAK256 SWAP1 POP SWAP2 SWAP1 POP JUMP JUMPDEST PUSH1 0x0 PUSH1 0x20 PUSH1 0x1F DUP4 ADD DIV SWAP1 POP SWAP2 SWAP1 POP JUMP JUMPDEST PUSH1 0x0 DUP3 DUP3 SHL SWAP1 POP SWAP3 SWAP2 POP POP JUMP JUMPDEST PUSH1 0x0 PUSH1 0x8 DUP4 MUL PUSH2 0x266A PUSH32 0xFFFFFFFFFFFFFFFFFFFFFFFFFFFFFFFFFFFFFFFFFFFFFFFFFFFFFFFFFFFFFFFF DUP3 PUSH2 0x262D JUMP JUMPDEST PUSH2 0x2674 DUP7 DUP4 PUSH2 0x262D JUMP JUMPDEST SWAP6 POP DUP1 NOT DUP5 AND SWAP4 POP DUP1 DUP7 AND DUP5 OR SWAP3 POP POP POP SWAP4 SWAP3 POP POP POP JUMP JUMPDEST PUSH1 0x0 DUP2 SWAP1 POP SWAP2 SWAP1 POP JUMP JUMPDEST PUSH1 0x0 PUSH2 0x26B1 PUSH2 0x26AC PUSH2 0x26A7 DUP5 PUSH2 0x1CC2 JUMP JUMPDEST PUSH2 0x268C JUMP JUMPDEST PUSH2 0x1CC2 JUMP JUMPDEST SWAP1 POP SWAP2 SWAP1 POP JUMP JUMPDEST PUSH1 0x0 DUP2 SWAP1 POP SWAP2 SWAP1 POP JUMP JUMPDEST PUSH2 0x26CB DUP4 PUSH2 0x2696 JUMP JUMPDEST PUSH2 0x26DF PUSH2 0x26D7 DUP3 PUSH2 0x26B8 JUMP JUMPDEST DUP5 DUP5 SLOAD PUSH2 0x263A JUMP JUMPDEST DUP3 SSTORE POP POP POP POP JUMP JUMPDEST PUSH1 0x0 SWAP1 JUMP JUMPDEST PUSH2 0x26F4 PUSH2 0x26E7 JUMP JUMPDEST PUSH2 0x26FF DUP2 DUP5 DUP5 PUSH2 0x26C2 JUMP JUMPDEST POP POP POP JUMP JUMPDEST JUMPDEST DUP2 DUP2 LT ISZERO PUSH2 0x2723 JUMPI PUSH2 0x2718 PUSH1 0x0 DUP3 PUSH2 0x26EC JUMP JUMPDEST PUSH1 0x1 DUP2 ADD SWAP1 POP PUSH2 0x2705 JUMP JUMPDEST POP POP JUMP JUMPDEST PUSH1 0x1F DUP3 GT ISZERO PUSH2 0x2768 JUMPI PUSH2 0x2739 DUP2 PUSH2 0x2608 JUMP JUMPDEST PUSH2 0x2742 DUP5 PUSH2 0x261D JUMP JUMPDEST DUP2 ADD PUSH1 0x20 DUP6 LT ISZERO PUSH2 0x2751 JUMPI DUP2 SWAP1 POP JUMPDEST PUSH2 0x2765 PUSH2 0x275D DUP6 PUSH2 0x261D JUMP JUMPDEST DUP4 ADD DUP3 PUSH2 0x2704 JUMP JUMPDEST POP POP JUMPDEST POP POP POP JUMP JUMPDEST PUSH1 0x0 DUP3 DUP3 SHR SWAP1 POP SWAP3 SWAP2 POP POP JUMP JUMPDEST PUSH1 0x0 PUSH2 0x278B PUSH1 0x0 NOT DUP5 PUSH1 0x8 MUL PUSH2 0x276D JUMP JUMPDEST NOT DUP1 DUP4 AND SWAP2 POP POP SWAP3 SWAP2 POP POP JUMP JUMPDEST PUSH1 0x0 PUSH2 0x27A4 DUP4 DUP4 PUSH2 0x277A JUMP JUMPDEST SWAP2 POP DUP3 PUSH1 0x2 MUL DUP3 OR SWAP1 POP SWAP3 SWAP2 POP POP JUMP JUMPDEST PUSH2 0x27BD DUP3 PUSH2 0x1D9E JUMP JUMPDEST PUSH8 0xFFFFFFFFFFFFFFFF DUP2 GT ISZERO PUSH2 0x27D6 JUMPI PUSH2 0x27D5 PUSH2 0x1F22 JUMP JUMPDEST JUMPDEST PUSH2 0x27E0 DUP3 SLOAD PUSH2 0x24CE JUMP JUMPDEST PUSH2 0x27EB DUP3 DUP3 DUP6 PUSH2 0x2727 JUMP JUMPDEST PUSH1 0x0 PUSH1 0x20 SWAP1 POP PUSH1 0x1F DUP4 GT PUSH1 0x1 DUP2 EQ PUSH2 0x281E JUMPI PUSH1 0x0 DUP5 ISZERO PUSH2 0x280C JUMPI DUP3 DUP8 ADD MLOAD SWAP1 POP JUMPDEST PUSH2 0x2816 DUP6 DUP3 PUSH2 0x2798 JUMP JUMPDEST DUP7 SSTORE POP PUSH2 0x287E JUMP JUMPDEST PUSH1 0x1F NOT DUP5 AND PUSH2 0x282C DUP7 PUSH2 0x2608 JUMP JUMPDEST PUSH1 0x0 JUMPDEST DUP3 DUP2 LT ISZERO PUSH2 0x2854 JUMPI DUP5 DUP10 ADD MLOAD DUP3 SSTORE PUSH1 0x1 DUP3 ADD SWAP2 POP PUSH1 0x20 DUP6 ADD SWAP5 POP PUSH1 0x20 DUP2 ADD SWAP1 POP PUSH2 0x282F JUMP JUMPDEST DUP7 DUP4 LT ISZERO PUSH2 0x2871 JUMPI DUP5 DUP10 ADD MLOAD PUSH2 0x286D PUSH1 0x1F DUP10 AND DUP3 PUSH2 0x277A JUMP JUMPDEST DUP4 SSTORE POP JUMPDEST PUSH1 0x1 PUSH1 0x2 DUP9 MUL ADD DUP9 SSTORE POP POP POP JUMPDEST POP POP POP POP POP POP JUMP JUMPDEST PUSH32 0x455243313135353A2062616C616E636520696E737566696369656E7465207061 PUSH1 0x0 DUP3 ADD MSTORE PUSH32 0x7261207175656D61720000000000000000000000000000000000000000000000 PUSH1 0x20 DUP3 ADD MSTORE POP JUMP JUMPDEST PUSH1 0x0 PUSH2 0x28E2 PUSH1 0x29 DUP4 PUSH2 0x1DA9 JUMP JUMPDEST SWAP2 POP PUSH2 0x28ED DUP3 PUSH2 0x2886 JUMP JUMPDEST PUSH1 0x40 DUP3 ADD SWAP1 POP SWAP2 SWAP1 POP JUMP JUMPDEST PUSH1 0x0 PUSH1 0x20 DUP3 ADD SWAP1 POP DUP2 DUP2 SUB PUSH1 0x0 DUP4 ADD MSTORE PUSH2 0x2911 DUP2 PUSH2 0x28D5 JUMP JUMPDEST SWAP1 POP SWAP2 SWAP1 POP JUMP JUMPDEST PUSH1 0x0 PUSH2 0x2923 DUP3 PUSH2 0x1CC2 JUMP JUMPDEST SWAP2 POP PUSH2 0x292E DUP4 PUSH2 0x1CC2 JUMP JUMPDEST SWAP3 POP DUP3 DUP3 SUB SWAP1 POP DUP2 DUP2 GT ISZERO PUSH2 0x2946 JUMPI PUSH2 0x2945 PUSH2 0x2591 JUMP JUMPDEST JUMPDEST SWAP3 SWAP2 POP POP JUMP JUMPDEST PUSH1 0x0 PUSH1 0x40 DUP3 ADD SWAP1 POP PUSH2 0x2961 PUSH1 0x0 DUP4 ADD DUP6 PUSH2 0x1D38 JUMP JUMPDEST PUSH2 0x296E PUSH1 0x20 DUP4 ADD DUP5 PUSH2 0x1D38 JUMP JUMPDEST SWAP4 SWAP3 POP POP POP JUMP JUMPDEST PUSH32 0x456C2070726F796563746F206E6F2065737461206170726F6261646F00000000 PUSH1 0x0 DUP3 ADD MSTORE POP JUMP JUMPDEST PUSH1 0x0 PUSH2 0x29AB PUSH1 0x1C DUP4 PUSH2 0x1DA9 JUMP JUMPDEST SWAP2 POP PUSH2 0x29B6 DUP3 PUSH2 0x2975 JUMP JUMPDEST PUSH1 0x20 DUP3 ADD SWAP1 POP SWAP2 SWAP1 POP JUMP JUMPDEST PUSH1 0x0 PUSH1 0x20 DUP3 ADD SWAP1 POP DUP2 DUP2 SUB PUSH1 0x0 DUP4 ADD MSTORE PUSH2 0x29DA DUP2 PUSH2 0x299E JUMP JUMPDEST SWAP1 POP SWAP2 SWAP1 POP JUMP JUMPDEST PUSH32 0x4C6C616D61646F72206E6F20657320656C207665726966696361646F72206465 PUSH1 0x0 DUP3 ADD MSTORE PUSH32 0x20657374652070726F796563746F000000000000000000000000000000000000 PUSH1 0x20 DUP3 ADD MSTORE POP JUMP JUMPDEST PUSH1 0x0 PUSH2 0x2A3D PUSH1 0x2E DUP4 PUSH2 0x1DA9 JUMP JUMPDEST SWAP2 POP PUSH2 0x2A48 DUP3 PUSH2 0x29E1 JUMP JUMPDEST PUSH1 0x40 DUP3 ADD SWAP1 POP SWAP2 SWAP1 POP JUMP JUMPDEST PUSH1 0x0 PUSH1 0x20 DUP3 ADD SWAP1 POP DUP2 DUP2 SUB PUSH1 0x0 DUP4 ADD MSTORE PUSH2 0x2A6C DUP2 PUSH2 0x2A30 JUMP JUMPDEST SWAP1 POP SWAP2 SWAP1 POP JUMP JUMPDEST PUSH1 0x0 PUSH1 0x40 DUP3 ADD SWAP1 POP PUSH2 0x2A88 PUSH1 0x0 DUP4 ADD DUP6 PUSH2 0x1D8F JUMP JUMPDEST PUSH2 0x2A95 PUSH1 0x20 DUP4 ADD DUP5 PUSH2 0x1D38 JUMP JUMPDEST SWAP4 SWAP3 POP POP POP JUMP JUMPDEST PUSH32 0x4C6C616D61646F72206E6F20657320656C2061646D696E000000000000000000 PUSH1 0x0 DUP3 ADD MSTORE POP JUMP JUMPDEST PUSH1 0x0 PUSH2 0x2AD2 PUSH1 0x17 DUP4 PUSH2 0x1DA9 JUMP JUMPDEST SWAP2 POP PUSH2 0x2ADD DUP3 PUSH2 0x2A9C JUMP JUMPDEST PUSH1 0x20 DUP3 ADD SWAP1 POP SWAP2 SWAP1 POP JUMP JUMPDEST PUSH1 0x0 PUSH1 0x20 DUP3 ADD SWAP1 POP DUP2 DUP2 SUB PUSH1 0x0 DUP4 ADD MSTORE PUSH2 0x2B01 DUP2 PUSH2 0x2AC5 JUMP JUMPDEST SWAP1 POP SWAP2 SWAP1 POP JUMP JUMPDEST PUSH32 0x456C2070726F796563746F206E6F206578697374650000000000000000000000 PUSH1 0x0 DUP3 ADD MSTORE POP JUMP JUMPDEST PUSH1 0x0 PUSH2 0x2B3E PUSH1 0x15 DUP4 PUSH2 0x1DA9 JUMP JUMPDEST SWAP2 POP PUSH2 0x2B49 DUP3 PUSH2 0x2B08 JUMP JUMPDEST PUSH1 0x20 DUP3 ADD SWAP1 POP SWAP2 SWAP1 POP JUMP JUMPDEST PUSH1 0x0 PUSH1 0x20 DUP3 ADD SWAP1 POP DUP2 DUP2 SUB PUSH1 0x0 DUP4 ADD MSTORE PUSH2 0x2B6D DUP2 PUSH2 0x2B31 JUMP JUMPDEST SWAP1 POP SWAP2 SWAP1 POP JUMP JUMPDEST PUSH1 0x0 PUSH1 0x20 DUP3 ADD SWAP1 POP PUSH2 0x2B89 PUSH1 0x0 DUP4 ADD DUP5 PUSH2 0x1EAF JUMP JUMPDEST SWAP3 SWAP2 POP POP JUMP JUMPDEST PUSH32 0x455243313135353A206E6F206175746F72697A61646F2070617261207472616E PUSH1 0x0 DUP3 ADD MSTORE PUSH32 0x7366657269720000000000000000000000000000000000000000000000000000 PUSH1 0x20 DUP3 ADD MSTORE POP JUMP JUMPDEST PUSH1 0x0 PUSH2 0x2BEB PUSH1 0x26 DUP4 PUSH2 0x1DA9 JUMP JUMPDEST SWAP2 POP PUSH2 0x2BF6 DUP3 PUSH2 0x2B8F JUMP JUMPDEST PUSH1 0x40 DUP3 ADD SWAP1 POP SWAP2 SWAP1 POP JUMP JUMPDEST PUSH1 0x0 PUSH1 0x20 DUP3 ADD SWAP1 POP DUP2 DUP2 SUB PUSH1 0x0 DUP4 ADD MSTORE PUSH2 0x2C1A DUP2 PUSH2 0x2BDE JUMP JUMPDEST SWAP1 POP SWAP2 SWAP1 POP JUMP JUMPDEST PUSH32 0x455243313135353A206E6F207365207075656465207472616E73666572697220 PUSH1 0x0 DUP3 ADD MSTORE PUSH32 0x61206C6120646972656363696F6E206365726F00000000000000000000000000 PUSH1 0x20 DUP3 ADD MSTORE POP JUMP JUMPDEST PUSH1 0x0 PUSH2 0x2C7D PUSH1 0x33 DUP4 PUSH2 0x1DA9 JUMP JUMPDEST SWAP2 POP PUSH2 0x2C88 DUP3 PUSH2 0x2C21 JUMP JUMPDEST PUSH1 0x40 DUP3 ADD SWAP1 POP SWAP2 SWAP1 POP JUMP JUMPDEST PUSH1 0x0 PUSH1 0x20 DUP3 ADD SWAP1 POP DUP2 DUP2 SUB PUSH1 0x0 DUP4 ADD MSTORE PUSH2 0x2CAC DUP2 PUSH2 0x2C70 JUMP JUMPDEST SWAP1 POP SWAP2 SWAP1 POP JUMP JUMPDEST PUSH32 0x455243313135353A2062616C616E636520696E737566696369656E7465000000 PUSH1 0x0 DUP3 ADD MSTORE POP JUMP JUMPDEST PUSH1 0x0 PUSH2 0x2CE9 PUSH1 0x1D DUP4 PUSH2 0x1DA9 JUMP JUMPDEST SWAP2 POP PUSH2 0x2CF4 DUP3 PUSH2 0x2CB3 JUMP JUMPDEST PUSH1 0x20 DUP3 ADD SWAP1 POP SWAP2 SWAP1 POP JUMP JUMPDEST PUSH1 0x0 PUSH1 0x20 DUP3 ADD SWAP1 POP DUP2 DUP2 SUB PUSH1 0x0 DUP4 ADD MSTORE PUSH2 0x2D18 DUP2 PUSH2 0x2CDC JUMP JUMPDEST SWAP1 POP SWAP2 SWAP1 POP JUMP JUMPDEST PUSH1 0x0 PUSH2 0x2D2A DUP3 PUSH2 0x1CC2 JUMP JUMPDEST SWAP2 POP PUSH2 0x2D35 DUP4 PUSH2 0x1CC2 JUMP JUMPDEST SWAP3 POP DUP3 DUP3 ADD SWAP1 POP DUP1 DUP3 GT ISZERO PUSH2 0x2D4D JUMPI PUSH2 0x2D4C PUSH2 0x2591 JUMP JUMPDEST JUMPDEST SWAP3 SWAP2 POP POP JUMP JUMPDEST PUSH32 0x455243313135353A206E6F206175746F72697A61646F2070617261207175656D PUSH1 0x0 DUP3 ADD MSTORE PUSH32 0x6172000000000000000000000000000000000000000000000000000000000000 PUSH1 0x20 DUP3 ADD MSTORE POP JUMP JUMPDEST PUSH1 0x0 PUSH2 0x2DAF PUSH1 0x22 DUP4 PUSH2 0x1DA9 JUMP JUMPDEST SWAP2 POP PUSH2 0x2DBA DUP3 PUSH2 0x2D53 JUMP JUMPDEST PUSH1 0x40 DUP3 ADD SWAP1 POP SWAP2 SWAP1 POP JUMP JUMPDEST PUSH1 0x0 PUSH1 0x20 DUP3 ADD SWAP1 POP DUP2 DUP2 SUB PUSH1 0x0 DUP4 ADD MSTORE PUSH2 0x2DDE DUP2 PUSH2 0x2DA2 JUMP JUMPDEST SWAP1 POP SWAP2 SWAP1 POP JUMP JUMPDEST PUSH32 0x455243313135353A206E6F207365207075656465206163756E61722061206C61 PUSH1 0x0 DUP3 ADD MSTORE PUSH32 0x20646972656363696F6E206365726F0000000000000000000000000000000000 PUSH1 0x20 DUP3 ADD MSTORE POP JUMP JUMPDEST PUSH1 0x0 PUSH2 0x2E41 PUSH1 0x2F DUP4 PUSH2 0x1DA9 JUMP JUMPDEST SWAP2 POP PUSH2 0x2E4C DUP3 PUSH2 0x2DE5 JUMP JUMPDEST PUSH1 0x40 DUP3 ADD SWAP1 POP SWAP2 SWAP1 POP JUMP JUMPDEST PUSH1 0x0 PUSH1 0x20 DUP3 ADD SWAP1 POP DUP2 DUP2 SUB PUSH1 0x0 DUP4 ADD MSTORE PUSH2 0x2E70 DUP2 PUSH2 0x2E34 JUMP JUMPDEST SWAP1 POP SWAP2 SWAP1 POP JUMP INVALID LOG2 PUSH5 0x6970667358 0x22 SLT KECCAK256 PUSH32 0xAF370D3BCA462C06FAABA45B7E3C7E4ECD78C324C20F75CA28C4636FFA7D7D64 PUSH20 0x6F6C634300081C00330000000000000000000000 "},"methodIdentifiers":{"admin()":"f851a440","balanceOf(address,uint256)":"00fdd58e","burn(address,uint256,uint256)":"f5298aca","certifyAndMintBatch(uint256,address,uint256)":"82d26b17","creditBatchDetails(uint256)":"bb0e12e7","isApprovedForAll(address,address)":"e985e9c5","projects(uint256)":"107046bd","registerProject(address,string,bytes32)":"2579c24d","retireCredits(uint256,uint256)":"3ea0fb13","safeTransferFrom(address,address,uint256,uint256,bytes)":"f242432a","setApprovalForAll(address,bool)":"a22cb465","updateProjectStatus(uint256,uint8)":"d11d498b"}}}}}