{
  "_format": "hh-sol-artifact-1",
  "contractName": "RecyclingCredits_LatinHack",
  "sourceName": "contracts/RecyclingCredits_LatinHack.sol",
  "abi": [
    {
      "inputs": [
        {
          "internalType": "address",
          "name": "initialAdmin",
          "type": "address"
        }
      ],
      "stateMutability": "nonpayable",
      "type": "constructor"
    },
    {
      "anonymous": false,
      "inputs": [
        {
          "indexed": true,
          "internalType": "address",
          "name": "_owner",
          "type": "address"
        },
        {
          "indexed": true,
          "internalType": "address",
          "name": "_operator",
          "type": "address"
        },
        {
          "indexed": false,
          "internalType": "bool",
          "name": "_approved",
          "type": "bool"
        }
      ],
      "name": "ApprovalForAll",
      "type": "event"
    },
    {
      "anonymous": false,
      "inputs": [
        {
          "indexed": true,
          "internalType": "address",
          "name": "certifier",
          "type": "address"
        }
      ],
      "name": "CertifierRoleGranted",
      "type": "event"
    },
    {
      "anonymous": false,
      "inputs": [
        {
          "indexed": true,
          "internalType": "address",
          "name": "certifier",
          "type": "address"
        }
      ],
      "name": "CertifierRoleRevoked",
      "type": "event"
    },
    {
      "anonymous": false,
      "inputs": [
        {
          "indexed": true,
          "internalType": "uint256",
          "name": "creditId",
          "type": "uint256"
        },
        {
          "indexed": true,
          "internalType": "address",
          "name": "initialOwner",
          "type": "address"
        },
        {
          "indexed": false,
          "internalType": "string",
          "name": "materialType",
          "type": "string"
        },
        {
          "indexed": false,
          "internalType": "uint256",
          "name": "weightKg",
          "type": "uint256"
        },
        {
          "indexed": false,
          "internalType": "bytes32",
          "name": "proofHash",
          "type": "bytes32"
        }
      ],
      "name": "CreditBatchCertified",
      "type": "event"
    },
    {
      "anonymous": false,
      "inputs": [
        {
          "indexed": true,
          "internalType": "uint256",
          "name": "creditId",
          "type": "uint256"
        },
        {
          "indexed": true,
          "internalType": "address",
          "name": "retiredBy",
          "type": "address"
        },
        {
          "indexed": false,
          "internalType": "uint256",
          "name": "amount",
          "type": "uint256"
        }
      ],
      "name": "CreditsRetired",
      "type": "event"
    },
    {
      "anonymous": false,
      "inputs": [
        {
          "indexed": true,
          "internalType": "address",
          "name": "_operator",
          "type": "address"
        },
        {
          "indexed": true,
          "internalType": "address",
          "name": "_from",
          "type": "address"
        },
        {
          "indexed": true,
          "internalType": "address",
          "name": "_to",
          "type": "address"
        },
        {
          "indexed": false,
          "internalType": "uint256",
          "name": "_id",
          "type": "uint256"
        },
        {
          "indexed": false,
          "internalType": "uint256",
          "name": "_amount",
          "type": "uint256"
        }
      ],
      "name": "TransferSingle",
      "type": "event"
    },
    {
      "inputs": [
        {
          "internalType": "address",
          "name": "account",
          "type": "address"
        },
        {
          "internalType": "uint256",
          "name": "id",
          "type": "uint256"
        }
      ],
      "name": "balanceOf",
      "outputs": [
        {
          "internalType": "uint256",
          "name": "",
          "type": "uint256"
        }
      ],
      "stateMutability": "view",
      "type": "function"
    },
    {
      "inputs": [
        {
          "internalType": "address",
          "name": "from",
          "type": "address"
        },
        {
          "internalType": "uint256",
          "name": "id",
          "type": "uint256"
        },
        {
          "internalType": "uint256",
          "name": "amount",
          "type": "uint256"
        }
      ],
      "name": "burn",
      "outputs": [],
      "stateMutability": "nonpayable",
      "type": "function"
    },
    {
      "inputs": [
        {
          "internalType": "address",
          "name": "creditOwner",
          "type": "address"
        },
        {
          "internalType": "string",
          "name": "materialType",
          "type": "string"
        },
        {
          "internalType": "uint256",
          "name": "weightKg",
          "type": "uint256"
        },
        {
          "internalType": "string",
          "name": "location",
          "type": "string"
        },
        {
          "internalType": "bytes32",
          "name": "proofHash",
          "type": "bytes32"
        }
      ],
      "name": "certifyAndMintBatch",
      "outputs": [],
      "stateMutability": "nonpayable",
      "type": "function"
    },
    {
      "inputs": [
        {
          "internalType": "uint256",
          "name": "",
          "type": "uint256"
        }
      ],
      "name": "creditDetails",
      "outputs": [
        {
          "internalType": "string",
          "name": "materialType",
          "type": "string"
        },
        {
          "internalType": "uint256",
          "name": "totalWeightKg",
          "type": "uint256"
        },
        {
          "internalType": "uint256",
          "name": "timestamp",
          "type": "uint256"
        },
        {
          "internalType": "string",
          "name": "location",
          "type": "string"
        },
        {
          "internalType": "bytes32",
          "name": "proofHash",
          "type": "bytes32"
        }
      ],
      "stateMutability": "view",
      "type": "function"
    },
    {
      "inputs": [
        {
          "internalType": "address",
          "name": "certifier",
          "type": "address"
        }
      ],
      "name": "grantCertifierRole",
      "outputs": [],
      "stateMutability": "nonpayable",
      "type": "function"
    },
    {
      "inputs": [
        {
          "internalType": "address",
          "name": "account",
          "type": "address"
        },
        {
          "internalType": "address",
          "name": "operator",
          "type": "address"
        }
      ],
      "name": "isApprovedForAll",
      "outputs": [
        {
          "internalType": "bool",
          "name": "",
          "type": "bool"
        }
      ],
      "stateMutability": "view",
      "type": "function"
    },
    {
      "inputs": [
        {
          "internalType": "address",
          "name": "",
          "type": "address"
        }
      ],
      "name": "isCertifier",
      "outputs": [
        {
          "internalType": "bool",
          "name": "",
          "type": "bool"
        }
      ],
      "stateMutability": "view",
      "type": "function"
    },
    {
      "inputs": [],
      "name": "owner",
      "outputs": [
        {
          "internalType": "address",
          "name": "",
          "type": "address"
        }
      ],
      "stateMutability": "view",
      "type": "function"
    },
    {
      "inputs": [
        {
          "internalType": "uint256",
          "name": "creditId",
          "type": "uint256"
        },
        {
          "internalType": "uint256",
          "name": "amount",
          "type": "uint256"
        }
      ],
      "name": "retireCredits",
      "outputs": [],
      "stateMutability": "nonpayable",
      "type": "function"
    },
    {
      "inputs": [
        {
          "internalType": "address",
          "name": "certifier",
          "type": "address"
        }
      ],
      "name": "revokeCertifierRole",
      "outputs": [],
      "stateMutability": "nonpayable",
      "type": "function"
    },
    {
      "inputs": [
        {
          "internalType": "address",
          "name": "from",
          "type": "address"
        },
        {
          "internalType": "address",
          "name": "to",
          "type": "address"
        },
        {
          "internalType": "uint256",
          "name": "id",
          "type": "uint256"
        },
        {
          "internalType": "uint256",
          "name": "amount",
          "type": "uint256"
        },
        {
          "internalType": "bytes",
          "name": "data",
          "type": "bytes"
        }
      ],
      "name": "safeTransferFrom",
      "outputs": [],
      "stateMutability": "nonpayable",
      "type": "function"
    },
    {
      "inputs": [
        {
          "internalType": "address",
          "name": "operator",
          "type": "address"
        },
        {
          "internalType": "bool",
          "name": "approved",
          "type": "bool"
        }
      ],
      "name": "setApprovalForAll",
      "outputs": [],
      "stateMutability": "nonpayable",
      "type": "function"
    }
  ],
  "bytecode": "608060405234801561001057600080fd5b50604051612ac1380380612ac1833981810160405281019061003291906101fa565b61004c67bca20a6b7b5d9b1b60c01b61019460201b60201c565b61006667ed19080cbbe8795060c01b61019460201b60201c565b806000806101000a81548173ffffffffffffffffffffffffffffffffffffffff021916908373ffffffffffffffffffffffffffffffffffffffff1602179055506100c0677d2e1a41ed2e6a7660c01b61019460201b60201c565b60018060008373ffffffffffffffffffffffffffffffffffffffff1673ffffffffffffffffffffffffffffffffffffffff16815260200190815260200160002060006101000a81548160ff02191690831515021790555061013167db3a3bb84ee6afb560c01b61019460201b60201c565b61014b670d9d185609cb36f360c01b61019460201b60201c565b8073ffffffffffffffffffffffffffffffffffffffff167f563190ad7c15c57c6c8dc435ebb37bc9d0961dc3c723a33fce89a286f7ff6e8560405160405180910390a250610227565b50565b600080fd5b600073ffffffffffffffffffffffffffffffffffffffff82169050919050565b60006101c78261019c565b9050919050565b6101d7816101bc565b81146101e257600080fd5b50565b6000815190506101f4816101ce565b92915050565b6000602082840312156102105761020f610197565b5b600061021e848285016101e5565b91505092915050565b61288b806102366000396000f3fe608060405234801561001057600080fd5b50600436106100b35760003560e01c8063a22cb46511610071578063a22cb465146101a2578063cee28a59146101be578063e985e9c5146101da578063f242432a1461020a578063f5298aca14610226578063fc81028614610242576100b3565b8062fdd58e146100b85780631c2353e1146100e85780633ea0fb131461011857806385775d471461013457806386f10405146101685780638da5cb5b14610184575b600080fd5b6100d260048036038101906100cd9190611914565b61025e565b6040516100df9190611963565b60405180910390f35b61010260048036038101906100fd919061197e565b6103b4565b60405161010f91906119c6565b60405180910390f35b610132600480360381019061012d91906119e1565b6103d4565b005b61014e60048036038101906101499190611a21565b610496565b60405161015f959493929190611af7565b60405180910390f35b610182600480360381019061017d919061197e565b6105dc565b005b61018c6107f7565b6040516101999190611b67565b60405180910390f35b6101bc60048036038101906101b79190611bae565b61081b565b005b6101d860048036038101906101d39190611d4f565b610968565b005b6101f460048036038101906101ef9190611e02565b610c3c565b60405161020191906119c6565b60405180910390f35b610224600480360381019061021f9190611ee3565b610d0c565b005b610240600480360381019061023b9190611f7a565b61116c565b005b61025c6004803603810190610257919061197e565b611448565b005b6000610274677a5ff48ea38640b060c01b611664565b610288671bc31672df81e76060c01b611664565b61029c67934a4c3c98a1fb3e60c01b611664565b6102b067366f348339e9b86460c01b611664565b600073ffffffffffffffffffffffffffffffffffffffff168373ffffffffffffffffffffffffffffffffffffffff160361031f576040517f08c379a000000000000000000000000000000000000000000000000000000000815260040161031690612019565b60405180910390fd5b610333677d792138a81adc8b60c01b611664565b6103476722e3754d7783940a60c01b611664565b61035b6761b08dba3a06aeb960c01b611664565b6002600083815260200190815260200160002060008473ffffffffffffffffffffffffffffffffffffffff1673ffffffffffffffffffffffffffffffffffffffff16815260200190815260200160002054905092915050565b60016020528060005260406000206000915054906101000a900460ff1681565b6103e8675342e96673362d6060c01b611664565b6103fc67d22b672268f1e82b60c01b611664565b61041067383c43d07923fa0560c01b611664565b61041b33838361116c565b61042f67a95d3c3a6e05a53a60c01b611664565b6104436783c8fedd1bb0970f60c01b611664565b3373ffffffffffffffffffffffffffffffffffffffff16827f31995d78296d80ec997704a03d4e6295c44e8755e8117523fb44bf086c306dcb8360405161048a9190611963565b60405180910390a35050565b60046020528060005260406000206000915090508060000180546104b990612068565b80601f01602080910402602001604051908101604052809291908181526020018280546104e590612068565b80156105325780601f1061050757610100808354040283529160200191610532565b820191906000526020600020905b81548152906001019060200180831161051557829003601f168201915b50505050509080600101549080600201549080600301805461055390612068565b80601f016020809104026020016040519081016040528092919081815260200182805461057f90612068565b80156105cc5780601f106105a1576101008083540402835291602001916105cc565b820191906000526020600020905b8154815290600101906020018083116105af57829003601f168201915b5050505050908060040154905085565b6105f067ea642cdee68304b160c01b611664565b6106046717017a0f08ec771760c01b611664565b61061867f475d433e7ae12f360c01b611664565b61062c675d0c6b548ad22f9b60c01b611664565b61064067436b26ac8e904a5c60c01b611664565b3373ffffffffffffffffffffffffffffffffffffffff1660008054906101000a900473ffffffffffffffffffffffffffffffffffffffff1673ffffffffffffffffffffffffffffffffffffffff16146106ce576040517f08c379a00000000000000000000000000000000000000000000000000000000081526004016106c5906120e5565b60405180910390fd5b6106e26788579cd8658c869e60c01b611664565b6106f667a2f1be6205ccf07560c01b611664565b61070a67174235ef5045e49160c01b611664565b61071e67b3b6df78f154820060c01b611664565b61073267a7bf949db65369f060c01b611664565b60018060008373ffffffffffffffffffffffffffffffffffffffff1673ffffffffffffffffffffffffffffffffffffffff16815260200190815260200160002060006101000a81548160ff02191690831515021790555061079d67ed2748e56adeeb1b60c01b611664565b6107b167b376ead6974a33d360c01b611664565b8073ffffffffffffffffffffffffffffffffffffffff167f563190ad7c15c57c6c8dc435ebb37bc9d0961dc3c723a33fce89a286f7ff6e8560405160405180910390a250565b60008054906101000a900473ffffffffffffffffffffffffffffffffffffffff1681565b61082f673748591ede70ec9e60c01b611664565b61084367e299210c81f452f560c01b611664565b80600360003373ffffffffffffffffffffffffffffffffffffffff1673ffffffffffffffffffffffffffffffffffffffff16815260200190815260200160002060008473ffffffffffffffffffffffffffffffffffffffff1673ffffffffffffffffffffffffffffffffffffffff16815260200190815260200160002060006101000a81548160ff0219169083151502179055506108eb67d489c4ffea060e4960c01b611664565b6108ff67092579e14b322fa460c01b611664565b8173ffffffffffffffffffffffffffffffffffffffff163373ffffffffffffffffffffffffffffffffffffffff167f17307eab39ab6107e8899845ad3d59bd9653f200f220920489ca2b5937696c318360405161095c91906119c6565b60405180910390a35050565b61097c67222efd690b8c8f6360c01b611664565b6109906765cea7b04444546960c01b611664565b6109a467749696ed8b7bc06860c01b611664565b6109b867ce43e7d101daa83860c01b611664565b6109cc673a9f1fd2148687d160c01b611664565b600160003373ffffffffffffffffffffffffffffffffffffffff1673ffffffffffffffffffffffffffffffffffffffff16815260200190815260200160002060009054906101000a900460ff16610a58576040517f08c379a0000000000000000000000000000000000000000000000000000000008152600401610a4f90612151565b60405180910390fd5b610a6c674a288264aff1251c60c01b611664565b610a806771d379b0a5cc902660c01b611664565b610a9467478d9293087a9e2a60c01b611664565b610aa867b749e0703f3717a060c01b611664565b610abc6779b2cfd434fbac4660c01b611664565b610ad0672037a20397b1a15860c01b611664565b600060056000815480929190610ae5906121a0565b919050559050610aff67273cd9eb7f645d1e60c01b611664565b6040518060a0016040528086815260200185815260200142815260200184815260200183815250600460008381526020019081526020016000206000820151816000019081610b4e9190612394565b5060208201518160010155604082015181600201556060820151816003019081610b789190612394565b5060808201518160040155905050610b9a67123fe5177c9aaf1e60c01b611664565b610bae673af36ebba54cd1ef60c01b611664565b610bb9868286611667565b610bcd678c3e4d00885d602260c01b611664565b610be167755ee489329faf1d60c01b611664565b8573ffffffffffffffffffffffffffffffffffffffff16817f8ec385d563e2165d797a727cd7443d3ccb850407cf1f8b2b5bba3842a0ebc68e878786604051610c2c93929190612466565b60405180910390a3505050505050565b6000610c5267bff712e53f6fb1d760c01b611664565b610c66671a914197e65e998760c01b611664565b610c7a677b9dd265a909dda960c01b611664565b600360008473ffffffffffffffffffffffffffffffffffffffff1673ffffffffffffffffffffffffffffffffffffffff16815260200190815260200160002060008373ffffffffffffffffffffffffffffffffffffffff1673ffffffffffffffffffffffffffffffffffffffff16815260200190815260200160002060009054906101000a900460ff16905092915050565b610d20678a0e5e9ad3199db460c01b611664565b610d3467048732632905cb3860c01b611664565b610d4867a18390537bbcc0d760c01b611664565b610d5c678e934b9baeaa889560c01b611664565b3373ffffffffffffffffffffffffffffffffffffffff168573ffffffffffffffffffffffffffffffffffffffff16148015610da75750610da66707f5e0ae850d007060c01b611861565b5b80610dd45750610db78533610c3c565b8015610dd35750610dd26763022b07a886c82360c01b611861565b5b5b610e13576040517f08c379a0000000000000000000000000000000000000000000000000000000008152600401610e0a906124f0565b60405180910390fd5b610e2767ac1167f4f3933e2760c01b611664565b610e3b67623f5389b24bc9ff60c01b611664565b610e4f6743e861575198d40e60c01b611664565b610e63677c1d5ea3c587510160c01b611664565b600073ffffffffffffffffffffffffffffffffffffffff168473ffffffffffffffffffffffffffffffffffffffff1603610ed2576040517f08c379a0000000000000000000000000000000000000000000000000000000008152600401610ec990612582565b60405180910390fd5b610ee6670f093b0ae7d9c48860c01b611664565b610efa67c4daca50f2f7e94760c01b611664565b610f0e67c3bc7b3ec714c9de60c01b611664565b610f22674aea7ea990ee044960c01b611664565b816002600085815260200190815260200160002060008773ffffffffffffffffffffffffffffffffffffffff1673ffffffffffffffffffffffffffffffffffffffff168152602001908152602001600020541015610fb5576040517f08c379a0000000000000000000000000000000000000000000000000000000008152600401610fac906125ee565b60405180910390fd5b610fc9670f52c9cdf15c500360c01b611664565b610fdd679df5885f899aa6c860c01b611664565b816002600085815260200190815260200160002060008773ffffffffffffffffffffffffffffffffffffffff1673ffffffffffffffffffffffffffffffffffffffff168152602001908152602001600020600082825461103d919061260e565b92505081905550611058674beb4b357461d6dc60c01b611664565b816002600085815260200190815260200160002060008673ffffffffffffffffffffffffffffffffffffffff1673ffffffffffffffffffffffffffffffffffffffff16815260200190815260200160002060008282546110b89190612642565b925050819055506110d367d070a87a0c14b70f60c01b611664565b6110e767b2d0cf3adb0dc4b260c01b611664565b8373ffffffffffffffffffffffffffffffffffffffff168573ffffffffffffffffffffffffffffffffffffffff163373ffffffffffffffffffffffffffffffffffffffff167fc3d58168c5ae7397731d063d5bbf3d657854427343f4c083240f7aacaa2d0f62868660405161115d929190612676565b60405180910390a45050505050565b61118067b0ae284cda60b0dd60c01b611664565b6111946777e37ec9f0e59eae60c01b611664565b6111a867021a51cd108c50b260c01b611664565b6111bc676646c3272b27de9460c01b611664565b3373ffffffffffffffffffffffffffffffffffffffff168373ffffffffffffffffffffffffffffffffffffffff161461122a576040517f08c379a000000000000000000000000000000000000000000000000000000000815260040161122190612711565b60405180910390fd5b61123e675ee215689ef83c4360c01b611664565b61125267e8aa4394dd04676d60c01b611664565b6112666791a6a9f2afa7235960c01b611664565b61127a676fd991e98df68ce660c01b611664565b806002600084815260200190815260200160002060008573ffffffffffffffffffffffffffffffffffffffff1673ffffffffffffffffffffffffffffffffffffffff16815260200190815260200160002054101561130d576040517f08c379a0000000000000000000000000000000000000000000000000000000008152600401611304906127a3565b60405180910390fd5b6113216741d044a72ad758cd60c01b611664565b61133567a6718a1dd2db426360c01b611664565b806002600084815260200190815260200160002060008573ffffffffffffffffffffffffffffffffffffffff1673ffffffffffffffffffffffffffffffffffffffff1681526020019081526020016000206000828254611395919061260e565b925050819055506113b0675b8da145c91a038860c01b611664565b6113c46711c324b11551305560c01b611664565b600073ffffffffffffffffffffffffffffffffffffffff168373ffffffffffffffffffffffffffffffffffffffff163373ffffffffffffffffffffffffffffffffffffffff167fc3d58168c5ae7397731d063d5bbf3d657854427343f4c083240f7aacaa2d0f62858560405161143b929190612676565b60405180910390a4505050565b61145c673ed183bdd1b1514960c01b611664565b6114706717017a0f08ec771760c01b611664565b61148467f475d433e7ae12f360c01b611664565b611498675d0c6b548ad22f9b60c01b611664565b6114ac67436b26ac8e904a5c60c01b611664565b3373ffffffffffffffffffffffffffffffffffffffff1660008054906101000a900473ffffffffffffffffffffffffffffffffffffffff1673ffffffffffffffffffffffffffffffffffffffff161461153a576040517f08c379a0000000000000000000000000000000000000000000000000000000008152600401611531906120e5565b60405180910390fd5b61154e6788579cd8658c869e60c01b611664565b61156267a2f1be6205ccf07560c01b611664565b611576678b988d62de61fc9560c01b611664565b61158a67c30c1269c5a3cb4560c01b611664565b61159e67ec4fe1edd397805160c01b611664565b6000600160008373ffffffffffffffffffffffffffffffffffffffff1673ffffffffffffffffffffffffffffffffffffffff16815260200190815260200160002060006101000a81548160ff02191690831515021790555061160a67b343693bc5db7d4e60c01b611664565b61161e6705b3c4ae8cc402ad60c01b611664565b8073ffffffffffffffffffffffffffffffffffffffff167f33eb6310a00162d25f84366e7eb4ed91841604c766707cad80b3b7ec54b1120f60405160405180910390a250565b50565b61167b6711fb259b4ddc768360c01b611664565b61168f671fb0973bfdb9adff60c01b611664565b6116a367c6864a8b681617bb60c01b611664565b6116b767d4f9c36ae0fad77260c01b611664565b600073ffffffffffffffffffffffffffffffffffffffff168373ffffffffffffffffffffffffffffffffffffffff1603611726576040517f08c379a000000000000000000000000000000000000000000000000000000000815260040161171d90612835565b60405180910390fd5b61173a670fcb6e2f60263b3560c01b611664565b61174e67c36b3af17401775760c01b611664565b806002600084815260200190815260200160002060008573ffffffffffffffffffffffffffffffffffffffff1673ffffffffffffffffffffffffffffffffffffffff16815260200190815260200160002060008282546117ae9190612642565b925050819055506117c967500cb61633b858b460c01b611664565b6117dd679f3d737cc58e81c660c01b611664565b8273ffffffffffffffffffffffffffffffffffffffff16600073ffffffffffffffffffffffffffffffffffffffff163373ffffffffffffffffffffffffffffffffffffffff167fc3d58168c5ae7397731d063d5bbf3d657854427343f4c083240f7aacaa2d0f628585604051611854929190612676565b60405180910390a4505050565b600060019050919050565b6000604051905090565b600080fd5b600080fd5b600073ffffffffffffffffffffffffffffffffffffffff82169050919050565b60006118ab82611880565b9050919050565b6118bb816118a0565b81146118c657600080fd5b50565b6000813590506118d8816118b2565b92915050565b6000819050919050565b6118f1816118de565b81146118fc57600080fd5b50565b60008135905061190e816118e8565b92915050565b6000806040838503121561192b5761192a611876565b5b6000611939858286016118c9565b925050602061194a858286016118ff565b9150509250929050565b61195d816118de565b82525050565b60006020820190506119786000830184611954565b92915050565b60006020828403121561199457611993611876565b5b60006119a2848285016118c9565b91505092915050565b60008115159050919050565b6119c0816119ab565b82525050565b60006020820190506119db60008301846119b7565b92915050565b600080604083850312156119f8576119f7611876565b5b6000611a06858286016118ff565b9250506020611a17858286016118ff565b9150509250929050565b600060208284031215611a3757611a36611876565b5b6000611a45848285016118ff565b91505092915050565b600081519050919050565b600082825260208201905092915050565b60005b83811015611a88578082015181840152602081019050611a6d565b60008484015250505050565b6000601f19601f8301169050919050565b6000611ab082611a4e565b611aba8185611a59565b9350611aca818560208601611a6a565b611ad381611a94565b840191505092915050565b6000819050919050565b611af181611ade565b82525050565b600060a0820190508181036000830152611b118188611aa5565b9050611b206020830187611954565b611b2d6040830186611954565b8181036060830152611b3f8185611aa5565b9050611b4e6080830184611ae8565b9695505050505050565b611b61816118a0565b82525050565b6000602082019050611b7c6000830184611b58565b92915050565b611b8b816119ab565b8114611b9657600080fd5b50565b600081359050611ba881611b82565b92915050565b60008060408385031215611bc557611bc4611876565b5b6000611bd3858286016118c9565b9250506020611be485828601611b99565b9150509250929050565b600080fd5b600080fd5b7f4e487b7100000000000000000000000000000000000000000000000000000000600052604160045260246000fd5b611c3082611a94565b810181811067ffffffffffffffff82111715611c4f57611c4e611bf8565b5b80604052505050565b6000611c6261186c565b9050611c6e8282611c27565b919050565b600067ffffffffffffffff821115611c8e57611c8d611bf8565b5b611c9782611a94565b9050602081019050919050565b82818337600083830152505050565b6000611cc6611cc184611c73565b611c58565b905082815260208101848484011115611ce257611ce1611bf3565b5b611ced848285611ca4565b509392505050565b600082601f830112611d0a57611d09611bee565b5b8135611d1a848260208601611cb3565b91505092915050565b611d2c81611ade565b8114611d3757600080fd5b50565b600081359050611d4981611d23565b92915050565b600080600080600060a08688031215611d6b57611d6a611876565b5b6000611d79888289016118c9565b955050602086013567ffffffffffffffff811115611d9a57611d9961187b565b5b611da688828901611cf5565b9450506040611db7888289016118ff565b935050606086013567ffffffffffffffff811115611dd857611dd761187b565b5b611de488828901611cf5565b9250506080611df588828901611d3a565b9150509295509295909350565b60008060408385031215611e1957611e18611876565b5b6000611e27858286016118c9565b9250506020611e38858286016118c9565b9150509250929050565b600067ffffffffffffffff821115611e5d57611e5c611bf8565b5b611e6682611a94565b9050602081019050919050565b6000611e86611e8184611e42565b611c58565b905082815260208101848484011115611ea257611ea1611bf3565b5b611ead848285611ca4565b509392505050565b600082601f830112611eca57611ec9611bee565b5b8135611eda848260208601611e73565b91505092915050565b600080600080600060a08688031215611eff57611efe611876565b5b6000611f0d888289016118c9565b9550506020611f1e888289016118c9565b9450506040611f2f888289016118ff565b9350506060611f40888289016118ff565b925050608086013567ffffffffffffffff811115611f6157611f6061187b565b5b611f6d88828901611eb5565b9150509295509295909350565b600080600060608486031215611f9357611f92611876565b5b6000611fa1868287016118c9565b9350506020611fb2868287016118ff565b9250506040611fc3868287016118ff565b9150509250925092565b7f455243313135353a20646972656363696f6e20696e76616c6964610000000000600082015250565b6000612003601b83611a59565b915061200e82611fcd565b602082019050919050565b6000602082019050818103600083015261203281611ff6565b9050919050565b7f4e487b7100000000000000000000000000000000000000000000000000000000600052602260045260246000fd5b6000600282049050600182168061208057607f821691505b60208210810361209357612092612039565b5b50919050565b7f43616c6c6572206973206e6f7420746865206f776e6572000000000000000000600082015250565b60006120cf601783611a59565b91506120da82612099565b602082019050919050565b600060208201905081810360008301526120fe816120c2565b9050919050565b7f43616c6c6572206973206e6f7420612063657274696669657200000000000000600082015250565b600061213b601983611a59565b915061214682612105565b602082019050919050565b6000602082019050818103600083015261216a8161212e565b9050919050565b7f4e487b7100000000000000000000000000000000000000000000000000000000600052601160045260246000fd5b60006121ab826118de565b91507fffffffffffffffffffffffffffffffffffffffffffffffffffffffffffffffff82036121dd576121dc612171565b5b600182019050919050565b60008190508160005260206000209050919050565b60006020601f8301049050919050565b600082821b905092915050565b60006008830261224a7fffffffffffffffffffffffffffffffffffffffffffffffffffffffffffffffff8261220d565b612254868361220d565b95508019841693508086168417925050509392505050565b6000819050919050565b600061229161228c612287846118de565b61226c565b6118de565b9050919050565b6000819050919050565b6122ab83612276565b6122bf6122b782612298565b84845461221a565b825550505050565b600090565b6122d46122c7565b6122df8184846122a2565b505050565b5b81811015612303576122f86000826122cc565b6001810190506122e5565b5050565b601f82111561234857612319816121e8565b612322846121fd565b81016020851015612331578190505b61234561233d856121fd565b8301826122e4565b50505b505050565b600082821c905092915050565b600061236b6000198460080261234d565b1980831691505092915050565b6000612384838361235a565b9150826002028217905092915050565b61239d82611a4e565b67ffffffffffffffff8111156123b6576123b5611bf8565b5b6123c08254612068565b6123cb828285612307565b600060209050601f8311600181146123fe57600084156123ec578287015190505b6123f68582612378565b86555061245e565b601f19841661240c866121e8565b60005b828110156124345784890151825560018201915060208501945060208101905061240f565b86831015612451578489015161244d601f89168261235a565b8355505b6001600288020188555050505b505050505050565b600060608201905081810360008301526124808186611aa5565b905061248f6020830185611954565b61249c6040830184611ae8565b949350505050565b7f455243313135353a206e6f206175746f72697a61646f00000000000000000000600082015250565b60006124da601683611a59565b91506124e5826124a4565b602082019050919050565b60006020820190508181036000830152612509816124cd565b9050919050565b7f455243313135353a206e6f207365207075656465207472616e7366657269722060008201527f61206c6120646972656363696f6e206365726f00000000000000000000000000602082015250565b600061256c603383611a59565b915061257782612510565b604082019050919050565b6000602082019050818103600083015261259b8161255f565b9050919050565b7f455243313135353a2062616c616e636520696e737566696369656e7465000000600082015250565b60006125d8601d83611a59565b91506125e3826125a2565b602082019050919050565b60006020820190508181036000830152612607816125cb565b9050919050565b6000612619826118de565b9150612624836118de565b925082820390508181111561263c5761263b612171565b5b92915050565b600061264d826118de565b9150612658836118de565b92508282019050808211156126705761266f612171565b5b92915050565b600060408201905061268b6000830185611954565b6126986020830184611954565b9392505050565b7f455243313135353a20736f6c6f20656c2070726f706965746172696f2070756560008201527f6465207175656d61722073757320746f6b656e73000000000000000000000000602082015250565b60006126fb603483611a59565b91506127068261269f565b604082019050919050565b6000602082019050818103600083015261272a816126ee565b9050919050565b7f455243313135353a2062616c616e636520696e737566696369656e746520706160008201527f7261207175656d61720000000000000000000000000000000000000000000000602082015250565b600061278d602983611a59565b915061279882612731565b604082019050919050565b600060208201905081810360008301526127bc81612780565b9050919050565b7f455243313135353a206e6f207365207075656465206163756e61722061206c6160008201527f20646972656363696f6e206365726f0000000000000000000000000000000000602082015250565b600061281f602f83611a59565b915061282a826127c3565b604082019050919050565b6000602082019050818103600083015261284e81612812565b905091905056fea26469706673582212205cc0c1e5655c4435234a19c7566d8f490029f0ca0cc677acfc43a0b64d5d511464736f6c634300081c0033",
  "linkReferences": {},
  "deployedLinkReferences": {}
}